{
	"truffle/contracts/Dhakon.v0.2.sol": {
		"Dhakon": {
			"abi": [
				{
					"inputs": [
						{
							"internalType": "address",
							"name": "_VRFCoordinator",
							"type": "address"
						},
						{
							"internalType": "address",
							"name": "_LINKToken",
							"type": "address"
						},
						{
							"internalType": "bytes32",
							"name": "_keyHash",
							"type": "bytes32"
						},
						{
							"internalType": "uint256",
							"name": "_fee",
							"type": "uint256"
						}
					],
					"stateMutability": "nonpayable",
					"type": "constructor"
				},
				{
					"inputs": [],
					"name": "enter",
					"outputs": [],
					"stateMutability": "payable",
					"type": "function"
				},
				{
					"inputs": [],
					"name": "getBalance",
					"outputs": [
						{
							"internalType": "uint256",
							"name": "",
							"type": "uint256"
						}
					],
					"stateMutability": "view",
					"type": "function"
				},
				{
					"inputs": [],
					"name": "getPlayers",
					"outputs": [
						{
							"internalType": "address[]",
							"name": "",
							"type": "address[]"
						}
					],
					"stateMutability": "view",
					"type": "function"
				},
				{
					"inputs": [
						{
							"internalType": "uint256",
							"name": "round",
							"type": "uint256"
						}
					],
					"name": "getWinnerByRound",
					"outputs": [
						{
							"internalType": "uint256",
							"name": "",
							"type": "uint256"
						}
					],
					"stateMutability": "view",
					"type": "function"
				},
				{
					"inputs": [],
					"name": "isPickingWinner",
					"outputs": [
						{
							"internalType": "bool",
							"name": "",
							"type": "bool"
						}
					],
					"stateMutability": "view",
					"type": "function"
				},
				{
					"inputs": [],
					"name": "owner",
					"outputs": [
						{
							"internalType": "address",
							"name": "",
							"type": "address"
						}
					],
					"stateMutability": "view",
					"type": "function"
				},
				{
					"inputs": [],
					"name": "pickWinner",
					"outputs": [],
					"stateMutability": "nonpayable",
					"type": "function"
				},
				{
					"inputs": [
						{
							"internalType": "uint256",
							"name": "",
							"type": "uint256"
						}
					],
					"name": "playerTickets",
					"outputs": [
						{
							"internalType": "address payable",
							"name": "",
							"type": "address"
						}
					],
					"stateMutability": "view",
					"type": "function"
				},
				{
					"inputs": [
						{
							"internalType": "uint256",
							"name": "",
							"type": "uint256"
						}
					],
					"name": "players",
					"outputs": [
						{
							"internalType": "address",
							"name": "",
							"type": "address"
						}
					],
					"stateMutability": "view",
					"type": "function"
				},
				{
					"inputs": [
						{
							"internalType": "bytes32",
							"name": "requestId",
							"type": "bytes32"
						},
						{
							"internalType": "uint256",
							"name": "randomness",
							"type": "uint256"
						}
					],
					"name": "rawFulfillRandomness",
					"outputs": [],
					"stateMutability": "nonpayable",
					"type": "function"
				},
				{
					"inputs": [
						{
							"internalType": "bool",
							"name": "_val",
							"type": "bool"
						}
					],
					"name": "setIsPickingWinner",
					"outputs": [],
					"stateMutability": "nonpayable",
					"type": "function"
				},
				{
					"inputs": [
						{
							"internalType": "uint256",
							"name": "",
							"type": "uint256"
						}
					],
					"name": "tickets",
					"outputs": [
						{
							"internalType": "uint256",
							"name": "",
							"type": "uint256"
						}
					],
					"stateMutability": "view",
					"type": "function"
				},
				{
					"inputs": [
						{
							"internalType": "uint256",
							"name": "",
							"type": "uint256"
						}
					],
					"name": "winningTickets",
					"outputs": [
						{
							"internalType": "uint256",
							"name": "",
							"type": "uint256"
						}
					],
					"stateMutability": "view",
					"type": "function"
				}
			],
			"devdoc": {
				"kind": "dev",
				"methods": {},
				"version": 1
			},
			"evm": {
				"assembly": "    /* \"truffle/contracts/Dhakon.v0.2.sol\":128:3650  contract Dhakon is VRFConsumerBase {... */\n  mstore(0x40, 0xc0)\n    /* \"truffle/contracts/Dhakon.v0.2.sol\":558:1122  constructor(... */\n  callvalue\n  dup1\n  iszero\n  tag_1\n  jumpi\n  0x00\n  dup1\n  revert\ntag_1:\n  pop\n  mload(0x40)\n  sub(codesize, bytecodeSize)\n  dup1\n  bytecodeSize\n  dup4\n  codecopy\n  dup2\n  dup2\n  add\n  0x40\n  mstore\n  dup2\n  add\n  swap1\n  tag_2\n  swap2\n  swap1\n  tag_3\n  jump\t// in\ntag_2:\n    /* \"truffle/contracts/Dhakon.v0.2.sol\":716:731  _VRFCoordinator */\n  dup4\n    /* \"truffle/contracts/Dhakon.v0.2.sol\":814:824  _LINKToken */\n  dup4\n    /* \"@chainlink/contracts/src/v0.8/VRFConsumerBase.sol\":9323:9338  _vrfCoordinator */\n  dup2\n    /* \"@chainlink/contracts/src/v0.8/VRFConsumerBase.sol\":9306:9338  vrfCoordinator = _vrfCoordinator */\n  0xffffffffffffffffffffffffffffffffffffffff\n  and\n  0xa0\n  dup2\n  0xffffffffffffffffffffffffffffffffffffffff\n  and\n  dup2\n  mstore\n  pop\n  pop\n    /* \"@chainlink/contracts/src/v0.8/VRFConsumerBase.sol\":9370:9375  _link */\n  dup1\n    /* \"@chainlink/contracts/src/v0.8/VRFConsumerBase.sol\":9344:9376  LINK = LinkTokenInterface(_link) */\n  0xffffffffffffffffffffffffffffffffffffffff\n  and\n  0x80\n  dup2\n  0xffffffffffffffffffffffffffffffffffffffff\n  and\n  dup2\n  mstore\n  pop\n  pop\n    /* \"@chainlink/contracts/src/v0.8/VRFConsumerBase.sol\":9248:9381  constructor(address _vrfCoordinator, address _link) {... */\n  pop\n  pop\n    /* \"truffle/contracts/Dhakon.v0.2.sol\":937:945  _keyHash */\n  dup2\n    /* \"truffle/contracts/Dhakon.v0.2.sol\":927:934  keyHash */\n  0x08\n    /* \"truffle/contracts/Dhakon.v0.2.sol\":927:945  keyHash = _keyHash */\n  dup2\n  swap1\n  sstore\n  pop\n    /* \"truffle/contracts/Dhakon.v0.2.sol\":1039:1043  _fee */\n  dup1\n    /* \"truffle/contracts/Dhakon.v0.2.sol\":1033:1036  fee */\n  0x09\n    /* \"truffle/contracts/Dhakon.v0.2.sol\":1033:1043  fee = _fee */\n  dup2\n  swap1\n  sstore\n  pop\n    /* \"truffle/contracts/Dhakon.v0.2.sol\":1101:1111  msg.sender */\n  caller\n    /* \"truffle/contracts/Dhakon.v0.2.sol\":1093:1098  owner */\n  0x01\n  0x00\n    /* \"truffle/contracts/Dhakon.v0.2.sol\":1093:1111  owner = msg.sender */\n  0x0100\n  exp\n  dup2\n  sload\n  dup2\n  0xffffffffffffffffffffffffffffffffffffffff\n  mul\n  not\n  and\n  swap1\n  dup4\n  0xffffffffffffffffffffffffffffffffffffffff\n  and\n  mul\n  or\n  swap1\n  sstore\n  pop\n    /* \"truffle/contracts/Dhakon.v0.2.sol\":558:1122  constructor(... */\n  pop\n  pop\n  pop\n  pop\n    /* \"truffle/contracts/Dhakon.v0.2.sol\":128:3650  contract Dhakon is VRFConsumerBase {... */\n  jump(tag_8)\n    /* \"#utility.yul\":88:205   */\ntag_10:\n    /* \"#utility.yul\":197:198   */\n  0x00\n    /* \"#utility.yul\":194:195   */\n  dup1\n    /* \"#utility.yul\":187:199   */\n  revert\n    /* \"#utility.yul\":334:460   */\ntag_12:\n    /* \"#utility.yul\":371:378   */\n  0x00\n    /* \"#utility.yul\":411:453   */\n  0xffffffffffffffffffffffffffffffffffffffff\n    /* \"#utility.yul\":404:409   */\n  dup3\n    /* \"#utility.yul\":400:454   */\n  and\n    /* \"#utility.yul\":389:454   */\n  swap1\n  pop\n    /* \"#utility.yul\":334:460   */\n  swap2\n  swap1\n  pop\n  jump\t// out\n    /* \"#utility.yul\":466:562   */\ntag_13:\n    /* \"#utility.yul\":503:510   */\n  0x00\n    /* \"#utility.yul\":532:556   */\n  tag_28\n    /* \"#utility.yul\":550:555   */\n  dup3\n    /* \"#utility.yul\":532:556   */\n  tag_12\n  jump\t// in\ntag_28:\n    /* \"#utility.yul\":521:556   */\n  swap1\n  pop\n    /* \"#utility.yul\":466:562   */\n  swap2\n  swap1\n  pop\n  jump\t// out\n    /* \"#utility.yul\":568:690   */\ntag_14:\n    /* \"#utility.yul\":641:665   */\n  tag_30\n    /* \"#utility.yul\":659:664   */\n  dup2\n    /* \"#utility.yul\":641:665   */\n  tag_13\n  jump\t// in\ntag_30:\n    /* \"#utility.yul\":634:639   */\n  dup2\n    /* \"#utility.yul\":631:666   */\n  eq\n    /* \"#utility.yul\":621:684   */\n  tag_31\n  jumpi\n    /* \"#utility.yul\":680:681   */\n  0x00\n    /* \"#utility.yul\":677:678   */\n  dup1\n    /* \"#utility.yul\":670:682   */\n  revert\n    /* \"#utility.yul\":621:684   */\ntag_31:\n    /* \"#utility.yul\":568:690   */\n  pop\n  jump\t// out\n    /* \"#utility.yul\":696:839   */\ntag_15:\n    /* \"#utility.yul\":753:758   */\n  0x00\n    /* \"#utility.yul\":784:790   */\n  dup2\n    /* \"#utility.yul\":778:791   */\n  mload\n    /* \"#utility.yul\":769:791   */\n  swap1\n  pop\n    /* \"#utility.yul\":800:833   */\n  tag_33\n    /* \"#utility.yul\":827:832   */\n  dup2\n    /* \"#utility.yul\":800:833   */\n  tag_14\n  jump\t// in\ntag_33:\n    /* \"#utility.yul\":696:839   */\n  swap3\n  swap2\n  pop\n  pop\n  jump\t// out\n    /* \"#utility.yul\":845:922   */\ntag_16:\n    /* \"#utility.yul\":882:889   */\n  0x00\n    /* \"#utility.yul\":911:916   */\n  dup2\n    /* \"#utility.yul\":900:916   */\n  swap1\n  pop\n    /* \"#utility.yul\":845:922   */\n  swap2\n  swap1\n  pop\n  jump\t// out\n    /* \"#utility.yul\":928:1050   */\ntag_17:\n    /* \"#utility.yul\":1001:1025   */\n  tag_36\n    /* \"#utility.yul\":1019:1024   */\n  dup2\n    /* \"#utility.yul\":1001:1025   */\n  tag_16\n  jump\t// in\ntag_36:\n    /* \"#utility.yul\":994:999   */\n  dup2\n    /* \"#utility.yul\":991:1026   */\n  eq\n    /* \"#utility.yul\":981:1044   */\n  tag_37\n  jumpi\n    /* \"#utility.yul\":1040:1041   */\n  0x00\n    /* \"#utility.yul\":1037:1038   */\n  dup1\n    /* \"#utility.yul\":1030:1042   */\n  revert\n    /* \"#utility.yul\":981:1044   */\ntag_37:\n    /* \"#utility.yul\":928:1050   */\n  pop\n  jump\t// out\n    /* \"#utility.yul\":1056:1199   */\ntag_18:\n    /* \"#utility.yul\":1113:1118   */\n  0x00\n    /* \"#utility.yul\":1144:1150   */\n  dup2\n    /* \"#utility.yul\":1138:1151   */\n  mload\n    /* \"#utility.yul\":1129:1151   */\n  swap1\n  pop\n    /* \"#utility.yul\":1160:1193   */\n  tag_39\n    /* \"#utility.yul\":1187:1192   */\n  dup2\n    /* \"#utility.yul\":1160:1193   */\n  tag_17\n  jump\t// in\ntag_39:\n    /* \"#utility.yul\":1056:1199   */\n  swap3\n  swap2\n  pop\n  pop\n  jump\t// out\n    /* \"#utility.yul\":1205:1282   */\ntag_19:\n    /* \"#utility.yul\":1242:1249   */\n  0x00\n    /* \"#utility.yul\":1271:1276   */\n  dup2\n    /* \"#utility.yul\":1260:1276   */\n  swap1\n  pop\n    /* \"#utility.yul\":1205:1282   */\n  swap2\n  swap1\n  pop\n  jump\t// out\n    /* \"#utility.yul\":1288:1410   */\ntag_20:\n    /* \"#utility.yul\":1361:1385   */\n  tag_42\n    /* \"#utility.yul\":1379:1384   */\n  dup2\n    /* \"#utility.yul\":1361:1385   */\n  tag_19\n  jump\t// in\ntag_42:\n    /* \"#utility.yul\":1354:1359   */\n  dup2\n    /* \"#utility.yul\":1351:1386   */\n  eq\n    /* \"#utility.yul\":1341:1404   */\n  tag_43\n  jumpi\n    /* \"#utility.yul\":1400:1401   */\n  0x00\n    /* \"#utility.yul\":1397:1398   */\n  dup1\n    /* \"#utility.yul\":1390:1402   */\n  revert\n    /* \"#utility.yul\":1341:1404   */\ntag_43:\n    /* \"#utility.yul\":1288:1410   */\n  pop\n  jump\t// out\n    /* \"#utility.yul\":1416:1559   */\ntag_21:\n    /* \"#utility.yul\":1473:1478   */\n  0x00\n    /* \"#utility.yul\":1504:1510   */\n  dup2\n    /* \"#utility.yul\":1498:1511   */\n  mload\n    /* \"#utility.yul\":1489:1511   */\n  swap1\n  pop\n    /* \"#utility.yul\":1520:1553   */\n  tag_45\n    /* \"#utility.yul\":1547:1552   */\n  dup2\n    /* \"#utility.yul\":1520:1553   */\n  tag_20\n  jump\t// in\ntag_45:\n    /* \"#utility.yul\":1416:1559   */\n  swap3\n  swap2\n  pop\n  pop\n  jump\t// out\n    /* \"#utility.yul\":1565:2385   */\ntag_3:\n    /* \"#utility.yul\":1662:1668   */\n  0x00\n    /* \"#utility.yul\":1670:1676   */\n  dup1\n    /* \"#utility.yul\":1678:1684   */\n  0x00\n    /* \"#utility.yul\":1686:1692   */\n  dup1\n    /* \"#utility.yul\":1735:1738   */\n  0x80\n    /* \"#utility.yul\":1723:1732   */\n  dup6\n    /* \"#utility.yul\":1714:1721   */\n  dup8\n    /* \"#utility.yul\":1710:1733   */\n  sub\n    /* \"#utility.yul\":1706:1739   */\n  slt\n    /* \"#utility.yul\":1703:1823   */\n  iszero\n  tag_47\n  jumpi\n    /* \"#utility.yul\":1742:1821   */\n  tag_48\n  tag_10\n  jump\t// in\ntag_48:\n    /* \"#utility.yul\":1703:1823   */\ntag_47:\n    /* \"#utility.yul\":1862:1863   */\n  0x00\n    /* \"#utility.yul\":1887:1951   */\n  tag_49\n    /* \"#utility.yul\":1943:1950   */\n  dup8\n    /* \"#utility.yul\":1934:1940   */\n  dup3\n    /* \"#utility.yul\":1923:1932   */\n  dup9\n    /* \"#utility.yul\":1919:1941   */\n  add\n    /* \"#utility.yul\":1887:1951   */\n  tag_15\n  jump\t// in\ntag_49:\n    /* \"#utility.yul\":1877:1951   */\n  swap5\n  pop\n    /* \"#utility.yul\":1833:1961   */\n  pop\n    /* \"#utility.yul\":2000:2002   */\n  0x20\n    /* \"#utility.yul\":2026:2090   */\n  tag_50\n    /* \"#utility.yul\":2082:2089   */\n  dup8\n    /* \"#utility.yul\":2073:2079   */\n  dup3\n    /* \"#utility.yul\":2062:2071   */\n  dup9\n    /* \"#utility.yul\":2058:2080   */\n  add\n    /* \"#utility.yul\":2026:2090   */\n  tag_15\n  jump\t// in\ntag_50:\n    /* \"#utility.yul\":2016:2090   */\n  swap4\n  pop\n    /* \"#utility.yul\":1971:2100   */\n  pop\n    /* \"#utility.yul\":2139:2141   */\n  0x40\n    /* \"#utility.yul\":2165:2229   */\n  tag_51\n    /* \"#utility.yul\":2221:2228   */\n  dup8\n    /* \"#utility.yul\":2212:2218   */\n  dup3\n    /* \"#utility.yul\":2201:2210   */\n  dup9\n    /* \"#utility.yul\":2197:2219   */\n  add\n    /* \"#utility.yul\":2165:2229   */\n  tag_18\n  jump\t// in\ntag_51:\n    /* \"#utility.yul\":2155:2229   */\n  swap3\n  pop\n    /* \"#utility.yul\":2110:2239   */\n  pop\n    /* \"#utility.yul\":2278:2280   */\n  0x60\n    /* \"#utility.yul\":2304:2368   */\n  tag_52\n    /* \"#utility.yul\":2360:2367   */\n  dup8\n    /* \"#utility.yul\":2351:2357   */\n  dup3\n    /* \"#utility.yul\":2340:2349   */\n  dup9\n    /* \"#utility.yul\":2336:2358   */\n  add\n    /* \"#utility.yul\":2304:2368   */\n  tag_21\n  jump\t// in\ntag_52:\n    /* \"#utility.yul\":2294:2368   */\n  swap2\n  pop\n    /* \"#utility.yul\":2249:2378   */\n  pop\n    /* \"#utility.yul\":1565:2385   */\n  swap3\n  swap6\n  swap2\n  swap5\n  pop\n  swap3\n  pop\n  jump\t// out\n    /* \"truffle/contracts/Dhakon.v0.2.sol\":128:3650  contract Dhakon is VRFConsumerBase {... */\ntag_8:\n  mload(0x80)\n  mload(0xa0)\n  codecopy(0x00, dataOffset(sub_0), dataSize(sub_0))\n  0x00\n  assignImmutable(\"0x6dbb33232cde86c8a04f90a8bed9fc1c5ef520188a14538d96eb100d69bc2a94\")\n  0x00\n  assignImmutable(\"0xb2219b801710730437d0358146c829b62297a059eceaa0b40b27aea2daecf595\")\n  return(0x00, dataSize(sub_0))\nstop\n\nsub_0: assembly {\n        /* \"truffle/contracts/Dhakon.v0.2.sol\":128:3650  contract Dhakon is VRFConsumerBase {... */\n      mstore(0x40, 0x80)\n      jumpi(tag_1, lt(calldatasize, 0x04))\n      shr(0xe0, calldataload(0x00))\n      dup1\n      0x94985ddd\n      gt\n      tag_15\n      jumpi\n      dup1\n      0xd5b2d954\n      gt\n      tag_16\n      jumpi\n      dup1\n      0xd5b2d954\n      eq\n      tag_11\n      jumpi\n      dup1\n      0xe97dcb62\n      eq\n      tag_12\n      jumpi\n      dup1\n      0xed6c7931\n      eq\n      tag_13\n      jumpi\n      dup1\n      0xf71d96cb\n      eq\n      tag_14\n      jumpi\n      jump(tag_1)\n    tag_16:\n      dup1\n      0x94985ddd\n      eq\n      tag_8\n      jumpi\n      dup1\n      0xa231b484\n      eq\n      tag_9\n      jumpi\n      dup1\n      0xc688d10a\n      eq\n      tag_10\n      jumpi\n      jump(tag_1)\n    tag_15:\n      dup1\n      0x12065fe0\n      eq\n      tag_2\n      jumpi\n      dup1\n      0x50b44712\n      eq\n      tag_3\n      jumpi\n      dup1\n      0x5d495aea\n      eq\n      tag_4\n      jumpi\n      dup1\n      0x82b0db4f\n      eq\n      tag_5\n      jumpi\n      dup1\n      0x8b5b9ccc\n      eq\n      tag_6\n      jumpi\n      dup1\n      0x8da5cb5b\n      eq\n      tag_7\n      jumpi\n    tag_1:\n      0x00\n      dup1\n      revert\n        /* \"truffle/contracts/Dhakon.v0.2.sol\":1877:1971  function getBalance() public view returns (uint) {... */\n    tag_2:\n      callvalue\n      dup1\n      iszero\n      tag_17\n      jumpi\n      0x00\n      dup1\n      revert\n    tag_17:\n      pop\n      tag_18\n      tag_19\n      jump\t// in\n    tag_18:\n      mload(0x40)\n      tag_20\n      swap2\n      swap1\n      tag_21\n      jump\t// in\n    tag_20:\n      mload(0x40)\n      dup1\n      swap2\n      sub\n      swap1\n      return\n        /* \"truffle/contracts/Dhakon.v0.2.sol\":270:291  uint[] public tickets */\n    tag_3:\n      callvalue\n      dup1\n      iszero\n      tag_22\n      jumpi\n      0x00\n      dup1\n      revert\n    tag_22:\n      pop\n      tag_23\n      0x04\n      dup1\n      calldatasize\n      sub\n      dup2\n      add\n      swap1\n      tag_24\n      swap2\n      swap1\n      tag_25\n      jump\t// in\n    tag_24:\n      tag_26\n      jump\t// in\n    tag_23:\n      mload(0x40)\n      tag_27\n      swap2\n      swap1\n      tag_21\n      jump\t// in\n    tag_27:\n      mload(0x40)\n      dup1\n      swap2\n      sub\n      swap1\n      return\n        /* \"truffle/contracts/Dhakon.v0.2.sol\":2638:2778  function pickWinner() public onlyowner {... */\n    tag_4:\n      callvalue\n      dup1\n      iszero\n      tag_28\n      jumpi\n      0x00\n      dup1\n      revert\n    tag_28:\n      pop\n      tag_29\n      tag_30\n      jump\t// in\n    tag_29:\n      stop\n        /* \"truffle/contracts/Dhakon.v0.2.sol\":1684:1871  function getWinnerByRound(uint round) public view returns (uint) {... */\n    tag_5:\n      callvalue\n      dup1\n      iszero\n      tag_31\n      jumpi\n      0x00\n      dup1\n      revert\n    tag_31:\n      pop\n      tag_32\n      0x04\n      dup1\n      calldatasize\n      sub\n      dup2\n      add\n      swap1\n      tag_33\n      swap2\n      swap1\n      tag_25\n      jump\t// in\n    tag_33:\n      tag_34\n      jump\t// in\n    tag_32:\n      mload(0x40)\n      tag_35\n      swap2\n      swap1\n      tag_21\n      jump\t// in\n    tag_35:\n      mload(0x40)\n      dup1\n      swap2\n      sub\n      swap1\n      return\n        /* \"truffle/contracts/Dhakon.v0.2.sol\":1977:2069  function getPlayers() public view returns (address[] memory) {... */\n    tag_6:\n      callvalue\n      dup1\n      iszero\n      tag_36\n      jumpi\n      0x00\n      dup1\n      revert\n    tag_36:\n      pop\n      tag_37\n      tag_38\n      jump\t// in\n    tag_37:\n      mload(0x40)\n      tag_39\n      swap2\n      swap1\n      tag_40\n      jump\t// in\n    tag_39:\n      mload(0x40)\n      dup1\n      swap2\n      sub\n      swap1\n      return\n        /* \"truffle/contracts/Dhakon.v0.2.sol\":169:189  address public owner */\n    tag_7:\n      callvalue\n      dup1\n      iszero\n      tag_41\n      jumpi\n      0x00\n      dup1\n      revert\n    tag_41:\n      pop\n      tag_42\n      tag_43\n      jump\t// in\n    tag_42:\n      mload(0x40)\n      tag_44\n      swap2\n      swap1\n      tag_45\n      jump\t// in\n    tag_44:\n      mload(0x40)\n      dup1\n      swap2\n      sub\n      swap1\n      return\n        /* \"@chainlink/contracts/src/v0.8/VRFConsumerBase.sol\":9576:9783  function rawFulfillRandomness(bytes32 requestId, uint256 randomness) external {... */\n    tag_8:\n      callvalue\n      dup1\n      iszero\n      tag_46\n      jumpi\n      0x00\n      dup1\n      revert\n    tag_46:\n      pop\n      tag_47\n      0x04\n      dup1\n      calldatasize\n      sub\n      dup2\n      add\n      swap1\n      tag_48\n      swap2\n      swap1\n      tag_49\n      jump\t// in\n    tag_48:\n      tag_50\n      jump\t// in\n    tag_47:\n      stop\n        /* \"truffle/contracts/Dhakon.v0.2.sol\":297:350  mapping(uint => address payable) public playerTickets */\n    tag_9:\n      callvalue\n      dup1\n      iszero\n      tag_51\n      jumpi\n      0x00\n      dup1\n      revert\n    tag_51:\n      pop\n      tag_52\n      0x04\n      dup1\n      calldatasize\n      sub\n      dup2\n      add\n      swap1\n      tag_53\n      swap2\n      swap1\n      tag_25\n      jump\t// in\n    tag_53:\n      tag_54\n      jump\t// in\n    tag_52:\n      mload(0x40)\n      tag_55\n      swap2\n      swap1\n      tag_56\n      jump\t// in\n    tag_55:\n      mload(0x40)\n      dup1\n      swap2\n      sub\n      swap1\n      return\n        /* \"truffle/contracts/Dhakon.v0.2.sol\":391:418  bool public isPickingWinner */\n    tag_10:\n      callvalue\n      dup1\n      iszero\n      tag_57\n      jumpi\n      0x00\n      dup1\n      revert\n    tag_57:\n      pop\n      tag_58\n      tag_59\n      jump\t// in\n    tag_58:\n      mload(0x40)\n      tag_60\n      swap2\n      swap1\n      tag_61\n      jump\t// in\n    tag_60:\n      mload(0x40)\n      dup1\n      swap2\n      sub\n      swap1\n      return\n        /* \"truffle/contracts/Dhakon.v0.2.sol\":3474:3569  function setIsPickingWinner(bool _val) public onlyowner {... */\n    tag_11:\n      callvalue\n      dup1\n      iszero\n      tag_62\n      jumpi\n      0x00\n      dup1\n      revert\n    tag_62:\n      pop\n      tag_63\n      0x04\n      dup1\n      calldatasize\n      sub\n      dup2\n      add\n      swap1\n      tag_64\n      swap2\n      swap1\n      tag_65\n      jump\t// in\n    tag_64:\n      tag_66\n      jump\t// in\n    tag_63:\n      stop\n        /* \"truffle/contracts/Dhakon.v0.2.sol\":2313:2632  function enter() public payable {... */\n    tag_12:\n      tag_67\n      tag_68\n      jump\t// in\n    tag_67:\n      stop\n        /* \"truffle/contracts/Dhakon.v0.2.sol\":357:385  uint[] public winningTickets */\n    tag_13:\n      callvalue\n      dup1\n      iszero\n      tag_69\n      jumpi\n      0x00\n      dup1\n      revert\n    tag_69:\n      pop\n      tag_70\n      0x04\n      dup1\n      calldatasize\n      sub\n      dup2\n      add\n      swap1\n      tag_71\n      swap2\n      swap1\n      tag_25\n      jump\t// in\n    tag_71:\n      tag_72\n      jump\t// in\n    tag_70:\n      mload(0x40)\n      tag_73\n      swap2\n      swap1\n      tag_21\n      jump\t// in\n    tag_73:\n      mload(0x40)\n      dup1\n      swap2\n      sub\n      swap1\n      return\n        /* \"truffle/contracts/Dhakon.v0.2.sol\":196:220  address[] public players */\n    tag_14:\n      callvalue\n      dup1\n      iszero\n      tag_74\n      jumpi\n      0x00\n      dup1\n      revert\n    tag_74:\n      pop\n      tag_75\n      0x04\n      dup1\n      calldatasize\n      sub\n      dup2\n      add\n      swap1\n      tag_76\n      swap2\n      swap1\n      tag_25\n      jump\t// in\n    tag_76:\n      tag_77\n      jump\t// in\n    tag_75:\n      mload(0x40)\n      tag_78\n      swap2\n      swap1\n      tag_45\n      jump\t// in\n    tag_78:\n      mload(0x40)\n      dup1\n      swap2\n      sub\n      swap1\n      return\n        /* \"truffle/contracts/Dhakon.v0.2.sol\":1877:1971  function getBalance() public view returns (uint) {... */\n    tag_19:\n        /* \"truffle/contracts/Dhakon.v0.2.sol\":1920:1924  uint */\n      0x00\n        /* \"truffle/contracts/Dhakon.v0.2.sol\":1943:1964  address(this).balance */\n      selfbalance\n        /* \"truffle/contracts/Dhakon.v0.2.sol\":1936:1964  return address(this).balance */\n      swap1\n      pop\n        /* \"truffle/contracts/Dhakon.v0.2.sol\":1877:1971  function getBalance() public view returns (uint) {... */\n      swap1\n      jump\t// out\n        /* \"truffle/contracts/Dhakon.v0.2.sol\":270:291  uint[] public tickets */\n    tag_26:\n      0x04\n      dup2\n      dup2\n      sload\n      dup2\n      lt\n      tag_80\n      jumpi\n      0x00\n      dup1\n      revert\n    tag_80:\n      swap1\n      0x00\n      mstore\n      keccak256(0x00, 0x20)\n      add\n      0x00\n      swap2\n      pop\n      swap1\n      pop\n      sload\n      dup2\n      jump\t// out\n        /* \"truffle/contracts/Dhakon.v0.2.sol\":2638:2778  function pickWinner() public onlyowner {... */\n    tag_30:\n        /* \"truffle/contracts/Dhakon.v0.2.sol\":3626:3631  owner */\n      0x01\n      0x00\n      swap1\n      sload\n      swap1\n      0x0100\n      exp\n      swap1\n      div\n      0xffffffffffffffffffffffffffffffffffffffff\n      and\n        /* \"truffle/contracts/Dhakon.v0.2.sol\":3612:3631  msg.sender == owner */\n      0xffffffffffffffffffffffffffffffffffffffff\n      and\n        /* \"truffle/contracts/Dhakon.v0.2.sol\":3612:3622  msg.sender */\n      caller\n        /* \"truffle/contracts/Dhakon.v0.2.sol\":3612:3631  msg.sender == owner */\n      0xffffffffffffffffffffffffffffffffffffffff\n      and\n      eq\n        /* \"truffle/contracts/Dhakon.v0.2.sol\":3604:3632  require(msg.sender == owner) */\n      tag_83\n      jumpi\n      0x00\n      dup1\n      revert\n    tag_83:\n        /* \"truffle/contracts/Dhakon.v0.2.sol\":2696:2711  isPickingWinner */\n      0x07\n      0x00\n      swap1\n      sload\n      swap1\n      0x0100\n      exp\n      swap1\n      div\n      0xff\n      and\n        /* \"truffle/contracts/Dhakon.v0.2.sol\":2695:2711  !isPickingWinner */\n      iszero\n        /* \"truffle/contracts/Dhakon.v0.2.sol\":2687:2712  require(!isPickingWinner) */\n      tag_85\n      jumpi\n      0x00\n      dup1\n      revert\n    tag_85:\n        /* \"truffle/contracts/Dhakon.v0.2.sol\":2740:2744  true */\n      0x01\n        /* \"truffle/contracts/Dhakon.v0.2.sol\":2722:2737  isPickingWinner */\n      0x07\n      0x00\n        /* \"truffle/contracts/Dhakon.v0.2.sol\":2722:2744  isPickingWinner = true */\n      0x0100\n      exp\n      dup2\n      sload\n      dup2\n      0xff\n      mul\n      not\n      and\n      swap1\n      dup4\n      iszero\n      iszero\n      mul\n      or\n      swap1\n      sstore\n      pop\n        /* \"truffle/contracts/Dhakon.v0.2.sol\":2754:2771  getRandomNumber() */\n      tag_86\n        /* \"truffle/contracts/Dhakon.v0.2.sol\":2754:2769  getRandomNumber */\n      tag_87\n        /* \"truffle/contracts/Dhakon.v0.2.sol\":2754:2771  getRandomNumber() */\n      jump\t// in\n    tag_86:\n      pop\n        /* \"truffle/contracts/Dhakon.v0.2.sol\":2638:2778  function pickWinner() public onlyowner {... */\n      jump\t// out\n        /* \"truffle/contracts/Dhakon.v0.2.sol\":1684:1871  function getWinnerByRound(uint round) public view returns (uint) {... */\n    tag_34:\n        /* \"truffle/contracts/Dhakon.v0.2.sol\":1743:1747  uint */\n      0x00\n        /* \"truffle/contracts/Dhakon.v0.2.sol\":1776:1790  winningTickets */\n      0x06\n        /* \"truffle/contracts/Dhakon.v0.2.sol\":1776:1797  winningTickets.length */\n      dup1\n      sload\n      swap1\n      pop\n        /* \"truffle/contracts/Dhakon.v0.2.sol\":1767:1772  round */\n      dup3\n        /* \"truffle/contracts/Dhakon.v0.2.sol\":1767:1797  round <= winningTickets.length */\n      gt\n      iszero\n        /* \"truffle/contracts/Dhakon.v0.2.sol\":1759:1824  require(round <= winningTickets.length, \"There is no such round\") */\n      tag_89\n      jumpi\n      mload(0x40)\n      0x08c379a000000000000000000000000000000000000000000000000000000000\n      dup2\n      mstore\n      0x04\n      add\n      tag_90\n      swap1\n      tag_91\n      jump\t// in\n    tag_90:\n      mload(0x40)\n      dup1\n      swap2\n      sub\n      swap1\n      revert\n    tag_89:\n        /* \"truffle/contracts/Dhakon.v0.2.sol\":1841:1855  winningTickets */\n      0x06\n        /* \"truffle/contracts/Dhakon.v0.2.sol\":1862:1863  1 */\n      0x01\n        /* \"truffle/contracts/Dhakon.v0.2.sol\":1856:1861  round */\n      dup4\n        /* \"truffle/contracts/Dhakon.v0.2.sol\":1856:1863  round-1 */\n      tag_92\n      swap2\n      swap1\n      tag_93\n      jump\t// in\n    tag_92:\n        /* \"truffle/contracts/Dhakon.v0.2.sol\":1841:1864  winningTickets[round-1] */\n      dup2\n      sload\n      dup2\n      lt\n      tag_94\n      jumpi\n      tag_95\n      tag_96\n      jump\t// in\n    tag_95:\n    tag_94:\n      swap1\n      0x00\n      mstore\n      keccak256(0x00, 0x20)\n      add\n      sload\n        /* \"truffle/contracts/Dhakon.v0.2.sol\":1834:1864  return winningTickets[round-1] */\n      swap1\n      pop\n        /* \"truffle/contracts/Dhakon.v0.2.sol\":1684:1871  function getWinnerByRound(uint round) public view returns (uint) {... */\n      swap2\n      swap1\n      pop\n      jump\t// out\n        /* \"truffle/contracts/Dhakon.v0.2.sol\":1977:2069  function getPlayers() public view returns (address[] memory) {... */\n    tag_38:\n        /* \"truffle/contracts/Dhakon.v0.2.sol\":2020:2036  address[] memory */\n      0x60\n        /* \"truffle/contracts/Dhakon.v0.2.sol\":2055:2062  players */\n      0x02\n        /* \"truffle/contracts/Dhakon.v0.2.sol\":2048:2062  return players */\n      dup1\n      sload\n      dup1\n      0x20\n      mul\n      0x20\n      add\n      mload(0x40)\n      swap1\n      dup2\n      add\n      0x40\n      mstore\n      dup1\n      swap3\n      swap2\n      swap1\n      dup2\n      dup2\n      mstore\n      0x20\n      add\n      dup3\n      dup1\n      sload\n      dup1\n      iszero\n      tag_99\n      jumpi\n      0x20\n      mul\n      dup3\n      add\n      swap2\n      swap1\n      0x00\n      mstore\n      keccak256(0x00, 0x20)\n      swap1\n    tag_100:\n      dup2\n      0x00\n      swap1\n      sload\n      swap1\n      0x0100\n      exp\n      swap1\n      div\n      0xffffffffffffffffffffffffffffffffffffffff\n      and\n      0xffffffffffffffffffffffffffffffffffffffff\n      and\n      dup2\n      mstore\n      0x20\n      add\n      swap1\n      0x01\n      add\n      swap1\n      dup1\n      dup4\n      gt\n      tag_100\n      jumpi\n    tag_99:\n      pop\n      pop\n      pop\n      pop\n      pop\n      swap1\n      pop\n        /* \"truffle/contracts/Dhakon.v0.2.sol\":1977:2069  function getPlayers() public view returns (address[] memory) {... */\n      swap1\n      jump\t// out\n        /* \"truffle/contracts/Dhakon.v0.2.sol\":169:189  address public owner */\n    tag_43:\n      0x01\n      0x00\n      swap1\n      sload\n      swap1\n      0x0100\n      exp\n      swap1\n      div\n      0xffffffffffffffffffffffffffffffffffffffff\n      and\n      dup2\n      jump\t// out\n        /* \"@chainlink/contracts/src/v0.8/VRFConsumerBase.sol\":9576:9783  function rawFulfillRandomness(bytes32 requestId, uint256 randomness) external {... */\n    tag_50:\n        /* \"@chainlink/contracts/src/v0.8/VRFConsumerBase.sol\":9682:9696  vrfCoordinator */\n      immutable(\"0x6dbb33232cde86c8a04f90a8bed9fc1c5ef520188a14538d96eb100d69bc2a94\")\n        /* \"@chainlink/contracts/src/v0.8/VRFConsumerBase.sol\":9668:9696  msg.sender == vrfCoordinator */\n      0xffffffffffffffffffffffffffffffffffffffff\n      and\n        /* \"@chainlink/contracts/src/v0.8/VRFConsumerBase.sol\":9668:9678  msg.sender */\n      caller\n        /* \"@chainlink/contracts/src/v0.8/VRFConsumerBase.sol\":9668:9696  msg.sender == vrfCoordinator */\n      0xffffffffffffffffffffffffffffffffffffffff\n      and\n      eq\n        /* \"@chainlink/contracts/src/v0.8/VRFConsumerBase.sol\":9660:9732  require(msg.sender == vrfCoordinator, \"Only VRFCoordinator can fulfill\") */\n      tag_102\n      jumpi\n      mload(0x40)\n      0x08c379a000000000000000000000000000000000000000000000000000000000\n      dup2\n      mstore\n      0x04\n      add\n      tag_103\n      swap1\n      tag_104\n      jump\t// in\n    tag_103:\n      mload(0x40)\n      dup1\n      swap2\n      sub\n      swap1\n      revert\n    tag_102:\n        /* \"@chainlink/contracts/src/v0.8/VRFConsumerBase.sol\":9738:9778  fulfillRandomness(requestId, randomness) */\n      tag_105\n        /* \"@chainlink/contracts/src/v0.8/VRFConsumerBase.sol\":9756:9765  requestId */\n      dup3\n        /* \"@chainlink/contracts/src/v0.8/VRFConsumerBase.sol\":9767:9777  randomness */\n      dup3\n        /* \"@chainlink/contracts/src/v0.8/VRFConsumerBase.sol\":9738:9755  fulfillRandomness */\n      tag_106\n        /* \"@chainlink/contracts/src/v0.8/VRFConsumerBase.sol\":9738:9778  fulfillRandomness(requestId, randomness) */\n      jump\t// in\n    tag_105:\n        /* \"@chainlink/contracts/src/v0.8/VRFConsumerBase.sol\":9576:9783  function rawFulfillRandomness(bytes32 requestId, uint256 randomness) external {... */\n      pop\n      pop\n      jump\t// out\n        /* \"truffle/contracts/Dhakon.v0.2.sol\":297:350  mapping(uint => address payable) public playerTickets */\n    tag_54:\n      mstore(0x20, 0x05)\n      dup1\n      0x00\n      mstore\n      keccak256(0x00, 0x40)\n      0x00\n      swap2\n      pop\n      sload\n      swap1\n      0x0100\n      exp\n      swap1\n      div\n      0xffffffffffffffffffffffffffffffffffffffff\n      and\n      dup2\n      jump\t// out\n        /* \"truffle/contracts/Dhakon.v0.2.sol\":391:418  bool public isPickingWinner */\n    tag_59:\n      0x07\n      0x00\n      swap1\n      sload\n      swap1\n      0x0100\n      exp\n      swap1\n      div\n      0xff\n      and\n      dup2\n      jump\t// out\n        /* \"truffle/contracts/Dhakon.v0.2.sol\":3474:3569  function setIsPickingWinner(bool _val) public onlyowner {... */\n    tag_66:\n        /* \"truffle/contracts/Dhakon.v0.2.sol\":3626:3631  owner */\n      0x01\n      0x00\n      swap1\n      sload\n      swap1\n      0x0100\n      exp\n      swap1\n      div\n      0xffffffffffffffffffffffffffffffffffffffff\n      and\n        /* \"truffle/contracts/Dhakon.v0.2.sol\":3612:3631  msg.sender == owner */\n      0xffffffffffffffffffffffffffffffffffffffff\n      and\n        /* \"truffle/contracts/Dhakon.v0.2.sol\":3612:3622  msg.sender */\n      caller\n        /* \"truffle/contracts/Dhakon.v0.2.sol\":3612:3631  msg.sender == owner */\n      0xffffffffffffffffffffffffffffffffffffffff\n      and\n      eq\n        /* \"truffle/contracts/Dhakon.v0.2.sol\":3604:3632  require(msg.sender == owner) */\n      tag_108\n      jumpi\n      0x00\n      dup1\n      revert\n    tag_108:\n        /* \"truffle/contracts/Dhakon.v0.2.sol\":3558:3562  _val */\n      dup1\n        /* \"truffle/contracts/Dhakon.v0.2.sol\":3540:3555  isPickingWinner */\n      0x07\n      0x00\n        /* \"truffle/contracts/Dhakon.v0.2.sol\":3540:3562  isPickingWinner = _val */\n      0x0100\n      exp\n      dup2\n      sload\n      dup2\n      0xff\n      mul\n      not\n      and\n      swap1\n      dup4\n      iszero\n      iszero\n      mul\n      or\n      swap1\n      sstore\n      pop\n        /* \"truffle/contracts/Dhakon.v0.2.sol\":3474:3569  function setIsPickingWinner(bool _val) public onlyowner {... */\n      pop\n      jump\t// out\n        /* \"truffle/contracts/Dhakon.v0.2.sol\":2313:2632  function enter() public payable {... */\n    tag_68:\n        /* \"truffle/contracts/Dhakon.v0.2.sol\":2375:2384  .01 ether */\n      0x2386f26fc10000\n        /* \"truffle/contracts/Dhakon.v0.2.sol\":2363:2372  msg.value */\n      callvalue\n        /* \"truffle/contracts/Dhakon.v0.2.sol\":2363:2384  msg.value > .01 ether */\n      gt\n        /* \"truffle/contracts/Dhakon.v0.2.sol\":2355:2385  require(msg.value > .01 ether) */\n      tag_111\n      jumpi\n      0x00\n      dup1\n      revert\n    tag_111:\n        /* \"truffle/contracts/Dhakon.v0.2.sol\":2442:2453  uint ticket */\n      0x00\n        /* \"truffle/contracts/Dhakon.v0.2.sol\":2456:2472  generateTicket() */\n      tag_112\n        /* \"truffle/contracts/Dhakon.v0.2.sol\":2456:2470  generateTicket */\n      tag_113\n        /* \"truffle/contracts/Dhakon.v0.2.sol\":2456:2472  generateTicket() */\n      jump\t// in\n    tag_112:\n        /* \"truffle/contracts/Dhakon.v0.2.sol\":2442:2472  uint ticket = generateTicket() */\n      swap1\n      pop\n        /* \"truffle/contracts/Dhakon.v0.2.sol\":2482:2504  address payable player */\n      0x00\n        /* \"truffle/contracts/Dhakon.v0.2.sol\":2515:2525  msg.sender */\n      caller\n        /* \"truffle/contracts/Dhakon.v0.2.sol\":2482:2526  address payable player = payable(msg.sender) */\n      swap1\n      pop\n        /* \"truffle/contracts/Dhakon.v0.2.sol\":2536:2543  tickets */\n      0x04\n        /* \"truffle/contracts/Dhakon.v0.2.sol\":2549:2555  ticket */\n      dup3\n        /* \"truffle/contracts/Dhakon.v0.2.sol\":2536:2556  tickets.push(ticket) */\n      swap1\n      dup1\n      0x01\n      dup2\n      sload\n      add\n      dup1\n      dup3\n      sstore\n      dup1\n      swap2\n      pop\n      pop\n      0x01\n      swap1\n      sub\n      swap1\n      0x00\n      mstore\n      keccak256(0x00, 0x20)\n      add\n      0x00\n      swap1\n      swap2\n      swap1\n      swap2\n      swap1\n      swap2\n      pop\n      sstore\n        /* \"truffle/contracts/Dhakon.v0.2.sol\":2590:2596  player */\n      dup1\n        /* \"truffle/contracts/Dhakon.v0.2.sol\":2566:2579  playerTickets */\n      0x05\n        /* \"truffle/contracts/Dhakon.v0.2.sol\":2566:2587  playerTickets[ticket] */\n      0x00\n        /* \"truffle/contracts/Dhakon.v0.2.sol\":2580:2586  ticket */\n      dup5\n        /* \"truffle/contracts/Dhakon.v0.2.sol\":2566:2587  playerTickets[ticket] */\n      dup2\n      mstore\n      0x20\n      add\n      swap1\n      dup2\n      mstore\n      0x20\n      add\n      0x00\n      keccak256\n      0x00\n        /* \"truffle/contracts/Dhakon.v0.2.sol\":2566:2596  playerTickets[ticket] = player */\n      0x0100\n      exp\n      dup2\n      sload\n      dup2\n      0xffffffffffffffffffffffffffffffffffffffff\n      mul\n      not\n      and\n      swap1\n      dup4\n      0xffffffffffffffffffffffffffffffffffffffff\n      and\n      mul\n      or\n      swap1\n      sstore\n      pop\n        /* \"truffle/contracts/Dhakon.v0.2.sol\":2607:2625  addPlayers(player) */\n      tag_115\n        /* \"truffle/contracts/Dhakon.v0.2.sol\":2618:2624  player */\n      dup2\n        /* \"truffle/contracts/Dhakon.v0.2.sol\":2607:2617  addPlayers */\n      tag_116\n        /* \"truffle/contracts/Dhakon.v0.2.sol\":2607:2625  addPlayers(player) */\n      jump\t// in\n    tag_115:\n        /* \"truffle/contracts/Dhakon.v0.2.sol\":2345:2632  {... */\n      pop\n      pop\n        /* \"truffle/contracts/Dhakon.v0.2.sol\":2313:2632  function enter() public payable {... */\n      jump\t// out\n        /* \"truffle/contracts/Dhakon.v0.2.sol\":357:385  uint[] public winningTickets */\n    tag_72:\n      0x06\n      dup2\n      dup2\n      sload\n      dup2\n      lt\n      tag_117\n      jumpi\n      0x00\n      dup1\n      revert\n    tag_117:\n      swap1\n      0x00\n      mstore\n      keccak256(0x00, 0x20)\n      add\n      0x00\n      swap2\n      pop\n      swap1\n      pop\n      sload\n      dup2\n      jump\t// out\n        /* \"truffle/contracts/Dhakon.v0.2.sol\":196:220  address[] public players */\n    tag_77:\n      0x02\n      dup2\n      dup2\n      sload\n      dup2\n      lt\n      tag_119\n      jumpi\n      0x00\n      dup1\n      revert\n    tag_119:\n      swap1\n      0x00\n      mstore\n      keccak256(0x00, 0x20)\n      add\n      0x00\n      swap2\n      pop\n      sload\n      swap1\n      0x0100\n      exp\n      swap1\n      div\n      0xffffffffffffffffffffffffffffffffffffffff\n      and\n      dup2\n      jump\t// out\n        /* \"truffle/contracts/Dhakon.v0.2.sol\":1128:1333  function getRandomNumber() internal returns (bytes32 requestId) {... */\n    tag_87:\n        /* \"truffle/contracts/Dhakon.v0.2.sol\":1173:1190  bytes32 requestId */\n      0x00\n        /* \"truffle/contracts/Dhakon.v0.2.sol\":1243:1246  fee */\n      sload(0x09)\n        /* \"truffle/contracts/Dhakon.v0.2.sol\":1210:1214  LINK */\n      immutable(\"0xb2219b801710730437d0358146c829b62297a059eceaa0b40b27aea2daecf595\")\n        /* \"truffle/contracts/Dhakon.v0.2.sol\":1210:1224  LINK.balanceOf */\n      0xffffffffffffffffffffffffffffffffffffffff\n      and\n      0x70a08231\n        /* \"truffle/contracts/Dhakon.v0.2.sol\":1233:1237  this */\n      address\n        /* \"truffle/contracts/Dhakon.v0.2.sol\":1210:1239  LINK.balanceOf(address(this)) */\n      mload(0x40)\n      dup3\n      0xffffffff\n      and\n      0xe0\n      shl\n      dup2\n      mstore\n      0x04\n      add\n      tag_122\n      swap2\n      swap1\n      tag_45\n      jump\t// in\n    tag_122:\n      0x20\n      mload(0x40)\n      dup1\n      dup4\n      sub\n      dup2\n      dup7\n      gas\n      staticcall\n      iszero\n      dup1\n      iszero\n      tag_124\n      jumpi\n      returndatasize\n      0x00\n      dup1\n      returndatacopy\n      revert(0x00, returndatasize)\n    tag_124:\n      pop\n      pop\n      pop\n      pop\n      mload(0x40)\n      returndatasize\n      not(0x1f)\n      0x1f\n      dup3\n      add\n      and\n      dup3\n      add\n      dup1\n      0x40\n      mstore\n      pop\n      dup2\n      add\n      swap1\n      tag_125\n      swap2\n      swap1\n      tag_126\n      jump\t// in\n    tag_125:\n        /* \"truffle/contracts/Dhakon.v0.2.sol\":1210:1246  LINK.balanceOf(address(this)) >= fee */\n      lt\n      iszero\n        /* \"truffle/contracts/Dhakon.v0.2.sol\":1202:1278  require(LINK.balanceOf(address(this)) >= fee, \"Not enough LINK in contract\") */\n      tag_127\n      jumpi\n      mload(0x40)\n      0x08c379a000000000000000000000000000000000000000000000000000000000\n      dup2\n      mstore\n      0x04\n      add\n      tag_128\n      swap1\n      tag_129\n      jump\t// in\n    tag_128:\n      mload(0x40)\n      dup1\n      swap2\n      sub\n      swap1\n      revert\n    tag_127:\n        /* \"truffle/contracts/Dhakon.v0.2.sol\":1295:1326  requestRandomness(keyHash, fee) */\n      tag_130\n        /* \"truffle/contracts/Dhakon.v0.2.sol\":1313:1320  keyHash */\n      sload(0x08)\n        /* \"truffle/contracts/Dhakon.v0.2.sol\":1322:1325  fee */\n      sload(0x09)\n        /* \"truffle/contracts/Dhakon.v0.2.sol\":1295:1312  requestRandomness */\n      tag_131\n        /* \"truffle/contracts/Dhakon.v0.2.sol\":1295:1326  requestRandomness(keyHash, fee) */\n      jump\t// in\n    tag_130:\n        /* \"truffle/contracts/Dhakon.v0.2.sol\":1288:1326  return requestRandomness(keyHash, fee) */\n      swap1\n      pop\n        /* \"truffle/contracts/Dhakon.v0.2.sol\":1128:1333  function getRandomNumber() internal returns (bytes32 requestId) {... */\n      swap1\n      jump\t// out\n        /* \"truffle/contracts/Dhakon.v0.2.sol\":1339:1536  function fulfillRandomness(bytes32 requestId, uint randomness) internal override {... */\n    tag_106:\n        /* \"truffle/contracts/Dhakon.v0.2.sol\":1430:1440  uint index */\n      0x00\n        /* \"truffle/contracts/Dhakon.v0.2.sol\":1456:1463  tickets */\n      0x04\n        /* \"truffle/contracts/Dhakon.v0.2.sol\":1456:1470  tickets.length */\n      dup1\n      sload\n      swap1\n      pop\n        /* \"truffle/contracts/Dhakon.v0.2.sol\":1443:1453  randomness */\n      dup3\n        /* \"truffle/contracts/Dhakon.v0.2.sol\":1443:1470  randomness % tickets.length */\n      tag_133\n      swap2\n      swap1\n      tag_134\n      jump\t// in\n    tag_133:\n        /* \"truffle/contracts/Dhakon.v0.2.sol\":1430:1470  uint index = randomness % tickets.length */\n      swap1\n      pop\n        /* \"truffle/contracts/Dhakon.v0.2.sol\":1480:1496  payWinner(index) */\n      tag_135\n        /* \"truffle/contracts/Dhakon.v0.2.sol\":1490:1495  index */\n      dup2\n        /* \"truffle/contracts/Dhakon.v0.2.sol\":1480:1489  payWinner */\n      tag_136\n        /* \"truffle/contracts/Dhakon.v0.2.sol\":1480:1496  payWinner(index) */\n      jump\t// in\n    tag_135:\n        /* \"truffle/contracts/Dhakon.v0.2.sol\":1524:1529  false */\n      0x00\n        /* \"truffle/contracts/Dhakon.v0.2.sol\":1506:1521  isPickingWinner */\n      0x07\n      0x00\n        /* \"truffle/contracts/Dhakon.v0.2.sol\":1506:1529  isPickingWinner = false */\n      0x0100\n      exp\n      dup2\n      sload\n      dup2\n      0xff\n      mul\n      not\n      and\n      swap1\n      dup4\n      iszero\n      iszero\n      mul\n      or\n      swap1\n      sstore\n      pop\n        /* \"truffle/contracts/Dhakon.v0.2.sol\":1420:1536  {... */\n      pop\n        /* \"truffle/contracts/Dhakon.v0.2.sol\":1339:1536  function fulfillRandomness(bytes32 requestId, uint randomness) internal override {... */\n      pop\n      pop\n      jump\t// out\n        /* \"truffle/contracts/Dhakon.v0.2.sol\":1542:1678  function generateTicket() internal view returns (uint) {... */\n    tag_113:\n        /* \"truffle/contracts/Dhakon.v0.2.sol\":1591:1595  uint */\n      0x00\n        /* \"truffle/contracts/Dhakon.v0.2.sol\":1646:1651  owner */\n      0x01\n      0x00\n      swap1\n      sload\n      swap1\n      0x0100\n      exp\n      swap1\n      div\n      0xffffffffffffffffffffffffffffffffffffffff\n      and\n        /* \"truffle/contracts/Dhakon.v0.2.sol\":1653:1668  block.timestamp */\n      timestamp\n        /* \"truffle/contracts/Dhakon.v0.2.sol\":1629:1669  abi.encodePacked(owner, block.timestamp) */\n      add(0x20, mload(0x40))\n      tag_138\n      swap3\n      swap2\n      swap1\n      tag_139\n      jump\t// in\n    tag_138:\n      mload(0x40)\n      0x20\n      dup2\n      dup4\n      sub\n      sub\n      dup2\n      mstore\n      swap1\n      0x40\n      mstore\n        /* \"truffle/contracts/Dhakon.v0.2.sol\":1619:1670  keccak256(abi.encodePacked(owner, block.timestamp)) */\n      dup1\n      mload\n      swap1\n      0x20\n      add\n      keccak256\n        /* \"truffle/contracts/Dhakon.v0.2.sol\":1614:1671  uint(keccak256(abi.encodePacked(owner, block.timestamp))) */\n      0x00\n      shr\n        /* \"truffle/contracts/Dhakon.v0.2.sol\":1607:1671  return uint(keccak256(abi.encodePacked(owner, block.timestamp))) */\n      swap1\n      pop\n        /* \"truffle/contracts/Dhakon.v0.2.sol\":1542:1678  function generateTicket() internal view returns (uint) {... */\n      swap1\n      jump\t// out\n        /* \"truffle/contracts/Dhakon.v0.2.sol\":2075:2307  function addPlayers(address playerAddr) internal {... */\n    tag_116:\n        /* \"truffle/contracts/Dhakon.v0.2.sol\":2166:2170  true */\n      0x01\n        /* \"truffle/contracts/Dhakon.v0.2.sol\":2138:2170  checkPlayers[playerAddr] != true */\n      iszero\n      iszero\n        /* \"truffle/contracts/Dhakon.v0.2.sol\":2138:2150  checkPlayers */\n      0x03\n        /* \"truffle/contracts/Dhakon.v0.2.sol\":2138:2162  checkPlayers[playerAddr] */\n      0x00\n        /* \"truffle/contracts/Dhakon.v0.2.sol\":2151:2161  playerAddr */\n      dup4\n        /* \"truffle/contracts/Dhakon.v0.2.sol\":2138:2162  checkPlayers[playerAddr] */\n      0xffffffffffffffffffffffffffffffffffffffff\n      and\n      0xffffffffffffffffffffffffffffffffffffffff\n      and\n      dup2\n      mstore\n      0x20\n      add\n      swap1\n      dup2\n      mstore\n      0x20\n      add\n      0x00\n      keccak256\n      0x00\n      swap1\n      sload\n      swap1\n      0x0100\n      exp\n      swap1\n      div\n      0xff\n      and\n        /* \"truffle/contracts/Dhakon.v0.2.sol\":2138:2170  checkPlayers[playerAddr] != true */\n      iszero\n      iszero\n      eq\n        /* \"truffle/contracts/Dhakon.v0.2.sol\":2134:2301  if (checkPlayers[playerAddr] != true) {  // player's address not yet exist... */\n      tag_141\n      jumpi\n        /* \"truffle/contracts/Dhakon.v0.2.sol\":2248:2252  true */\n      0x01\n        /* \"truffle/contracts/Dhakon.v0.2.sol\":2221:2233  checkPlayers */\n      0x03\n        /* \"truffle/contracts/Dhakon.v0.2.sol\":2221:2245  checkPlayers[playerAddr] */\n      0x00\n        /* \"truffle/contracts/Dhakon.v0.2.sol\":2234:2244  playerAddr */\n      dup4\n        /* \"truffle/contracts/Dhakon.v0.2.sol\":2221:2245  checkPlayers[playerAddr] */\n      0xffffffffffffffffffffffffffffffffffffffff\n      and\n      0xffffffffffffffffffffffffffffffffffffffff\n      and\n      dup2\n      mstore\n      0x20\n      add\n      swap1\n      dup2\n      mstore\n      0x20\n      add\n      0x00\n      keccak256\n      0x00\n        /* \"truffle/contracts/Dhakon.v0.2.sol\":2221:2252  checkPlayers[playerAddr] = true */\n      0x0100\n      exp\n      dup2\n      sload\n      dup2\n      0xff\n      mul\n      not\n      and\n      swap1\n      dup4\n      iszero\n      iszero\n      mul\n      or\n      swap1\n      sstore\n      pop\n        /* \"truffle/contracts/Dhakon.v0.2.sol\":2266:2273  players */\n      0x02\n        /* \"truffle/contracts/Dhakon.v0.2.sol\":2279:2289  playerAddr */\n      dup2\n        /* \"truffle/contracts/Dhakon.v0.2.sol\":2266:2290  players.push(playerAddr) */\n      swap1\n      dup1\n      0x01\n      dup2\n      sload\n      add\n      dup1\n      dup3\n      sstore\n      dup1\n      swap2\n      pop\n      pop\n      0x01\n      swap1\n      sub\n      swap1\n      0x00\n      mstore\n      keccak256(0x00, 0x20)\n      add\n      0x00\n      swap1\n      swap2\n      swap1\n      swap2\n      swap1\n      swap2\n      0x0100\n      exp\n      dup2\n      sload\n      dup2\n      0xffffffffffffffffffffffffffffffffffffffff\n      mul\n      not\n      and\n      swap1\n      dup4\n      0xffffffffffffffffffffffffffffffffffffffff\n      and\n      mul\n      or\n      swap1\n      sstore\n      pop\n        /* \"truffle/contracts/Dhakon.v0.2.sol\":2134:2301  if (checkPlayers[playerAddr] != true) {  // player's address not yet exist... */\n    tag_141:\n        /* \"truffle/contracts/Dhakon.v0.2.sol\":2075:2307  function addPlayers(address playerAddr) internal {... */\n      pop\n      jump\t// out\n        /* \"@chainlink/contracts/src/v0.8/VRFConsumerBase.sol\":7732:8752  function requestRandomness(bytes32 _keyHash, uint256 _fee) internal returns (bytes32 requestId) {... */\n    tag_131:\n        /* \"@chainlink/contracts/src/v0.8/VRFConsumerBase.sol\":7809:7826  bytes32 requestId */\n      0x00\n        /* \"@chainlink/contracts/src/v0.8/VRFConsumerBase.sol\":7834:7838  LINK */\n      immutable(\"0xb2219b801710730437d0358146c829b62297a059eceaa0b40b27aea2daecf595\")\n        /* \"@chainlink/contracts/src/v0.8/VRFConsumerBase.sol\":7834:7854  LINK.transferAndCall */\n      0xffffffffffffffffffffffffffffffffffffffff\n      and\n      0x4000aea0\n        /* \"@chainlink/contracts/src/v0.8/VRFConsumerBase.sol\":7855:7869  vrfCoordinator */\n      immutable(\"0x6dbb33232cde86c8a04f90a8bed9fc1c5ef520188a14538d96eb100d69bc2a94\")\n        /* \"@chainlink/contracts/src/v0.8/VRFConsumerBase.sol\":7871:7875  _fee */\n      dup5\n        /* \"@chainlink/contracts/src/v0.8/VRFConsumerBase.sol\":7888:7896  _keyHash */\n      dup7\n        /* \"@chainlink/contracts/src/v0.8/VRFConsumerBase.sol\":6589:6590  0 */\n      0x00\n        /* \"@chainlink/contracts/src/v0.8/VRFConsumerBase.sol\":7877:7920  abi.encode(_keyHash, USER_SEED_PLACEHOLDER) */\n      add(0x20, mload(0x40))\n      tag_144\n      swap3\n      swap2\n      swap1\n      tag_145\n      jump\t// in\n    tag_144:\n      mload(0x40)\n      0x20\n      dup2\n      dup4\n      sub\n      sub\n      dup2\n      mstore\n      swap1\n      0x40\n      mstore\n        /* \"@chainlink/contracts/src/v0.8/VRFConsumerBase.sol\":7834:7921  LINK.transferAndCall(vrfCoordinator, _fee, abi.encode(_keyHash, USER_SEED_PLACEHOLDER)) */\n      mload(0x40)\n      dup5\n      0xffffffff\n      and\n      0xe0\n      shl\n      dup2\n      mstore\n      0x04\n      add\n      tag_146\n      swap4\n      swap3\n      swap2\n      swap1\n      tag_147\n      jump\t// in\n    tag_146:\n      0x20\n      mload(0x40)\n      dup1\n      dup4\n      sub\n      dup2\n      0x00\n      dup8\n      gas\n      call\n      iszero\n      dup1\n      iszero\n      tag_149\n      jumpi\n      returndatasize\n      0x00\n      dup1\n      returndatacopy\n      revert(0x00, returndatasize)\n    tag_149:\n      pop\n      pop\n      pop\n      pop\n      mload(0x40)\n      returndatasize\n      not(0x1f)\n      0x1f\n      dup3\n      add\n      and\n      dup3\n      add\n      dup1\n      0x40\n      mstore\n      pop\n      dup2\n      add\n      swap1\n      tag_150\n      swap2\n      swap1\n      tag_151\n      jump\t// in\n    tag_150:\n      pop\n        /* \"@chainlink/contracts/src/v0.8/VRFConsumerBase.sol\":8152:8167  uint256 vRFSeed */\n      0x00\n        /* \"@chainlink/contracts/src/v0.8/VRFConsumerBase.sol\":8170:8252  makeVRFInputSeed(_keyHash, USER_SEED_PLACEHOLDER, address(this), nonces[_keyHash]) */\n      tag_152\n        /* \"@chainlink/contracts/src/v0.8/VRFConsumerBase.sol\":8187:8195  _keyHash */\n      dup5\n        /* \"@chainlink/contracts/src/v0.8/VRFConsumerBase.sol\":6589:6590  0 */\n      0x00\n        /* \"@chainlink/contracts/src/v0.8/VRFConsumerBase.sol\":8228:8232  this */\n      address\n        /* \"@chainlink/contracts/src/v0.8/VRFConsumerBase.sol\":8235:8241  nonces */\n      0x00\n        /* \"@chainlink/contracts/src/v0.8/VRFConsumerBase.sol\":8235:8251  nonces[_keyHash] */\n      dup1\n        /* \"@chainlink/contracts/src/v0.8/VRFConsumerBase.sol\":8242:8250  _keyHash */\n      dup10\n        /* \"@chainlink/contracts/src/v0.8/VRFConsumerBase.sol\":8235:8251  nonces[_keyHash] */\n      dup2\n      mstore\n      0x20\n      add\n      swap1\n      dup2\n      mstore\n      0x20\n      add\n      0x00\n      keccak256\n      sload\n        /* \"@chainlink/contracts/src/v0.8/VRFConsumerBase.sol\":8170:8186  makeVRFInputSeed */\n      tag_153\n        /* \"@chainlink/contracts/src/v0.8/VRFConsumerBase.sol\":8170:8252  makeVRFInputSeed(_keyHash, USER_SEED_PLACEHOLDER, address(this), nonces[_keyHash]) */\n      jump\t// in\n    tag_152:\n        /* \"@chainlink/contracts/src/v0.8/VRFConsumerBase.sol\":8152:8252  uint256 vRFSeed = makeVRFInputSeed(_keyHash, USER_SEED_PLACEHOLDER, address(this), nonces[_keyHash]) */\n      swap1\n      pop\n        /* \"@chainlink/contracts/src/v0.8/VRFConsumerBase.sol\":8701:8702  1 */\n      0x01\n        /* \"@chainlink/contracts/src/v0.8/VRFConsumerBase.sol\":8682:8688  nonces */\n      0x00\n        /* \"@chainlink/contracts/src/v0.8/VRFConsumerBase.sol\":8682:8698  nonces[_keyHash] */\n      dup1\n        /* \"@chainlink/contracts/src/v0.8/VRFConsumerBase.sol\":8689:8697  _keyHash */\n      dup7\n        /* \"@chainlink/contracts/src/v0.8/VRFConsumerBase.sol\":8682:8698  nonces[_keyHash] */\n      dup2\n      mstore\n      0x20\n      add\n      swap1\n      dup2\n      mstore\n      0x20\n      add\n      0x00\n      keccak256\n      sload\n        /* \"@chainlink/contracts/src/v0.8/VRFConsumerBase.sol\":8682:8702  nonces[_keyHash] + 1 */\n      tag_154\n      swap2\n      swap1\n      tag_155\n      jump\t// in\n    tag_154:\n        /* \"@chainlink/contracts/src/v0.8/VRFConsumerBase.sol\":8663:8669  nonces */\n      0x00\n        /* \"@chainlink/contracts/src/v0.8/VRFConsumerBase.sol\":8663:8679  nonces[_keyHash] */\n      dup1\n        /* \"@chainlink/contracts/src/v0.8/VRFConsumerBase.sol\":8670:8678  _keyHash */\n      dup7\n        /* \"@chainlink/contracts/src/v0.8/VRFConsumerBase.sol\":8663:8679  nonces[_keyHash] */\n      dup2\n      mstore\n      0x20\n      add\n      swap1\n      dup2\n      mstore\n      0x20\n      add\n      0x00\n      keccak256\n        /* \"@chainlink/contracts/src/v0.8/VRFConsumerBase.sol\":8663:8702  nonces[_keyHash] = nonces[_keyHash] + 1 */\n      dup2\n      swap1\n      sstore\n      pop\n        /* \"@chainlink/contracts/src/v0.8/VRFConsumerBase.sol\":8715:8747  makeRequestId(_keyHash, vRFSeed) */\n      tag_156\n        /* \"@chainlink/contracts/src/v0.8/VRFConsumerBase.sol\":8729:8737  _keyHash */\n      dup5\n        /* \"@chainlink/contracts/src/v0.8/VRFConsumerBase.sol\":8739:8746  vRFSeed */\n      dup3\n        /* \"@chainlink/contracts/src/v0.8/VRFConsumerBase.sol\":8715:8728  makeRequestId */\n      tag_157\n        /* \"@chainlink/contracts/src/v0.8/VRFConsumerBase.sol\":8715:8747  makeRequestId(_keyHash, vRFSeed) */\n      jump\t// in\n    tag_156:\n        /* \"@chainlink/contracts/src/v0.8/VRFConsumerBase.sol\":8708:8747  return makeRequestId(_keyHash, vRFSeed) */\n      swap2\n      pop\n      pop\n        /* \"@chainlink/contracts/src/v0.8/VRFConsumerBase.sol\":7732:8752  function requestRandomness(bytes32 _keyHash, uint256 _fee) internal returns (bytes32 requestId) {... */\n      swap3\n      swap2\n      pop\n      pop\n      jump\t// out\n        /* \"truffle/contracts/Dhakon.v0.2.sol\":2784:3044  function payWinner(uint ticketIdx) internal onlyowner {... */\n    tag_136:\n        /* \"truffle/contracts/Dhakon.v0.2.sol\":3626:3631  owner */\n      0x01\n      0x00\n      swap1\n      sload\n      swap1\n      0x0100\n      exp\n      swap1\n      div\n      0xffffffffffffffffffffffffffffffffffffffff\n      and\n        /* \"truffle/contracts/Dhakon.v0.2.sol\":3612:3631  msg.sender == owner */\n      0xffffffffffffffffffffffffffffffffffffffff\n      and\n        /* \"truffle/contracts/Dhakon.v0.2.sol\":3612:3622  msg.sender */\n      caller\n        /* \"truffle/contracts/Dhakon.v0.2.sol\":3612:3631  msg.sender == owner */\n      0xffffffffffffffffffffffffffffffffffffffff\n      and\n      eq\n        /* \"truffle/contracts/Dhakon.v0.2.sol\":3604:3632  require(msg.sender == owner) */\n      tag_159\n      jumpi\n      0x00\n      dup1\n      revert\n    tag_159:\n        /* \"truffle/contracts/Dhakon.v0.2.sol\":2848:2861  playerTickets */\n      0x05\n        /* \"truffle/contracts/Dhakon.v0.2.sol\":2848:2881  playerTickets[tickets[ticketIdx]] */\n      0x00\n        /* \"truffle/contracts/Dhakon.v0.2.sol\":2862:2869  tickets */\n      0x04\n        /* \"truffle/contracts/Dhakon.v0.2.sol\":2870:2879  ticketIdx */\n      dup4\n        /* \"truffle/contracts/Dhakon.v0.2.sol\":2862:2880  tickets[ticketIdx] */\n      dup2\n      sload\n      dup2\n      lt\n      tag_161\n      jumpi\n      tag_162\n      tag_96\n      jump\t// in\n    tag_162:\n    tag_161:\n      swap1\n      0x00\n      mstore\n      keccak256(0x00, 0x20)\n      add\n      sload\n        /* \"truffle/contracts/Dhakon.v0.2.sol\":2848:2881  playerTickets[tickets[ticketIdx]] */\n      dup2\n      mstore\n      0x20\n      add\n      swap1\n      dup2\n      mstore\n      0x20\n      add\n      0x00\n      keccak256\n      0x00\n      swap1\n      sload\n      swap1\n      0x0100\n      exp\n      swap1\n      div\n      0xffffffffffffffffffffffffffffffffffffffff\n      and\n        /* \"truffle/contracts/Dhakon.v0.2.sol\":2848:2890  playerTickets[tickets[ticketIdx]].transfer */\n      0xffffffffffffffffffffffffffffffffffffffff\n      and\n        /* \"truffle/contracts/Dhakon.v0.2.sol\":2848:2913  playerTickets[tickets[ticketIdx]].transfer(address(this).balance) */\n      0x08fc\n        /* \"truffle/contracts/Dhakon.v0.2.sol\":2891:2912  address(this).balance */\n      selfbalance\n        /* \"truffle/contracts/Dhakon.v0.2.sol\":2848:2913  playerTickets[tickets[ticketIdx]].transfer(address(this).balance) */\n      swap1\n      dup2\n      iszero\n      mul\n      swap1\n      mload(0x40)\n      0x00\n      mload(0x40)\n      dup1\n      dup4\n      sub\n      dup2\n      dup6\n      dup9\n      dup9\n      call\n      swap4\n      pop\n      pop\n      pop\n      pop\n      iszero\n      dup1\n      iszero\n      tag_165\n      jumpi\n      returndatasize\n      0x00\n      dup1\n      returndatacopy\n      revert(0x00, returndatasize)\n    tag_165:\n      pop\n        /* \"truffle/contracts/Dhakon.v0.2.sol\":2924:2938  winningTickets */\n      0x06\n        /* \"truffle/contracts/Dhakon.v0.2.sol\":2944:2951  tickets */\n      0x04\n        /* \"truffle/contracts/Dhakon.v0.2.sol\":2952:2961  ticketIdx */\n      dup3\n        /* \"truffle/contracts/Dhakon.v0.2.sol\":2944:2962  tickets[ticketIdx] */\n      dup2\n      sload\n      dup2\n      lt\n      tag_166\n      jumpi\n      tag_167\n      tag_96\n      jump\t// in\n    tag_167:\n    tag_166:\n      swap1\n      0x00\n      mstore\n      keccak256(0x00, 0x20)\n      add\n      sload\n        /* \"truffle/contracts/Dhakon.v0.2.sol\":2924:2963  winningTickets.push(tickets[ticketIdx]) */\n      swap1\n      dup1\n      0x01\n      dup2\n      sload\n      add\n      dup1\n      dup3\n      sstore\n      dup1\n      swap2\n      pop\n      pop\n      0x01\n      swap1\n      sub\n      swap1\n      0x00\n      mstore\n      keccak256(0x00, 0x20)\n      add\n      0x00\n      swap1\n      swap2\n      swap1\n      swap2\n      swap1\n      swap2\n      pop\n      sstore\n        /* \"truffle/contracts/Dhakon.v0.2.sol\":3025:3037  resetRound() */\n      tag_170\n        /* \"truffle/contracts/Dhakon.v0.2.sol\":3025:3035  resetRound */\n      tag_171\n        /* \"truffle/contracts/Dhakon.v0.2.sol\":3025:3037  resetRound() */\n      jump\t// in\n    tag_170:\n        /* \"truffle/contracts/Dhakon.v0.2.sol\":2784:3044  function payWinner(uint ticketIdx) internal onlyowner {... */\n      pop\n      jump\t// out\n        /* \"@chainlink/contracts/src/v0.8/VRFRequestIDBase.sol\":796:1036  function makeVRFInputSeed(... */\n    tag_153:\n        /* \"@chainlink/contracts/src/v0.8/VRFRequestIDBase.sol\":938:945  uint256 */\n      0x00\n        /* \"@chainlink/contracts/src/v0.8/VRFRequestIDBase.sol\":989:997  _keyHash */\n      dup5\n        /* \"@chainlink/contracts/src/v0.8/VRFRequestIDBase.sol\":999:1008  _userSeed */\n      dup5\n        /* \"@chainlink/contracts/src/v0.8/VRFRequestIDBase.sol\":1010:1020  _requester */\n      dup5\n        /* \"@chainlink/contracts/src/v0.8/VRFRequestIDBase.sol\":1022:1028  _nonce */\n      dup5\n        /* \"@chainlink/contracts/src/v0.8/VRFRequestIDBase.sol\":978:1029  abi.encode(_keyHash, _userSeed, _requester, _nonce) */\n      add(0x20, mload(0x40))\n      tag_173\n      swap5\n      swap4\n      swap3\n      swap2\n      swap1\n      tag_174\n      jump\t// in\n    tag_173:\n      mload(0x40)\n      0x20\n      dup2\n      dup4\n      sub\n      sub\n      dup2\n      mstore\n      swap1\n      0x40\n      mstore\n        /* \"@chainlink/contracts/src/v0.8/VRFRequestIDBase.sol\":968:1030  keccak256(abi.encode(_keyHash, _userSeed, _requester, _nonce)) */\n      dup1\n      mload\n      swap1\n      0x20\n      add\n      keccak256\n        /* \"@chainlink/contracts/src/v0.8/VRFRequestIDBase.sol\":960:1031  uint256(keccak256(abi.encode(_keyHash, _userSeed, _requester, _nonce))) */\n      0x00\n      shr\n        /* \"@chainlink/contracts/src/v0.8/VRFRequestIDBase.sol\":953:1031  return uint256(keccak256(abi.encode(_keyHash, _userSeed, _requester, _nonce))) */\n      swap1\n      pop\n        /* \"@chainlink/contracts/src/v0.8/VRFRequestIDBase.sol\":796:1036  function makeVRFInputSeed(... */\n      swap5\n      swap4\n      pop\n      pop\n      pop\n      pop\n      jump\t// out\n        /* \"@chainlink/contracts/src/v0.8/VRFRequestIDBase.sol\":1416:1582  function makeRequestId(bytes32 _keyHash, uint256 _vRFInputSeed) internal pure returns (bytes32) {... */\n    tag_157:\n        /* \"@chainlink/contracts/src/v0.8/VRFRequestIDBase.sol\":1503:1510  bytes32 */\n      0x00\n        /* \"@chainlink/contracts/src/v0.8/VRFRequestIDBase.sol\":1552:1560  _keyHash */\n      dup3\n        /* \"@chainlink/contracts/src/v0.8/VRFRequestIDBase.sol\":1562:1575  _vRFInputSeed */\n      dup3\n        /* \"@chainlink/contracts/src/v0.8/VRFRequestIDBase.sol\":1535:1576  abi.encodePacked(_keyHash, _vRFInputSeed) */\n      add(0x20, mload(0x40))\n      tag_176\n      swap3\n      swap2\n      swap1\n      tag_177\n      jump\t// in\n    tag_176:\n      mload(0x40)\n      0x20\n      dup2\n      dup4\n      sub\n      sub\n      dup2\n      mstore\n      swap1\n      0x40\n      mstore\n        /* \"@chainlink/contracts/src/v0.8/VRFRequestIDBase.sol\":1525:1577  keccak256(abi.encodePacked(_keyHash, _vRFInputSeed)) */\n      dup1\n      mload\n      swap1\n      0x20\n      add\n      keccak256\n        /* \"@chainlink/contracts/src/v0.8/VRFRequestIDBase.sol\":1518:1577  return keccak256(abi.encodePacked(_keyHash, _vRFInputSeed)) */\n      swap1\n      pop\n        /* \"@chainlink/contracts/src/v0.8/VRFRequestIDBase.sol\":1416:1582  function makeRequestId(bytes32 _keyHash, uint256 _vRFInputSeed) internal pure returns (bytes32) {... */\n      swap3\n      swap2\n      pop\n      pop\n      jump\t// out\n        /* \"truffle/contracts/Dhakon.v0.2.sol\":3050:3468  function resetRound() internal {        ... */\n    tag_171:\n        /* \"truffle/contracts/Dhakon.v0.2.sol\":3103:3109  uint i */\n      0x00\n        /* \"truffle/contracts/Dhakon.v0.2.sol\":3099:3236  for(uint i=0;i<players.length;i++) {... */\n    tag_179:\n        /* \"truffle/contracts/Dhakon.v0.2.sol\":3114:3121  players */\n      0x02\n        /* \"truffle/contracts/Dhakon.v0.2.sol\":3114:3128  players.length */\n      dup1\n      sload\n      swap1\n      pop\n        /* \"truffle/contracts/Dhakon.v0.2.sol\":3112:3113  i */\n      dup2\n        /* \"truffle/contracts/Dhakon.v0.2.sol\":3112:3128  i<players.length */\n      lt\n        /* \"truffle/contracts/Dhakon.v0.2.sol\":3099:3236  for(uint i=0;i<players.length;i++) {... */\n      iszero\n      tag_180\n      jumpi\n        /* \"truffle/contracts/Dhakon.v0.2.sol\":3155:3167  checkPlayers */\n      0x03\n        /* \"truffle/contracts/Dhakon.v0.2.sol\":3155:3179  checkPlayers[players[i]] */\n      0x00\n        /* \"truffle/contracts/Dhakon.v0.2.sol\":3168:3175  players */\n      0x02\n        /* \"truffle/contracts/Dhakon.v0.2.sol\":3176:3177  i */\n      dup4\n        /* \"truffle/contracts/Dhakon.v0.2.sol\":3168:3178  players[i] */\n      dup2\n      sload\n      dup2\n      lt\n      tag_182\n      jumpi\n      tag_183\n      tag_96\n      jump\t// in\n    tag_183:\n    tag_182:\n      swap1\n      0x00\n      mstore\n      keccak256(0x00, 0x20)\n      add\n      0x00\n      swap1\n      sload\n      swap1\n      0x0100\n      exp\n      swap1\n      div\n      0xffffffffffffffffffffffffffffffffffffffff\n      and\n        /* \"truffle/contracts/Dhakon.v0.2.sol\":3155:3179  checkPlayers[players[i]] */\n      0xffffffffffffffffffffffffffffffffffffffff\n      and\n      0xffffffffffffffffffffffffffffffffffffffff\n      and\n      dup2\n      mstore\n      0x20\n      add\n      swap1\n      dup2\n      mstore\n      0x20\n      add\n      0x00\n      keccak256\n      0x00\n        /* \"truffle/contracts/Dhakon.v0.2.sol\":3148:3179  delete checkPlayers[players[i]] */\n      0x0100\n      exp\n      dup2\n      sload\n      swap1\n      0xff\n      mul\n      not\n      and\n      swap1\n      sstore\n        /* \"truffle/contracts/Dhakon.v0.2.sol\":3129:3132  i++ */\n      dup1\n      dup1\n      tag_185\n      swap1\n      tag_186\n      jump\t// in\n    tag_185:\n      swap2\n      pop\n      pop\n        /* \"truffle/contracts/Dhakon.v0.2.sol\":3099:3236  for(uint i=0;i<players.length;i++) {... */\n      jump(tag_179)\n    tag_180:\n      pop\n        /* \"truffle/contracts/Dhakon.v0.2.sol\":3277:3278  0 */\n      0x00\n        /* \"truffle/contracts/Dhakon.v0.2.sol\":3255:3279  new address payable[](0) */\n      0xffffffffffffffff\n      dup2\n      gt\n      iszero\n      tag_187\n      jumpi\n      tag_188\n      tag_189\n      jump\t// in\n    tag_188:\n    tag_187:\n      mload(0x40)\n      swap1\n      dup1\n      dup3\n      mstore\n      dup1\n      0x20\n      mul\n      0x20\n      add\n      dup3\n      add\n      0x40\n      mstore\n      dup1\n      iszero\n      tag_190\n      jumpi\n      dup2\n      0x20\n      add\n      0x20\n      dup3\n      mul\n      dup1\n      calldatasize\n      dup4\n      calldatacopy\n      dup1\n      dup3\n      add\n      swap2\n      pop\n      pop\n      swap1\n      pop\n    tag_190:\n      pop\n        /* \"truffle/contracts/Dhakon.v0.2.sol\":3245:3252  players */\n      0x02\n        /* \"truffle/contracts/Dhakon.v0.2.sol\":3245:3279  players = new address payable[](0) */\n      swap1\n      dup1\n      mload\n      swap1\n      0x20\n      add\n      swap1\n      tag_191\n      swap3\n      swap2\n      swap1\n      tag_192\n      jump\t// in\n    tag_191:\n      pop\n        /* \"truffle/contracts/Dhakon.v0.2.sol\":3294:3300  uint i */\n      0x00\n        /* \"truffle/contracts/Dhakon.v0.2.sol\":3290:3429  for(uint i=0;i<tickets.length;i++) {  // TODO: workaround as this requires more gas... */\n    tag_193:\n        /* \"truffle/contracts/Dhakon.v0.2.sol\":3305:3312  tickets */\n      0x04\n        /* \"truffle/contracts/Dhakon.v0.2.sol\":3305:3319  tickets.length */\n      dup1\n      sload\n      swap1\n      pop\n        /* \"truffle/contracts/Dhakon.v0.2.sol\":3303:3304  i */\n      dup2\n        /* \"truffle/contracts/Dhakon.v0.2.sol\":3303:3319  i<tickets.length */\n      lt\n        /* \"truffle/contracts/Dhakon.v0.2.sol\":3290:3429  for(uint i=0;i<tickets.length;i++) {  // TODO: workaround as this requires more gas... */\n      iszero\n      tag_194\n      jumpi\n        /* \"truffle/contracts/Dhakon.v0.2.sol\":3393:3406  playerTickets */\n      0x05\n        /* \"truffle/contracts/Dhakon.v0.2.sol\":3393:3418  playerTickets[tickets[i]] */\n      0x00\n        /* \"truffle/contracts/Dhakon.v0.2.sol\":3407:3414  tickets */\n      0x04\n        /* \"truffle/contracts/Dhakon.v0.2.sol\":3415:3416  i */\n      dup4\n        /* \"truffle/contracts/Dhakon.v0.2.sol\":3407:3417  tickets[i] */\n      dup2\n      sload\n      dup2\n      lt\n      tag_196\n      jumpi\n      tag_197\n      tag_96\n      jump\t// in\n    tag_197:\n    tag_196:\n      swap1\n      0x00\n      mstore\n      keccak256(0x00, 0x20)\n      add\n      sload\n        /* \"truffle/contracts/Dhakon.v0.2.sol\":3393:3418  playerTickets[tickets[i]] */\n      dup2\n      mstore\n      0x20\n      add\n      swap1\n      dup2\n      mstore\n      0x20\n      add\n      0x00\n      keccak256\n      0x00\n        /* \"truffle/contracts/Dhakon.v0.2.sol\":3386:3418  delete playerTickets[tickets[i]] */\n      0x0100\n      exp\n      dup2\n      sload\n      swap1\n      0xffffffffffffffffffffffffffffffffffffffff\n      mul\n      not\n      and\n      swap1\n      sstore\n        /* \"truffle/contracts/Dhakon.v0.2.sol\":3320:3323  i++ */\n      dup1\n      dup1\n      tag_199\n      swap1\n      tag_186\n      jump\t// in\n    tag_199:\n      swap2\n      pop\n      pop\n        /* \"truffle/contracts/Dhakon.v0.2.sol\":3290:3429  for(uint i=0;i<tickets.length;i++) {  // TODO: workaround as this requires more gas... */\n      jump(tag_193)\n    tag_194:\n      pop\n        /* \"truffle/contracts/Dhakon.v0.2.sol\":3459:3460  0 */\n      0x00\n        /* \"truffle/contracts/Dhakon.v0.2.sol\":3448:3461  new uint[](0) */\n      0xffffffffffffffff\n      dup2\n      gt\n      iszero\n      tag_200\n      jumpi\n      tag_201\n      tag_189\n      jump\t// in\n    tag_201:\n    tag_200:\n      mload(0x40)\n      swap1\n      dup1\n      dup3\n      mstore\n      dup1\n      0x20\n      mul\n      0x20\n      add\n      dup3\n      add\n      0x40\n      mstore\n      dup1\n      iszero\n      tag_202\n      jumpi\n      dup2\n      0x20\n      add\n      0x20\n      dup3\n      mul\n      dup1\n      calldatasize\n      dup4\n      calldatacopy\n      dup1\n      dup3\n      add\n      swap2\n      pop\n      pop\n      swap1\n      pop\n    tag_202:\n      pop\n        /* \"truffle/contracts/Dhakon.v0.2.sol\":3438:3445  tickets */\n      0x04\n        /* \"truffle/contracts/Dhakon.v0.2.sol\":3438:3461  tickets = new uint[](0) */\n      swap1\n      dup1\n      mload\n      swap1\n      0x20\n      add\n      swap1\n      tag_203\n      swap3\n      swap2\n      swap1\n      tag_204\n      jump\t// in\n    tag_203:\n      pop\n        /* \"truffle/contracts/Dhakon.v0.2.sol\":3050:3468  function resetRound() internal {        ... */\n      jump\t// out\n    tag_192:\n      dup3\n      dup1\n      sload\n      dup3\n      dup3\n      sstore\n      swap1\n      0x00\n      mstore\n      keccak256(0x00, 0x20)\n      swap1\n      dup2\n      add\n      swap3\n      dup3\n      iszero\n      tag_205\n      jumpi\n      swap2\n      0x20\n      mul\n      dup3\n      add\n    tag_206:\n      dup3\n      dup2\n      gt\n      iszero\n      tag_207\n      jumpi\n      dup3\n      mload\n      dup3\n      exp(0x0100, 0x00)\n      dup2\n      sload\n      dup2\n      0xffffffffffffffffffffffffffffffffffffffff\n      mul\n      not\n      and\n      swap1\n      dup4\n      0xffffffffffffffffffffffffffffffffffffffff\n      and\n      mul\n      or\n      swap1\n      sstore\n      pop\n      swap2\n      0x20\n      add\n      swap2\n      swap1\n      0x01\n      add\n      swap1\n      jump(tag_206)\n    tag_207:\n    tag_205:\n      pop\n      swap1\n      pop\n      tag_208\n      swap2\n      swap1\n      tag_209\n      jump\t// in\n    tag_208:\n      pop\n      swap1\n      jump\t// out\n    tag_204:\n      dup3\n      dup1\n      sload\n      dup3\n      dup3\n      sstore\n      swap1\n      0x00\n      mstore\n      keccak256(0x00, 0x20)\n      swap1\n      dup2\n      add\n      swap3\n      dup3\n      iszero\n      tag_210\n      jumpi\n      swap2\n      0x20\n      mul\n      dup3\n      add\n    tag_211:\n      dup3\n      dup2\n      gt\n      iszero\n      tag_212\n      jumpi\n      dup3\n      mload\n      dup3\n      sstore\n      swap2\n      0x20\n      add\n      swap2\n      swap1\n      0x01\n      add\n      swap1\n      jump(tag_211)\n    tag_212:\n    tag_210:\n      pop\n      swap1\n      pop\n      tag_213\n      swap2\n      swap1\n      tag_209\n      jump\t// in\n    tag_213:\n      pop\n      swap1\n      jump\t// out\n    tag_209:\n    tag_214:\n      dup1\n      dup3\n      gt\n      iszero\n      tag_215\n      jumpi\n      0x00\n      dup2\n      0x00\n      swap1\n      sstore\n      pop\n      0x01\n      add\n      jump(tag_214)\n    tag_215:\n      pop\n      swap1\n      jump\t// out\n        /* \"#utility.yul\":7:84   */\n    tag_216:\n        /* \"#utility.yul\":44:51   */\n      0x00\n        /* \"#utility.yul\":73:78   */\n      dup2\n        /* \"#utility.yul\":62:78   */\n      swap1\n      pop\n        /* \"#utility.yul\":7:84   */\n      swap2\n      swap1\n      pop\n      jump\t// out\n        /* \"#utility.yul\":90:208   */\n    tag_217:\n        /* \"#utility.yul\":177:201   */\n      tag_270\n        /* \"#utility.yul\":195:200   */\n      dup2\n        /* \"#utility.yul\":177:201   */\n      tag_216\n      jump\t// in\n    tag_270:\n        /* \"#utility.yul\":172:175   */\n      dup3\n        /* \"#utility.yul\":165:202   */\n      mstore\n        /* \"#utility.yul\":90:208   */\n      pop\n      pop\n      jump\t// out\n        /* \"#utility.yul\":214:436   */\n    tag_21:\n        /* \"#utility.yul\":307:311   */\n      0x00\n        /* \"#utility.yul\":345:347   */\n      0x20\n        /* \"#utility.yul\":334:343   */\n      dup3\n        /* \"#utility.yul\":330:348   */\n      add\n        /* \"#utility.yul\":322:348   */\n      swap1\n      pop\n        /* \"#utility.yul\":358:429   */\n      tag_272\n        /* \"#utility.yul\":426:427   */\n      0x00\n        /* \"#utility.yul\":415:424   */\n      dup4\n        /* \"#utility.yul\":411:428   */\n      add\n        /* \"#utility.yul\":402:408   */\n      dup5\n        /* \"#utility.yul\":358:429   */\n      tag_217\n      jump\t// in\n    tag_272:\n        /* \"#utility.yul\":214:436   */\n      swap3\n      swap2\n      pop\n      pop\n      jump\t// out\n        /* \"#utility.yul\":523:640   */\n    tag_219:\n        /* \"#utility.yul\":632:633   */\n      0x00\n        /* \"#utility.yul\":629:630   */\n      dup1\n        /* \"#utility.yul\":622:634   */\n      revert\n        /* \"#utility.yul\":769:891   */\n    tag_221:\n        /* \"#utility.yul\":842:866   */\n      tag_277\n        /* \"#utility.yul\":860:865   */\n      dup2\n        /* \"#utility.yul\":842:866   */\n      tag_216\n      jump\t// in\n    tag_277:\n        /* \"#utility.yul\":835:840   */\n      dup2\n        /* \"#utility.yul\":832:867   */\n      eq\n        /* \"#utility.yul\":822:885   */\n      tag_278\n      jumpi\n        /* \"#utility.yul\":881:882   */\n      0x00\n        /* \"#utility.yul\":878:879   */\n      dup1\n        /* \"#utility.yul\":871:883   */\n      revert\n        /* \"#utility.yul\":822:885   */\n    tag_278:\n        /* \"#utility.yul\":769:891   */\n      pop\n      jump\t// out\n        /* \"#utility.yul\":897:1036   */\n    tag_222:\n        /* \"#utility.yul\":943:948   */\n      0x00\n        /* \"#utility.yul\":981:987   */\n      dup2\n        /* \"#utility.yul\":968:988   */\n      calldataload\n        /* \"#utility.yul\":959:988   */\n      swap1\n      pop\n        /* \"#utility.yul\":997:1030   */\n      tag_280\n        /* \"#utility.yul\":1024:1029   */\n      dup2\n        /* \"#utility.yul\":997:1030   */\n      tag_221\n      jump\t// in\n    tag_280:\n        /* \"#utility.yul\":897:1036   */\n      swap3\n      swap2\n      pop\n      pop\n      jump\t// out\n        /* \"#utility.yul\":1042:1371   */\n    tag_25:\n        /* \"#utility.yul\":1101:1107   */\n      0x00\n        /* \"#utility.yul\":1150:1152   */\n      0x20\n        /* \"#utility.yul\":1138:1147   */\n      dup3\n        /* \"#utility.yul\":1129:1136   */\n      dup5\n        /* \"#utility.yul\":1125:1148   */\n      sub\n        /* \"#utility.yul\":1121:1153   */\n      slt\n        /* \"#utility.yul\":1118:1237   */\n      iszero\n      tag_282\n      jumpi\n        /* \"#utility.yul\":1156:1235   */\n      tag_283\n      tag_219\n      jump\t// in\n    tag_283:\n        /* \"#utility.yul\":1118:1237   */\n    tag_282:\n        /* \"#utility.yul\":1276:1277   */\n      0x00\n        /* \"#utility.yul\":1301:1354   */\n      tag_284\n        /* \"#utility.yul\":1346:1353   */\n      dup5\n        /* \"#utility.yul\":1337:1343   */\n      dup3\n        /* \"#utility.yul\":1326:1335   */\n      dup6\n        /* \"#utility.yul\":1322:1344   */\n      add\n        /* \"#utility.yul\":1301:1354   */\n      tag_222\n      jump\t// in\n    tag_284:\n        /* \"#utility.yul\":1291:1354   */\n      swap2\n      pop\n        /* \"#utility.yul\":1247:1364   */\n      pop\n        /* \"#utility.yul\":1042:1371   */\n      swap3\n      swap2\n      pop\n      pop\n      jump\t// out\n        /* \"#utility.yul\":1377:1491   */\n    tag_223:\n        /* \"#utility.yul\":1444:1450   */\n      0x00\n        /* \"#utility.yul\":1478:1483   */\n      dup2\n        /* \"#utility.yul\":1472:1484   */\n      mload\n        /* \"#utility.yul\":1462:1484   */\n      swap1\n      pop\n        /* \"#utility.yul\":1377:1491   */\n      swap2\n      swap1\n      pop\n      jump\t// out\n        /* \"#utility.yul\":1497:1681   */\n    tag_224:\n        /* \"#utility.yul\":1596:1607   */\n      0x00\n        /* \"#utility.yul\":1630:1636   */\n      dup3\n        /* \"#utility.yul\":1625:1628   */\n      dup3\n        /* \"#utility.yul\":1618:1637   */\n      mstore\n        /* \"#utility.yul\":1670:1674   */\n      0x20\n        /* \"#utility.yul\":1665:1668   */\n      dup3\n        /* \"#utility.yul\":1661:1675   */\n      add\n        /* \"#utility.yul\":1646:1675   */\n      swap1\n      pop\n        /* \"#utility.yul\":1497:1681   */\n      swap3\n      swap2\n      pop\n      pop\n      jump\t// out\n        /* \"#utility.yul\":1687:1819   */\n    tag_225:\n        /* \"#utility.yul\":1754:1758   */\n      0x00\n        /* \"#utility.yul\":1777:1780   */\n      dup2\n        /* \"#utility.yul\":1769:1780   */\n      swap1\n      pop\n        /* \"#utility.yul\":1807:1811   */\n      0x20\n        /* \"#utility.yul\":1802:1805   */\n      dup3\n        /* \"#utility.yul\":1798:1812   */\n      add\n        /* \"#utility.yul\":1790:1812   */\n      swap1\n      pop\n        /* \"#utility.yul\":1687:1819   */\n      swap2\n      swap1\n      pop\n      jump\t// out\n        /* \"#utility.yul\":1825:1951   */\n    tag_226:\n        /* \"#utility.yul\":1862:1869   */\n      0x00\n        /* \"#utility.yul\":1902:1944   */\n      0xffffffffffffffffffffffffffffffffffffffff\n        /* \"#utility.yul\":1895:1900   */\n      dup3\n        /* \"#utility.yul\":1891:1945   */\n      and\n        /* \"#utility.yul\":1880:1945   */\n      swap1\n      pop\n        /* \"#utility.yul\":1825:1951   */\n      swap2\n      swap1\n      pop\n      jump\t// out\n        /* \"#utility.yul\":1957:2053   */\n    tag_227:\n        /* \"#utility.yul\":1994:2001   */\n      0x00\n        /* \"#utility.yul\":2023:2047   */\n      tag_290\n        /* \"#utility.yul\":2041:2046   */\n      dup3\n        /* \"#utility.yul\":2023:2047   */\n      tag_226\n      jump\t// in\n    tag_290:\n        /* \"#utility.yul\":2012:2047   */\n      swap1\n      pop\n        /* \"#utility.yul\":1957:2053   */\n      swap2\n      swap1\n      pop\n      jump\t// out\n        /* \"#utility.yul\":2059:2167   */\n    tag_228:\n        /* \"#utility.yul\":2136:2160   */\n      tag_292\n        /* \"#utility.yul\":2154:2159   */\n      dup2\n        /* \"#utility.yul\":2136:2160   */\n      tag_227\n      jump\t// in\n    tag_292:\n        /* \"#utility.yul\":2131:2134   */\n      dup3\n        /* \"#utility.yul\":2124:2161   */\n      mstore\n        /* \"#utility.yul\":2059:2167   */\n      pop\n      pop\n      jump\t// out\n        /* \"#utility.yul\":2173:2352   */\n    tag_229:\n        /* \"#utility.yul\":2242:2252   */\n      0x00\n        /* \"#utility.yul\":2263:2309   */\n      tag_294\n        /* \"#utility.yul\":2305:2308   */\n      dup4\n        /* \"#utility.yul\":2297:2303   */\n      dup4\n        /* \"#utility.yul\":2263:2309   */\n      tag_228\n      jump\t// in\n    tag_294:\n        /* \"#utility.yul\":2341:2345   */\n      0x20\n        /* \"#utility.yul\":2336:2339   */\n      dup4\n        /* \"#utility.yul\":2332:2346   */\n      add\n        /* \"#utility.yul\":2318:2346   */\n      swap1\n      pop\n        /* \"#utility.yul\":2173:2352   */\n      swap3\n      swap2\n      pop\n      pop\n      jump\t// out\n        /* \"#utility.yul\":2358:2471   */\n    tag_230:\n        /* \"#utility.yul\":2428:2432   */\n      0x00\n        /* \"#utility.yul\":2460:2464   */\n      0x20\n        /* \"#utility.yul\":2455:2458   */\n      dup3\n        /* \"#utility.yul\":2451:2465   */\n      add\n        /* \"#utility.yul\":2443:2465   */\n      swap1\n      pop\n        /* \"#utility.yul\":2358:2471   */\n      swap2\n      swap1\n      pop\n      jump\t// out\n        /* \"#utility.yul\":2507:3239   */\n    tag_231:\n        /* \"#utility.yul\":2626:2629   */\n      0x00\n        /* \"#utility.yul\":2655:2709   */\n      tag_297\n        /* \"#utility.yul\":2703:2708   */\n      dup3\n        /* \"#utility.yul\":2655:2709   */\n      tag_223\n      jump\t// in\n    tag_297:\n        /* \"#utility.yul\":2725:2811   */\n      tag_298\n        /* \"#utility.yul\":2804:2810   */\n      dup2\n        /* \"#utility.yul\":2799:2802   */\n      dup6\n        /* \"#utility.yul\":2725:2811   */\n      tag_224\n      jump\t// in\n    tag_298:\n        /* \"#utility.yul\":2718:2811   */\n      swap4\n      pop\n        /* \"#utility.yul\":2835:2891   */\n      tag_299\n        /* \"#utility.yul\":2885:2890   */\n      dup4\n        /* \"#utility.yul\":2835:2891   */\n      tag_225\n      jump\t// in\n    tag_299:\n        /* \"#utility.yul\":2914:2921   */\n      dup1\n        /* \"#utility.yul\":2945:2946   */\n      0x00\n        /* \"#utility.yul\":2930:3214   */\n    tag_300:\n        /* \"#utility.yul\":2955:2961   */\n      dup4\n        /* \"#utility.yul\":2952:2953   */\n      dup2\n        /* \"#utility.yul\":2949:2962   */\n      lt\n        /* \"#utility.yul\":2930:3214   */\n      iszero\n      tag_302\n      jumpi\n        /* \"#utility.yul\":3031:3037   */\n      dup2\n        /* \"#utility.yul\":3025:3038   */\n      mload\n        /* \"#utility.yul\":3058:3121   */\n      tag_303\n        /* \"#utility.yul\":3117:3120   */\n      dup9\n        /* \"#utility.yul\":3102:3115   */\n      dup3\n        /* \"#utility.yul\":3058:3121   */\n      tag_229\n      jump\t// in\n    tag_303:\n        /* \"#utility.yul\":3051:3121   */\n      swap8\n      pop\n        /* \"#utility.yul\":3144:3204   */\n      tag_304\n        /* \"#utility.yul\":3197:3203   */\n      dup4\n        /* \"#utility.yul\":3144:3204   */\n      tag_230\n      jump\t// in\n    tag_304:\n        /* \"#utility.yul\":3134:3204   */\n      swap3\n      pop\n        /* \"#utility.yul\":2990:3214   */\n      pop\n        /* \"#utility.yul\":2977:2978   */\n      0x01\n        /* \"#utility.yul\":2974:2975   */\n      dup2\n        /* \"#utility.yul\":2970:2979   */\n      add\n        /* \"#utility.yul\":2965:2979   */\n      swap1\n      pop\n        /* \"#utility.yul\":2930:3214   */\n      jump(tag_300)\n    tag_302:\n        /* \"#utility.yul\":2934:2948   */\n      pop\n        /* \"#utility.yul\":3230:3233   */\n      dup6\n        /* \"#utility.yul\":3223:3233   */\n      swap4\n      pop\n        /* \"#utility.yul\":2631:3239   */\n      pop\n      pop\n      pop\n        /* \"#utility.yul\":2507:3239   */\n      swap3\n      swap2\n      pop\n      pop\n      jump\t// out\n        /* \"#utility.yul\":3245:3618   */\n    tag_40:\n        /* \"#utility.yul\":3388:3392   */\n      0x00\n        /* \"#utility.yul\":3426:3428   */\n      0x20\n        /* \"#utility.yul\":3415:3424   */\n      dup3\n        /* \"#utility.yul\":3411:3429   */\n      add\n        /* \"#utility.yul\":3403:3429   */\n      swap1\n      pop\n        /* \"#utility.yul\":3475:3484   */\n      dup2\n        /* \"#utility.yul\":3469:3473   */\n      dup2\n        /* \"#utility.yul\":3465:3485   */\n      sub\n        /* \"#utility.yul\":3461:3462   */\n      0x00\n        /* \"#utility.yul\":3450:3459   */\n      dup4\n        /* \"#utility.yul\":3446:3463   */\n      add\n        /* \"#utility.yul\":3439:3486   */\n      mstore\n        /* \"#utility.yul\":3503:3611   */\n      tag_306\n        /* \"#utility.yul\":3606:3610   */\n      dup2\n        /* \"#utility.yul\":3597:3603   */\n      dup5\n        /* \"#utility.yul\":3503:3611   */\n      tag_231\n      jump\t// in\n    tag_306:\n        /* \"#utility.yul\":3495:3611   */\n      swap1\n      pop\n        /* \"#utility.yul\":3245:3618   */\n      swap3\n      swap2\n      pop\n      pop\n      jump\t// out\n        /* \"#utility.yul\":3624:3742   */\n    tag_232:\n        /* \"#utility.yul\":3711:3735   */\n      tag_308\n        /* \"#utility.yul\":3729:3734   */\n      dup2\n        /* \"#utility.yul\":3711:3735   */\n      tag_227\n      jump\t// in\n    tag_308:\n        /* \"#utility.yul\":3706:3709   */\n      dup3\n        /* \"#utility.yul\":3699:3736   */\n      mstore\n        /* \"#utility.yul\":3624:3742   */\n      pop\n      pop\n      jump\t// out\n        /* \"#utility.yul\":3748:3970   */\n    tag_45:\n        /* \"#utility.yul\":3841:3845   */\n      0x00\n        /* \"#utility.yul\":3879:3881   */\n      0x20\n        /* \"#utility.yul\":3868:3877   */\n      dup3\n        /* \"#utility.yul\":3864:3882   */\n      add\n        /* \"#utility.yul\":3856:3882   */\n      swap1\n      pop\n        /* \"#utility.yul\":3892:3963   */\n      tag_310\n        /* \"#utility.yul\":3960:3961   */\n      0x00\n        /* \"#utility.yul\":3949:3958   */\n      dup4\n        /* \"#utility.yul\":3945:3962   */\n      add\n        /* \"#utility.yul\":3936:3942   */\n      dup5\n        /* \"#utility.yul\":3892:3963   */\n      tag_232\n      jump\t// in\n    tag_310:\n        /* \"#utility.yul\":3748:3970   */\n      swap3\n      swap2\n      pop\n      pop\n      jump\t// out\n        /* \"#utility.yul\":3976:4053   */\n    tag_233:\n        /* \"#utility.yul\":4013:4020   */\n      0x00\n        /* \"#utility.yul\":4042:4047   */\n      dup2\n        /* \"#utility.yul\":4031:4047   */\n      swap1\n      pop\n        /* \"#utility.yul\":3976:4053   */\n      swap2\n      swap1\n      pop\n      jump\t// out\n        /* \"#utility.yul\":4059:4181   */\n    tag_234:\n        /* \"#utility.yul\":4132:4156   */\n      tag_313\n        /* \"#utility.yul\":4150:4155   */\n      dup2\n        /* \"#utility.yul\":4132:4156   */\n      tag_233\n      jump\t// in\n    tag_313:\n        /* \"#utility.yul\":4125:4130   */\n      dup2\n        /* \"#utility.yul\":4122:4157   */\n      eq\n        /* \"#utility.yul\":4112:4175   */\n      tag_314\n      jumpi\n        /* \"#utility.yul\":4171:4172   */\n      0x00\n        /* \"#utility.yul\":4168:4169   */\n      dup1\n        /* \"#utility.yul\":4161:4173   */\n      revert\n        /* \"#utility.yul\":4112:4175   */\n    tag_314:\n        /* \"#utility.yul\":4059:4181   */\n      pop\n      jump\t// out\n        /* \"#utility.yul\":4187:4326   */\n    tag_235:\n        /* \"#utility.yul\":4233:4238   */\n      0x00\n        /* \"#utility.yul\":4271:4277   */\n      dup2\n        /* \"#utility.yul\":4258:4278   */\n      calldataload\n        /* \"#utility.yul\":4249:4278   */\n      swap1\n      pop\n        /* \"#utility.yul\":4287:4320   */\n      tag_316\n        /* \"#utility.yul\":4314:4319   */\n      dup2\n        /* \"#utility.yul\":4287:4320   */\n      tag_234\n      jump\t// in\n    tag_316:\n        /* \"#utility.yul\":4187:4326   */\n      swap3\n      swap2\n      pop\n      pop\n      jump\t// out\n        /* \"#utility.yul\":4332:4806   */\n    tag_49:\n        /* \"#utility.yul\":4400:4406   */\n      0x00\n        /* \"#utility.yul\":4408:4414   */\n      dup1\n        /* \"#utility.yul\":4457:4459   */\n      0x40\n        /* \"#utility.yul\":4445:4454   */\n      dup4\n        /* \"#utility.yul\":4436:4443   */\n      dup6\n        /* \"#utility.yul\":4432:4455   */\n      sub\n        /* \"#utility.yul\":4428:4460   */\n      slt\n        /* \"#utility.yul\":4425:4544   */\n      iszero\n      tag_318\n      jumpi\n        /* \"#utility.yul\":4463:4542   */\n      tag_319\n      tag_219\n      jump\t// in\n    tag_319:\n        /* \"#utility.yul\":4425:4544   */\n    tag_318:\n        /* \"#utility.yul\":4583:4584   */\n      0x00\n        /* \"#utility.yul\":4608:4661   */\n      tag_320\n        /* \"#utility.yul\":4653:4660   */\n      dup6\n        /* \"#utility.yul\":4644:4650   */\n      dup3\n        /* \"#utility.yul\":4633:4642   */\n      dup7\n        /* \"#utility.yul\":4629:4651   */\n      add\n        /* \"#utility.yul\":4608:4661   */\n      tag_235\n      jump\t// in\n    tag_320:\n        /* \"#utility.yul\":4598:4661   */\n      swap3\n      pop\n        /* \"#utility.yul\":4554:4671   */\n      pop\n        /* \"#utility.yul\":4710:4712   */\n      0x20\n        /* \"#utility.yul\":4736:4789   */\n      tag_321\n        /* \"#utility.yul\":4781:4788   */\n      dup6\n        /* \"#utility.yul\":4772:4778   */\n      dup3\n        /* \"#utility.yul\":4761:4770   */\n      dup7\n        /* \"#utility.yul\":4757:4779   */\n      add\n        /* \"#utility.yul\":4736:4789   */\n      tag_222\n      jump\t// in\n    tag_321:\n        /* \"#utility.yul\":4726:4789   */\n      swap2\n      pop\n        /* \"#utility.yul\":4681:4799   */\n      pop\n        /* \"#utility.yul\":4332:4806   */\n      swap3\n      pop\n      swap3\n      swap1\n      pop\n      jump\t// out\n        /* \"#utility.yul\":4812:4916   */\n    tag_236:\n        /* \"#utility.yul\":4857:4864   */\n      0x00\n        /* \"#utility.yul\":4886:4910   */\n      tag_323\n        /* \"#utility.yul\":4904:4909   */\n      dup3\n        /* \"#utility.yul\":4886:4910   */\n      tag_226\n      jump\t// in\n    tag_323:\n        /* \"#utility.yul\":4875:4910   */\n      swap1\n      pop\n        /* \"#utility.yul\":4812:4916   */\n      swap2\n      swap1\n      pop\n      jump\t// out\n        /* \"#utility.yul\":4922:5064   */\n    tag_237:\n        /* \"#utility.yul\":5025:5057   */\n      tag_325\n        /* \"#utility.yul\":5051:5056   */\n      dup2\n        /* \"#utility.yul\":5025:5057   */\n      tag_236\n      jump\t// in\n    tag_325:\n        /* \"#utility.yul\":5020:5023   */\n      dup3\n        /* \"#utility.yul\":5013:5058   */\n      mstore\n        /* \"#utility.yul\":4922:5064   */\n      pop\n      pop\n      jump\t// out\n        /* \"#utility.yul\":5070:5324   */\n    tag_56:\n        /* \"#utility.yul\":5179:5183   */\n      0x00\n        /* \"#utility.yul\":5217:5219   */\n      0x20\n        /* \"#utility.yul\":5206:5215   */\n      dup3\n        /* \"#utility.yul\":5202:5220   */\n      add\n        /* \"#utility.yul\":5194:5220   */\n      swap1\n      pop\n        /* \"#utility.yul\":5230:5317   */\n      tag_327\n        /* \"#utility.yul\":5314:5315   */\n      0x00\n        /* \"#utility.yul\":5303:5312   */\n      dup4\n        /* \"#utility.yul\":5299:5316   */\n      add\n        /* \"#utility.yul\":5290:5296   */\n      dup5\n        /* \"#utility.yul\":5230:5317   */\n      tag_237\n      jump\t// in\n    tag_327:\n        /* \"#utility.yul\":5070:5324   */\n      swap3\n      swap2\n      pop\n      pop\n      jump\t// out\n        /* \"#utility.yul\":5330:5420   */\n    tag_238:\n        /* \"#utility.yul\":5364:5371   */\n      0x00\n        /* \"#utility.yul\":5407:5412   */\n      dup2\n        /* \"#utility.yul\":5400:5413   */\n      iszero\n        /* \"#utility.yul\":5393:5414   */\n      iszero\n        /* \"#utility.yul\":5382:5414   */\n      swap1\n      pop\n        /* \"#utility.yul\":5330:5420   */\n      swap2\n      swap1\n      pop\n      jump\t// out\n        /* \"#utility.yul\":5426:5535   */\n    tag_239:\n        /* \"#utility.yul\":5507:5528   */\n      tag_330\n        /* \"#utility.yul\":5522:5527   */\n      dup2\n        /* \"#utility.yul\":5507:5528   */\n      tag_238\n      jump\t// in\n    tag_330:\n        /* \"#utility.yul\":5502:5505   */\n      dup3\n        /* \"#utility.yul\":5495:5529   */\n      mstore\n        /* \"#utility.yul\":5426:5535   */\n      pop\n      pop\n      jump\t// out\n        /* \"#utility.yul\":5541:5751   */\n    tag_61:\n        /* \"#utility.yul\":5628:5632   */\n      0x00\n        /* \"#utility.yul\":5666:5668   */\n      0x20\n        /* \"#utility.yul\":5655:5664   */\n      dup3\n        /* \"#utility.yul\":5651:5669   */\n      add\n        /* \"#utility.yul\":5643:5669   */\n      swap1\n      pop\n        /* \"#utility.yul\":5679:5744   */\n      tag_332\n        /* \"#utility.yul\":5741:5742   */\n      0x00\n        /* \"#utility.yul\":5730:5739   */\n      dup4\n        /* \"#utility.yul\":5726:5743   */\n      add\n        /* \"#utility.yul\":5717:5723   */\n      dup5\n        /* \"#utility.yul\":5679:5744   */\n      tag_239\n      jump\t// in\n    tag_332:\n        /* \"#utility.yul\":5541:5751   */\n      swap3\n      swap2\n      pop\n      pop\n      jump\t// out\n        /* \"#utility.yul\":5757:5873   */\n    tag_240:\n        /* \"#utility.yul\":5827:5848   */\n      tag_334\n        /* \"#utility.yul\":5842:5847   */\n      dup2\n        /* \"#utility.yul\":5827:5848   */\n      tag_238\n      jump\t// in\n    tag_334:\n        /* \"#utility.yul\":5820:5825   */\n      dup2\n        /* \"#utility.yul\":5817:5849   */\n      eq\n        /* \"#utility.yul\":5807:5867   */\n      tag_335\n      jumpi\n        /* \"#utility.yul\":5863:5864   */\n      0x00\n        /* \"#utility.yul\":5860:5861   */\n      dup1\n        /* \"#utility.yul\":5853:5865   */\n      revert\n        /* \"#utility.yul\":5807:5867   */\n    tag_335:\n        /* \"#utility.yul\":5757:5873   */\n      pop\n      jump\t// out\n        /* \"#utility.yul\":5879:6012   */\n    tag_241:\n        /* \"#utility.yul\":5922:5927   */\n      0x00\n        /* \"#utility.yul\":5960:5966   */\n      dup2\n        /* \"#utility.yul\":5947:5967   */\n      calldataload\n        /* \"#utility.yul\":5938:5967   */\n      swap1\n      pop\n        /* \"#utility.yul\":5976:6006   */\n      tag_337\n        /* \"#utility.yul\":6000:6005   */\n      dup2\n        /* \"#utility.yul\":5976:6006   */\n      tag_240\n      jump\t// in\n    tag_337:\n        /* \"#utility.yul\":5879:6012   */\n      swap3\n      swap2\n      pop\n      pop\n      jump\t// out\n        /* \"#utility.yul\":6018:6341   */\n    tag_65:\n        /* \"#utility.yul\":6074:6080   */\n      0x00\n        /* \"#utility.yul\":6123:6125   */\n      0x20\n        /* \"#utility.yul\":6111:6120   */\n      dup3\n        /* \"#utility.yul\":6102:6109   */\n      dup5\n        /* \"#utility.yul\":6098:6121   */\n      sub\n        /* \"#utility.yul\":6094:6126   */\n      slt\n        /* \"#utility.yul\":6091:6210   */\n      iszero\n      tag_339\n      jumpi\n        /* \"#utility.yul\":6129:6208   */\n      tag_340\n      tag_219\n      jump\t// in\n    tag_340:\n        /* \"#utility.yul\":6091:6210   */\n    tag_339:\n        /* \"#utility.yul\":6249:6250   */\n      0x00\n        /* \"#utility.yul\":6274:6324   */\n      tag_341\n        /* \"#utility.yul\":6316:6323   */\n      dup5\n        /* \"#utility.yul\":6307:6313   */\n      dup3\n        /* \"#utility.yul\":6296:6305   */\n      dup6\n        /* \"#utility.yul\":6292:6314   */\n      add\n        /* \"#utility.yul\":6274:6324   */\n      tag_241\n      jump\t// in\n    tag_341:\n        /* \"#utility.yul\":6264:6324   */\n      swap2\n      pop\n        /* \"#utility.yul\":6220:6334   */\n      pop\n        /* \"#utility.yul\":6018:6341   */\n      swap3\n      swap2\n      pop\n      pop\n      jump\t// out\n        /* \"#utility.yul\":6347:6516   */\n    tag_242:\n        /* \"#utility.yul\":6431:6442   */\n      0x00\n        /* \"#utility.yul\":6465:6471   */\n      dup3\n        /* \"#utility.yul\":6460:6463   */\n      dup3\n        /* \"#utility.yul\":6453:6472   */\n      mstore\n        /* \"#utility.yul\":6505:6509   */\n      0x20\n        /* \"#utility.yul\":6500:6503   */\n      dup3\n        /* \"#utility.yul\":6496:6510   */\n      add\n        /* \"#utility.yul\":6481:6510   */\n      swap1\n      pop\n        /* \"#utility.yul\":6347:6516   */\n      swap3\n      swap2\n      pop\n      pop\n      jump\t// out\n        /* \"#utility.yul\":6522:6694   */\n    tag_243:\n        /* \"#utility.yul\":6662:6686   */\n      0x5468657265206973206e6f207375636820726f756e6400000000000000000000\n        /* \"#utility.yul\":6658:6659   */\n      0x00\n        /* \"#utility.yul\":6650:6656   */\n      dup3\n        /* \"#utility.yul\":6646:6660   */\n      add\n        /* \"#utility.yul\":6639:6687   */\n      mstore\n        /* \"#utility.yul\":6522:6694   */\n      pop\n      jump\t// out\n        /* \"#utility.yul\":6700:7066   */\n    tag_244:\n        /* \"#utility.yul\":6842:6845   */\n      0x00\n        /* \"#utility.yul\":6863:6930   */\n      tag_345\n        /* \"#utility.yul\":6927:6929   */\n      0x16\n        /* \"#utility.yul\":6922:6925   */\n      dup4\n        /* \"#utility.yul\":6863:6930   */\n      tag_242\n      jump\t// in\n    tag_345:\n        /* \"#utility.yul\":6856:6930   */\n      swap2\n      pop\n        /* \"#utility.yul\":6939:7032   */\n      tag_346\n        /* \"#utility.yul\":7028:7031   */\n      dup3\n        /* \"#utility.yul\":6939:7032   */\n      tag_243\n      jump\t// in\n    tag_346:\n        /* \"#utility.yul\":7057:7059   */\n      0x20\n        /* \"#utility.yul\":7052:7055   */\n      dup3\n        /* \"#utility.yul\":7048:7060   */\n      add\n        /* \"#utility.yul\":7041:7060   */\n      swap1\n      pop\n        /* \"#utility.yul\":6700:7066   */\n      swap2\n      swap1\n      pop\n      jump\t// out\n        /* \"#utility.yul\":7072:7491   */\n    tag_91:\n        /* \"#utility.yul\":7238:7242   */\n      0x00\n        /* \"#utility.yul\":7276:7278   */\n      0x20\n        /* \"#utility.yul\":7265:7274   */\n      dup3\n        /* \"#utility.yul\":7261:7279   */\n      add\n        /* \"#utility.yul\":7253:7279   */\n      swap1\n      pop\n        /* \"#utility.yul\":7325:7334   */\n      dup2\n        /* \"#utility.yul\":7319:7323   */\n      dup2\n        /* \"#utility.yul\":7315:7335   */\n      sub\n        /* \"#utility.yul\":7311:7312   */\n      0x00\n        /* \"#utility.yul\":7300:7309   */\n      dup4\n        /* \"#utility.yul\":7296:7313   */\n      add\n        /* \"#utility.yul\":7289:7336   */\n      mstore\n        /* \"#utility.yul\":7353:7484   */\n      tag_348\n        /* \"#utility.yul\":7479:7483   */\n      dup2\n        /* \"#utility.yul\":7353:7484   */\n      tag_244\n      jump\t// in\n    tag_348:\n        /* \"#utility.yul\":7345:7484   */\n      swap1\n      pop\n        /* \"#utility.yul\":7072:7491   */\n      swap2\n      swap1\n      pop\n      jump\t// out\n        /* \"#utility.yul\":7497:7677   */\n    tag_245:\n        /* \"#utility.yul\":7545:7622   */\n      0x4e487b7100000000000000000000000000000000000000000000000000000000\n        /* \"#utility.yul\":7542:7543   */\n      0x00\n        /* \"#utility.yul\":7535:7623   */\n      mstore\n        /* \"#utility.yul\":7642:7646   */\n      0x11\n        /* \"#utility.yul\":7639:7640   */\n      0x04\n        /* \"#utility.yul\":7632:7647   */\n      mstore\n        /* \"#utility.yul\":7666:7670   */\n      0x24\n        /* \"#utility.yul\":7663:7664   */\n      0x00\n        /* \"#utility.yul\":7656:7671   */\n      revert\n        /* \"#utility.yul\":7683:7877   */\n    tag_93:\n        /* \"#utility.yul\":7723:7727   */\n      0x00\n        /* \"#utility.yul\":7743:7763   */\n      tag_351\n        /* \"#utility.yul\":7761:7762   */\n      dup3\n        /* \"#utility.yul\":7743:7763   */\n      tag_216\n      jump\t// in\n    tag_351:\n        /* \"#utility.yul\":7738:7763   */\n      swap2\n      pop\n        /* \"#utility.yul\":7777:7797   */\n      tag_352\n        /* \"#utility.yul\":7795:7796   */\n      dup4\n        /* \"#utility.yul\":7777:7797   */\n      tag_216\n      jump\t// in\n    tag_352:\n        /* \"#utility.yul\":7772:7797   */\n      swap3\n      pop\n        /* \"#utility.yul\":7821:7822   */\n      dup3\n        /* \"#utility.yul\":7818:7819   */\n      dup3\n        /* \"#utility.yul\":7814:7823   */\n      sub\n        /* \"#utility.yul\":7806:7823   */\n      swap1\n      pop\n        /* \"#utility.yul\":7845:7846   */\n      dup2\n        /* \"#utility.yul\":7839:7843   */\n      dup2\n        /* \"#utility.yul\":7836:7847   */\n      gt\n        /* \"#utility.yul\":7833:7870   */\n      iszero\n      tag_353\n      jumpi\n        /* \"#utility.yul\":7850:7868   */\n      tag_354\n      tag_245\n      jump\t// in\n    tag_354:\n        /* \"#utility.yul\":7833:7870   */\n    tag_353:\n        /* \"#utility.yul\":7683:7877   */\n      swap3\n      swap2\n      pop\n      pop\n      jump\t// out\n        /* \"#utility.yul\":7883:8063   */\n    tag_96:\n        /* \"#utility.yul\":7931:8008   */\n      0x4e487b7100000000000000000000000000000000000000000000000000000000\n        /* \"#utility.yul\":7928:7929   */\n      0x00\n        /* \"#utility.yul\":7921:8009   */\n      mstore\n        /* \"#utility.yul\":8028:8032   */\n      0x32\n        /* \"#utility.yul\":8025:8026   */\n      0x04\n        /* \"#utility.yul\":8018:8033   */\n      mstore\n        /* \"#utility.yul\":8052:8056   */\n      0x24\n        /* \"#utility.yul\":8049:8050   */\n      0x00\n        /* \"#utility.yul\":8042:8057   */\n      revert\n        /* \"#utility.yul\":8069:8250   */\n    tag_246:\n        /* \"#utility.yul\":8209:8242   */\n      0x4f6e6c7920565246436f6f7264696e61746f722063616e2066756c66696c6c00\n        /* \"#utility.yul\":8205:8206   */\n      0x00\n        /* \"#utility.yul\":8197:8203   */\n      dup3\n        /* \"#utility.yul\":8193:8207   */\n      add\n        /* \"#utility.yul\":8186:8243   */\n      mstore\n        /* \"#utility.yul\":8069:8250   */\n      pop\n      jump\t// out\n        /* \"#utility.yul\":8256:8622   */\n    tag_247:\n        /* \"#utility.yul\":8398:8401   */\n      0x00\n        /* \"#utility.yul\":8419:8486   */\n      tag_358\n        /* \"#utility.yul\":8483:8485   */\n      0x1f\n        /* \"#utility.yul\":8478:8481   */\n      dup4\n        /* \"#utility.yul\":8419:8486   */\n      tag_242\n      jump\t// in\n    tag_358:\n        /* \"#utility.yul\":8412:8486   */\n      swap2\n      pop\n        /* \"#utility.yul\":8495:8588   */\n      tag_359\n        /* \"#utility.yul\":8584:8587   */\n      dup3\n        /* \"#utility.yul\":8495:8588   */\n      tag_246\n      jump\t// in\n    tag_359:\n        /* \"#utility.yul\":8613:8615   */\n      0x20\n        /* \"#utility.yul\":8608:8611   */\n      dup3\n        /* \"#utility.yul\":8604:8616   */\n      add\n        /* \"#utility.yul\":8597:8616   */\n      swap1\n      pop\n        /* \"#utility.yul\":8256:8622   */\n      swap2\n      swap1\n      pop\n      jump\t// out\n        /* \"#utility.yul\":8628:9047   */\n    tag_104:\n        /* \"#utility.yul\":8794:8798   */\n      0x00\n        /* \"#utility.yul\":8832:8834   */\n      0x20\n        /* \"#utility.yul\":8821:8830   */\n      dup3\n        /* \"#utility.yul\":8817:8835   */\n      add\n        /* \"#utility.yul\":8809:8835   */\n      swap1\n      pop\n        /* \"#utility.yul\":8881:8890   */\n      dup2\n        /* \"#utility.yul\":8875:8879   */\n      dup2\n        /* \"#utility.yul\":8871:8891   */\n      sub\n        /* \"#utility.yul\":8867:8868   */\n      0x00\n        /* \"#utility.yul\":8856:8865   */\n      dup4\n        /* \"#utility.yul\":8852:8869   */\n      add\n        /* \"#utility.yul\":8845:8892   */\n      mstore\n        /* \"#utility.yul\":8909:9040   */\n      tag_361\n        /* \"#utility.yul\":9035:9039   */\n      dup2\n        /* \"#utility.yul\":8909:9040   */\n      tag_247\n      jump\t// in\n    tag_361:\n        /* \"#utility.yul\":8901:9040   */\n      swap1\n      pop\n        /* \"#utility.yul\":8628:9047   */\n      swap2\n      swap1\n      pop\n      jump\t// out\n        /* \"#utility.yul\":9053:9196   */\n    tag_248:\n        /* \"#utility.yul\":9110:9115   */\n      0x00\n        /* \"#utility.yul\":9141:9147   */\n      dup2\n        /* \"#utility.yul\":9135:9148   */\n      mload\n        /* \"#utility.yul\":9126:9148   */\n      swap1\n      pop\n        /* \"#utility.yul\":9157:9190   */\n      tag_363\n        /* \"#utility.yul\":9184:9189   */\n      dup2\n        /* \"#utility.yul\":9157:9190   */\n      tag_221\n      jump\t// in\n    tag_363:\n        /* \"#utility.yul\":9053:9196   */\n      swap3\n      swap2\n      pop\n      pop\n      jump\t// out\n        /* \"#utility.yul\":9202:9553   */\n    tag_126:\n        /* \"#utility.yul\":9272:9278   */\n      0x00\n        /* \"#utility.yul\":9321:9323   */\n      0x20\n        /* \"#utility.yul\":9309:9318   */\n      dup3\n        /* \"#utility.yul\":9300:9307   */\n      dup5\n        /* \"#utility.yul\":9296:9319   */\n      sub\n        /* \"#utility.yul\":9292:9324   */\n      slt\n        /* \"#utility.yul\":9289:9408   */\n      iszero\n      tag_365\n      jumpi\n        /* \"#utility.yul\":9327:9406   */\n      tag_366\n      tag_219\n      jump\t// in\n    tag_366:\n        /* \"#utility.yul\":9289:9408   */\n    tag_365:\n        /* \"#utility.yul\":9447:9448   */\n      0x00\n        /* \"#utility.yul\":9472:9536   */\n      tag_367\n        /* \"#utility.yul\":9528:9535   */\n      dup5\n        /* \"#utility.yul\":9519:9525   */\n      dup3\n        /* \"#utility.yul\":9508:9517   */\n      dup6\n        /* \"#utility.yul\":9504:9526   */\n      add\n        /* \"#utility.yul\":9472:9536   */\n      tag_248\n      jump\t// in\n    tag_367:\n        /* \"#utility.yul\":9462:9536   */\n      swap2\n      pop\n        /* \"#utility.yul\":9418:9546   */\n      pop\n        /* \"#utility.yul\":9202:9553   */\n      swap3\n      swap2\n      pop\n      pop\n      jump\t// out\n        /* \"#utility.yul\":9559:9736   */\n    tag_249:\n        /* \"#utility.yul\":9699:9728   */\n      0x4e6f7420656e6f756768204c494e4b20696e20636f6e74726163740000000000\n        /* \"#utility.yul\":9695:9696   */\n      0x00\n        /* \"#utility.yul\":9687:9693   */\n      dup3\n        /* \"#utility.yul\":9683:9697   */\n      add\n        /* \"#utility.yul\":9676:9729   */\n      mstore\n        /* \"#utility.yul\":9559:9736   */\n      pop\n      jump\t// out\n        /* \"#utility.yul\":9742:10108   */\n    tag_250:\n        /* \"#utility.yul\":9884:9887   */\n      0x00\n        /* \"#utility.yul\":9905:9972   */\n      tag_370\n        /* \"#utility.yul\":9969:9971   */\n      0x1b\n        /* \"#utility.yul\":9964:9967   */\n      dup4\n        /* \"#utility.yul\":9905:9972   */\n      tag_242\n      jump\t// in\n    tag_370:\n        /* \"#utility.yul\":9898:9972   */\n      swap2\n      pop\n        /* \"#utility.yul\":9981:10074   */\n      tag_371\n        /* \"#utility.yul\":10070:10073   */\n      dup3\n        /* \"#utility.yul\":9981:10074   */\n      tag_249\n      jump\t// in\n    tag_371:\n        /* \"#utility.yul\":10099:10101   */\n      0x20\n        /* \"#utility.yul\":10094:10097   */\n      dup3\n        /* \"#utility.yul\":10090:10102   */\n      add\n        /* \"#utility.yul\":10083:10102   */\n      swap1\n      pop\n        /* \"#utility.yul\":9742:10108   */\n      swap2\n      swap1\n      pop\n      jump\t// out\n        /* \"#utility.yul\":10114:10533   */\n    tag_129:\n        /* \"#utility.yul\":10280:10284   */\n      0x00\n        /* \"#utility.yul\":10318:10320   */\n      0x20\n        /* \"#utility.yul\":10307:10316   */\n      dup3\n        /* \"#utility.yul\":10303:10321   */\n      add\n        /* \"#utility.yul\":10295:10321   */\n      swap1\n      pop\n        /* \"#utility.yul\":10367:10376   */\n      dup2\n        /* \"#utility.yul\":10361:10365   */\n      dup2\n        /* \"#utility.yul\":10357:10377   */\n      sub\n        /* \"#utility.yul\":10353:10354   */\n      0x00\n        /* \"#utility.yul\":10342:10351   */\n      dup4\n        /* \"#utility.yul\":10338:10355   */\n      add\n        /* \"#utility.yul\":10331:10378   */\n      mstore\n        /* \"#utility.yul\":10395:10526   */\n      tag_373\n        /* \"#utility.yul\":10521:10525   */\n      dup2\n        /* \"#utility.yul\":10395:10526   */\n      tag_250\n      jump\t// in\n    tag_373:\n        /* \"#utility.yul\":10387:10526   */\n      swap1\n      pop\n        /* \"#utility.yul\":10114:10533   */\n      swap2\n      swap1\n      pop\n      jump\t// out\n        /* \"#utility.yul\":10539:10719   */\n    tag_251:\n        /* \"#utility.yul\":10587:10664   */\n      0x4e487b7100000000000000000000000000000000000000000000000000000000\n        /* \"#utility.yul\":10584:10585   */\n      0x00\n        /* \"#utility.yul\":10577:10665   */\n      mstore\n        /* \"#utility.yul\":10684:10688   */\n      0x12\n        /* \"#utility.yul\":10681:10682   */\n      0x04\n        /* \"#utility.yul\":10674:10689   */\n      mstore\n        /* \"#utility.yul\":10708:10712   */\n      0x24\n        /* \"#utility.yul\":10705:10706   */\n      0x00\n        /* \"#utility.yul\":10698:10713   */\n      revert\n        /* \"#utility.yul\":10725:10901   */\n    tag_134:\n        /* \"#utility.yul\":10757:10758   */\n      0x00\n        /* \"#utility.yul\":10774:10794   */\n      tag_376\n        /* \"#utility.yul\":10792:10793   */\n      dup3\n        /* \"#utility.yul\":10774:10794   */\n      tag_216\n      jump\t// in\n    tag_376:\n        /* \"#utility.yul\":10769:10794   */\n      swap2\n      pop\n        /* \"#utility.yul\":10808:10828   */\n      tag_377\n        /* \"#utility.yul\":10826:10827   */\n      dup4\n        /* \"#utility.yul\":10808:10828   */\n      tag_216\n      jump\t// in\n    tag_377:\n        /* \"#utility.yul\":10803:10828   */\n      swap3\n      pop\n        /* \"#utility.yul\":10847:10848   */\n      dup3\n        /* \"#utility.yul\":10837:10872   */\n      tag_378\n      jumpi\n        /* \"#utility.yul\":10852:10870   */\n      tag_379\n      tag_251\n      jump\t// in\n    tag_379:\n        /* \"#utility.yul\":10837:10872   */\n    tag_378:\n        /* \"#utility.yul\":10893:10894   */\n      dup3\n        /* \"#utility.yul\":10890:10891   */\n      dup3\n        /* \"#utility.yul\":10886:10895   */\n      mod\n        /* \"#utility.yul\":10881:10895   */\n      swap1\n      pop\n        /* \"#utility.yul\":10725:10901   */\n      swap3\n      swap2\n      pop\n      pop\n      jump\t// out\n        /* \"#utility.yul\":10907:11001   */\n    tag_252:\n        /* \"#utility.yul\":10940:10948   */\n      0x00\n        /* \"#utility.yul\":10988:10993   */\n      dup2\n        /* \"#utility.yul\":10984:10986   */\n      0x60\n        /* \"#utility.yul\":10980:10994   */\n      shl\n        /* \"#utility.yul\":10959:10994   */\n      swap1\n      pop\n        /* \"#utility.yul\":10907:11001   */\n      swap2\n      swap1\n      pop\n      jump\t// out\n        /* \"#utility.yul\":11007:11101   */\n    tag_253:\n        /* \"#utility.yul\":11046:11053   */\n      0x00\n        /* \"#utility.yul\":11075:11095   */\n      tag_382\n        /* \"#utility.yul\":11089:11094   */\n      dup3\n        /* \"#utility.yul\":11075:11095   */\n      tag_252\n      jump\t// in\n    tag_382:\n        /* \"#utility.yul\":11064:11095   */\n      swap1\n      pop\n        /* \"#utility.yul\":11007:11101   */\n      swap2\n      swap1\n      pop\n      jump\t// out\n        /* \"#utility.yul\":11107:11207   */\n    tag_254:\n        /* \"#utility.yul\":11146:11153   */\n      0x00\n        /* \"#utility.yul\":11175:11201   */\n      tag_384\n        /* \"#utility.yul\":11195:11200   */\n      dup3\n        /* \"#utility.yul\":11175:11201   */\n      tag_253\n      jump\t// in\n    tag_384:\n        /* \"#utility.yul\":11164:11201   */\n      swap1\n      pop\n        /* \"#utility.yul\":11107:11207   */\n      swap2\n      swap1\n      pop\n      jump\t// out\n        /* \"#utility.yul\":11213:11370   */\n    tag_255:\n        /* \"#utility.yul\":11318:11363   */\n      tag_386\n        /* \"#utility.yul\":11338:11362   */\n      tag_387\n        /* \"#utility.yul\":11356:11361   */\n      dup3\n        /* \"#utility.yul\":11338:11362   */\n      tag_227\n      jump\t// in\n    tag_387:\n        /* \"#utility.yul\":11318:11363   */\n      tag_254\n      jump\t// in\n    tag_386:\n        /* \"#utility.yul\":11313:11316   */\n      dup3\n        /* \"#utility.yul\":11306:11364   */\n      mstore\n        /* \"#utility.yul\":11213:11370   */\n      pop\n      pop\n      jump\t// out\n        /* \"#utility.yul\":11376:11455   */\n    tag_256:\n        /* \"#utility.yul\":11415:11422   */\n      0x00\n        /* \"#utility.yul\":11444:11449   */\n      dup2\n        /* \"#utility.yul\":11433:11449   */\n      swap1\n      pop\n        /* \"#utility.yul\":11376:11455   */\n      swap2\n      swap1\n      pop\n      jump\t// out\n        /* \"#utility.yul\":11461:11618   */\n    tag_257:\n        /* \"#utility.yul\":11566:11611   */\n      tag_390\n        /* \"#utility.yul\":11586:11610   */\n      tag_391\n        /* \"#utility.yul\":11604:11609   */\n      dup3\n        /* \"#utility.yul\":11586:11610   */\n      tag_216\n      jump\t// in\n    tag_391:\n        /* \"#utility.yul\":11566:11611   */\n      tag_256\n      jump\t// in\n    tag_390:\n        /* \"#utility.yul\":11561:11564   */\n      dup3\n        /* \"#utility.yul\":11554:11612   */\n      mstore\n        /* \"#utility.yul\":11461:11618   */\n      pop\n      pop\n      jump\t// out\n        /* \"#utility.yul\":11624:12021   */\n    tag_139:\n        /* \"#utility.yul\":11764:11767   */\n      0x00\n        /* \"#utility.yul\":11779:11854   */\n      tag_393\n        /* \"#utility.yul\":11850:11853   */\n      dup3\n        /* \"#utility.yul\":11841:11847   */\n      dup6\n        /* \"#utility.yul\":11779:11854   */\n      tag_255\n      jump\t// in\n    tag_393:\n        /* \"#utility.yul\":11879:11881   */\n      0x14\n        /* \"#utility.yul\":11874:11877   */\n      dup3\n        /* \"#utility.yul\":11870:11882   */\n      add\n        /* \"#utility.yul\":11863:11882   */\n      swap2\n      pop\n        /* \"#utility.yul\":11892:11967   */\n      tag_394\n        /* \"#utility.yul\":11963:11966   */\n      dup3\n        /* \"#utility.yul\":11954:11960   */\n      dup5\n        /* \"#utility.yul\":11892:11967   */\n      tag_257\n      jump\t// in\n    tag_394:\n        /* \"#utility.yul\":11992:11994   */\n      0x20\n        /* \"#utility.yul\":11987:11990   */\n      dup3\n        /* \"#utility.yul\":11983:11995   */\n      add\n        /* \"#utility.yul\":11976:11995   */\n      swap2\n      pop\n        /* \"#utility.yul\":12012:12015   */\n      dup2\n        /* \"#utility.yul\":12005:12015   */\n      swap1\n      pop\n        /* \"#utility.yul\":11624:12021   */\n      swap4\n      swap3\n      pop\n      pop\n      pop\n      jump\t// out\n        /* \"#utility.yul\":12027:12145   */\n    tag_258:\n        /* \"#utility.yul\":12114:12138   */\n      tag_396\n        /* \"#utility.yul\":12132:12137   */\n      dup2\n        /* \"#utility.yul\":12114:12138   */\n      tag_233\n      jump\t// in\n    tag_396:\n        /* \"#utility.yul\":12109:12112   */\n      dup3\n        /* \"#utility.yul\":12102:12139   */\n      mstore\n        /* \"#utility.yul\":12027:12145   */\n      pop\n      pop\n      jump\t// out\n        /* \"#utility.yul\":12151:12483   */\n    tag_145:\n        /* \"#utility.yul\":12272:12276   */\n      0x00\n        /* \"#utility.yul\":12310:12312   */\n      0x40\n        /* \"#utility.yul\":12299:12308   */\n      dup3\n        /* \"#utility.yul\":12295:12313   */\n      add\n        /* \"#utility.yul\":12287:12313   */\n      swap1\n      pop\n        /* \"#utility.yul\":12323:12394   */\n      tag_398\n        /* \"#utility.yul\":12391:12392   */\n      0x00\n        /* \"#utility.yul\":12380:12389   */\n      dup4\n        /* \"#utility.yul\":12376:12393   */\n      add\n        /* \"#utility.yul\":12367:12373   */\n      dup6\n        /* \"#utility.yul\":12323:12394   */\n      tag_258\n      jump\t// in\n    tag_398:\n        /* \"#utility.yul\":12404:12476   */\n      tag_399\n        /* \"#utility.yul\":12472:12474   */\n      0x20\n        /* \"#utility.yul\":12461:12470   */\n      dup4\n        /* \"#utility.yul\":12457:12475   */\n      add\n        /* \"#utility.yul\":12448:12454   */\n      dup5\n        /* \"#utility.yul\":12404:12476   */\n      tag_217\n      jump\t// in\n    tag_399:\n        /* \"#utility.yul\":12151:12483   */\n      swap4\n      swap3\n      pop\n      pop\n      pop\n      jump\t// out\n        /* \"#utility.yul\":12489:12587   */\n    tag_259:\n        /* \"#utility.yul\":12540:12546   */\n      0x00\n        /* \"#utility.yul\":12574:12579   */\n      dup2\n        /* \"#utility.yul\":12568:12580   */\n      mload\n        /* \"#utility.yul\":12558:12580   */\n      swap1\n      pop\n        /* \"#utility.yul\":12489:12587   */\n      swap2\n      swap1\n      pop\n      jump\t// out\n        /* \"#utility.yul\":12593:12761   */\n    tag_260:\n        /* \"#utility.yul\":12676:12687   */\n      0x00\n        /* \"#utility.yul\":12710:12716   */\n      dup3\n        /* \"#utility.yul\":12705:12708   */\n      dup3\n        /* \"#utility.yul\":12698:12717   */\n      mstore\n        /* \"#utility.yul\":12750:12754   */\n      0x20\n        /* \"#utility.yul\":12745:12748   */\n      dup3\n        /* \"#utility.yul\":12741:12755   */\n      add\n        /* \"#utility.yul\":12726:12755   */\n      swap1\n      pop\n        /* \"#utility.yul\":12593:12761   */\n      swap3\n      swap2\n      pop\n      pop\n      jump\t// out\n        /* \"#utility.yul\":12767:13013   */\n    tag_261:\n        /* \"#utility.yul\":12848:12849   */\n      0x00\n        /* \"#utility.yul\":12858:12971   */\n    tag_403:\n        /* \"#utility.yul\":12872:12878   */\n      dup4\n        /* \"#utility.yul\":12869:12870   */\n      dup2\n        /* \"#utility.yul\":12866:12879   */\n      lt\n        /* \"#utility.yul\":12858:12971   */\n      iszero\n      tag_405\n      jumpi\n        /* \"#utility.yul\":12957:12958   */\n      dup1\n        /* \"#utility.yul\":12952:12955   */\n      dup3\n        /* \"#utility.yul\":12948:12959   */\n      add\n        /* \"#utility.yul\":12942:12960   */\n      mload\n        /* \"#utility.yul\":12938:12939   */\n      dup2\n        /* \"#utility.yul\":12933:12936   */\n      dup5\n        /* \"#utility.yul\":12929:12940   */\n      add\n        /* \"#utility.yul\":12922:12961   */\n      mstore\n        /* \"#utility.yul\":12894:12896   */\n      0x20\n        /* \"#utility.yul\":12891:12892   */\n      dup2\n        /* \"#utility.yul\":12887:12897   */\n      add\n        /* \"#utility.yul\":12882:12897   */\n      swap1\n      pop\n        /* \"#utility.yul\":12858:12971   */\n      jump(tag_403)\n    tag_405:\n        /* \"#utility.yul\":13005:13006   */\n      0x00\n        /* \"#utility.yul\":12996:13002   */\n      dup5\n        /* \"#utility.yul\":12991:12994   */\n      dup5\n        /* \"#utility.yul\":12987:13003   */\n      add\n        /* \"#utility.yul\":12980:13007   */\n      mstore\n        /* \"#utility.yul\":12829:13013   */\n      pop\n        /* \"#utility.yul\":12767:13013   */\n      pop\n      pop\n      pop\n      jump\t// out\n        /* \"#utility.yul\":13019:13121   */\n    tag_262:\n        /* \"#utility.yul\":13060:13066   */\n      0x00\n        /* \"#utility.yul\":13111:13113   */\n      0x1f\n        /* \"#utility.yul\":13107:13114   */\n      not\n        /* \"#utility.yul\":13102:13104   */\n      0x1f\n        /* \"#utility.yul\":13095:13100   */\n      dup4\n        /* \"#utility.yul\":13091:13105   */\n      add\n        /* \"#utility.yul\":13087:13115   */\n      and\n        /* \"#utility.yul\":13077:13115   */\n      swap1\n      pop\n        /* \"#utility.yul\":13019:13121   */\n      swap2\n      swap1\n      pop\n      jump\t// out\n        /* \"#utility.yul\":13127:13500   */\n    tag_263:\n        /* \"#utility.yul\":13213:13216   */\n      0x00\n        /* \"#utility.yul\":13241:13279   */\n      tag_408\n        /* \"#utility.yul\":13273:13278   */\n      dup3\n        /* \"#utility.yul\":13241:13279   */\n      tag_259\n      jump\t// in\n    tag_408:\n        /* \"#utility.yul\":13295:13365   */\n      tag_409\n        /* \"#utility.yul\":13358:13364   */\n      dup2\n        /* \"#utility.yul\":13353:13356   */\n      dup6\n        /* \"#utility.yul\":13295:13365   */\n      tag_260\n      jump\t// in\n    tag_409:\n        /* \"#utility.yul\":13288:13365   */\n      swap4\n      pop\n        /* \"#utility.yul\":13374:13439   */\n      tag_410\n        /* \"#utility.yul\":13432:13438   */\n      dup2\n        /* \"#utility.yul\":13427:13430   */\n      dup6\n        /* \"#utility.yul\":13420:13424   */\n      0x20\n        /* \"#utility.yul\":13413:13418   */\n      dup7\n        /* \"#utility.yul\":13409:13425   */\n      add\n        /* \"#utility.yul\":13374:13439   */\n      tag_261\n      jump\t// in\n    tag_410:\n        /* \"#utility.yul\":13464:13493   */\n      tag_411\n        /* \"#utility.yul\":13486:13492   */\n      dup2\n        /* \"#utility.yul\":13464:13493   */\n      tag_262\n      jump\t// in\n    tag_411:\n        /* \"#utility.yul\":13459:13462   */\n      dup5\n        /* \"#utility.yul\":13455:13494   */\n      add\n        /* \"#utility.yul\":13448:13494   */\n      swap2\n      pop\n        /* \"#utility.yul\":13217:13500   */\n      pop\n        /* \"#utility.yul\":13127:13500   */\n      swap3\n      swap2\n      pop\n      pop\n      jump\t// out\n        /* \"#utility.yul\":13506:14035   */\n    tag_147:\n        /* \"#utility.yul\":13673:13677   */\n      0x00\n        /* \"#utility.yul\":13711:13713   */\n      0x60\n        /* \"#utility.yul\":13700:13709   */\n      dup3\n        /* \"#utility.yul\":13696:13714   */\n      add\n        /* \"#utility.yul\":13688:13714   */\n      swap1\n      pop\n        /* \"#utility.yul\":13724:13795   */\n      tag_413\n        /* \"#utility.yul\":13792:13793   */\n      0x00\n        /* \"#utility.yul\":13781:13790   */\n      dup4\n        /* \"#utility.yul\":13777:13794   */\n      add\n        /* \"#utility.yul\":13768:13774   */\n      dup7\n        /* \"#utility.yul\":13724:13795   */\n      tag_232\n      jump\t// in\n    tag_413:\n        /* \"#utility.yul\":13805:13877   */\n      tag_414\n        /* \"#utility.yul\":13873:13875   */\n      0x20\n        /* \"#utility.yul\":13862:13871   */\n      dup4\n        /* \"#utility.yul\":13858:13876   */\n      add\n        /* \"#utility.yul\":13849:13855   */\n      dup6\n        /* \"#utility.yul\":13805:13877   */\n      tag_217\n      jump\t// in\n    tag_414:\n        /* \"#utility.yul\":13924:13933   */\n      dup2\n        /* \"#utility.yul\":13918:13922   */\n      dup2\n        /* \"#utility.yul\":13914:13934   */\n      sub\n        /* \"#utility.yul\":13909:13911   */\n      0x40\n        /* \"#utility.yul\":13898:13907   */\n      dup4\n        /* \"#utility.yul\":13894:13912   */\n      add\n        /* \"#utility.yul\":13887:13935   */\n      mstore\n        /* \"#utility.yul\":13952:14028   */\n      tag_415\n        /* \"#utility.yul\":14023:14027   */\n      dup2\n        /* \"#utility.yul\":14014:14020   */\n      dup5\n        /* \"#utility.yul\":13952:14028   */\n      tag_263\n      jump\t// in\n    tag_415:\n        /* \"#utility.yul\":13944:14028   */\n      swap1\n      pop\n        /* \"#utility.yul\":13506:14035   */\n      swap5\n      swap4\n      pop\n      pop\n      pop\n      pop\n      jump\t// out\n        /* \"#utility.yul\":14041:14178   */\n    tag_264:\n        /* \"#utility.yul\":14095:14100   */\n      0x00\n        /* \"#utility.yul\":14126:14132   */\n      dup2\n        /* \"#utility.yul\":14120:14133   */\n      mload\n        /* \"#utility.yul\":14111:14133   */\n      swap1\n      pop\n        /* \"#utility.yul\":14142:14172   */\n      tag_417\n        /* \"#utility.yul\":14166:14171   */\n      dup2\n        /* \"#utility.yul\":14142:14172   */\n      tag_240\n      jump\t// in\n    tag_417:\n        /* \"#utility.yul\":14041:14178   */\n      swap3\n      swap2\n      pop\n      pop\n      jump\t// out\n        /* \"#utility.yul\":14184:14529   */\n    tag_151:\n        /* \"#utility.yul\":14251:14257   */\n      0x00\n        /* \"#utility.yul\":14300:14302   */\n      0x20\n        /* \"#utility.yul\":14288:14297   */\n      dup3\n        /* \"#utility.yul\":14279:14286   */\n      dup5\n        /* \"#utility.yul\":14275:14298   */\n      sub\n        /* \"#utility.yul\":14271:14303   */\n      slt\n        /* \"#utility.yul\":14268:14387   */\n      iszero\n      tag_419\n      jumpi\n        /* \"#utility.yul\":14306:14385   */\n      tag_420\n      tag_219\n      jump\t// in\n    tag_420:\n        /* \"#utility.yul\":14268:14387   */\n    tag_419:\n        /* \"#utility.yul\":14426:14427   */\n      0x00\n        /* \"#utility.yul\":14451:14512   */\n      tag_421\n        /* \"#utility.yul\":14504:14511   */\n      dup5\n        /* \"#utility.yul\":14495:14501   */\n      dup3\n        /* \"#utility.yul\":14484:14493   */\n      dup6\n        /* \"#utility.yul\":14480:14502   */\n      add\n        /* \"#utility.yul\":14451:14512   */\n      tag_264\n      jump\t// in\n    tag_421:\n        /* \"#utility.yul\":14441:14512   */\n      swap2\n      pop\n        /* \"#utility.yul\":14397:14522   */\n      pop\n        /* \"#utility.yul\":14184:14529   */\n      swap3\n      swap2\n      pop\n      pop\n      jump\t// out\n        /* \"#utility.yul\":14535:14726   */\n    tag_155:\n        /* \"#utility.yul\":14575:14578   */\n      0x00\n        /* \"#utility.yul\":14594:14614   */\n      tag_423\n        /* \"#utility.yul\":14612:14613   */\n      dup3\n        /* \"#utility.yul\":14594:14614   */\n      tag_216\n      jump\t// in\n    tag_423:\n        /* \"#utility.yul\":14589:14614   */\n      swap2\n      pop\n        /* \"#utility.yul\":14628:14648   */\n      tag_424\n        /* \"#utility.yul\":14646:14647   */\n      dup4\n        /* \"#utility.yul\":14628:14648   */\n      tag_216\n      jump\t// in\n    tag_424:\n        /* \"#utility.yul\":14623:14648   */\n      swap3\n      pop\n        /* \"#utility.yul\":14671:14672   */\n      dup3\n        /* \"#utility.yul\":14668:14669   */\n      dup3\n        /* \"#utility.yul\":14664:14673   */\n      add\n        /* \"#utility.yul\":14657:14673   */\n      swap1\n      pop\n        /* \"#utility.yul\":14692:14695   */\n      dup1\n        /* \"#utility.yul\":14689:14690   */\n      dup3\n        /* \"#utility.yul\":14686:14696   */\n      gt\n        /* \"#utility.yul\":14683:14719   */\n      iszero\n      tag_425\n      jumpi\n        /* \"#utility.yul\":14699:14717   */\n      tag_426\n      tag_245\n      jump\t// in\n    tag_426:\n        /* \"#utility.yul\":14683:14719   */\n    tag_425:\n        /* \"#utility.yul\":14535:14726   */\n      swap3\n      swap2\n      pop\n      pop\n      jump\t// out\n        /* \"#utility.yul\":14732:15285   */\n    tag_174:\n        /* \"#utility.yul\":14909:14913   */\n      0x00\n        /* \"#utility.yul\":14947:14950   */\n      0x80\n        /* \"#utility.yul\":14936:14945   */\n      dup3\n        /* \"#utility.yul\":14932:14951   */\n      add\n        /* \"#utility.yul\":14924:14951   */\n      swap1\n      pop\n        /* \"#utility.yul\":14961:15032   */\n      tag_428\n        /* \"#utility.yul\":15029:15030   */\n      0x00\n        /* \"#utility.yul\":15018:15027   */\n      dup4\n        /* \"#utility.yul\":15014:15031   */\n      add\n        /* \"#utility.yul\":15005:15011   */\n      dup8\n        /* \"#utility.yul\":14961:15032   */\n      tag_258\n      jump\t// in\n    tag_428:\n        /* \"#utility.yul\":15042:15114   */\n      tag_429\n        /* \"#utility.yul\":15110:15112   */\n      0x20\n        /* \"#utility.yul\":15099:15108   */\n      dup4\n        /* \"#utility.yul\":15095:15113   */\n      add\n        /* \"#utility.yul\":15086:15092   */\n      dup7\n        /* \"#utility.yul\":15042:15114   */\n      tag_217\n      jump\t// in\n    tag_429:\n        /* \"#utility.yul\":15124:15196   */\n      tag_430\n        /* \"#utility.yul\":15192:15194   */\n      0x40\n        /* \"#utility.yul\":15181:15190   */\n      dup4\n        /* \"#utility.yul\":15177:15195   */\n      add\n        /* \"#utility.yul\":15168:15174   */\n      dup6\n        /* \"#utility.yul\":15124:15196   */\n      tag_232\n      jump\t// in\n    tag_430:\n        /* \"#utility.yul\":15206:15278   */\n      tag_431\n        /* \"#utility.yul\":15274:15276   */\n      0x60\n        /* \"#utility.yul\":15263:15272   */\n      dup4\n        /* \"#utility.yul\":15259:15277   */\n      add\n        /* \"#utility.yul\":15250:15256   */\n      dup5\n        /* \"#utility.yul\":15206:15278   */\n      tag_217\n      jump\t// in\n    tag_431:\n        /* \"#utility.yul\":14732:15285   */\n      swap6\n      swap5\n      pop\n      pop\n      pop\n      pop\n      pop\n      jump\t// out\n        /* \"#utility.yul\":15291:15370   */\n    tag_265:\n        /* \"#utility.yul\":15330:15337   */\n      0x00\n        /* \"#utility.yul\":15359:15364   */\n      dup2\n        /* \"#utility.yul\":15348:15364   */\n      swap1\n      pop\n        /* \"#utility.yul\":15291:15370   */\n      swap2\n      swap1\n      pop\n      jump\t// out\n        /* \"#utility.yul\":15376:15533   */\n    tag_266:\n        /* \"#utility.yul\":15481:15526   */\n      tag_434\n        /* \"#utility.yul\":15501:15525   */\n      tag_435\n        /* \"#utility.yul\":15519:15524   */\n      dup3\n        /* \"#utility.yul\":15501:15525   */\n      tag_233\n      jump\t// in\n    tag_435:\n        /* \"#utility.yul\":15481:15526   */\n      tag_265\n      jump\t// in\n    tag_434:\n        /* \"#utility.yul\":15476:15479   */\n      dup3\n        /* \"#utility.yul\":15469:15527   */\n      mstore\n        /* \"#utility.yul\":15376:15533   */\n      pop\n      pop\n      jump\t// out\n        /* \"#utility.yul\":15539:15936   */\n    tag_177:\n        /* \"#utility.yul\":15679:15682   */\n      0x00\n        /* \"#utility.yul\":15694:15769   */\n      tag_437\n        /* \"#utility.yul\":15765:15768   */\n      dup3\n        /* \"#utility.yul\":15756:15762   */\n      dup6\n        /* \"#utility.yul\":15694:15769   */\n      tag_266\n      jump\t// in\n    tag_437:\n        /* \"#utility.yul\":15794:15796   */\n      0x20\n        /* \"#utility.yul\":15789:15792   */\n      dup3\n        /* \"#utility.yul\":15785:15797   */\n      add\n        /* \"#utility.yul\":15778:15797   */\n      swap2\n      pop\n        /* \"#utility.yul\":15807:15882   */\n      tag_438\n        /* \"#utility.yul\":15878:15881   */\n      dup3\n        /* \"#utility.yul\":15869:15875   */\n      dup5\n        /* \"#utility.yul\":15807:15882   */\n      tag_257\n      jump\t// in\n    tag_438:\n        /* \"#utility.yul\":15907:15909   */\n      0x20\n        /* \"#utility.yul\":15902:15905   */\n      dup3\n        /* \"#utility.yul\":15898:15910   */\n      add\n        /* \"#utility.yul\":15891:15910   */\n      swap2\n      pop\n        /* \"#utility.yul\":15927:15930   */\n      dup2\n        /* \"#utility.yul\":15920:15930   */\n      swap1\n      pop\n        /* \"#utility.yul\":15539:15936   */\n      swap4\n      swap3\n      pop\n      pop\n      pop\n      jump\t// out\n        /* \"#utility.yul\":15942:16175   */\n    tag_186:\n        /* \"#utility.yul\":15981:15984   */\n      0x00\n        /* \"#utility.yul\":16004:16028   */\n      tag_440\n        /* \"#utility.yul\":16022:16027   */\n      dup3\n        /* \"#utility.yul\":16004:16028   */\n      tag_216\n      jump\t// in\n    tag_440:\n        /* \"#utility.yul\":15995:16028   */\n      swap2\n      pop\n        /* \"#utility.yul\":16050:16116   */\n      0xffffffffffffffffffffffffffffffffffffffffffffffffffffffffffffffff\n        /* \"#utility.yul\":16043:16048   */\n      dup3\n        /* \"#utility.yul\":16040:16117   */\n      sub\n        /* \"#utility.yul\":16037:16140   */\n      tag_441\n      jumpi\n        /* \"#utility.yul\":16120:16138   */\n      tag_442\n      tag_245\n      jump\t// in\n    tag_442:\n        /* \"#utility.yul\":16037:16140   */\n    tag_441:\n        /* \"#utility.yul\":16167:16168   */\n      0x01\n        /* \"#utility.yul\":16160:16165   */\n      dup3\n        /* \"#utility.yul\":16156:16169   */\n      add\n        /* \"#utility.yul\":16149:16169   */\n      swap1\n      pop\n        /* \"#utility.yul\":15942:16175   */\n      swap2\n      swap1\n      pop\n      jump\t// out\n        /* \"#utility.yul\":16181:16361   */\n    tag_189:\n        /* \"#utility.yul\":16229:16306   */\n      0x4e487b7100000000000000000000000000000000000000000000000000000000\n        /* \"#utility.yul\":16226:16227   */\n      0x00\n        /* \"#utility.yul\":16219:16307   */\n      mstore\n        /* \"#utility.yul\":16326:16330   */\n      0x41\n        /* \"#utility.yul\":16323:16324   */\n      0x04\n        /* \"#utility.yul\":16316:16331   */\n      mstore\n        /* \"#utility.yul\":16350:16354   */\n      0x24\n        /* \"#utility.yul\":16347:16348   */\n      0x00\n        /* \"#utility.yul\":16340:16355   */\n      revert\n\n    auxdata: 0xa2646970667358221220be68280859cbc7464d5b9363b0b477abe711e3867bcaed0dc9058a1db92ced7f64736f6c63430008110033\n}\n",
				"bytecode": {
					"linkReferences": {},
					"object": "60c06040523480156200001157600080fd5b5060405162001b5e38038062001b5e8339818101604052810190620000379190620001dc565b83838173ffffffffffffffffffffffffffffffffffffffff1660a08173ffffffffffffffffffffffffffffffffffffffff16815250508073ffffffffffffffffffffffffffffffffffffffff1660808173ffffffffffffffffffffffffffffffffffffffff16815250505050816008819055508060098190555033600160006101000a81548173ffffffffffffffffffffffffffffffffffffffff021916908373ffffffffffffffffffffffffffffffffffffffff160217905550505050506200024e565b600080fd5b600073ffffffffffffffffffffffffffffffffffffffff82169050919050565b60006200012e8262000101565b9050919050565b620001408162000121565b81146200014c57600080fd5b50565b600081519050620001608162000135565b92915050565b6000819050919050565b6200017b8162000166565b81146200018757600080fd5b50565b6000815190506200019b8162000170565b92915050565b6000819050919050565b620001b681620001a1565b8114620001c257600080fd5b50565b600081519050620001d681620001ab565b92915050565b60008060008060808587031215620001f957620001f8620000fc565b5b600062000209878288016200014f565b94505060206200021c878288016200014f565b93505060406200022f878288016200018a565b92505060606200024287828801620001c5565b91505092959194509250565b60805160a0516118dc620002826000396000818161050f0152610a5201526000818161077c0152610a1601526118dc6000f3fe6080604052600436106100c25760003560e01c806394985ddd1161007f578063d5b2d95411610059578063d5b2d9541461026a578063e97dcb6214610293578063ed6c79311461029d578063f71d96cb146102da576100c2565b806394985ddd146101d9578063a231b48414610202578063c688d10a1461023f576100c2565b806312065fe0146100c757806350b44712146100f25780635d495aea1461012f57806382b0db4f146101465780638b5b9ccc146101835780638da5cb5b146101ae575b600080fd5b3480156100d357600080fd5b506100dc610317565b6040516100e9919061100d565b60405180910390f35b3480156100fe57600080fd5b5061011960048036038101906101149190611059565b61031f565b604051610126919061100d565b60405180910390f35b34801561013b57600080fd5b50610144610343565b005b34801561015257600080fd5b5061016d60048036038101906101689190611059565b6103dd565b60405161017a919061100d565b60405180910390f35b34801561018f57600080fd5b50610198610459565b6040516101a59190611176565b60405180910390f35b3480156101ba57600080fd5b506101c36104e7565b6040516101d091906111a7565b60405180910390f35b3480156101e557600080fd5b5061020060048036038101906101fb91906111f8565b61050d565b005b34801561020e57600080fd5b5061022960048036038101906102249190611059565b6105a9565b6040516102369190611259565b60405180910390f35b34801561024b57600080fd5b506102546105dc565b604051610261919061128f565b60405180910390f35b34801561027657600080fd5b50610291600480360381019061028c91906112d6565b6105ef565b005b61029b610666565b005b3480156102a957600080fd5b506102c460048036038101906102bf9190611059565b610712565b6040516102d1919061100d565b60405180910390f35b3480156102e657600080fd5b5061030160048036038101906102fc9190611059565b610736565b60405161030e91906111a7565b60405180910390f35b600047905090565b6004818154811061032f57600080fd5b906000526020600020016000915090505481565b600160009054906101000a900473ffffffffffffffffffffffffffffffffffffffff1673ffffffffffffffffffffffffffffffffffffffff163373ffffffffffffffffffffffffffffffffffffffff161461039d57600080fd5b600760009054906101000a900460ff16156103b757600080fd5b6001600760006101000a81548160ff0219169083151502179055506103da610775565b50565b6000600680549050821115610427576040517f08c379a000000000000000000000000000000000000000000000000000000000815260040161041e90611360565b60405180910390fd5b600660018361043691906113af565b81548110610447576104466113e3565b5b90600052602060002001549050919050565b606060028054806020026020016040519081016040528092919081815260200182805480156104dd57602002820191906000526020600020905b8160009054906101000a900473ffffffffffffffffffffffffffffffffffffffff1673ffffffffffffffffffffffffffffffffffffffff1681526020019060010190808311610493575b5050505050905090565b600160009054906101000a900473ffffffffffffffffffffffffffffffffffffffff1681565b7f000000000000000000000000000000000000000000000000000000000000000073ffffffffffffffffffffffffffffffffffffffff163373ffffffffffffffffffffffffffffffffffffffff161461059b576040517f08c379a00000000000000000000000000000000000000000000000000000000081526004016105929061145e565b60405180910390fd5b6105a58282610868565b5050565b60056020528060005260406000206000915054906101000a900473ffffffffffffffffffffffffffffffffffffffff1681565b600760009054906101000a900460ff1681565b600160009054906101000a900473ffffffffffffffffffffffffffffffffffffffff1673ffffffffffffffffffffffffffffffffffffffff163373ffffffffffffffffffffffffffffffffffffffff161461064957600080fd5b80600760006101000a81548160ff02191690831515021790555050565b662386f26fc10000341161067957600080fd5b60006106836108a6565b905060003390506004829080600181540180825580915050600190039060005260206000200160009091909190915055806005600084815260200190815260200160002060006101000a81548173ffffffffffffffffffffffffffffffffffffffff021916908373ffffffffffffffffffffffffffffffffffffffff16021790555061070e816108fb565b5050565b6006818154811061072257600080fd5b906000526020600020016000915090505481565b6002818154811061074657600080fd5b906000526020600020016000915054906101000a900473ffffffffffffffffffffffffffffffffffffffff1681565b60006009547f000000000000000000000000000000000000000000000000000000000000000073ffffffffffffffffffffffffffffffffffffffff166370a08231306040518263ffffffff1660e01b81526004016107d391906111a7565b602060405180830381865afa1580156107f0573d6000803e3d6000fd5b505050506040513d601f19601f820116820180604052508101906108149190611493565b1015610855576040517f08c379a000000000000000000000000000000000000000000000000000000000815260040161084c9061150c565b60405180910390fd5b610863600854600954610a12565b905090565b60006004805490508261087b919061155b565b905061088681610b62565b6000600760006101000a81548160ff021916908315150217905550505050565b6000600160009054906101000a900473ffffffffffffffffffffffffffffffffffffffff16426040516020016108dd9291906115f5565b6040516020818303038152906040528051906020012060001c905090565b60011515600360008373ffffffffffffffffffffffffffffffffffffffff1673ffffffffffffffffffffffffffffffffffffffff16815260200190815260200160002060009054906101000a900460ff16151514610a0f576001600360008373ffffffffffffffffffffffffffffffffffffffff1673ffffffffffffffffffffffffffffffffffffffff16815260200190815260200160002060006101000a81548160ff0219169083151502179055506002819080600181540180825580915050600190039060005260206000200160009091909190916101000a81548173ffffffffffffffffffffffffffffffffffffffff021916908373ffffffffffffffffffffffffffffffffffffffff1602179055505b50565b60007f000000000000000000000000000000000000000000000000000000000000000073ffffffffffffffffffffffffffffffffffffffff16634000aea07f000000000000000000000000000000000000000000000000000000000000000084866000604051602001610a86929190611630565b6040516020818303038152906040526040518463ffffffff1660e01b8152600401610ab3939291906116e9565b6020604051808303816000875af1158015610ad2573d6000803e3d6000fd5b505050506040513d601f19601f82011682018060405250810190610af6919061173c565b506000610b188460003060008089815260200190815260200160002054610ca6565b9050600160008086815260200190815260200160002054610b399190611769565b60008086815260200190815260200160002081905550610b598482610ce2565b91505092915050565b600160009054906101000a900473ffffffffffffffffffffffffffffffffffffffff1673ffffffffffffffffffffffffffffffffffffffff163373ffffffffffffffffffffffffffffffffffffffff1614610bbc57600080fd5b6005600060048381548110610bd457610bd36113e3565b5b9060005260206000200154815260200190815260200160002060009054906101000a900473ffffffffffffffffffffffffffffffffffffffff1673ffffffffffffffffffffffffffffffffffffffff166108fc479081150290604051600060405180830381858888f19350505050158015610c53573d6000803e3d6000fd5b50600660048281548110610c6a57610c696113e3565b5b90600052602060002001549080600181540180825580915050600190039060005260206000200160009091909190915055610ca3610d15565b50565b600084848484604051602001610cbf949392919061179d565b6040516020818303038152906040528051906020012060001c9050949350505050565b60008282604051602001610cf7929190611803565b60405160208183030381529060405280519060200120905092915050565b60005b600280549050811015610dc5576003600060028381548110610d3d57610d3c6113e3565b5b9060005260206000200160009054906101000a900473ffffffffffffffffffffffffffffffffffffffff1673ffffffffffffffffffffffffffffffffffffffff1673ffffffffffffffffffffffffffffffffffffffff16815260200190815260200160002060006101000a81549060ff02191690558080610dbd9061182f565b915050610d18565b50600067ffffffffffffffff811115610de157610de0611877565b5b604051908082528060200260200182016040528015610e0f5781602001602082028036833780820191505090505b5060029080519060200190610e25929190610f00565b5060005b600480549050811015610e9d576005600060048381548110610e4e57610e4d6113e3565b5b9060005260206000200154815260200190815260200160002060006101000a81549073ffffffffffffffffffffffffffffffffffffffff02191690558080610e959061182f565b915050610e29565b50600067ffffffffffffffff811115610eb957610eb8611877565b5b604051908082528060200260200182016040528015610ee75781602001602082028036833780820191505090505b5060049080519060200190610efd929190610f8a565b50565b828054828255906000526020600020908101928215610f79579160200282015b82811115610f785782518260006101000a81548173ffffffffffffffffffffffffffffffffffffffff021916908373ffffffffffffffffffffffffffffffffffffffff16021790555091602001919060010190610f20565b5b509050610f869190610fd7565b5090565b828054828255906000526020600020908101928215610fc6579160200282015b82811115610fc5578251825591602001919060010190610faa565b5b509050610fd39190610fd7565b5090565b5b80821115610ff0576000816000905550600101610fd8565b5090565b6000819050919050565b61100781610ff4565b82525050565b60006020820190506110226000830184610ffe565b92915050565b600080fd5b61103681610ff4565b811461104157600080fd5b50565b6000813590506110538161102d565b92915050565b60006020828403121561106f5761106e611028565b5b600061107d84828501611044565b91505092915050565b600081519050919050565b600082825260208201905092915050565b6000819050602082019050919050565b600073ffffffffffffffffffffffffffffffffffffffff82169050919050565b60006110dd826110b2565b9050919050565b6110ed816110d2565b82525050565b60006110ff83836110e4565b60208301905092915050565b6000602082019050919050565b600061112382611086565b61112d8185611091565b9350611138836110a2565b8060005b8381101561116957815161115088826110f3565b975061115b8361110b565b92505060018101905061113c565b5085935050505092915050565b600060208201905081810360008301526111908184611118565b905092915050565b6111a1816110d2565b82525050565b60006020820190506111bc6000830184611198565b92915050565b6000819050919050565b6111d5816111c2565b81146111e057600080fd5b50565b6000813590506111f2816111cc565b92915050565b6000806040838503121561120f5761120e611028565b5b600061121d858286016111e3565b925050602061122e85828601611044565b9150509250929050565b6000611243826110b2565b9050919050565b61125381611238565b82525050565b600060208201905061126e600083018461124a565b92915050565b60008115159050919050565b61128981611274565b82525050565b60006020820190506112a46000830184611280565b92915050565b6112b381611274565b81146112be57600080fd5b50565b6000813590506112d0816112aa565b92915050565b6000602082840312156112ec576112eb611028565b5b60006112fa848285016112c1565b91505092915050565b600082825260208201905092915050565b7f5468657265206973206e6f207375636820726f756e6400000000000000000000600082015250565b600061134a601683611303565b915061135582611314565b602082019050919050565b600060208201905081810360008301526113798161133d565b9050919050565b7f4e487b7100000000000000000000000000000000000000000000000000000000600052601160045260246000fd5b60006113ba82610ff4565b91506113c583610ff4565b92508282039050818111156113dd576113dc611380565b5b92915050565b7f4e487b7100000000000000000000000000000000000000000000000000000000600052603260045260246000fd5b7f4f6e6c7920565246436f6f7264696e61746f722063616e2066756c66696c6c00600082015250565b6000611448601f83611303565b915061145382611412565b602082019050919050565b600060208201905081810360008301526114778161143b565b9050919050565b60008151905061148d8161102d565b92915050565b6000602082840312156114a9576114a8611028565b5b60006114b78482850161147e565b91505092915050565b7f4e6f7420656e6f756768204c494e4b20696e20636f6e74726163740000000000600082015250565b60006114f6601b83611303565b9150611501826114c0565b602082019050919050565b60006020820190508181036000830152611525816114e9565b9050919050565b7f4e487b7100000000000000000000000000000000000000000000000000000000600052601260045260246000fd5b600061156682610ff4565b915061157183610ff4565b9250826115815761158061152c565b5b828206905092915050565b60008160601b9050919050565b60006115a48261158c565b9050919050565b60006115b682611599565b9050919050565b6115ce6115c9826110d2565b6115ab565b82525050565b6000819050919050565b6115ef6115ea82610ff4565b6115d4565b82525050565b600061160182856115bd565b60148201915061161182846115de565b6020820191508190509392505050565b61162a816111c2565b82525050565b60006040820190506116456000830185611621565b6116526020830184610ffe565b9392505050565b600081519050919050565b600082825260208201905092915050565b60005b83811015611693578082015181840152602081019050611678565b60008484015250505050565b6000601f19601f8301169050919050565b60006116bb82611659565b6116c58185611664565b93506116d5818560208601611675565b6116de8161169f565b840191505092915050565b60006060820190506116fe6000830186611198565b61170b6020830185610ffe565b818103604083015261171d81846116b0565b9050949350505050565b600081519050611736816112aa565b92915050565b60006020828403121561175257611751611028565b5b600061176084828501611727565b91505092915050565b600061177482610ff4565b915061177f83610ff4565b925082820190508082111561179757611796611380565b5b92915050565b60006080820190506117b26000830187611621565b6117bf6020830186610ffe565b6117cc6040830185611198565b6117d96060830184610ffe565b95945050505050565b6000819050919050565b6117fd6117f8826111c2565b6117e2565b82525050565b600061180f82856117ec565b60208201915061181f82846115de565b6020820191508190509392505050565b600061183a82610ff4565b91507fffffffffffffffffffffffffffffffffffffffffffffffffffffffffffffffff820361186c5761186b611380565b5b600182019050919050565b7f4e487b7100000000000000000000000000000000000000000000000000000000600052604160045260246000fdfea2646970667358221220be68280859cbc7464d5b9363b0b477abe711e3867bcaed0dc9058a1db92ced7f64736f6c63430008110033",
					"opcodes": "PUSH1 0xC0 PUSH1 0x40 MSTORE CALLVALUE DUP1 ISZERO PUSH3 0x11 JUMPI PUSH1 0x0 DUP1 REVERT JUMPDEST POP PUSH1 0x40 MLOAD PUSH3 0x1B5E CODESIZE SUB DUP1 PUSH3 0x1B5E DUP4 CODECOPY DUP2 DUP2 ADD PUSH1 0x40 MSTORE DUP2 ADD SWAP1 PUSH3 0x37 SWAP2 SWAP1 PUSH3 0x1DC JUMP JUMPDEST DUP4 DUP4 DUP2 PUSH20 0xFFFFFFFFFFFFFFFFFFFFFFFFFFFFFFFFFFFFFFFF AND PUSH1 0xA0 DUP2 PUSH20 0xFFFFFFFFFFFFFFFFFFFFFFFFFFFFFFFFFFFFFFFF AND DUP2 MSTORE POP POP DUP1 PUSH20 0xFFFFFFFFFFFFFFFFFFFFFFFFFFFFFFFFFFFFFFFF AND PUSH1 0x80 DUP2 PUSH20 0xFFFFFFFFFFFFFFFFFFFFFFFFFFFFFFFFFFFFFFFF AND DUP2 MSTORE POP POP POP POP DUP2 PUSH1 0x8 DUP2 SWAP1 SSTORE POP DUP1 PUSH1 0x9 DUP2 SWAP1 SSTORE POP CALLER PUSH1 0x1 PUSH1 0x0 PUSH2 0x100 EXP DUP2 SLOAD DUP2 PUSH20 0xFFFFFFFFFFFFFFFFFFFFFFFFFFFFFFFFFFFFFFFF MUL NOT AND SWAP1 DUP4 PUSH20 0xFFFFFFFFFFFFFFFFFFFFFFFFFFFFFFFFFFFFFFFF AND MUL OR SWAP1 SSTORE POP POP POP POP POP PUSH3 0x24E JUMP JUMPDEST PUSH1 0x0 DUP1 REVERT JUMPDEST PUSH1 0x0 PUSH20 0xFFFFFFFFFFFFFFFFFFFFFFFFFFFFFFFFFFFFFFFF DUP3 AND SWAP1 POP SWAP2 SWAP1 POP JUMP JUMPDEST PUSH1 0x0 PUSH3 0x12E DUP3 PUSH3 0x101 JUMP JUMPDEST SWAP1 POP SWAP2 SWAP1 POP JUMP JUMPDEST PUSH3 0x140 DUP2 PUSH3 0x121 JUMP JUMPDEST DUP2 EQ PUSH3 0x14C JUMPI PUSH1 0x0 DUP1 REVERT JUMPDEST POP JUMP JUMPDEST PUSH1 0x0 DUP2 MLOAD SWAP1 POP PUSH3 0x160 DUP2 PUSH3 0x135 JUMP JUMPDEST SWAP3 SWAP2 POP POP JUMP JUMPDEST PUSH1 0x0 DUP2 SWAP1 POP SWAP2 SWAP1 POP JUMP JUMPDEST PUSH3 0x17B DUP2 PUSH3 0x166 JUMP JUMPDEST DUP2 EQ PUSH3 0x187 JUMPI PUSH1 0x0 DUP1 REVERT JUMPDEST POP JUMP JUMPDEST PUSH1 0x0 DUP2 MLOAD SWAP1 POP PUSH3 0x19B DUP2 PUSH3 0x170 JUMP JUMPDEST SWAP3 SWAP2 POP POP JUMP JUMPDEST PUSH1 0x0 DUP2 SWAP1 POP SWAP2 SWAP1 POP JUMP JUMPDEST PUSH3 0x1B6 DUP2 PUSH3 0x1A1 JUMP JUMPDEST DUP2 EQ PUSH3 0x1C2 JUMPI PUSH1 0x0 DUP1 REVERT JUMPDEST POP JUMP JUMPDEST PUSH1 0x0 DUP2 MLOAD SWAP1 POP PUSH3 0x1D6 DUP2 PUSH3 0x1AB JUMP JUMPDEST SWAP3 SWAP2 POP POP JUMP JUMPDEST PUSH1 0x0 DUP1 PUSH1 0x0 DUP1 PUSH1 0x80 DUP6 DUP8 SUB SLT ISZERO PUSH3 0x1F9 JUMPI PUSH3 0x1F8 PUSH3 0xFC JUMP JUMPDEST JUMPDEST PUSH1 0x0 PUSH3 0x209 DUP8 DUP3 DUP9 ADD PUSH3 0x14F JUMP JUMPDEST SWAP5 POP POP PUSH1 0x20 PUSH3 0x21C DUP8 DUP3 DUP9 ADD PUSH3 0x14F JUMP JUMPDEST SWAP4 POP POP PUSH1 0x40 PUSH3 0x22F DUP8 DUP3 DUP9 ADD PUSH3 0x18A JUMP JUMPDEST SWAP3 POP POP PUSH1 0x60 PUSH3 0x242 DUP8 DUP3 DUP9 ADD PUSH3 0x1C5 JUMP JUMPDEST SWAP2 POP POP SWAP3 SWAP6 SWAP2 SWAP5 POP SWAP3 POP JUMP JUMPDEST PUSH1 0x80 MLOAD PUSH1 0xA0 MLOAD PUSH2 0x18DC PUSH3 0x282 PUSH1 0x0 CODECOPY PUSH1 0x0 DUP2 DUP2 PUSH2 0x50F ADD MSTORE PUSH2 0xA52 ADD MSTORE PUSH1 0x0 DUP2 DUP2 PUSH2 0x77C ADD MSTORE PUSH2 0xA16 ADD MSTORE PUSH2 0x18DC PUSH1 0x0 RETURN INVALID PUSH1 0x80 PUSH1 0x40 MSTORE PUSH1 0x4 CALLDATASIZE LT PUSH2 0xC2 JUMPI PUSH1 0x0 CALLDATALOAD PUSH1 0xE0 SHR DUP1 PUSH4 0x94985DDD GT PUSH2 0x7F JUMPI DUP1 PUSH4 0xD5B2D954 GT PUSH2 0x59 JUMPI DUP1 PUSH4 0xD5B2D954 EQ PUSH2 0x26A JUMPI DUP1 PUSH4 0xE97DCB62 EQ PUSH2 0x293 JUMPI DUP1 PUSH4 0xED6C7931 EQ PUSH2 0x29D JUMPI DUP1 PUSH4 0xF71D96CB EQ PUSH2 0x2DA JUMPI PUSH2 0xC2 JUMP JUMPDEST DUP1 PUSH4 0x94985DDD EQ PUSH2 0x1D9 JUMPI DUP1 PUSH4 0xA231B484 EQ PUSH2 0x202 JUMPI DUP1 PUSH4 0xC688D10A EQ PUSH2 0x23F JUMPI PUSH2 0xC2 JUMP JUMPDEST DUP1 PUSH4 0x12065FE0 EQ PUSH2 0xC7 JUMPI DUP1 PUSH4 0x50B44712 EQ PUSH2 0xF2 JUMPI DUP1 PUSH4 0x5D495AEA EQ PUSH2 0x12F JUMPI DUP1 PUSH4 0x82B0DB4F EQ PUSH2 0x146 JUMPI DUP1 PUSH4 0x8B5B9CCC EQ PUSH2 0x183 JUMPI DUP1 PUSH4 0x8DA5CB5B EQ PUSH2 0x1AE JUMPI JUMPDEST PUSH1 0x0 DUP1 REVERT JUMPDEST CALLVALUE DUP1 ISZERO PUSH2 0xD3 JUMPI PUSH1 0x0 DUP1 REVERT JUMPDEST POP PUSH2 0xDC PUSH2 0x317 JUMP JUMPDEST PUSH1 0x40 MLOAD PUSH2 0xE9 SWAP2 SWAP1 PUSH2 0x100D JUMP JUMPDEST PUSH1 0x40 MLOAD DUP1 SWAP2 SUB SWAP1 RETURN JUMPDEST CALLVALUE DUP1 ISZERO PUSH2 0xFE JUMPI PUSH1 0x0 DUP1 REVERT JUMPDEST POP PUSH2 0x119 PUSH1 0x4 DUP1 CALLDATASIZE SUB DUP2 ADD SWAP1 PUSH2 0x114 SWAP2 SWAP1 PUSH2 0x1059 JUMP JUMPDEST PUSH2 0x31F JUMP JUMPDEST PUSH1 0x40 MLOAD PUSH2 0x126 SWAP2 SWAP1 PUSH2 0x100D JUMP JUMPDEST PUSH1 0x40 MLOAD DUP1 SWAP2 SUB SWAP1 RETURN JUMPDEST CALLVALUE DUP1 ISZERO PUSH2 0x13B JUMPI PUSH1 0x0 DUP1 REVERT JUMPDEST POP PUSH2 0x144 PUSH2 0x343 JUMP JUMPDEST STOP JUMPDEST CALLVALUE DUP1 ISZERO PUSH2 0x152 JUMPI PUSH1 0x0 DUP1 REVERT JUMPDEST POP PUSH2 0x16D PUSH1 0x4 DUP1 CALLDATASIZE SUB DUP2 ADD SWAP1 PUSH2 0x168 SWAP2 SWAP1 PUSH2 0x1059 JUMP JUMPDEST PUSH2 0x3DD JUMP JUMPDEST PUSH1 0x40 MLOAD PUSH2 0x17A SWAP2 SWAP1 PUSH2 0x100D JUMP JUMPDEST PUSH1 0x40 MLOAD DUP1 SWAP2 SUB SWAP1 RETURN JUMPDEST CALLVALUE DUP1 ISZERO PUSH2 0x18F JUMPI PUSH1 0x0 DUP1 REVERT JUMPDEST POP PUSH2 0x198 PUSH2 0x459 JUMP JUMPDEST PUSH1 0x40 MLOAD PUSH2 0x1A5 SWAP2 SWAP1 PUSH2 0x1176 JUMP JUMPDEST PUSH1 0x40 MLOAD DUP1 SWAP2 SUB SWAP1 RETURN JUMPDEST CALLVALUE DUP1 ISZERO PUSH2 0x1BA JUMPI PUSH1 0x0 DUP1 REVERT JUMPDEST POP PUSH2 0x1C3 PUSH2 0x4E7 JUMP JUMPDEST PUSH1 0x40 MLOAD PUSH2 0x1D0 SWAP2 SWAP1 PUSH2 0x11A7 JUMP JUMPDEST PUSH1 0x40 MLOAD DUP1 SWAP2 SUB SWAP1 RETURN JUMPDEST CALLVALUE DUP1 ISZERO PUSH2 0x1E5 JUMPI PUSH1 0x0 DUP1 REVERT JUMPDEST POP PUSH2 0x200 PUSH1 0x4 DUP1 CALLDATASIZE SUB DUP2 ADD SWAP1 PUSH2 0x1FB SWAP2 SWAP1 PUSH2 0x11F8 JUMP JUMPDEST PUSH2 0x50D JUMP JUMPDEST STOP JUMPDEST CALLVALUE DUP1 ISZERO PUSH2 0x20E JUMPI PUSH1 0x0 DUP1 REVERT JUMPDEST POP PUSH2 0x229 PUSH1 0x4 DUP1 CALLDATASIZE SUB DUP2 ADD SWAP1 PUSH2 0x224 SWAP2 SWAP1 PUSH2 0x1059 JUMP JUMPDEST PUSH2 0x5A9 JUMP JUMPDEST PUSH1 0x40 MLOAD PUSH2 0x236 SWAP2 SWAP1 PUSH2 0x1259 JUMP JUMPDEST PUSH1 0x40 MLOAD DUP1 SWAP2 SUB SWAP1 RETURN JUMPDEST CALLVALUE DUP1 ISZERO PUSH2 0x24B JUMPI PUSH1 0x0 DUP1 REVERT JUMPDEST POP PUSH2 0x254 PUSH2 0x5DC JUMP JUMPDEST PUSH1 0x40 MLOAD PUSH2 0x261 SWAP2 SWAP1 PUSH2 0x128F JUMP JUMPDEST PUSH1 0x40 MLOAD DUP1 SWAP2 SUB SWAP1 RETURN JUMPDEST CALLVALUE DUP1 ISZERO PUSH2 0x276 JUMPI PUSH1 0x0 DUP1 REVERT JUMPDEST POP PUSH2 0x291 PUSH1 0x4 DUP1 CALLDATASIZE SUB DUP2 ADD SWAP1 PUSH2 0x28C SWAP2 SWAP1 PUSH2 0x12D6 JUMP JUMPDEST PUSH2 0x5EF JUMP JUMPDEST STOP JUMPDEST PUSH2 0x29B PUSH2 0x666 JUMP JUMPDEST STOP JUMPDEST CALLVALUE DUP1 ISZERO PUSH2 0x2A9 JUMPI PUSH1 0x0 DUP1 REVERT JUMPDEST POP PUSH2 0x2C4 PUSH1 0x4 DUP1 CALLDATASIZE SUB DUP2 ADD SWAP1 PUSH2 0x2BF SWAP2 SWAP1 PUSH2 0x1059 JUMP JUMPDEST PUSH2 0x712 JUMP JUMPDEST PUSH1 0x40 MLOAD PUSH2 0x2D1 SWAP2 SWAP1 PUSH2 0x100D JUMP JUMPDEST PUSH1 0x40 MLOAD DUP1 SWAP2 SUB SWAP1 RETURN JUMPDEST CALLVALUE DUP1 ISZERO PUSH2 0x2E6 JUMPI PUSH1 0x0 DUP1 REVERT JUMPDEST POP PUSH2 0x301 PUSH1 0x4 DUP1 CALLDATASIZE SUB DUP2 ADD SWAP1 PUSH2 0x2FC SWAP2 SWAP1 PUSH2 0x1059 JUMP JUMPDEST PUSH2 0x736 JUMP JUMPDEST PUSH1 0x40 MLOAD PUSH2 0x30E SWAP2 SWAP1 PUSH2 0x11A7 JUMP JUMPDEST PUSH1 0x40 MLOAD DUP1 SWAP2 SUB SWAP1 RETURN JUMPDEST PUSH1 0x0 SELFBALANCE SWAP1 POP SWAP1 JUMP JUMPDEST PUSH1 0x4 DUP2 DUP2 SLOAD DUP2 LT PUSH2 0x32F JUMPI PUSH1 0x0 DUP1 REVERT JUMPDEST SWAP1 PUSH1 0x0 MSTORE PUSH1 0x20 PUSH1 0x0 KECCAK256 ADD PUSH1 0x0 SWAP2 POP SWAP1 POP SLOAD DUP2 JUMP JUMPDEST PUSH1 0x1 PUSH1 0x0 SWAP1 SLOAD SWAP1 PUSH2 0x100 EXP SWAP1 DIV PUSH20 0xFFFFFFFFFFFFFFFFFFFFFFFFFFFFFFFFFFFFFFFF AND PUSH20 0xFFFFFFFFFFFFFFFFFFFFFFFFFFFFFFFFFFFFFFFF AND CALLER PUSH20 0xFFFFFFFFFFFFFFFFFFFFFFFFFFFFFFFFFFFFFFFF AND EQ PUSH2 0x39D JUMPI PUSH1 0x0 DUP1 REVERT JUMPDEST PUSH1 0x7 PUSH1 0x0 SWAP1 SLOAD SWAP1 PUSH2 0x100 EXP SWAP1 DIV PUSH1 0xFF AND ISZERO PUSH2 0x3B7 JUMPI PUSH1 0x0 DUP1 REVERT JUMPDEST PUSH1 0x1 PUSH1 0x7 PUSH1 0x0 PUSH2 0x100 EXP DUP2 SLOAD DUP2 PUSH1 0xFF MUL NOT AND SWAP1 DUP4 ISZERO ISZERO MUL OR SWAP1 SSTORE POP PUSH2 0x3DA PUSH2 0x775 JUMP JUMPDEST POP JUMP JUMPDEST PUSH1 0x0 PUSH1 0x6 DUP1 SLOAD SWAP1 POP DUP3 GT ISZERO PUSH2 0x427 JUMPI PUSH1 0x40 MLOAD PUSH32 0x8C379A000000000000000000000000000000000000000000000000000000000 DUP2 MSTORE PUSH1 0x4 ADD PUSH2 0x41E SWAP1 PUSH2 0x1360 JUMP JUMPDEST PUSH1 0x40 MLOAD DUP1 SWAP2 SUB SWAP1 REVERT JUMPDEST PUSH1 0x6 PUSH1 0x1 DUP4 PUSH2 0x436 SWAP2 SWAP1 PUSH2 0x13AF JUMP JUMPDEST DUP2 SLOAD DUP2 LT PUSH2 0x447 JUMPI PUSH2 0x446 PUSH2 0x13E3 JUMP JUMPDEST JUMPDEST SWAP1 PUSH1 0x0 MSTORE PUSH1 0x20 PUSH1 0x0 KECCAK256 ADD SLOAD SWAP1 POP SWAP2 SWAP1 POP JUMP JUMPDEST PUSH1 0x60 PUSH1 0x2 DUP1 SLOAD DUP1 PUSH1 0x20 MUL PUSH1 0x20 ADD PUSH1 0x40 MLOAD SWAP1 DUP2 ADD PUSH1 0x40 MSTORE DUP1 SWAP3 SWAP2 SWAP1 DUP2 DUP2 MSTORE PUSH1 0x20 ADD DUP3 DUP1 SLOAD DUP1 ISZERO PUSH2 0x4DD JUMPI PUSH1 0x20 MUL DUP3 ADD SWAP2 SWAP1 PUSH1 0x0 MSTORE PUSH1 0x20 PUSH1 0x0 KECCAK256 SWAP1 JUMPDEST DUP2 PUSH1 0x0 SWAP1 SLOAD SWAP1 PUSH2 0x100 EXP SWAP1 DIV PUSH20 0xFFFFFFFFFFFFFFFFFFFFFFFFFFFFFFFFFFFFFFFF AND PUSH20 0xFFFFFFFFFFFFFFFFFFFFFFFFFFFFFFFFFFFFFFFF AND DUP2 MSTORE PUSH1 0x20 ADD SWAP1 PUSH1 0x1 ADD SWAP1 DUP1 DUP4 GT PUSH2 0x493 JUMPI JUMPDEST POP POP POP POP POP SWAP1 POP SWAP1 JUMP JUMPDEST PUSH1 0x1 PUSH1 0x0 SWAP1 SLOAD SWAP1 PUSH2 0x100 EXP SWAP1 DIV PUSH20 0xFFFFFFFFFFFFFFFFFFFFFFFFFFFFFFFFFFFFFFFF AND DUP2 JUMP JUMPDEST PUSH32 0x0 PUSH20 0xFFFFFFFFFFFFFFFFFFFFFFFFFFFFFFFFFFFFFFFF AND CALLER PUSH20 0xFFFFFFFFFFFFFFFFFFFFFFFFFFFFFFFFFFFFFFFF AND EQ PUSH2 0x59B JUMPI PUSH1 0x40 MLOAD PUSH32 0x8C379A000000000000000000000000000000000000000000000000000000000 DUP2 MSTORE PUSH1 0x4 ADD PUSH2 0x592 SWAP1 PUSH2 0x145E JUMP JUMPDEST PUSH1 0x40 MLOAD DUP1 SWAP2 SUB SWAP1 REVERT JUMPDEST PUSH2 0x5A5 DUP3 DUP3 PUSH2 0x868 JUMP JUMPDEST POP POP JUMP JUMPDEST PUSH1 0x5 PUSH1 0x20 MSTORE DUP1 PUSH1 0x0 MSTORE PUSH1 0x40 PUSH1 0x0 KECCAK256 PUSH1 0x0 SWAP2 POP SLOAD SWAP1 PUSH2 0x100 EXP SWAP1 DIV PUSH20 0xFFFFFFFFFFFFFFFFFFFFFFFFFFFFFFFFFFFFFFFF AND DUP2 JUMP JUMPDEST PUSH1 0x7 PUSH1 0x0 SWAP1 SLOAD SWAP1 PUSH2 0x100 EXP SWAP1 DIV PUSH1 0xFF AND DUP2 JUMP JUMPDEST PUSH1 0x1 PUSH1 0x0 SWAP1 SLOAD SWAP1 PUSH2 0x100 EXP SWAP1 DIV PUSH20 0xFFFFFFFFFFFFFFFFFFFFFFFFFFFFFFFFFFFFFFFF AND PUSH20 0xFFFFFFFFFFFFFFFFFFFFFFFFFFFFFFFFFFFFFFFF AND CALLER PUSH20 0xFFFFFFFFFFFFFFFFFFFFFFFFFFFFFFFFFFFFFFFF AND EQ PUSH2 0x649 JUMPI PUSH1 0x0 DUP1 REVERT JUMPDEST DUP1 PUSH1 0x7 PUSH1 0x0 PUSH2 0x100 EXP DUP2 SLOAD DUP2 PUSH1 0xFF MUL NOT AND SWAP1 DUP4 ISZERO ISZERO MUL OR SWAP1 SSTORE POP POP JUMP JUMPDEST PUSH7 0x2386F26FC10000 CALLVALUE GT PUSH2 0x679 JUMPI PUSH1 0x0 DUP1 REVERT JUMPDEST PUSH1 0x0 PUSH2 0x683 PUSH2 0x8A6 JUMP JUMPDEST SWAP1 POP PUSH1 0x0 CALLER SWAP1 POP PUSH1 0x4 DUP3 SWAP1 DUP1 PUSH1 0x1 DUP2 SLOAD ADD DUP1 DUP3 SSTORE DUP1 SWAP2 POP POP PUSH1 0x1 SWAP1 SUB SWAP1 PUSH1 0x0 MSTORE PUSH1 0x20 PUSH1 0x0 KECCAK256 ADD PUSH1 0x0 SWAP1 SWAP2 SWAP1 SWAP2 SWAP1 SWAP2 POP SSTORE DUP1 PUSH1 0x5 PUSH1 0x0 DUP5 DUP2 MSTORE PUSH1 0x20 ADD SWAP1 DUP2 MSTORE PUSH1 0x20 ADD PUSH1 0x0 KECCAK256 PUSH1 0x0 PUSH2 0x100 EXP DUP2 SLOAD DUP2 PUSH20 0xFFFFFFFFFFFFFFFFFFFFFFFFFFFFFFFFFFFFFFFF MUL NOT AND SWAP1 DUP4 PUSH20 0xFFFFFFFFFFFFFFFFFFFFFFFFFFFFFFFFFFFFFFFF AND MUL OR SWAP1 SSTORE POP PUSH2 0x70E DUP2 PUSH2 0x8FB JUMP JUMPDEST POP POP JUMP JUMPDEST PUSH1 0x6 DUP2 DUP2 SLOAD DUP2 LT PUSH2 0x722 JUMPI PUSH1 0x0 DUP1 REVERT JUMPDEST SWAP1 PUSH1 0x0 MSTORE PUSH1 0x20 PUSH1 0x0 KECCAK256 ADD PUSH1 0x0 SWAP2 POP SWAP1 POP SLOAD DUP2 JUMP JUMPDEST PUSH1 0x2 DUP2 DUP2 SLOAD DUP2 LT PUSH2 0x746 JUMPI PUSH1 0x0 DUP1 REVERT JUMPDEST SWAP1 PUSH1 0x0 MSTORE PUSH1 0x20 PUSH1 0x0 KECCAK256 ADD PUSH1 0x0 SWAP2 POP SLOAD SWAP1 PUSH2 0x100 EXP SWAP1 DIV PUSH20 0xFFFFFFFFFFFFFFFFFFFFFFFFFFFFFFFFFFFFFFFF AND DUP2 JUMP JUMPDEST PUSH1 0x0 PUSH1 0x9 SLOAD PUSH32 0x0 PUSH20 0xFFFFFFFFFFFFFFFFFFFFFFFFFFFFFFFFFFFFFFFF AND PUSH4 0x70A08231 ADDRESS PUSH1 0x40 MLOAD DUP3 PUSH4 0xFFFFFFFF AND PUSH1 0xE0 SHL DUP2 MSTORE PUSH1 0x4 ADD PUSH2 0x7D3 SWAP2 SWAP1 PUSH2 0x11A7 JUMP JUMPDEST PUSH1 0x20 PUSH1 0x40 MLOAD DUP1 DUP4 SUB DUP2 DUP7 GAS STATICCALL ISZERO DUP1 ISZERO PUSH2 0x7F0 JUMPI RETURNDATASIZE PUSH1 0x0 DUP1 RETURNDATACOPY RETURNDATASIZE PUSH1 0x0 REVERT JUMPDEST POP POP POP POP PUSH1 0x40 MLOAD RETURNDATASIZE PUSH1 0x1F NOT PUSH1 0x1F DUP3 ADD AND DUP3 ADD DUP1 PUSH1 0x40 MSTORE POP DUP2 ADD SWAP1 PUSH2 0x814 SWAP2 SWAP1 PUSH2 0x1493 JUMP JUMPDEST LT ISZERO PUSH2 0x855 JUMPI PUSH1 0x40 MLOAD PUSH32 0x8C379A000000000000000000000000000000000000000000000000000000000 DUP2 MSTORE PUSH1 0x4 ADD PUSH2 0x84C SWAP1 PUSH2 0x150C JUMP JUMPDEST PUSH1 0x40 MLOAD DUP1 SWAP2 SUB SWAP1 REVERT JUMPDEST PUSH2 0x863 PUSH1 0x8 SLOAD PUSH1 0x9 SLOAD PUSH2 0xA12 JUMP JUMPDEST SWAP1 POP SWAP1 JUMP JUMPDEST PUSH1 0x0 PUSH1 0x4 DUP1 SLOAD SWAP1 POP DUP3 PUSH2 0x87B SWAP2 SWAP1 PUSH2 0x155B JUMP JUMPDEST SWAP1 POP PUSH2 0x886 DUP2 PUSH2 0xB62 JUMP JUMPDEST PUSH1 0x0 PUSH1 0x7 PUSH1 0x0 PUSH2 0x100 EXP DUP2 SLOAD DUP2 PUSH1 0xFF MUL NOT AND SWAP1 DUP4 ISZERO ISZERO MUL OR SWAP1 SSTORE POP POP POP POP JUMP JUMPDEST PUSH1 0x0 PUSH1 0x1 PUSH1 0x0 SWAP1 SLOAD SWAP1 PUSH2 0x100 EXP SWAP1 DIV PUSH20 0xFFFFFFFFFFFFFFFFFFFFFFFFFFFFFFFFFFFFFFFF AND TIMESTAMP PUSH1 0x40 MLOAD PUSH1 0x20 ADD PUSH2 0x8DD SWAP3 SWAP2 SWAP1 PUSH2 0x15F5 JUMP JUMPDEST PUSH1 0x40 MLOAD PUSH1 0x20 DUP2 DUP4 SUB SUB DUP2 MSTORE SWAP1 PUSH1 0x40 MSTORE DUP1 MLOAD SWAP1 PUSH1 0x20 ADD KECCAK256 PUSH1 0x0 SHR SWAP1 POP SWAP1 JUMP JUMPDEST PUSH1 0x1 ISZERO ISZERO PUSH1 0x3 PUSH1 0x0 DUP4 PUSH20 0xFFFFFFFFFFFFFFFFFFFFFFFFFFFFFFFFFFFFFFFF AND PUSH20 0xFFFFFFFFFFFFFFFFFFFFFFFFFFFFFFFFFFFFFFFF AND DUP2 MSTORE PUSH1 0x20 ADD SWAP1 DUP2 MSTORE PUSH1 0x20 ADD PUSH1 0x0 KECCAK256 PUSH1 0x0 SWAP1 SLOAD SWAP1 PUSH2 0x100 EXP SWAP1 DIV PUSH1 0xFF AND ISZERO ISZERO EQ PUSH2 0xA0F JUMPI PUSH1 0x1 PUSH1 0x3 PUSH1 0x0 DUP4 PUSH20 0xFFFFFFFFFFFFFFFFFFFFFFFFFFFFFFFFFFFFFFFF AND PUSH20 0xFFFFFFFFFFFFFFFFFFFFFFFFFFFFFFFFFFFFFFFF AND DUP2 MSTORE PUSH1 0x20 ADD SWAP1 DUP2 MSTORE PUSH1 0x20 ADD PUSH1 0x0 KECCAK256 PUSH1 0x0 PUSH2 0x100 EXP DUP2 SLOAD DUP2 PUSH1 0xFF MUL NOT AND SWAP1 DUP4 ISZERO ISZERO MUL OR SWAP1 SSTORE POP PUSH1 0x2 DUP2 SWAP1 DUP1 PUSH1 0x1 DUP2 SLOAD ADD DUP1 DUP3 SSTORE DUP1 SWAP2 POP POP PUSH1 0x1 SWAP1 SUB SWAP1 PUSH1 0x0 MSTORE PUSH1 0x20 PUSH1 0x0 KECCAK256 ADD PUSH1 0x0 SWAP1 SWAP2 SWAP1 SWAP2 SWAP1 SWAP2 PUSH2 0x100 EXP DUP2 SLOAD DUP2 PUSH20 0xFFFFFFFFFFFFFFFFFFFFFFFFFFFFFFFFFFFFFFFF MUL NOT AND SWAP1 DUP4 PUSH20 0xFFFFFFFFFFFFFFFFFFFFFFFFFFFFFFFFFFFFFFFF AND MUL OR SWAP1 SSTORE POP JUMPDEST POP JUMP JUMPDEST PUSH1 0x0 PUSH32 0x0 PUSH20 0xFFFFFFFFFFFFFFFFFFFFFFFFFFFFFFFFFFFFFFFF AND PUSH4 0x4000AEA0 PUSH32 0x0 DUP5 DUP7 PUSH1 0x0 PUSH1 0x40 MLOAD PUSH1 0x20 ADD PUSH2 0xA86 SWAP3 SWAP2 SWAP1 PUSH2 0x1630 JUMP JUMPDEST PUSH1 0x40 MLOAD PUSH1 0x20 DUP2 DUP4 SUB SUB DUP2 MSTORE SWAP1 PUSH1 0x40 MSTORE PUSH1 0x40 MLOAD DUP5 PUSH4 0xFFFFFFFF AND PUSH1 0xE0 SHL DUP2 MSTORE PUSH1 0x4 ADD PUSH2 0xAB3 SWAP4 SWAP3 SWAP2 SWAP1 PUSH2 0x16E9 JUMP JUMPDEST PUSH1 0x20 PUSH1 0x40 MLOAD DUP1 DUP4 SUB DUP2 PUSH1 0x0 DUP8 GAS CALL ISZERO DUP1 ISZERO PUSH2 0xAD2 JUMPI RETURNDATASIZE PUSH1 0x0 DUP1 RETURNDATACOPY RETURNDATASIZE PUSH1 0x0 REVERT JUMPDEST POP POP POP POP PUSH1 0x40 MLOAD RETURNDATASIZE PUSH1 0x1F NOT PUSH1 0x1F DUP3 ADD AND DUP3 ADD DUP1 PUSH1 0x40 MSTORE POP DUP2 ADD SWAP1 PUSH2 0xAF6 SWAP2 SWAP1 PUSH2 0x173C JUMP JUMPDEST POP PUSH1 0x0 PUSH2 0xB18 DUP5 PUSH1 0x0 ADDRESS PUSH1 0x0 DUP1 DUP10 DUP2 MSTORE PUSH1 0x20 ADD SWAP1 DUP2 MSTORE PUSH1 0x20 ADD PUSH1 0x0 KECCAK256 SLOAD PUSH2 0xCA6 JUMP JUMPDEST SWAP1 POP PUSH1 0x1 PUSH1 0x0 DUP1 DUP7 DUP2 MSTORE PUSH1 0x20 ADD SWAP1 DUP2 MSTORE PUSH1 0x20 ADD PUSH1 0x0 KECCAK256 SLOAD PUSH2 0xB39 SWAP2 SWAP1 PUSH2 0x1769 JUMP JUMPDEST PUSH1 0x0 DUP1 DUP7 DUP2 MSTORE PUSH1 0x20 ADD SWAP1 DUP2 MSTORE PUSH1 0x20 ADD PUSH1 0x0 KECCAK256 DUP2 SWAP1 SSTORE POP PUSH2 0xB59 DUP5 DUP3 PUSH2 0xCE2 JUMP JUMPDEST SWAP2 POP POP SWAP3 SWAP2 POP POP JUMP JUMPDEST PUSH1 0x1 PUSH1 0x0 SWAP1 SLOAD SWAP1 PUSH2 0x100 EXP SWAP1 DIV PUSH20 0xFFFFFFFFFFFFFFFFFFFFFFFFFFFFFFFFFFFFFFFF AND PUSH20 0xFFFFFFFFFFFFFFFFFFFFFFFFFFFFFFFFFFFFFFFF AND CALLER PUSH20 0xFFFFFFFFFFFFFFFFFFFFFFFFFFFFFFFFFFFFFFFF AND EQ PUSH2 0xBBC JUMPI PUSH1 0x0 DUP1 REVERT JUMPDEST PUSH1 0x5 PUSH1 0x0 PUSH1 0x4 DUP4 DUP2 SLOAD DUP2 LT PUSH2 0xBD4 JUMPI PUSH2 0xBD3 PUSH2 0x13E3 JUMP JUMPDEST JUMPDEST SWAP1 PUSH1 0x0 MSTORE PUSH1 0x20 PUSH1 0x0 KECCAK256 ADD SLOAD DUP2 MSTORE PUSH1 0x20 ADD SWAP1 DUP2 MSTORE PUSH1 0x20 ADD PUSH1 0x0 KECCAK256 PUSH1 0x0 SWAP1 SLOAD SWAP1 PUSH2 0x100 EXP SWAP1 DIV PUSH20 0xFFFFFFFFFFFFFFFFFFFFFFFFFFFFFFFFFFFFFFFF AND PUSH20 0xFFFFFFFFFFFFFFFFFFFFFFFFFFFFFFFFFFFFFFFF AND PUSH2 0x8FC SELFBALANCE SWAP1 DUP2 ISZERO MUL SWAP1 PUSH1 0x40 MLOAD PUSH1 0x0 PUSH1 0x40 MLOAD DUP1 DUP4 SUB DUP2 DUP6 DUP9 DUP9 CALL SWAP4 POP POP POP POP ISZERO DUP1 ISZERO PUSH2 0xC53 JUMPI RETURNDATASIZE PUSH1 0x0 DUP1 RETURNDATACOPY RETURNDATASIZE PUSH1 0x0 REVERT JUMPDEST POP PUSH1 0x6 PUSH1 0x4 DUP3 DUP2 SLOAD DUP2 LT PUSH2 0xC6A JUMPI PUSH2 0xC69 PUSH2 0x13E3 JUMP JUMPDEST JUMPDEST SWAP1 PUSH1 0x0 MSTORE PUSH1 0x20 PUSH1 0x0 KECCAK256 ADD SLOAD SWAP1 DUP1 PUSH1 0x1 DUP2 SLOAD ADD DUP1 DUP3 SSTORE DUP1 SWAP2 POP POP PUSH1 0x1 SWAP1 SUB SWAP1 PUSH1 0x0 MSTORE PUSH1 0x20 PUSH1 0x0 KECCAK256 ADD PUSH1 0x0 SWAP1 SWAP2 SWAP1 SWAP2 SWAP1 SWAP2 POP SSTORE PUSH2 0xCA3 PUSH2 0xD15 JUMP JUMPDEST POP JUMP JUMPDEST PUSH1 0x0 DUP5 DUP5 DUP5 DUP5 PUSH1 0x40 MLOAD PUSH1 0x20 ADD PUSH2 0xCBF SWAP5 SWAP4 SWAP3 SWAP2 SWAP1 PUSH2 0x179D JUMP JUMPDEST PUSH1 0x40 MLOAD PUSH1 0x20 DUP2 DUP4 SUB SUB DUP2 MSTORE SWAP1 PUSH1 0x40 MSTORE DUP1 MLOAD SWAP1 PUSH1 0x20 ADD KECCAK256 PUSH1 0x0 SHR SWAP1 POP SWAP5 SWAP4 POP POP POP POP JUMP JUMPDEST PUSH1 0x0 DUP3 DUP3 PUSH1 0x40 MLOAD PUSH1 0x20 ADD PUSH2 0xCF7 SWAP3 SWAP2 SWAP1 PUSH2 0x1803 JUMP JUMPDEST PUSH1 0x40 MLOAD PUSH1 0x20 DUP2 DUP4 SUB SUB DUP2 MSTORE SWAP1 PUSH1 0x40 MSTORE DUP1 MLOAD SWAP1 PUSH1 0x20 ADD KECCAK256 SWAP1 POP SWAP3 SWAP2 POP POP JUMP JUMPDEST PUSH1 0x0 JUMPDEST PUSH1 0x2 DUP1 SLOAD SWAP1 POP DUP2 LT ISZERO PUSH2 0xDC5 JUMPI PUSH1 0x3 PUSH1 0x0 PUSH1 0x2 DUP4 DUP2 SLOAD DUP2 LT PUSH2 0xD3D JUMPI PUSH2 0xD3C PUSH2 0x13E3 JUMP JUMPDEST JUMPDEST SWAP1 PUSH1 0x0 MSTORE PUSH1 0x20 PUSH1 0x0 KECCAK256 ADD PUSH1 0x0 SWAP1 SLOAD SWAP1 PUSH2 0x100 EXP SWAP1 DIV PUSH20 0xFFFFFFFFFFFFFFFFFFFFFFFFFFFFFFFFFFFFFFFF AND PUSH20 0xFFFFFFFFFFFFFFFFFFFFFFFFFFFFFFFFFFFFFFFF AND PUSH20 0xFFFFFFFFFFFFFFFFFFFFFFFFFFFFFFFFFFFFFFFF AND DUP2 MSTORE PUSH1 0x20 ADD SWAP1 DUP2 MSTORE PUSH1 0x20 ADD PUSH1 0x0 KECCAK256 PUSH1 0x0 PUSH2 0x100 EXP DUP2 SLOAD SWAP1 PUSH1 0xFF MUL NOT AND SWAP1 SSTORE DUP1 DUP1 PUSH2 0xDBD SWAP1 PUSH2 0x182F JUMP JUMPDEST SWAP2 POP POP PUSH2 0xD18 JUMP JUMPDEST POP PUSH1 0x0 PUSH8 0xFFFFFFFFFFFFFFFF DUP2 GT ISZERO PUSH2 0xDE1 JUMPI PUSH2 0xDE0 PUSH2 0x1877 JUMP JUMPDEST JUMPDEST PUSH1 0x40 MLOAD SWAP1 DUP1 DUP3 MSTORE DUP1 PUSH1 0x20 MUL PUSH1 0x20 ADD DUP3 ADD PUSH1 0x40 MSTORE DUP1 ISZERO PUSH2 0xE0F JUMPI DUP2 PUSH1 0x20 ADD PUSH1 0x20 DUP3 MUL DUP1 CALLDATASIZE DUP4 CALLDATACOPY DUP1 DUP3 ADD SWAP2 POP POP SWAP1 POP JUMPDEST POP PUSH1 0x2 SWAP1 DUP1 MLOAD SWAP1 PUSH1 0x20 ADD SWAP1 PUSH2 0xE25 SWAP3 SWAP2 SWAP1 PUSH2 0xF00 JUMP JUMPDEST POP PUSH1 0x0 JUMPDEST PUSH1 0x4 DUP1 SLOAD SWAP1 POP DUP2 LT ISZERO PUSH2 0xE9D JUMPI PUSH1 0x5 PUSH1 0x0 PUSH1 0x4 DUP4 DUP2 SLOAD DUP2 LT PUSH2 0xE4E JUMPI PUSH2 0xE4D PUSH2 0x13E3 JUMP JUMPDEST JUMPDEST SWAP1 PUSH1 0x0 MSTORE PUSH1 0x20 PUSH1 0x0 KECCAK256 ADD SLOAD DUP2 MSTORE PUSH1 0x20 ADD SWAP1 DUP2 MSTORE PUSH1 0x20 ADD PUSH1 0x0 KECCAK256 PUSH1 0x0 PUSH2 0x100 EXP DUP2 SLOAD SWAP1 PUSH20 0xFFFFFFFFFFFFFFFFFFFFFFFFFFFFFFFFFFFFFFFF MUL NOT AND SWAP1 SSTORE DUP1 DUP1 PUSH2 0xE95 SWAP1 PUSH2 0x182F JUMP JUMPDEST SWAP2 POP POP PUSH2 0xE29 JUMP JUMPDEST POP PUSH1 0x0 PUSH8 0xFFFFFFFFFFFFFFFF DUP2 GT ISZERO PUSH2 0xEB9 JUMPI PUSH2 0xEB8 PUSH2 0x1877 JUMP JUMPDEST JUMPDEST PUSH1 0x40 MLOAD SWAP1 DUP1 DUP3 MSTORE DUP1 PUSH1 0x20 MUL PUSH1 0x20 ADD DUP3 ADD PUSH1 0x40 MSTORE DUP1 ISZERO PUSH2 0xEE7 JUMPI DUP2 PUSH1 0x20 ADD PUSH1 0x20 DUP3 MUL DUP1 CALLDATASIZE DUP4 CALLDATACOPY DUP1 DUP3 ADD SWAP2 POP POP SWAP1 POP JUMPDEST POP PUSH1 0x4 SWAP1 DUP1 MLOAD SWAP1 PUSH1 0x20 ADD SWAP1 PUSH2 0xEFD SWAP3 SWAP2 SWAP1 PUSH2 0xF8A JUMP JUMPDEST POP JUMP JUMPDEST DUP3 DUP1 SLOAD DUP3 DUP3 SSTORE SWAP1 PUSH1 0x0 MSTORE PUSH1 0x20 PUSH1 0x0 KECCAK256 SWAP1 DUP2 ADD SWAP3 DUP3 ISZERO PUSH2 0xF79 JUMPI SWAP2 PUSH1 0x20 MUL DUP3 ADD JUMPDEST DUP3 DUP2 GT ISZERO PUSH2 0xF78 JUMPI DUP3 MLOAD DUP3 PUSH1 0x0 PUSH2 0x100 EXP DUP2 SLOAD DUP2 PUSH20 0xFFFFFFFFFFFFFFFFFFFFFFFFFFFFFFFFFFFFFFFF MUL NOT AND SWAP1 DUP4 PUSH20 0xFFFFFFFFFFFFFFFFFFFFFFFFFFFFFFFFFFFFFFFF AND MUL OR SWAP1 SSTORE POP SWAP2 PUSH1 0x20 ADD SWAP2 SWAP1 PUSH1 0x1 ADD SWAP1 PUSH2 0xF20 JUMP JUMPDEST JUMPDEST POP SWAP1 POP PUSH2 0xF86 SWAP2 SWAP1 PUSH2 0xFD7 JUMP JUMPDEST POP SWAP1 JUMP JUMPDEST DUP3 DUP1 SLOAD DUP3 DUP3 SSTORE SWAP1 PUSH1 0x0 MSTORE PUSH1 0x20 PUSH1 0x0 KECCAK256 SWAP1 DUP2 ADD SWAP3 DUP3 ISZERO PUSH2 0xFC6 JUMPI SWAP2 PUSH1 0x20 MUL DUP3 ADD JUMPDEST DUP3 DUP2 GT ISZERO PUSH2 0xFC5 JUMPI DUP3 MLOAD DUP3 SSTORE SWAP2 PUSH1 0x20 ADD SWAP2 SWAP1 PUSH1 0x1 ADD SWAP1 PUSH2 0xFAA JUMP JUMPDEST JUMPDEST POP SWAP1 POP PUSH2 0xFD3 SWAP2 SWAP1 PUSH2 0xFD7 JUMP JUMPDEST POP SWAP1 JUMP JUMPDEST JUMPDEST DUP1 DUP3 GT ISZERO PUSH2 0xFF0 JUMPI PUSH1 0x0 DUP2 PUSH1 0x0 SWAP1 SSTORE POP PUSH1 0x1 ADD PUSH2 0xFD8 JUMP JUMPDEST POP SWAP1 JUMP JUMPDEST PUSH1 0x0 DUP2 SWAP1 POP SWAP2 SWAP1 POP JUMP JUMPDEST PUSH2 0x1007 DUP2 PUSH2 0xFF4 JUMP JUMPDEST DUP3 MSTORE POP POP JUMP JUMPDEST PUSH1 0x0 PUSH1 0x20 DUP3 ADD SWAP1 POP PUSH2 0x1022 PUSH1 0x0 DUP4 ADD DUP5 PUSH2 0xFFE JUMP JUMPDEST SWAP3 SWAP2 POP POP JUMP JUMPDEST PUSH1 0x0 DUP1 REVERT JUMPDEST PUSH2 0x1036 DUP2 PUSH2 0xFF4 JUMP JUMPDEST DUP2 EQ PUSH2 0x1041 JUMPI PUSH1 0x0 DUP1 REVERT JUMPDEST POP JUMP JUMPDEST PUSH1 0x0 DUP2 CALLDATALOAD SWAP1 POP PUSH2 0x1053 DUP2 PUSH2 0x102D JUMP JUMPDEST SWAP3 SWAP2 POP POP JUMP JUMPDEST PUSH1 0x0 PUSH1 0x20 DUP3 DUP5 SUB SLT ISZERO PUSH2 0x106F JUMPI PUSH2 0x106E PUSH2 0x1028 JUMP JUMPDEST JUMPDEST PUSH1 0x0 PUSH2 0x107D DUP5 DUP3 DUP6 ADD PUSH2 0x1044 JUMP JUMPDEST SWAP2 POP POP SWAP3 SWAP2 POP POP JUMP JUMPDEST PUSH1 0x0 DUP2 MLOAD SWAP1 POP SWAP2 SWAP1 POP JUMP JUMPDEST PUSH1 0x0 DUP3 DUP3 MSTORE PUSH1 0x20 DUP3 ADD SWAP1 POP SWAP3 SWAP2 POP POP JUMP JUMPDEST PUSH1 0x0 DUP2 SWAP1 POP PUSH1 0x20 DUP3 ADD SWAP1 POP SWAP2 SWAP1 POP JUMP JUMPDEST PUSH1 0x0 PUSH20 0xFFFFFFFFFFFFFFFFFFFFFFFFFFFFFFFFFFFFFFFF DUP3 AND SWAP1 POP SWAP2 SWAP1 POP JUMP JUMPDEST PUSH1 0x0 PUSH2 0x10DD DUP3 PUSH2 0x10B2 JUMP JUMPDEST SWAP1 POP SWAP2 SWAP1 POP JUMP JUMPDEST PUSH2 0x10ED DUP2 PUSH2 0x10D2 JUMP JUMPDEST DUP3 MSTORE POP POP JUMP JUMPDEST PUSH1 0x0 PUSH2 0x10FF DUP4 DUP4 PUSH2 0x10E4 JUMP JUMPDEST PUSH1 0x20 DUP4 ADD SWAP1 POP SWAP3 SWAP2 POP POP JUMP JUMPDEST PUSH1 0x0 PUSH1 0x20 DUP3 ADD SWAP1 POP SWAP2 SWAP1 POP JUMP JUMPDEST PUSH1 0x0 PUSH2 0x1123 DUP3 PUSH2 0x1086 JUMP JUMPDEST PUSH2 0x112D DUP2 DUP6 PUSH2 0x1091 JUMP JUMPDEST SWAP4 POP PUSH2 0x1138 DUP4 PUSH2 0x10A2 JUMP JUMPDEST DUP1 PUSH1 0x0 JUMPDEST DUP4 DUP2 LT ISZERO PUSH2 0x1169 JUMPI DUP2 MLOAD PUSH2 0x1150 DUP9 DUP3 PUSH2 0x10F3 JUMP JUMPDEST SWAP8 POP PUSH2 0x115B DUP4 PUSH2 0x110B JUMP JUMPDEST SWAP3 POP POP PUSH1 0x1 DUP2 ADD SWAP1 POP PUSH2 0x113C JUMP JUMPDEST POP DUP6 SWAP4 POP POP POP POP SWAP3 SWAP2 POP POP JUMP JUMPDEST PUSH1 0x0 PUSH1 0x20 DUP3 ADD SWAP1 POP DUP2 DUP2 SUB PUSH1 0x0 DUP4 ADD MSTORE PUSH2 0x1190 DUP2 DUP5 PUSH2 0x1118 JUMP JUMPDEST SWAP1 POP SWAP3 SWAP2 POP POP JUMP JUMPDEST PUSH2 0x11A1 DUP2 PUSH2 0x10D2 JUMP JUMPDEST DUP3 MSTORE POP POP JUMP JUMPDEST PUSH1 0x0 PUSH1 0x20 DUP3 ADD SWAP1 POP PUSH2 0x11BC PUSH1 0x0 DUP4 ADD DUP5 PUSH2 0x1198 JUMP JUMPDEST SWAP3 SWAP2 POP POP JUMP JUMPDEST PUSH1 0x0 DUP2 SWAP1 POP SWAP2 SWAP1 POP JUMP JUMPDEST PUSH2 0x11D5 DUP2 PUSH2 0x11C2 JUMP JUMPDEST DUP2 EQ PUSH2 0x11E0 JUMPI PUSH1 0x0 DUP1 REVERT JUMPDEST POP JUMP JUMPDEST PUSH1 0x0 DUP2 CALLDATALOAD SWAP1 POP PUSH2 0x11F2 DUP2 PUSH2 0x11CC JUMP JUMPDEST SWAP3 SWAP2 POP POP JUMP JUMPDEST PUSH1 0x0 DUP1 PUSH1 0x40 DUP4 DUP6 SUB SLT ISZERO PUSH2 0x120F JUMPI PUSH2 0x120E PUSH2 0x1028 JUMP JUMPDEST JUMPDEST PUSH1 0x0 PUSH2 0x121D DUP6 DUP3 DUP7 ADD PUSH2 0x11E3 JUMP JUMPDEST SWAP3 POP POP PUSH1 0x20 PUSH2 0x122E DUP6 DUP3 DUP7 ADD PUSH2 0x1044 JUMP JUMPDEST SWAP2 POP POP SWAP3 POP SWAP3 SWAP1 POP JUMP JUMPDEST PUSH1 0x0 PUSH2 0x1243 DUP3 PUSH2 0x10B2 JUMP JUMPDEST SWAP1 POP SWAP2 SWAP1 POP JUMP JUMPDEST PUSH2 0x1253 DUP2 PUSH2 0x1238 JUMP JUMPDEST DUP3 MSTORE POP POP JUMP JUMPDEST PUSH1 0x0 PUSH1 0x20 DUP3 ADD SWAP1 POP PUSH2 0x126E PUSH1 0x0 DUP4 ADD DUP5 PUSH2 0x124A JUMP JUMPDEST SWAP3 SWAP2 POP POP JUMP JUMPDEST PUSH1 0x0 DUP2 ISZERO ISZERO SWAP1 POP SWAP2 SWAP1 POP JUMP JUMPDEST PUSH2 0x1289 DUP2 PUSH2 0x1274 JUMP JUMPDEST DUP3 MSTORE POP POP JUMP JUMPDEST PUSH1 0x0 PUSH1 0x20 DUP3 ADD SWAP1 POP PUSH2 0x12A4 PUSH1 0x0 DUP4 ADD DUP5 PUSH2 0x1280 JUMP JUMPDEST SWAP3 SWAP2 POP POP JUMP JUMPDEST PUSH2 0x12B3 DUP2 PUSH2 0x1274 JUMP JUMPDEST DUP2 EQ PUSH2 0x12BE JUMPI PUSH1 0x0 DUP1 REVERT JUMPDEST POP JUMP JUMPDEST PUSH1 0x0 DUP2 CALLDATALOAD SWAP1 POP PUSH2 0x12D0 DUP2 PUSH2 0x12AA JUMP JUMPDEST SWAP3 SWAP2 POP POP JUMP JUMPDEST PUSH1 0x0 PUSH1 0x20 DUP3 DUP5 SUB SLT ISZERO PUSH2 0x12EC JUMPI PUSH2 0x12EB PUSH2 0x1028 JUMP JUMPDEST JUMPDEST PUSH1 0x0 PUSH2 0x12FA DUP5 DUP3 DUP6 ADD PUSH2 0x12C1 JUMP JUMPDEST SWAP2 POP POP SWAP3 SWAP2 POP POP JUMP JUMPDEST PUSH1 0x0 DUP3 DUP3 MSTORE PUSH1 0x20 DUP3 ADD SWAP1 POP SWAP3 SWAP2 POP POP JUMP JUMPDEST PUSH32 0x5468657265206973206E6F207375636820726F756E6400000000000000000000 PUSH1 0x0 DUP3 ADD MSTORE POP JUMP JUMPDEST PUSH1 0x0 PUSH2 0x134A PUSH1 0x16 DUP4 PUSH2 0x1303 JUMP JUMPDEST SWAP2 POP PUSH2 0x1355 DUP3 PUSH2 0x1314 JUMP JUMPDEST PUSH1 0x20 DUP3 ADD SWAP1 POP SWAP2 SWAP1 POP JUMP JUMPDEST PUSH1 0x0 PUSH1 0x20 DUP3 ADD SWAP1 POP DUP2 DUP2 SUB PUSH1 0x0 DUP4 ADD MSTORE PUSH2 0x1379 DUP2 PUSH2 0x133D JUMP JUMPDEST SWAP1 POP SWAP2 SWAP1 POP JUMP JUMPDEST PUSH32 0x4E487B7100000000000000000000000000000000000000000000000000000000 PUSH1 0x0 MSTORE PUSH1 0x11 PUSH1 0x4 MSTORE PUSH1 0x24 PUSH1 0x0 REVERT JUMPDEST PUSH1 0x0 PUSH2 0x13BA DUP3 PUSH2 0xFF4 JUMP JUMPDEST SWAP2 POP PUSH2 0x13C5 DUP4 PUSH2 0xFF4 JUMP JUMPDEST SWAP3 POP DUP3 DUP3 SUB SWAP1 POP DUP2 DUP2 GT ISZERO PUSH2 0x13DD JUMPI PUSH2 0x13DC PUSH2 0x1380 JUMP JUMPDEST JUMPDEST SWAP3 SWAP2 POP POP JUMP JUMPDEST PUSH32 0x4E487B7100000000000000000000000000000000000000000000000000000000 PUSH1 0x0 MSTORE PUSH1 0x32 PUSH1 0x4 MSTORE PUSH1 0x24 PUSH1 0x0 REVERT JUMPDEST PUSH32 0x4F6E6C7920565246436F6F7264696E61746F722063616E2066756C66696C6C00 PUSH1 0x0 DUP3 ADD MSTORE POP JUMP JUMPDEST PUSH1 0x0 PUSH2 0x1448 PUSH1 0x1F DUP4 PUSH2 0x1303 JUMP JUMPDEST SWAP2 POP PUSH2 0x1453 DUP3 PUSH2 0x1412 JUMP JUMPDEST PUSH1 0x20 DUP3 ADD SWAP1 POP SWAP2 SWAP1 POP JUMP JUMPDEST PUSH1 0x0 PUSH1 0x20 DUP3 ADD SWAP1 POP DUP2 DUP2 SUB PUSH1 0x0 DUP4 ADD MSTORE PUSH2 0x1477 DUP2 PUSH2 0x143B JUMP JUMPDEST SWAP1 POP SWAP2 SWAP1 POP JUMP JUMPDEST PUSH1 0x0 DUP2 MLOAD SWAP1 POP PUSH2 0x148D DUP2 PUSH2 0x102D JUMP JUMPDEST SWAP3 SWAP2 POP POP JUMP JUMPDEST PUSH1 0x0 PUSH1 0x20 DUP3 DUP5 SUB SLT ISZERO PUSH2 0x14A9 JUMPI PUSH2 0x14A8 PUSH2 0x1028 JUMP JUMPDEST JUMPDEST PUSH1 0x0 PUSH2 0x14B7 DUP5 DUP3 DUP6 ADD PUSH2 0x147E JUMP JUMPDEST SWAP2 POP POP SWAP3 SWAP2 POP POP JUMP JUMPDEST PUSH32 0x4E6F7420656E6F756768204C494E4B20696E20636F6E74726163740000000000 PUSH1 0x0 DUP3 ADD MSTORE POP JUMP JUMPDEST PUSH1 0x0 PUSH2 0x14F6 PUSH1 0x1B DUP4 PUSH2 0x1303 JUMP JUMPDEST SWAP2 POP PUSH2 0x1501 DUP3 PUSH2 0x14C0 JUMP JUMPDEST PUSH1 0x20 DUP3 ADD SWAP1 POP SWAP2 SWAP1 POP JUMP JUMPDEST PUSH1 0x0 PUSH1 0x20 DUP3 ADD SWAP1 POP DUP2 DUP2 SUB PUSH1 0x0 DUP4 ADD MSTORE PUSH2 0x1525 DUP2 PUSH2 0x14E9 JUMP JUMPDEST SWAP1 POP SWAP2 SWAP1 POP JUMP JUMPDEST PUSH32 0x4E487B7100000000000000000000000000000000000000000000000000000000 PUSH1 0x0 MSTORE PUSH1 0x12 PUSH1 0x4 MSTORE PUSH1 0x24 PUSH1 0x0 REVERT JUMPDEST PUSH1 0x0 PUSH2 0x1566 DUP3 PUSH2 0xFF4 JUMP JUMPDEST SWAP2 POP PUSH2 0x1571 DUP4 PUSH2 0xFF4 JUMP JUMPDEST SWAP3 POP DUP3 PUSH2 0x1581 JUMPI PUSH2 0x1580 PUSH2 0x152C JUMP JUMPDEST JUMPDEST DUP3 DUP3 MOD SWAP1 POP SWAP3 SWAP2 POP POP JUMP JUMPDEST PUSH1 0x0 DUP2 PUSH1 0x60 SHL SWAP1 POP SWAP2 SWAP1 POP JUMP JUMPDEST PUSH1 0x0 PUSH2 0x15A4 DUP3 PUSH2 0x158C JUMP JUMPDEST SWAP1 POP SWAP2 SWAP1 POP JUMP JUMPDEST PUSH1 0x0 PUSH2 0x15B6 DUP3 PUSH2 0x1599 JUMP JUMPDEST SWAP1 POP SWAP2 SWAP1 POP JUMP JUMPDEST PUSH2 0x15CE PUSH2 0x15C9 DUP3 PUSH2 0x10D2 JUMP JUMPDEST PUSH2 0x15AB JUMP JUMPDEST DUP3 MSTORE POP POP JUMP JUMPDEST PUSH1 0x0 DUP2 SWAP1 POP SWAP2 SWAP1 POP JUMP JUMPDEST PUSH2 0x15EF PUSH2 0x15EA DUP3 PUSH2 0xFF4 JUMP JUMPDEST PUSH2 0x15D4 JUMP JUMPDEST DUP3 MSTORE POP POP JUMP JUMPDEST PUSH1 0x0 PUSH2 0x1601 DUP3 DUP6 PUSH2 0x15BD JUMP JUMPDEST PUSH1 0x14 DUP3 ADD SWAP2 POP PUSH2 0x1611 DUP3 DUP5 PUSH2 0x15DE JUMP JUMPDEST PUSH1 0x20 DUP3 ADD SWAP2 POP DUP2 SWAP1 POP SWAP4 SWAP3 POP POP POP JUMP JUMPDEST PUSH2 0x162A DUP2 PUSH2 0x11C2 JUMP JUMPDEST DUP3 MSTORE POP POP JUMP JUMPDEST PUSH1 0x0 PUSH1 0x40 DUP3 ADD SWAP1 POP PUSH2 0x1645 PUSH1 0x0 DUP4 ADD DUP6 PUSH2 0x1621 JUMP JUMPDEST PUSH2 0x1652 PUSH1 0x20 DUP4 ADD DUP5 PUSH2 0xFFE JUMP JUMPDEST SWAP4 SWAP3 POP POP POP JUMP JUMPDEST PUSH1 0x0 DUP2 MLOAD SWAP1 POP SWAP2 SWAP1 POP JUMP JUMPDEST PUSH1 0x0 DUP3 DUP3 MSTORE PUSH1 0x20 DUP3 ADD SWAP1 POP SWAP3 SWAP2 POP POP JUMP JUMPDEST PUSH1 0x0 JUMPDEST DUP4 DUP2 LT ISZERO PUSH2 0x1693 JUMPI DUP1 DUP3 ADD MLOAD DUP2 DUP5 ADD MSTORE PUSH1 0x20 DUP2 ADD SWAP1 POP PUSH2 0x1678 JUMP JUMPDEST PUSH1 0x0 DUP5 DUP5 ADD MSTORE POP POP POP POP JUMP JUMPDEST PUSH1 0x0 PUSH1 0x1F NOT PUSH1 0x1F DUP4 ADD AND SWAP1 POP SWAP2 SWAP1 POP JUMP JUMPDEST PUSH1 0x0 PUSH2 0x16BB DUP3 PUSH2 0x1659 JUMP JUMPDEST PUSH2 0x16C5 DUP2 DUP6 PUSH2 0x1664 JUMP JUMPDEST SWAP4 POP PUSH2 0x16D5 DUP2 DUP6 PUSH1 0x20 DUP7 ADD PUSH2 0x1675 JUMP JUMPDEST PUSH2 0x16DE DUP2 PUSH2 0x169F JUMP JUMPDEST DUP5 ADD SWAP2 POP POP SWAP3 SWAP2 POP POP JUMP JUMPDEST PUSH1 0x0 PUSH1 0x60 DUP3 ADD SWAP1 POP PUSH2 0x16FE PUSH1 0x0 DUP4 ADD DUP7 PUSH2 0x1198 JUMP JUMPDEST PUSH2 0x170B PUSH1 0x20 DUP4 ADD DUP6 PUSH2 0xFFE JUMP JUMPDEST DUP2 DUP2 SUB PUSH1 0x40 DUP4 ADD MSTORE PUSH2 0x171D DUP2 DUP5 PUSH2 0x16B0 JUMP JUMPDEST SWAP1 POP SWAP5 SWAP4 POP POP POP POP JUMP JUMPDEST PUSH1 0x0 DUP2 MLOAD SWAP1 POP PUSH2 0x1736 DUP2 PUSH2 0x12AA JUMP JUMPDEST SWAP3 SWAP2 POP POP JUMP JUMPDEST PUSH1 0x0 PUSH1 0x20 DUP3 DUP5 SUB SLT ISZERO PUSH2 0x1752 JUMPI PUSH2 0x1751 PUSH2 0x1028 JUMP JUMPDEST JUMPDEST PUSH1 0x0 PUSH2 0x1760 DUP5 DUP3 DUP6 ADD PUSH2 0x1727 JUMP JUMPDEST SWAP2 POP POP SWAP3 SWAP2 POP POP JUMP JUMPDEST PUSH1 0x0 PUSH2 0x1774 DUP3 PUSH2 0xFF4 JUMP JUMPDEST SWAP2 POP PUSH2 0x177F DUP4 PUSH2 0xFF4 JUMP JUMPDEST SWAP3 POP DUP3 DUP3 ADD SWAP1 POP DUP1 DUP3 GT ISZERO PUSH2 0x1797 JUMPI PUSH2 0x1796 PUSH2 0x1380 JUMP JUMPDEST JUMPDEST SWAP3 SWAP2 POP POP JUMP JUMPDEST PUSH1 0x0 PUSH1 0x80 DUP3 ADD SWAP1 POP PUSH2 0x17B2 PUSH1 0x0 DUP4 ADD DUP8 PUSH2 0x1621 JUMP JUMPDEST PUSH2 0x17BF PUSH1 0x20 DUP4 ADD DUP7 PUSH2 0xFFE JUMP JUMPDEST PUSH2 0x17CC PUSH1 0x40 DUP4 ADD DUP6 PUSH2 0x1198 JUMP JUMPDEST PUSH2 0x17D9 PUSH1 0x60 DUP4 ADD DUP5 PUSH2 0xFFE JUMP JUMPDEST SWAP6 SWAP5 POP POP POP POP POP JUMP JUMPDEST PUSH1 0x0 DUP2 SWAP1 POP SWAP2 SWAP1 POP JUMP JUMPDEST PUSH2 0x17FD PUSH2 0x17F8 DUP3 PUSH2 0x11C2 JUMP JUMPDEST PUSH2 0x17E2 JUMP JUMPDEST DUP3 MSTORE POP POP JUMP JUMPDEST PUSH1 0x0 PUSH2 0x180F DUP3 DUP6 PUSH2 0x17EC JUMP JUMPDEST PUSH1 0x20 DUP3 ADD SWAP2 POP PUSH2 0x181F DUP3 DUP5 PUSH2 0x15DE JUMP JUMPDEST PUSH1 0x20 DUP3 ADD SWAP2 POP DUP2 SWAP1 POP SWAP4 SWAP3 POP POP POP JUMP JUMPDEST PUSH1 0x0 PUSH2 0x183A DUP3 PUSH2 0xFF4 JUMP JUMPDEST SWAP2 POP PUSH32 0xFFFFFFFFFFFFFFFFFFFFFFFFFFFFFFFFFFFFFFFFFFFFFFFFFFFFFFFFFFFFFFFF DUP3 SUB PUSH2 0x186C JUMPI PUSH2 0x186B PUSH2 0x1380 JUMP JUMPDEST JUMPDEST PUSH1 0x1 DUP3 ADD SWAP1 POP SWAP2 SWAP1 POP JUMP JUMPDEST PUSH32 0x4E487B7100000000000000000000000000000000000000000000000000000000 PUSH1 0x0 MSTORE PUSH1 0x41 PUSH1 0x4 MSTORE PUSH1 0x24 PUSH1 0x0 REVERT INVALID LOG2 PUSH5 0x6970667358 0x22 SLT KECCAK256 0xBE PUSH9 0x280859CBC7464D5B93 PUSH4 0xB0B477AB 0xE7 GT 0xE3 DUP7 PUSH28 0xCAED0DC9058A1DB92CED7F64736F6C63430008110033000000000000 "
				},
				"gasEstimates": {
					"creation": {
						"codeDepositCost": "1272800",
						"executionCost": "infinite",
						"totalCost": "infinite"
					},
					"external": {
						"enter()": "148984",
						"getBalance()": "340",
						"getPlayers()": "infinite",
						"getWinnerByRound(uint256)": "infinite",
						"isPickingWinner()": "2538",
						"owner()": "2625",
						"pickWinner()": "infinite",
						"playerTickets(uint256)": "2884",
						"players(uint256)": "5044",
						"rawFulfillRandomness(bytes32,uint256)": "infinite",
						"setIsPickingWinner(bool)": "26871",
						"tickets(uint256)": "infinite",
						"winningTickets(uint256)": "infinite"
					},
					"internal": {
						"addPlayers(address)": "75214",
						"fulfillRandomness(bytes32,uint256)": "infinite",
						"generateTicket()": "infinite",
						"getRandomNumber()": "infinite",
						"payWinner(uint256)": "infinite",
						"resetRound()": "infinite"
					}
				},
				"methodIdentifiers": {
					"enter()": "e97dcb62",
					"getBalance()": "12065fe0",
					"getPlayers()": "8b5b9ccc",
					"getWinnerByRound(uint256)": "82b0db4f",
					"isPickingWinner()": "c688d10a",
					"owner()": "8da5cb5b",
					"pickWinner()": "5d495aea",
					"playerTickets(uint256)": "a231b484",
					"players(uint256)": "f71d96cb",
					"rawFulfillRandomness(bytes32,uint256)": "94985ddd",
					"setIsPickingWinner(bool)": "d5b2d954",
					"tickets(uint256)": "50b44712",
					"winningTickets(uint256)": "ed6c7931"
				}
			},
			"storageLayout": {
				"storage": [
					{
						"astId": 79,
						"contract": "truffle/contracts/Dhakon.v0.2.sol:Dhakon",
						"label": "nonces",
						"offset": 0,
						"slot": "0",
						"type": "t_mapping(t_bytes32,t_uint256)"
					},
					{
						"astId": 272,
						"contract": "truffle/contracts/Dhakon.v0.2.sol:Dhakon",
						"label": "owner",
						"offset": 0,
						"slot": "1",
						"type": "t_address"
					},
					{
						"astId": 275,
						"contract": "truffle/contracts/Dhakon.v0.2.sol:Dhakon",
						"label": "players",
						"offset": 0,
						"slot": "2",
						"type": "t_array(t_address)dyn_storage"
					},
					{
						"astId": 279,
						"contract": "truffle/contracts/Dhakon.v0.2.sol:Dhakon",
						"label": "checkPlayers",
						"offset": 0,
						"slot": "3",
						"type": "t_mapping(t_address,t_bool)"
					},
					{
						"astId": 282,
						"contract": "truffle/contracts/Dhakon.v0.2.sol:Dhakon",
						"label": "tickets",
						"offset": 0,
						"slot": "4",
						"type": "t_array(t_uint256)dyn_storage"
					},
					{
						"astId": 286,
						"contract": "truffle/contracts/Dhakon.v0.2.sol:Dhakon",
						"label": "playerTickets",
						"offset": 0,
						"slot": "5",
						"type": "t_mapping(t_uint256,t_address_payable)"
					},
					{
						"astId": 289,
						"contract": "truffle/contracts/Dhakon.v0.2.sol:Dhakon",
						"label": "winningTickets",
						"offset": 0,
						"slot": "6",
						"type": "t_array(t_uint256)dyn_storage"
					},
					{
						"astId": 291,
						"contract": "truffle/contracts/Dhakon.v0.2.sol:Dhakon",
						"label": "isPickingWinner",
						"offset": 0,
						"slot": "7",
						"type": "t_bool"
					},
					{
						"astId": 293,
						"contract": "truffle/contracts/Dhakon.v0.2.sol:Dhakon",
						"label": "keyHash",
						"offset": 0,
						"slot": "8",
						"type": "t_bytes32"
					},
					{
						"astId": 295,
						"contract": "truffle/contracts/Dhakon.v0.2.sol:Dhakon",
						"label": "fee",
						"offset": 0,
						"slot": "9",
						"type": "t_uint256"
					}
				],
				"types": {
					"t_address": {
						"encoding": "inplace",
						"label": "address",
						"numberOfBytes": "20"
					},
					"t_address_payable": {
						"encoding": "inplace",
						"label": "address payable",
						"numberOfBytes": "20"
					},
					"t_array(t_address)dyn_storage": {
						"base": "t_address",
						"encoding": "dynamic_array",
						"label": "address[]",
						"numberOfBytes": "32"
					},
					"t_array(t_uint256)dyn_storage": {
						"base": "t_uint256",
						"encoding": "dynamic_array",
						"label": "uint256[]",
						"numberOfBytes": "32"
					},
					"t_bool": {
						"encoding": "inplace",
						"label": "bool",
						"numberOfBytes": "1"
					},
					"t_bytes32": {
						"encoding": "inplace",
						"label": "bytes32",
						"numberOfBytes": "32"
					},
					"t_mapping(t_address,t_bool)": {
						"encoding": "mapping",
						"key": "t_address",
						"label": "mapping(address => bool)",
						"numberOfBytes": "32",
						"value": "t_bool"
					},
					"t_mapping(t_bytes32,t_uint256)": {
						"encoding": "mapping",
						"key": "t_bytes32",
						"label": "mapping(bytes32 => uint256)",
						"numberOfBytes": "32",
						"value": "t_uint256"
					},
					"t_mapping(t_uint256,t_address_payable)": {
						"encoding": "mapping",
						"key": "t_uint256",
						"label": "mapping(uint256 => address payable)",
						"numberOfBytes": "32",
						"value": "t_address_payable"
					},
					"t_uint256": {
						"encoding": "inplace",
						"label": "uint256",
						"numberOfBytes": "32"
					}
				}
			},
			"userdoc": {
				"kind": "user",
				"methods": {},
				"version": 1
			}
		}
	}
}