{
	"truffle/contracts/Dhakon.v0.2.sol": {
		"Dhakon": {
			"abi": [
				{
					"inputs": [
						{
							"internalType": "address",
							"name": "_VRFCoordinator",
							"type": "address"
						},
						{
							"internalType": "address",
							"name": "_LINKToken",
							"type": "address"
						},
						{
							"internalType": "bytes32",
							"name": "_keyHash",
							"type": "bytes32"
						},
						{
							"internalType": "uint256",
							"name": "_fee",
							"type": "uint256"
						}
					],
					"stateMutability": "nonpayable",
					"type": "constructor"
				},
				{
					"inputs": [],
					"name": "enter",
					"outputs": [],
					"stateMutability": "payable",
					"type": "function"
				},
				{
					"inputs": [],
					"name": "getBalance",
					"outputs": [
						{
							"internalType": "uint256",
							"name": "",
							"type": "uint256"
						}
					],
					"stateMutability": "view",
					"type": "function"
				},
				{
					"inputs": [],
					"name": "getPlayers",
					"outputs": [
						{
							"internalType": "address[]",
							"name": "",
							"type": "address[]"
						}
					],
					"stateMutability": "view",
					"type": "function"
				},
				{
					"inputs": [
						{
							"internalType": "uint256",
							"name": "round",
							"type": "uint256"
						}
					],
					"name": "getWinnerByRound",
					"outputs": [
						{
							"internalType": "uint256",
							"name": "",
							"type": "uint256"
						}
					],
					"stateMutability": "view",
					"type": "function"
				},
				{
					"inputs": [],
					"name": "isPickingWinner",
					"outputs": [
						{
							"internalType": "bool",
							"name": "",
							"type": "bool"
						}
					],
					"stateMutability": "view",
					"type": "function"
				},
				{
					"inputs": [],
					"name": "owner",
					"outputs": [
						{
							"internalType": "address",
							"name": "",
							"type": "address"
						}
					],
					"stateMutability": "view",
					"type": "function"
				},
				{
					"inputs": [],
					"name": "pickWinner",
					"outputs": [],
					"stateMutability": "nonpayable",
					"type": "function"
				},
				{
					"inputs": [
						{
							"internalType": "uint256",
							"name": "",
							"type": "uint256"
						}
					],
					"name": "playerTickets",
					"outputs": [
						{
							"internalType": "address payable",
							"name": "",
							"type": "address"
						}
					],
					"stateMutability": "view",
					"type": "function"
				},
				{
					"inputs": [
						{
							"internalType": "uint256",
							"name": "",
							"type": "uint256"
						}
					],
					"name": "players",
					"outputs": [
						{
							"internalType": "address",
							"name": "",
							"type": "address"
						}
					],
					"stateMutability": "view",
					"type": "function"
				},
				{
					"inputs": [
						{
							"internalType": "bytes32",
							"name": "requestId",
							"type": "bytes32"
						},
						{
							"internalType": "uint256",
							"name": "randomness",
							"type": "uint256"
						}
					],
					"name": "rawFulfillRandomness",
					"outputs": [],
					"stateMutability": "nonpayable",
					"type": "function"
				},
				{
					"inputs": [
						{
							"internalType": "uint256",
							"name": "",
							"type": "uint256"
						}
					],
					"name": "tickets",
					"outputs": [
						{
							"internalType": "uint256",
							"name": "",
							"type": "uint256"
						}
					],
					"stateMutability": "view",
					"type": "function"
				},
				{
					"inputs": [
						{
							"internalType": "uint256",
							"name": "",
							"type": "uint256"
						}
					],
					"name": "winningTickets",
					"outputs": [
						{
							"internalType": "uint256",
							"name": "",
							"type": "uint256"
						}
					],
					"stateMutability": "view",
					"type": "function"
				}
			],
			"devdoc": {
				"kind": "dev",
				"methods": {},
				"version": 1
			},
			"evm": {
				"assembly": "    /* \"truffle/contracts/Dhakon.v0.2.sol\":128:3540  contract Dhakon is VRFConsumerBase {... */\n  mstore(0x40, 0xc0)\n    /* \"truffle/contracts/Dhakon.v0.2.sol\":558:1122  constructor(... */\n  callvalue\n  dup1\n  iszero\n  tag_1\n  jumpi\n  0x00\n  dup1\n  revert\ntag_1:\n  pop\n  mload(0x40)\n  sub(codesize, bytecodeSize)\n  dup1\n  bytecodeSize\n  dup4\n  codecopy\n  dup2\n  dup2\n  add\n  0x40\n  mstore\n  dup2\n  add\n  swap1\n  tag_2\n  swap2\n  swap1\n  tag_3\n  jump\t// in\ntag_2:\n    /* \"truffle/contracts/Dhakon.v0.2.sol\":716:731  _VRFCoordinator */\n  dup4\n    /* \"truffle/contracts/Dhakon.v0.2.sol\":814:824  _LINKToken */\n  dup4\n    /* \"@chainlink/contracts/src/v0.8/VRFConsumerBase.sol\":9323:9338  _vrfCoordinator */\n  dup2\n    /* \"@chainlink/contracts/src/v0.8/VRFConsumerBase.sol\":9306:9338  vrfCoordinator = _vrfCoordinator */\n  0xffffffffffffffffffffffffffffffffffffffff\n  and\n  0xa0\n  dup2\n  0xffffffffffffffffffffffffffffffffffffffff\n  and\n  dup2\n  mstore\n  pop\n  pop\n    /* \"@chainlink/contracts/src/v0.8/VRFConsumerBase.sol\":9370:9375  _link */\n  dup1\n    /* \"@chainlink/contracts/src/v0.8/VRFConsumerBase.sol\":9344:9376  LINK = LinkTokenInterface(_link) */\n  0xffffffffffffffffffffffffffffffffffffffff\n  and\n  0x80\n  dup2\n  0xffffffffffffffffffffffffffffffffffffffff\n  and\n  dup2\n  mstore\n  pop\n  pop\n    /* \"@chainlink/contracts/src/v0.8/VRFConsumerBase.sol\":9248:9381  constructor(address _vrfCoordinator, address _link) {... */\n  pop\n  pop\n    /* \"truffle/contracts/Dhakon.v0.2.sol\":937:945  _keyHash */\n  dup2\n    /* \"truffle/contracts/Dhakon.v0.2.sol\":927:934  keyHash */\n  0x08\n    /* \"truffle/contracts/Dhakon.v0.2.sol\":927:945  keyHash = _keyHash */\n  dup2\n  swap1\n  sstore\n  pop\n    /* \"truffle/contracts/Dhakon.v0.2.sol\":1039:1043  _fee */\n  dup1\n    /* \"truffle/contracts/Dhakon.v0.2.sol\":1033:1036  fee */\n  0x09\n    /* \"truffle/contracts/Dhakon.v0.2.sol\":1033:1043  fee = _fee */\n  dup2\n  swap1\n  sstore\n  pop\n    /* \"truffle/contracts/Dhakon.v0.2.sol\":1101:1111  msg.sender */\n  caller\n    /* \"truffle/contracts/Dhakon.v0.2.sol\":1093:1098  owner */\n  0x01\n  0x00\n    /* \"truffle/contracts/Dhakon.v0.2.sol\":1093:1111  owner = msg.sender */\n  0x0100\n  exp\n  dup2\n  sload\n  dup2\n  0xffffffffffffffffffffffffffffffffffffffff\n  mul\n  not\n  and\n  swap1\n  dup4\n  0xffffffffffffffffffffffffffffffffffffffff\n  and\n  mul\n  or\n  swap1\n  sstore\n  pop\n    /* \"truffle/contracts/Dhakon.v0.2.sol\":558:1122  constructor(... */\n  pop\n  pop\n  pop\n  pop\n    /* \"truffle/contracts/Dhakon.v0.2.sol\":128:3540  contract Dhakon is VRFConsumerBase {... */\n  jump(tag_8)\n    /* \"#utility.yul\":88:205   */\ntag_10:\n    /* \"#utility.yul\":197:198   */\n  0x00\n    /* \"#utility.yul\":194:195   */\n  dup1\n    /* \"#utility.yul\":187:199   */\n  revert\n    /* \"#utility.yul\":334:460   */\ntag_12:\n    /* \"#utility.yul\":371:378   */\n  0x00\n    /* \"#utility.yul\":411:453   */\n  0xffffffffffffffffffffffffffffffffffffffff\n    /* \"#utility.yul\":404:409   */\n  dup3\n    /* \"#utility.yul\":400:454   */\n  and\n    /* \"#utility.yul\":389:454   */\n  swap1\n  pop\n    /* \"#utility.yul\":334:460   */\n  swap2\n  swap1\n  pop\n  jump\t// out\n    /* \"#utility.yul\":466:562   */\ntag_13:\n    /* \"#utility.yul\":503:510   */\n  0x00\n    /* \"#utility.yul\":532:556   */\n  tag_28\n    /* \"#utility.yul\":550:555   */\n  dup3\n    /* \"#utility.yul\":532:556   */\n  tag_12\n  jump\t// in\ntag_28:\n    /* \"#utility.yul\":521:556   */\n  swap1\n  pop\n    /* \"#utility.yul\":466:562   */\n  swap2\n  swap1\n  pop\n  jump\t// out\n    /* \"#utility.yul\":568:690   */\ntag_14:\n    /* \"#utility.yul\":641:665   */\n  tag_30\n    /* \"#utility.yul\":659:664   */\n  dup2\n    /* \"#utility.yul\":641:665   */\n  tag_13\n  jump\t// in\ntag_30:\n    /* \"#utility.yul\":634:639   */\n  dup2\n    /* \"#utility.yul\":631:666   */\n  eq\n    /* \"#utility.yul\":621:684   */\n  tag_31\n  jumpi\n    /* \"#utility.yul\":680:681   */\n  0x00\n    /* \"#utility.yul\":677:678   */\n  dup1\n    /* \"#utility.yul\":670:682   */\n  revert\n    /* \"#utility.yul\":621:684   */\ntag_31:\n    /* \"#utility.yul\":568:690   */\n  pop\n  jump\t// out\n    /* \"#utility.yul\":696:839   */\ntag_15:\n    /* \"#utility.yul\":753:758   */\n  0x00\n    /* \"#utility.yul\":784:790   */\n  dup2\n    /* \"#utility.yul\":778:791   */\n  mload\n    /* \"#utility.yul\":769:791   */\n  swap1\n  pop\n    /* \"#utility.yul\":800:833   */\n  tag_33\n    /* \"#utility.yul\":827:832   */\n  dup2\n    /* \"#utility.yul\":800:833   */\n  tag_14\n  jump\t// in\ntag_33:\n    /* \"#utility.yul\":696:839   */\n  swap3\n  swap2\n  pop\n  pop\n  jump\t// out\n    /* \"#utility.yul\":845:922   */\ntag_16:\n    /* \"#utility.yul\":882:889   */\n  0x00\n    /* \"#utility.yul\":911:916   */\n  dup2\n    /* \"#utility.yul\":900:916   */\n  swap1\n  pop\n    /* \"#utility.yul\":845:922   */\n  swap2\n  swap1\n  pop\n  jump\t// out\n    /* \"#utility.yul\":928:1050   */\ntag_17:\n    /* \"#utility.yul\":1001:1025   */\n  tag_36\n    /* \"#utility.yul\":1019:1024   */\n  dup2\n    /* \"#utility.yul\":1001:1025   */\n  tag_16\n  jump\t// in\ntag_36:\n    /* \"#utility.yul\":994:999   */\n  dup2\n    /* \"#utility.yul\":991:1026   */\n  eq\n    /* \"#utility.yul\":981:1044   */\n  tag_37\n  jumpi\n    /* \"#utility.yul\":1040:1041   */\n  0x00\n    /* \"#utility.yul\":1037:1038   */\n  dup1\n    /* \"#utility.yul\":1030:1042   */\n  revert\n    /* \"#utility.yul\":981:1044   */\ntag_37:\n    /* \"#utility.yul\":928:1050   */\n  pop\n  jump\t// out\n    /* \"#utility.yul\":1056:1199   */\ntag_18:\n    /* \"#utility.yul\":1113:1118   */\n  0x00\n    /* \"#utility.yul\":1144:1150   */\n  dup2\n    /* \"#utility.yul\":1138:1151   */\n  mload\n    /* \"#utility.yul\":1129:1151   */\n  swap1\n  pop\n    /* \"#utility.yul\":1160:1193   */\n  tag_39\n    /* \"#utility.yul\":1187:1192   */\n  dup2\n    /* \"#utility.yul\":1160:1193   */\n  tag_17\n  jump\t// in\ntag_39:\n    /* \"#utility.yul\":1056:1199   */\n  swap3\n  swap2\n  pop\n  pop\n  jump\t// out\n    /* \"#utility.yul\":1205:1282   */\ntag_19:\n    /* \"#utility.yul\":1242:1249   */\n  0x00\n    /* \"#utility.yul\":1271:1276   */\n  dup2\n    /* \"#utility.yul\":1260:1276   */\n  swap1\n  pop\n    /* \"#utility.yul\":1205:1282   */\n  swap2\n  swap1\n  pop\n  jump\t// out\n    /* \"#utility.yul\":1288:1410   */\ntag_20:\n    /* \"#utility.yul\":1361:1385   */\n  tag_42\n    /* \"#utility.yul\":1379:1384   */\n  dup2\n    /* \"#utility.yul\":1361:1385   */\n  tag_19\n  jump\t// in\ntag_42:\n    /* \"#utility.yul\":1354:1359   */\n  dup2\n    /* \"#utility.yul\":1351:1386   */\n  eq\n    /* \"#utility.yul\":1341:1404   */\n  tag_43\n  jumpi\n    /* \"#utility.yul\":1400:1401   */\n  0x00\n    /* \"#utility.yul\":1397:1398   */\n  dup1\n    /* \"#utility.yul\":1390:1402   */\n  revert\n    /* \"#utility.yul\":1341:1404   */\ntag_43:\n    /* \"#utility.yul\":1288:1410   */\n  pop\n  jump\t// out\n    /* \"#utility.yul\":1416:1559   */\ntag_21:\n    /* \"#utility.yul\":1473:1478   */\n  0x00\n    /* \"#utility.yul\":1504:1510   */\n  dup2\n    /* \"#utility.yul\":1498:1511   */\n  mload\n    /* \"#utility.yul\":1489:1511   */\n  swap1\n  pop\n    /* \"#utility.yul\":1520:1553   */\n  tag_45\n    /* \"#utility.yul\":1547:1552   */\n  dup2\n    /* \"#utility.yul\":1520:1553   */\n  tag_20\n  jump\t// in\ntag_45:\n    /* \"#utility.yul\":1416:1559   */\n  swap3\n  swap2\n  pop\n  pop\n  jump\t// out\n    /* \"#utility.yul\":1565:2385   */\ntag_3:\n    /* \"#utility.yul\":1662:1668   */\n  0x00\n    /* \"#utility.yul\":1670:1676   */\n  dup1\n    /* \"#utility.yul\":1678:1684   */\n  0x00\n    /* \"#utility.yul\":1686:1692   */\n  dup1\n    /* \"#utility.yul\":1735:1738   */\n  0x80\n    /* \"#utility.yul\":1723:1732   */\n  dup6\n    /* \"#utility.yul\":1714:1721   */\n  dup8\n    /* \"#utility.yul\":1710:1733   */\n  sub\n    /* \"#utility.yul\":1706:1739   */\n  slt\n    /* \"#utility.yul\":1703:1823   */\n  iszero\n  tag_47\n  jumpi\n    /* \"#utility.yul\":1742:1821   */\n  tag_48\n  tag_10\n  jump\t// in\ntag_48:\n    /* \"#utility.yul\":1703:1823   */\ntag_47:\n    /* \"#utility.yul\":1862:1863   */\n  0x00\n    /* \"#utility.yul\":1887:1951   */\n  tag_49\n    /* \"#utility.yul\":1943:1950   */\n  dup8\n    /* \"#utility.yul\":1934:1940   */\n  dup3\n    /* \"#utility.yul\":1923:1932   */\n  dup9\n    /* \"#utility.yul\":1919:1941   */\n  add\n    /* \"#utility.yul\":1887:1951   */\n  tag_15\n  jump\t// in\ntag_49:\n    /* \"#utility.yul\":1877:1951   */\n  swap5\n  pop\n    /* \"#utility.yul\":1833:1961   */\n  pop\n    /* \"#utility.yul\":2000:2002   */\n  0x20\n    /* \"#utility.yul\":2026:2090   */\n  tag_50\n    /* \"#utility.yul\":2082:2089   */\n  dup8\n    /* \"#utility.yul\":2073:2079   */\n  dup3\n    /* \"#utility.yul\":2062:2071   */\n  dup9\n    /* \"#utility.yul\":2058:2080   */\n  add\n    /* \"#utility.yul\":2026:2090   */\n  tag_15\n  jump\t// in\ntag_50:\n    /* \"#utility.yul\":2016:2090   */\n  swap4\n  pop\n    /* \"#utility.yul\":1971:2100   */\n  pop\n    /* \"#utility.yul\":2139:2141   */\n  0x40\n    /* \"#utility.yul\":2165:2229   */\n  tag_51\n    /* \"#utility.yul\":2221:2228   */\n  dup8\n    /* \"#utility.yul\":2212:2218   */\n  dup3\n    /* \"#utility.yul\":2201:2210   */\n  dup9\n    /* \"#utility.yul\":2197:2219   */\n  add\n    /* \"#utility.yul\":2165:2229   */\n  tag_18\n  jump\t// in\ntag_51:\n    /* \"#utility.yul\":2155:2229   */\n  swap3\n  pop\n    /* \"#utility.yul\":2110:2239   */\n  pop\n    /* \"#utility.yul\":2278:2280   */\n  0x60\n    /* \"#utility.yul\":2304:2368   */\n  tag_52\n    /* \"#utility.yul\":2360:2367   */\n  dup8\n    /* \"#utility.yul\":2351:2357   */\n  dup3\n    /* \"#utility.yul\":2340:2349   */\n  dup9\n    /* \"#utility.yul\":2336:2358   */\n  add\n    /* \"#utility.yul\":2304:2368   */\n  tag_21\n  jump\t// in\ntag_52:\n    /* \"#utility.yul\":2294:2368   */\n  swap2\n  pop\n    /* \"#utility.yul\":2249:2378   */\n  pop\n    /* \"#utility.yul\":1565:2385   */\n  swap3\n  swap6\n  swap2\n  swap5\n  pop\n  swap3\n  pop\n  jump\t// out\n    /* \"truffle/contracts/Dhakon.v0.2.sol\":128:3540  contract Dhakon is VRFConsumerBase {... */\ntag_8:\n  mload(0x80)\n  mload(0xa0)\n  codecopy(0x00, dataOffset(sub_0), dataSize(sub_0))\n  0x00\n  assignImmutable(\"0x6dbb33232cde86c8a04f90a8bed9fc1c5ef520188a14538d96eb100d69bc2a94\")\n  0x00\n  assignImmutable(\"0xb2219b801710730437d0358146c829b62297a059eceaa0b40b27aea2daecf595\")\n  return(0x00, dataSize(sub_0))\nstop\n\nsub_0: assembly {\n        /* \"truffle/contracts/Dhakon.v0.2.sol\":128:3540  contract Dhakon is VRFConsumerBase {... */\n      mstore(0x40, 0x80)\n      jumpi(tag_1, lt(calldatasize, 0x04))\n      shr(0xe0, calldataload(0x00))\n      dup1\n      0x94985ddd\n      gt\n      tag_14\n      jumpi\n      dup1\n      0x94985ddd\n      eq\n      tag_8\n      jumpi\n      dup1\n      0xa231b484\n      eq\n      tag_9\n      jumpi\n      dup1\n      0xc688d10a\n      eq\n      tag_10\n      jumpi\n      dup1\n      0xe97dcb62\n      eq\n      tag_11\n      jumpi\n      dup1\n      0xed6c7931\n      eq\n      tag_12\n      jumpi\n      dup1\n      0xf71d96cb\n      eq\n      tag_13\n      jumpi\n      jump(tag_1)\n    tag_14:\n      dup1\n      0x12065fe0\n      eq\n      tag_2\n      jumpi\n      dup1\n      0x50b44712\n      eq\n      tag_3\n      jumpi\n      dup1\n      0x5d495aea\n      eq\n      tag_4\n      jumpi\n      dup1\n      0x82b0db4f\n      eq\n      tag_5\n      jumpi\n      dup1\n      0x8b5b9ccc\n      eq\n      tag_6\n      jumpi\n      dup1\n      0x8da5cb5b\n      eq\n      tag_7\n      jumpi\n    tag_1:\n      0x00\n      dup1\n      revert\n        /* \"truffle/contracts/Dhakon.v0.2.sol\":1877:1971  function getBalance() public view returns (uint) {... */\n    tag_2:\n      callvalue\n      dup1\n      iszero\n      tag_15\n      jumpi\n      0x00\n      dup1\n      revert\n    tag_15:\n      pop\n      tag_16\n      tag_17\n      jump\t// in\n    tag_16:\n      mload(0x40)\n      tag_18\n      swap2\n      swap1\n      tag_19\n      jump\t// in\n    tag_18:\n      mload(0x40)\n      dup1\n      swap2\n      sub\n      swap1\n      return\n        /* \"truffle/contracts/Dhakon.v0.2.sol\":270:291  uint[] public tickets */\n    tag_3:\n      callvalue\n      dup1\n      iszero\n      tag_20\n      jumpi\n      0x00\n      dup1\n      revert\n    tag_20:\n      pop\n      tag_21\n      0x04\n      dup1\n      calldatasize\n      sub\n      dup2\n      add\n      swap1\n      tag_22\n      swap2\n      swap1\n      tag_23\n      jump\t// in\n    tag_22:\n      tag_24\n      jump\t// in\n    tag_21:\n      mload(0x40)\n      tag_25\n      swap2\n      swap1\n      tag_19\n      jump\t// in\n    tag_25:\n      mload(0x40)\n      dup1\n      swap2\n      sub\n      swap1\n      return\n        /* \"truffle/contracts/Dhakon.v0.2.sol\":2638:2778  function pickWinner() public onlyowner {... */\n    tag_4:\n      callvalue\n      dup1\n      iszero\n      tag_26\n      jumpi\n      0x00\n      dup1\n      revert\n    tag_26:\n      pop\n      tag_27\n      tag_28\n      jump\t// in\n    tag_27:\n      stop\n        /* \"truffle/contracts/Dhakon.v0.2.sol\":1684:1871  function getWinnerByRound(uint round) public view returns (uint) {... */\n    tag_5:\n      callvalue\n      dup1\n      iszero\n      tag_29\n      jumpi\n      0x00\n      dup1\n      revert\n    tag_29:\n      pop\n      tag_30\n      0x04\n      dup1\n      calldatasize\n      sub\n      dup2\n      add\n      swap1\n      tag_31\n      swap2\n      swap1\n      tag_23\n      jump\t// in\n    tag_31:\n      tag_32\n      jump\t// in\n    tag_30:\n      mload(0x40)\n      tag_33\n      swap2\n      swap1\n      tag_19\n      jump\t// in\n    tag_33:\n      mload(0x40)\n      dup1\n      swap2\n      sub\n      swap1\n      return\n        /* \"truffle/contracts/Dhakon.v0.2.sol\":1977:2069  function getPlayers() public view returns (address[] memory) {... */\n    tag_6:\n      callvalue\n      dup1\n      iszero\n      tag_34\n      jumpi\n      0x00\n      dup1\n      revert\n    tag_34:\n      pop\n      tag_35\n      tag_36\n      jump\t// in\n    tag_35:\n      mload(0x40)\n      tag_37\n      swap2\n      swap1\n      tag_38\n      jump\t// in\n    tag_37:\n      mload(0x40)\n      dup1\n      swap2\n      sub\n      swap1\n      return\n        /* \"truffle/contracts/Dhakon.v0.2.sol\":169:189  address public owner */\n    tag_7:\n      callvalue\n      dup1\n      iszero\n      tag_39\n      jumpi\n      0x00\n      dup1\n      revert\n    tag_39:\n      pop\n      tag_40\n      tag_41\n      jump\t// in\n    tag_40:\n      mload(0x40)\n      tag_42\n      swap2\n      swap1\n      tag_43\n      jump\t// in\n    tag_42:\n      mload(0x40)\n      dup1\n      swap2\n      sub\n      swap1\n      return\n        /* \"@chainlink/contracts/src/v0.8/VRFConsumerBase.sol\":9576:9783  function rawFulfillRandomness(bytes32 requestId, uint256 randomness) external {... */\n    tag_8:\n      callvalue\n      dup1\n      iszero\n      tag_44\n      jumpi\n      0x00\n      dup1\n      revert\n    tag_44:\n      pop\n      tag_45\n      0x04\n      dup1\n      calldatasize\n      sub\n      dup2\n      add\n      swap1\n      tag_46\n      swap2\n      swap1\n      tag_47\n      jump\t// in\n    tag_46:\n      tag_48\n      jump\t// in\n    tag_45:\n      stop\n        /* \"truffle/contracts/Dhakon.v0.2.sol\":297:350  mapping(uint => address payable) public playerTickets */\n    tag_9:\n      callvalue\n      dup1\n      iszero\n      tag_49\n      jumpi\n      0x00\n      dup1\n      revert\n    tag_49:\n      pop\n      tag_50\n      0x04\n      dup1\n      calldatasize\n      sub\n      dup2\n      add\n      swap1\n      tag_51\n      swap2\n      swap1\n      tag_23\n      jump\t// in\n    tag_51:\n      tag_52\n      jump\t// in\n    tag_50:\n      mload(0x40)\n      tag_53\n      swap2\n      swap1\n      tag_54\n      jump\t// in\n    tag_53:\n      mload(0x40)\n      dup1\n      swap2\n      sub\n      swap1\n      return\n        /* \"truffle/contracts/Dhakon.v0.2.sol\":391:418  bool public isPickingWinner */\n    tag_10:\n      callvalue\n      dup1\n      iszero\n      tag_55\n      jumpi\n      0x00\n      dup1\n      revert\n    tag_55:\n      pop\n      tag_56\n      tag_57\n      jump\t// in\n    tag_56:\n      mload(0x40)\n      tag_58\n      swap2\n      swap1\n      tag_59\n      jump\t// in\n    tag_58:\n      mload(0x40)\n      dup1\n      swap2\n      sub\n      swap1\n      return\n        /* \"truffle/contracts/Dhakon.v0.2.sol\":2313:2632  function enter() public payable {... */\n    tag_11:\n      tag_60\n      tag_61\n      jump\t// in\n    tag_60:\n      stop\n        /* \"truffle/contracts/Dhakon.v0.2.sol\":357:385  uint[] public winningTickets */\n    tag_12:\n      callvalue\n      dup1\n      iszero\n      tag_62\n      jumpi\n      0x00\n      dup1\n      revert\n    tag_62:\n      pop\n      tag_63\n      0x04\n      dup1\n      calldatasize\n      sub\n      dup2\n      add\n      swap1\n      tag_64\n      swap2\n      swap1\n      tag_23\n      jump\t// in\n    tag_64:\n      tag_65\n      jump\t// in\n    tag_63:\n      mload(0x40)\n      tag_66\n      swap2\n      swap1\n      tag_19\n      jump\t// in\n    tag_66:\n      mload(0x40)\n      dup1\n      swap2\n      sub\n      swap1\n      return\n        /* \"truffle/contracts/Dhakon.v0.2.sol\":196:220  address[] public players */\n    tag_13:\n      callvalue\n      dup1\n      iszero\n      tag_67\n      jumpi\n      0x00\n      dup1\n      revert\n    tag_67:\n      pop\n      tag_68\n      0x04\n      dup1\n      calldatasize\n      sub\n      dup2\n      add\n      swap1\n      tag_69\n      swap2\n      swap1\n      tag_23\n      jump\t// in\n    tag_69:\n      tag_70\n      jump\t// in\n    tag_68:\n      mload(0x40)\n      tag_71\n      swap2\n      swap1\n      tag_43\n      jump\t// in\n    tag_71:\n      mload(0x40)\n      dup1\n      swap2\n      sub\n      swap1\n      return\n        /* \"truffle/contracts/Dhakon.v0.2.sol\":1877:1971  function getBalance() public view returns (uint) {... */\n    tag_17:\n        /* \"truffle/contracts/Dhakon.v0.2.sol\":1920:1924  uint */\n      0x00\n        /* \"truffle/contracts/Dhakon.v0.2.sol\":1943:1964  address(this).balance */\n      selfbalance\n        /* \"truffle/contracts/Dhakon.v0.2.sol\":1936:1964  return address(this).balance */\n      swap1\n      pop\n        /* \"truffle/contracts/Dhakon.v0.2.sol\":1877:1971  function getBalance() public view returns (uint) {... */\n      swap1\n      jump\t// out\n        /* \"truffle/contracts/Dhakon.v0.2.sol\":270:291  uint[] public tickets */\n    tag_24:\n      0x04\n      dup2\n      dup2\n      sload\n      dup2\n      lt\n      tag_73\n      jumpi\n      0x00\n      dup1\n      revert\n    tag_73:\n      swap1\n      0x00\n      mstore\n      keccak256(0x00, 0x20)\n      add\n      0x00\n      swap2\n      pop\n      swap1\n      pop\n      sload\n      dup2\n      jump\t// out\n        /* \"truffle/contracts/Dhakon.v0.2.sol\":2638:2778  function pickWinner() public onlyowner {... */\n    tag_28:\n        /* \"truffle/contracts/Dhakon.v0.2.sol\":3516:3521  owner */\n      0x01\n      0x00\n      swap1\n      sload\n      swap1\n      0x0100\n      exp\n      swap1\n      div\n      0xffffffffffffffffffffffffffffffffffffffff\n      and\n        /* \"truffle/contracts/Dhakon.v0.2.sol\":3502:3521  msg.sender == owner */\n      0xffffffffffffffffffffffffffffffffffffffff\n      and\n        /* \"truffle/contracts/Dhakon.v0.2.sol\":3502:3512  msg.sender */\n      caller\n        /* \"truffle/contracts/Dhakon.v0.2.sol\":3502:3521  msg.sender == owner */\n      0xffffffffffffffffffffffffffffffffffffffff\n      and\n      eq\n        /* \"truffle/contracts/Dhakon.v0.2.sol\":3494:3522  require(msg.sender == owner) */\n      tag_76\n      jumpi\n      0x00\n      dup1\n      revert\n    tag_76:\n        /* \"truffle/contracts/Dhakon.v0.2.sol\":2696:2711  isPickingWinner */\n      0x07\n      0x00\n      swap1\n      sload\n      swap1\n      0x0100\n      exp\n      swap1\n      div\n      0xff\n      and\n        /* \"truffle/contracts/Dhakon.v0.2.sol\":2695:2711  !isPickingWinner */\n      iszero\n        /* \"truffle/contracts/Dhakon.v0.2.sol\":2687:2712  require(!isPickingWinner) */\n      tag_78\n      jumpi\n      0x00\n      dup1\n      revert\n    tag_78:\n        /* \"truffle/contracts/Dhakon.v0.2.sol\":2740:2744  true */\n      0x01\n        /* \"truffle/contracts/Dhakon.v0.2.sol\":2722:2737  isPickingWinner */\n      0x07\n      0x00\n        /* \"truffle/contracts/Dhakon.v0.2.sol\":2722:2744  isPickingWinner = true */\n      0x0100\n      exp\n      dup2\n      sload\n      dup2\n      0xff\n      mul\n      not\n      and\n      swap1\n      dup4\n      iszero\n      iszero\n      mul\n      or\n      swap1\n      sstore\n      pop\n        /* \"truffle/contracts/Dhakon.v0.2.sol\":2754:2771  getRandomNumber() */\n      tag_79\n        /* \"truffle/contracts/Dhakon.v0.2.sol\":2754:2769  getRandomNumber */\n      tag_80\n        /* \"truffle/contracts/Dhakon.v0.2.sol\":2754:2771  getRandomNumber() */\n      jump\t// in\n    tag_79:\n      pop\n        /* \"truffle/contracts/Dhakon.v0.2.sol\":2638:2778  function pickWinner() public onlyowner {... */\n      jump\t// out\n        /* \"truffle/contracts/Dhakon.v0.2.sol\":1684:1871  function getWinnerByRound(uint round) public view returns (uint) {... */\n    tag_32:\n        /* \"truffle/contracts/Dhakon.v0.2.sol\":1743:1747  uint */\n      0x00\n        /* \"truffle/contracts/Dhakon.v0.2.sol\":1776:1790  winningTickets */\n      0x06\n        /* \"truffle/contracts/Dhakon.v0.2.sol\":1776:1797  winningTickets.length */\n      dup1\n      sload\n      swap1\n      pop\n        /* \"truffle/contracts/Dhakon.v0.2.sol\":1767:1772  round */\n      dup3\n        /* \"truffle/contracts/Dhakon.v0.2.sol\":1767:1797  round <= winningTickets.length */\n      gt\n      iszero\n        /* \"truffle/contracts/Dhakon.v0.2.sol\":1759:1824  require(round <= winningTickets.length, \"There is no such round\") */\n      tag_82\n      jumpi\n      mload(0x40)\n      0x08c379a000000000000000000000000000000000000000000000000000000000\n      dup2\n      mstore\n      0x04\n      add\n      tag_83\n      swap1\n      tag_84\n      jump\t// in\n    tag_83:\n      mload(0x40)\n      dup1\n      swap2\n      sub\n      swap1\n      revert\n    tag_82:\n        /* \"truffle/contracts/Dhakon.v0.2.sol\":1841:1855  winningTickets */\n      0x06\n        /* \"truffle/contracts/Dhakon.v0.2.sol\":1862:1863  1 */\n      0x01\n        /* \"truffle/contracts/Dhakon.v0.2.sol\":1856:1861  round */\n      dup4\n        /* \"truffle/contracts/Dhakon.v0.2.sol\":1856:1863  round-1 */\n      tag_85\n      swap2\n      swap1\n      tag_86\n      jump\t// in\n    tag_85:\n        /* \"truffle/contracts/Dhakon.v0.2.sol\":1841:1864  winningTickets[round-1] */\n      dup2\n      sload\n      dup2\n      lt\n      tag_87\n      jumpi\n      tag_88\n      tag_89\n      jump\t// in\n    tag_88:\n    tag_87:\n      swap1\n      0x00\n      mstore\n      keccak256(0x00, 0x20)\n      add\n      sload\n        /* \"truffle/contracts/Dhakon.v0.2.sol\":1834:1864  return winningTickets[round-1] */\n      swap1\n      pop\n        /* \"truffle/contracts/Dhakon.v0.2.sol\":1684:1871  function getWinnerByRound(uint round) public view returns (uint) {... */\n      swap2\n      swap1\n      pop\n      jump\t// out\n        /* \"truffle/contracts/Dhakon.v0.2.sol\":1977:2069  function getPlayers() public view returns (address[] memory) {... */\n    tag_36:\n        /* \"truffle/contracts/Dhakon.v0.2.sol\":2020:2036  address[] memory */\n      0x60\n        /* \"truffle/contracts/Dhakon.v0.2.sol\":2055:2062  players */\n      0x02\n        /* \"truffle/contracts/Dhakon.v0.2.sol\":2048:2062  return players */\n      dup1\n      sload\n      dup1\n      0x20\n      mul\n      0x20\n      add\n      mload(0x40)\n      swap1\n      dup2\n      add\n      0x40\n      mstore\n      dup1\n      swap3\n      swap2\n      swap1\n      dup2\n      dup2\n      mstore\n      0x20\n      add\n      dup3\n      dup1\n      sload\n      dup1\n      iszero\n      tag_92\n      jumpi\n      0x20\n      mul\n      dup3\n      add\n      swap2\n      swap1\n      0x00\n      mstore\n      keccak256(0x00, 0x20)\n      swap1\n    tag_93:\n      dup2\n      0x00\n      swap1\n      sload\n      swap1\n      0x0100\n      exp\n      swap1\n      div\n      0xffffffffffffffffffffffffffffffffffffffff\n      and\n      0xffffffffffffffffffffffffffffffffffffffff\n      and\n      dup2\n      mstore\n      0x20\n      add\n      swap1\n      0x01\n      add\n      swap1\n      dup1\n      dup4\n      gt\n      tag_93\n      jumpi\n    tag_92:\n      pop\n      pop\n      pop\n      pop\n      pop\n      swap1\n      pop\n        /* \"truffle/contracts/Dhakon.v0.2.sol\":1977:2069  function getPlayers() public view returns (address[] memory) {... */\n      swap1\n      jump\t// out\n        /* \"truffle/contracts/Dhakon.v0.2.sol\":169:189  address public owner */\n    tag_41:\n      0x01\n      0x00\n      swap1\n      sload\n      swap1\n      0x0100\n      exp\n      swap1\n      div\n      0xffffffffffffffffffffffffffffffffffffffff\n      and\n      dup2\n      jump\t// out\n        /* \"@chainlink/contracts/src/v0.8/VRFConsumerBase.sol\":9576:9783  function rawFulfillRandomness(bytes32 requestId, uint256 randomness) external {... */\n    tag_48:\n        /* \"@chainlink/contracts/src/v0.8/VRFConsumerBase.sol\":9682:9696  vrfCoordinator */\n      immutable(\"0x6dbb33232cde86c8a04f90a8bed9fc1c5ef520188a14538d96eb100d69bc2a94\")\n        /* \"@chainlink/contracts/src/v0.8/VRFConsumerBase.sol\":9668:9696  msg.sender == vrfCoordinator */\n      0xffffffffffffffffffffffffffffffffffffffff\n      and\n        /* \"@chainlink/contracts/src/v0.8/VRFConsumerBase.sol\":9668:9678  msg.sender */\n      caller\n        /* \"@chainlink/contracts/src/v0.8/VRFConsumerBase.sol\":9668:9696  msg.sender == vrfCoordinator */\n      0xffffffffffffffffffffffffffffffffffffffff\n      and\n      eq\n        /* \"@chainlink/contracts/src/v0.8/VRFConsumerBase.sol\":9660:9732  require(msg.sender == vrfCoordinator, \"Only VRFCoordinator can fulfill\") */\n      tag_95\n      jumpi\n      mload(0x40)\n      0x08c379a000000000000000000000000000000000000000000000000000000000\n      dup2\n      mstore\n      0x04\n      add\n      tag_96\n      swap1\n      tag_97\n      jump\t// in\n    tag_96:\n      mload(0x40)\n      dup1\n      swap2\n      sub\n      swap1\n      revert\n    tag_95:\n        /* \"@chainlink/contracts/src/v0.8/VRFConsumerBase.sol\":9738:9778  fulfillRandomness(requestId, randomness) */\n      tag_98\n        /* \"@chainlink/contracts/src/v0.8/VRFConsumerBase.sol\":9756:9765  requestId */\n      dup3\n        /* \"@chainlink/contracts/src/v0.8/VRFConsumerBase.sol\":9767:9777  randomness */\n      dup3\n        /* \"@chainlink/contracts/src/v0.8/VRFConsumerBase.sol\":9738:9755  fulfillRandomness */\n      tag_99\n        /* \"@chainlink/contracts/src/v0.8/VRFConsumerBase.sol\":9738:9778  fulfillRandomness(requestId, randomness) */\n      jump\t// in\n    tag_98:\n        /* \"@chainlink/contracts/src/v0.8/VRFConsumerBase.sol\":9576:9783  function rawFulfillRandomness(bytes32 requestId, uint256 randomness) external {... */\n      pop\n      pop\n      jump\t// out\n        /* \"truffle/contracts/Dhakon.v0.2.sol\":297:350  mapping(uint => address payable) public playerTickets */\n    tag_52:\n      mstore(0x20, 0x05)\n      dup1\n      0x00\n      mstore\n      keccak256(0x00, 0x40)\n      0x00\n      swap2\n      pop\n      sload\n      swap1\n      0x0100\n      exp\n      swap1\n      div\n      0xffffffffffffffffffffffffffffffffffffffff\n      and\n      dup2\n      jump\t// out\n        /* \"truffle/contracts/Dhakon.v0.2.sol\":391:418  bool public isPickingWinner */\n    tag_57:\n      0x07\n      0x00\n      swap1\n      sload\n      swap1\n      0x0100\n      exp\n      swap1\n      div\n      0xff\n      and\n      dup2\n      jump\t// out\n        /* \"truffle/contracts/Dhakon.v0.2.sol\":2313:2632  function enter() public payable {... */\n    tag_61:\n        /* \"truffle/contracts/Dhakon.v0.2.sol\":2375:2384  .01 ether */\n      0x2386f26fc10000\n        /* \"truffle/contracts/Dhakon.v0.2.sol\":2363:2372  msg.value */\n      callvalue\n        /* \"truffle/contracts/Dhakon.v0.2.sol\":2363:2384  msg.value > .01 ether */\n      gt\n        /* \"truffle/contracts/Dhakon.v0.2.sol\":2355:2385  require(msg.value > .01 ether) */\n      tag_101\n      jumpi\n      0x00\n      dup1\n      revert\n    tag_101:\n        /* \"truffle/contracts/Dhakon.v0.2.sol\":2442:2453  uint ticket */\n      0x00\n        /* \"truffle/contracts/Dhakon.v0.2.sol\":2456:2472  generateTicket() */\n      tag_102\n        /* \"truffle/contracts/Dhakon.v0.2.sol\":2456:2470  generateTicket */\n      tag_103\n        /* \"truffle/contracts/Dhakon.v0.2.sol\":2456:2472  generateTicket() */\n      jump\t// in\n    tag_102:\n        /* \"truffle/contracts/Dhakon.v0.2.sol\":2442:2472  uint ticket = generateTicket() */\n      swap1\n      pop\n        /* \"truffle/contracts/Dhakon.v0.2.sol\":2482:2504  address payable player */\n      0x00\n        /* \"truffle/contracts/Dhakon.v0.2.sol\":2515:2525  msg.sender */\n      caller\n        /* \"truffle/contracts/Dhakon.v0.2.sol\":2482:2526  address payable player = payable(msg.sender) */\n      swap1\n      pop\n        /* \"truffle/contracts/Dhakon.v0.2.sol\":2536:2543  tickets */\n      0x04\n        /* \"truffle/contracts/Dhakon.v0.2.sol\":2549:2555  ticket */\n      dup3\n        /* \"truffle/contracts/Dhakon.v0.2.sol\":2536:2556  tickets.push(ticket) */\n      swap1\n      dup1\n      0x01\n      dup2\n      sload\n      add\n      dup1\n      dup3\n      sstore\n      dup1\n      swap2\n      pop\n      pop\n      0x01\n      swap1\n      sub\n      swap1\n      0x00\n      mstore\n      keccak256(0x00, 0x20)\n      add\n      0x00\n      swap1\n      swap2\n      swap1\n      swap2\n      swap1\n      swap2\n      pop\n      sstore\n        /* \"truffle/contracts/Dhakon.v0.2.sol\":2590:2596  player */\n      dup1\n        /* \"truffle/contracts/Dhakon.v0.2.sol\":2566:2579  playerTickets */\n      0x05\n        /* \"truffle/contracts/Dhakon.v0.2.sol\":2566:2587  playerTickets[ticket] */\n      0x00\n        /* \"truffle/contracts/Dhakon.v0.2.sol\":2580:2586  ticket */\n      dup5\n        /* \"truffle/contracts/Dhakon.v0.2.sol\":2566:2587  playerTickets[ticket] */\n      dup2\n      mstore\n      0x20\n      add\n      swap1\n      dup2\n      mstore\n      0x20\n      add\n      0x00\n      keccak256\n      0x00\n        /* \"truffle/contracts/Dhakon.v0.2.sol\":2566:2596  playerTickets[ticket] = player */\n      0x0100\n      exp\n      dup2\n      sload\n      dup2\n      0xffffffffffffffffffffffffffffffffffffffff\n      mul\n      not\n      and\n      swap1\n      dup4\n      0xffffffffffffffffffffffffffffffffffffffff\n      and\n      mul\n      or\n      swap1\n      sstore\n      pop\n        /* \"truffle/contracts/Dhakon.v0.2.sol\":2607:2625  addPlayers(player) */\n      tag_105\n        /* \"truffle/contracts/Dhakon.v0.2.sol\":2618:2624  player */\n      dup2\n        /* \"truffle/contracts/Dhakon.v0.2.sol\":2607:2617  addPlayers */\n      tag_106\n        /* \"truffle/contracts/Dhakon.v0.2.sol\":2607:2625  addPlayers(player) */\n      jump\t// in\n    tag_105:\n        /* \"truffle/contracts/Dhakon.v0.2.sol\":2345:2632  {... */\n      pop\n      pop\n        /* \"truffle/contracts/Dhakon.v0.2.sol\":2313:2632  function enter() public payable {... */\n      jump\t// out\n        /* \"truffle/contracts/Dhakon.v0.2.sol\":357:385  uint[] public winningTickets */\n    tag_65:\n      0x06\n      dup2\n      dup2\n      sload\n      dup2\n      lt\n      tag_107\n      jumpi\n      0x00\n      dup1\n      revert\n    tag_107:\n      swap1\n      0x00\n      mstore\n      keccak256(0x00, 0x20)\n      add\n      0x00\n      swap2\n      pop\n      swap1\n      pop\n      sload\n      dup2\n      jump\t// out\n        /* \"truffle/contracts/Dhakon.v0.2.sol\":196:220  address[] public players */\n    tag_70:\n      0x02\n      dup2\n      dup2\n      sload\n      dup2\n      lt\n      tag_109\n      jumpi\n      0x00\n      dup1\n      revert\n    tag_109:\n      swap1\n      0x00\n      mstore\n      keccak256(0x00, 0x20)\n      add\n      0x00\n      swap2\n      pop\n      sload\n      swap1\n      0x0100\n      exp\n      swap1\n      div\n      0xffffffffffffffffffffffffffffffffffffffff\n      and\n      dup2\n      jump\t// out\n        /* \"truffle/contracts/Dhakon.v0.2.sol\":1128:1333  function getRandomNumber() internal returns (bytes32 requestId) {... */\n    tag_80:\n        /* \"truffle/contracts/Dhakon.v0.2.sol\":1173:1190  bytes32 requestId */\n      0x00\n        /* \"truffle/contracts/Dhakon.v0.2.sol\":1243:1246  fee */\n      sload(0x09)\n        /* \"truffle/contracts/Dhakon.v0.2.sol\":1210:1214  LINK */\n      immutable(\"0xb2219b801710730437d0358146c829b62297a059eceaa0b40b27aea2daecf595\")\n        /* \"truffle/contracts/Dhakon.v0.2.sol\":1210:1224  LINK.balanceOf */\n      0xffffffffffffffffffffffffffffffffffffffff\n      and\n      0x70a08231\n        /* \"truffle/contracts/Dhakon.v0.2.sol\":1233:1237  this */\n      address\n        /* \"truffle/contracts/Dhakon.v0.2.sol\":1210:1239  LINK.balanceOf(address(this)) */\n      mload(0x40)\n      dup3\n      0xffffffff\n      and\n      0xe0\n      shl\n      dup2\n      mstore\n      0x04\n      add\n      tag_112\n      swap2\n      swap1\n      tag_43\n      jump\t// in\n    tag_112:\n      0x20\n      mload(0x40)\n      dup1\n      dup4\n      sub\n      dup2\n      dup7\n      gas\n      staticcall\n      iszero\n      dup1\n      iszero\n      tag_114\n      jumpi\n      returndatasize\n      0x00\n      dup1\n      returndatacopy\n      revert(0x00, returndatasize)\n    tag_114:\n      pop\n      pop\n      pop\n      pop\n      mload(0x40)\n      returndatasize\n      not(0x1f)\n      0x1f\n      dup3\n      add\n      and\n      dup3\n      add\n      dup1\n      0x40\n      mstore\n      pop\n      dup2\n      add\n      swap1\n      tag_115\n      swap2\n      swap1\n      tag_116\n      jump\t// in\n    tag_115:\n        /* \"truffle/contracts/Dhakon.v0.2.sol\":1210:1246  LINK.balanceOf(address(this)) >= fee */\n      lt\n      iszero\n        /* \"truffle/contracts/Dhakon.v0.2.sol\":1202:1278  require(LINK.balanceOf(address(this)) >= fee, \"Not enough LINK in contract\") */\n      tag_117\n      jumpi\n      mload(0x40)\n      0x08c379a000000000000000000000000000000000000000000000000000000000\n      dup2\n      mstore\n      0x04\n      add\n      tag_118\n      swap1\n      tag_119\n      jump\t// in\n    tag_118:\n      mload(0x40)\n      dup1\n      swap2\n      sub\n      swap1\n      revert\n    tag_117:\n        /* \"truffle/contracts/Dhakon.v0.2.sol\":1295:1326  requestRandomness(keyHash, fee) */\n      tag_120\n        /* \"truffle/contracts/Dhakon.v0.2.sol\":1313:1320  keyHash */\n      sload(0x08)\n        /* \"truffle/contracts/Dhakon.v0.2.sol\":1322:1325  fee */\n      sload(0x09)\n        /* \"truffle/contracts/Dhakon.v0.2.sol\":1295:1312  requestRandomness */\n      tag_121\n        /* \"truffle/contracts/Dhakon.v0.2.sol\":1295:1326  requestRandomness(keyHash, fee) */\n      jump\t// in\n    tag_120:\n        /* \"truffle/contracts/Dhakon.v0.2.sol\":1288:1326  return requestRandomness(keyHash, fee) */\n      swap1\n      pop\n        /* \"truffle/contracts/Dhakon.v0.2.sol\":1128:1333  function getRandomNumber() internal returns (bytes32 requestId) {... */\n      swap1\n      jump\t// out\n        /* \"truffle/contracts/Dhakon.v0.2.sol\":1339:1536  function fulfillRandomness(bytes32 requestId, uint randomness) internal override {... */\n    tag_99:\n        /* \"truffle/contracts/Dhakon.v0.2.sol\":1430:1440  uint index */\n      0x00\n        /* \"truffle/contracts/Dhakon.v0.2.sol\":1456:1463  tickets */\n      0x04\n        /* \"truffle/contracts/Dhakon.v0.2.sol\":1456:1470  tickets.length */\n      dup1\n      sload\n      swap1\n      pop\n        /* \"truffle/contracts/Dhakon.v0.2.sol\":1443:1453  randomness */\n      dup3\n        /* \"truffle/contracts/Dhakon.v0.2.sol\":1443:1470  randomness % tickets.length */\n      tag_123\n      swap2\n      swap1\n      tag_124\n      jump\t// in\n    tag_123:\n        /* \"truffle/contracts/Dhakon.v0.2.sol\":1430:1470  uint index = randomness % tickets.length */\n      swap1\n      pop\n        /* \"truffle/contracts/Dhakon.v0.2.sol\":1480:1496  payWinner(index) */\n      tag_125\n        /* \"truffle/contracts/Dhakon.v0.2.sol\":1490:1495  index */\n      dup2\n        /* \"truffle/contracts/Dhakon.v0.2.sol\":1480:1489  payWinner */\n      tag_126\n        /* \"truffle/contracts/Dhakon.v0.2.sol\":1480:1496  payWinner(index) */\n      jump\t// in\n    tag_125:\n        /* \"truffle/contracts/Dhakon.v0.2.sol\":1524:1529  false */\n      0x00\n        /* \"truffle/contracts/Dhakon.v0.2.sol\":1506:1521  isPickingWinner */\n      0x07\n      0x00\n        /* \"truffle/contracts/Dhakon.v0.2.sol\":1506:1529  isPickingWinner = false */\n      0x0100\n      exp\n      dup2\n      sload\n      dup2\n      0xff\n      mul\n      not\n      and\n      swap1\n      dup4\n      iszero\n      iszero\n      mul\n      or\n      swap1\n      sstore\n      pop\n        /* \"truffle/contracts/Dhakon.v0.2.sol\":1420:1536  {... */\n      pop\n        /* \"truffle/contracts/Dhakon.v0.2.sol\":1339:1536  function fulfillRandomness(bytes32 requestId, uint randomness) internal override {... */\n      pop\n      pop\n      jump\t// out\n        /* \"truffle/contracts/Dhakon.v0.2.sol\":1542:1678  function generateTicket() internal view returns (uint) {... */\n    tag_103:\n        /* \"truffle/contracts/Dhakon.v0.2.sol\":1591:1595  uint */\n      0x00\n        /* \"truffle/contracts/Dhakon.v0.2.sol\":1646:1651  owner */\n      0x01\n      0x00\n      swap1\n      sload\n      swap1\n      0x0100\n      exp\n      swap1\n      div\n      0xffffffffffffffffffffffffffffffffffffffff\n      and\n        /* \"truffle/contracts/Dhakon.v0.2.sol\":1653:1668  block.timestamp */\n      timestamp\n        /* \"truffle/contracts/Dhakon.v0.2.sol\":1629:1669  abi.encodePacked(owner, block.timestamp) */\n      add(0x20, mload(0x40))\n      tag_128\n      swap3\n      swap2\n      swap1\n      tag_129\n      jump\t// in\n    tag_128:\n      mload(0x40)\n      0x20\n      dup2\n      dup4\n      sub\n      sub\n      dup2\n      mstore\n      swap1\n      0x40\n      mstore\n        /* \"truffle/contracts/Dhakon.v0.2.sol\":1619:1670  keccak256(abi.encodePacked(owner, block.timestamp)) */\n      dup1\n      mload\n      swap1\n      0x20\n      add\n      keccak256\n        /* \"truffle/contracts/Dhakon.v0.2.sol\":1614:1671  uint(keccak256(abi.encodePacked(owner, block.timestamp))) */\n      0x00\n      shr\n        /* \"truffle/contracts/Dhakon.v0.2.sol\":1607:1671  return uint(keccak256(abi.encodePacked(owner, block.timestamp))) */\n      swap1\n      pop\n        /* \"truffle/contracts/Dhakon.v0.2.sol\":1542:1678  function generateTicket() internal view returns (uint) {... */\n      swap1\n      jump\t// out\n        /* \"truffle/contracts/Dhakon.v0.2.sol\":2075:2307  function addPlayers(address playerAddr) internal {... */\n    tag_106:\n        /* \"truffle/contracts/Dhakon.v0.2.sol\":2166:2170  true */\n      0x01\n        /* \"truffle/contracts/Dhakon.v0.2.sol\":2138:2170  checkPlayers[playerAddr] != true */\n      iszero\n      iszero\n        /* \"truffle/contracts/Dhakon.v0.2.sol\":2138:2150  checkPlayers */\n      0x03\n        /* \"truffle/contracts/Dhakon.v0.2.sol\":2138:2162  checkPlayers[playerAddr] */\n      0x00\n        /* \"truffle/contracts/Dhakon.v0.2.sol\":2151:2161  playerAddr */\n      dup4\n        /* \"truffle/contracts/Dhakon.v0.2.sol\":2138:2162  checkPlayers[playerAddr] */\n      0xffffffffffffffffffffffffffffffffffffffff\n      and\n      0xffffffffffffffffffffffffffffffffffffffff\n      and\n      dup2\n      mstore\n      0x20\n      add\n      swap1\n      dup2\n      mstore\n      0x20\n      add\n      0x00\n      keccak256\n      0x00\n      swap1\n      sload\n      swap1\n      0x0100\n      exp\n      swap1\n      div\n      0xff\n      and\n        /* \"truffle/contracts/Dhakon.v0.2.sol\":2138:2170  checkPlayers[playerAddr] != true */\n      iszero\n      iszero\n      eq\n        /* \"truffle/contracts/Dhakon.v0.2.sol\":2134:2301  if (checkPlayers[playerAddr] != true) {  // player's address not yet exist... */\n      tag_131\n      jumpi\n        /* \"truffle/contracts/Dhakon.v0.2.sol\":2248:2252  true */\n      0x01\n        /* \"truffle/contracts/Dhakon.v0.2.sol\":2221:2233  checkPlayers */\n      0x03\n        /* \"truffle/contracts/Dhakon.v0.2.sol\":2221:2245  checkPlayers[playerAddr] */\n      0x00\n        /* \"truffle/contracts/Dhakon.v0.2.sol\":2234:2244  playerAddr */\n      dup4\n        /* \"truffle/contracts/Dhakon.v0.2.sol\":2221:2245  checkPlayers[playerAddr] */\n      0xffffffffffffffffffffffffffffffffffffffff\n      and\n      0xffffffffffffffffffffffffffffffffffffffff\n      and\n      dup2\n      mstore\n      0x20\n      add\n      swap1\n      dup2\n      mstore\n      0x20\n      add\n      0x00\n      keccak256\n      0x00\n        /* \"truffle/contracts/Dhakon.v0.2.sol\":2221:2252  checkPlayers[playerAddr] = true */\n      0x0100\n      exp\n      dup2\n      sload\n      dup2\n      0xff\n      mul\n      not\n      and\n      swap1\n      dup4\n      iszero\n      iszero\n      mul\n      or\n      swap1\n      sstore\n      pop\n        /* \"truffle/contracts/Dhakon.v0.2.sol\":2266:2273  players */\n      0x02\n        /* \"truffle/contracts/Dhakon.v0.2.sol\":2279:2289  playerAddr */\n      dup2\n        /* \"truffle/contracts/Dhakon.v0.2.sol\":2266:2290  players.push(playerAddr) */\n      swap1\n      dup1\n      0x01\n      dup2\n      sload\n      add\n      dup1\n      dup3\n      sstore\n      dup1\n      swap2\n      pop\n      pop\n      0x01\n      swap1\n      sub\n      swap1\n      0x00\n      mstore\n      keccak256(0x00, 0x20)\n      add\n      0x00\n      swap1\n      swap2\n      swap1\n      swap2\n      swap1\n      swap2\n      0x0100\n      exp\n      dup2\n      sload\n      dup2\n      0xffffffffffffffffffffffffffffffffffffffff\n      mul\n      not\n      and\n      swap1\n      dup4\n      0xffffffffffffffffffffffffffffffffffffffff\n      and\n      mul\n      or\n      swap1\n      sstore\n      pop\n        /* \"truffle/contracts/Dhakon.v0.2.sol\":2134:2301  if (checkPlayers[playerAddr] != true) {  // player's address not yet exist... */\n    tag_131:\n        /* \"truffle/contracts/Dhakon.v0.2.sol\":2075:2307  function addPlayers(address playerAddr) internal {... */\n      pop\n      jump\t// out\n        /* \"@chainlink/contracts/src/v0.8/VRFConsumerBase.sol\":7732:8752  function requestRandomness(bytes32 _keyHash, uint256 _fee) internal returns (bytes32 requestId) {... */\n    tag_121:\n        /* \"@chainlink/contracts/src/v0.8/VRFConsumerBase.sol\":7809:7826  bytes32 requestId */\n      0x00\n        /* \"@chainlink/contracts/src/v0.8/VRFConsumerBase.sol\":7834:7838  LINK */\n      immutable(\"0xb2219b801710730437d0358146c829b62297a059eceaa0b40b27aea2daecf595\")\n        /* \"@chainlink/contracts/src/v0.8/VRFConsumerBase.sol\":7834:7854  LINK.transferAndCall */\n      0xffffffffffffffffffffffffffffffffffffffff\n      and\n      0x4000aea0\n        /* \"@chainlink/contracts/src/v0.8/VRFConsumerBase.sol\":7855:7869  vrfCoordinator */\n      immutable(\"0x6dbb33232cde86c8a04f90a8bed9fc1c5ef520188a14538d96eb100d69bc2a94\")\n        /* \"@chainlink/contracts/src/v0.8/VRFConsumerBase.sol\":7871:7875  _fee */\n      dup5\n        /* \"@chainlink/contracts/src/v0.8/VRFConsumerBase.sol\":7888:7896  _keyHash */\n      dup7\n        /* \"@chainlink/contracts/src/v0.8/VRFConsumerBase.sol\":6589:6590  0 */\n      0x00\n        /* \"@chainlink/contracts/src/v0.8/VRFConsumerBase.sol\":7877:7920  abi.encode(_keyHash, USER_SEED_PLACEHOLDER) */\n      add(0x20, mload(0x40))\n      tag_134\n      swap3\n      swap2\n      swap1\n      tag_135\n      jump\t// in\n    tag_134:\n      mload(0x40)\n      0x20\n      dup2\n      dup4\n      sub\n      sub\n      dup2\n      mstore\n      swap1\n      0x40\n      mstore\n        /* \"@chainlink/contracts/src/v0.8/VRFConsumerBase.sol\":7834:7921  LINK.transferAndCall(vrfCoordinator, _fee, abi.encode(_keyHash, USER_SEED_PLACEHOLDER)) */\n      mload(0x40)\n      dup5\n      0xffffffff\n      and\n      0xe0\n      shl\n      dup2\n      mstore\n      0x04\n      add\n      tag_136\n      swap4\n      swap3\n      swap2\n      swap1\n      tag_137\n      jump\t// in\n    tag_136:\n      0x20\n      mload(0x40)\n      dup1\n      dup4\n      sub\n      dup2\n      0x00\n      dup8\n      gas\n      call\n      iszero\n      dup1\n      iszero\n      tag_139\n      jumpi\n      returndatasize\n      0x00\n      dup1\n      returndatacopy\n      revert(0x00, returndatasize)\n    tag_139:\n      pop\n      pop\n      pop\n      pop\n      mload(0x40)\n      returndatasize\n      not(0x1f)\n      0x1f\n      dup3\n      add\n      and\n      dup3\n      add\n      dup1\n      0x40\n      mstore\n      pop\n      dup2\n      add\n      swap1\n      tag_140\n      swap2\n      swap1\n      tag_141\n      jump\t// in\n    tag_140:\n      pop\n        /* \"@chainlink/contracts/src/v0.8/VRFConsumerBase.sol\":8152:8167  uint256 vRFSeed */\n      0x00\n        /* \"@chainlink/contracts/src/v0.8/VRFConsumerBase.sol\":8170:8252  makeVRFInputSeed(_keyHash, USER_SEED_PLACEHOLDER, address(this), nonces[_keyHash]) */\n      tag_142\n        /* \"@chainlink/contracts/src/v0.8/VRFConsumerBase.sol\":8187:8195  _keyHash */\n      dup5\n        /* \"@chainlink/contracts/src/v0.8/VRFConsumerBase.sol\":6589:6590  0 */\n      0x00\n        /* \"@chainlink/contracts/src/v0.8/VRFConsumerBase.sol\":8228:8232  this */\n      address\n        /* \"@chainlink/contracts/src/v0.8/VRFConsumerBase.sol\":8235:8241  nonces */\n      0x00\n        /* \"@chainlink/contracts/src/v0.8/VRFConsumerBase.sol\":8235:8251  nonces[_keyHash] */\n      dup1\n        /* \"@chainlink/contracts/src/v0.8/VRFConsumerBase.sol\":8242:8250  _keyHash */\n      dup10\n        /* \"@chainlink/contracts/src/v0.8/VRFConsumerBase.sol\":8235:8251  nonces[_keyHash] */\n      dup2\n      mstore\n      0x20\n      add\n      swap1\n      dup2\n      mstore\n      0x20\n      add\n      0x00\n      keccak256\n      sload\n        /* \"@chainlink/contracts/src/v0.8/VRFConsumerBase.sol\":8170:8186  makeVRFInputSeed */\n      tag_143\n        /* \"@chainlink/contracts/src/v0.8/VRFConsumerBase.sol\":8170:8252  makeVRFInputSeed(_keyHash, USER_SEED_PLACEHOLDER, address(this), nonces[_keyHash]) */\n      jump\t// in\n    tag_142:\n        /* \"@chainlink/contracts/src/v0.8/VRFConsumerBase.sol\":8152:8252  uint256 vRFSeed = makeVRFInputSeed(_keyHash, USER_SEED_PLACEHOLDER, address(this), nonces[_keyHash]) */\n      swap1\n      pop\n        /* \"@chainlink/contracts/src/v0.8/VRFConsumerBase.sol\":8701:8702  1 */\n      0x01\n        /* \"@chainlink/contracts/src/v0.8/VRFConsumerBase.sol\":8682:8688  nonces */\n      0x00\n        /* \"@chainlink/contracts/src/v0.8/VRFConsumerBase.sol\":8682:8698  nonces[_keyHash] */\n      dup1\n        /* \"@chainlink/contracts/src/v0.8/VRFConsumerBase.sol\":8689:8697  _keyHash */\n      dup7\n        /* \"@chainlink/contracts/src/v0.8/VRFConsumerBase.sol\":8682:8698  nonces[_keyHash] */\n      dup2\n      mstore\n      0x20\n      add\n      swap1\n      dup2\n      mstore\n      0x20\n      add\n      0x00\n      keccak256\n      sload\n        /* \"@chainlink/contracts/src/v0.8/VRFConsumerBase.sol\":8682:8702  nonces[_keyHash] + 1 */\n      tag_144\n      swap2\n      swap1\n      tag_145\n      jump\t// in\n    tag_144:\n        /* \"@chainlink/contracts/src/v0.8/VRFConsumerBase.sol\":8663:8669  nonces */\n      0x00\n        /* \"@chainlink/contracts/src/v0.8/VRFConsumerBase.sol\":8663:8679  nonces[_keyHash] */\n      dup1\n        /* \"@chainlink/contracts/src/v0.8/VRFConsumerBase.sol\":8670:8678  _keyHash */\n      dup7\n        /* \"@chainlink/contracts/src/v0.8/VRFConsumerBase.sol\":8663:8679  nonces[_keyHash] */\n      dup2\n      mstore\n      0x20\n      add\n      swap1\n      dup2\n      mstore\n      0x20\n      add\n      0x00\n      keccak256\n        /* \"@chainlink/contracts/src/v0.8/VRFConsumerBase.sol\":8663:8702  nonces[_keyHash] = nonces[_keyHash] + 1 */\n      dup2\n      swap1\n      sstore\n      pop\n        /* \"@chainlink/contracts/src/v0.8/VRFConsumerBase.sol\":8715:8747  makeRequestId(_keyHash, vRFSeed) */\n      tag_146\n        /* \"@chainlink/contracts/src/v0.8/VRFConsumerBase.sol\":8729:8737  _keyHash */\n      dup5\n        /* \"@chainlink/contracts/src/v0.8/VRFConsumerBase.sol\":8739:8746  vRFSeed */\n      dup3\n        /* \"@chainlink/contracts/src/v0.8/VRFConsumerBase.sol\":8715:8728  makeRequestId */\n      tag_147\n        /* \"@chainlink/contracts/src/v0.8/VRFConsumerBase.sol\":8715:8747  makeRequestId(_keyHash, vRFSeed) */\n      jump\t// in\n    tag_146:\n        /* \"@chainlink/contracts/src/v0.8/VRFConsumerBase.sol\":8708:8747  return makeRequestId(_keyHash, vRFSeed) */\n      swap2\n      pop\n      pop\n        /* \"@chainlink/contracts/src/v0.8/VRFConsumerBase.sol\":7732:8752  function requestRandomness(bytes32 _keyHash, uint256 _fee) internal returns (bytes32 requestId) {... */\n      swap3\n      swap2\n      pop\n      pop\n      jump\t// out\n        /* \"truffle/contracts/Dhakon.v0.2.sol\":2784:3034  function payWinner(uint ticketIdx) internal {... */\n    tag_126:\n        /* \"truffle/contracts/Dhakon.v0.2.sol\":2838:2851  playerTickets */\n      0x05\n        /* \"truffle/contracts/Dhakon.v0.2.sol\":2838:2871  playerTickets[tickets[ticketIdx]] */\n      0x00\n        /* \"truffle/contracts/Dhakon.v0.2.sol\":2852:2859  tickets */\n      0x04\n        /* \"truffle/contracts/Dhakon.v0.2.sol\":2860:2869  ticketIdx */\n      dup4\n        /* \"truffle/contracts/Dhakon.v0.2.sol\":2852:2870  tickets[ticketIdx] */\n      dup2\n      sload\n      dup2\n      lt\n      tag_149\n      jumpi\n      tag_150\n      tag_89\n      jump\t// in\n    tag_150:\n    tag_149:\n      swap1\n      0x00\n      mstore\n      keccak256(0x00, 0x20)\n      add\n      sload\n        /* \"truffle/contracts/Dhakon.v0.2.sol\":2838:2871  playerTickets[tickets[ticketIdx]] */\n      dup2\n      mstore\n      0x20\n      add\n      swap1\n      dup2\n      mstore\n      0x20\n      add\n      0x00\n      keccak256\n      0x00\n      swap1\n      sload\n      swap1\n      0x0100\n      exp\n      swap1\n      div\n      0xffffffffffffffffffffffffffffffffffffffff\n      and\n        /* \"truffle/contracts/Dhakon.v0.2.sol\":2838:2880  playerTickets[tickets[ticketIdx]].transfer */\n      0xffffffffffffffffffffffffffffffffffffffff\n      and\n        /* \"truffle/contracts/Dhakon.v0.2.sol\":2838:2903  playerTickets[tickets[ticketIdx]].transfer(address(this).balance) */\n      0x08fc\n        /* \"truffle/contracts/Dhakon.v0.2.sol\":2881:2902  address(this).balance */\n      selfbalance\n        /* \"truffle/contracts/Dhakon.v0.2.sol\":2838:2903  playerTickets[tickets[ticketIdx]].transfer(address(this).balance) */\n      swap1\n      dup2\n      iszero\n      mul\n      swap1\n      mload(0x40)\n      0x00\n      mload(0x40)\n      dup1\n      dup4\n      sub\n      dup2\n      dup6\n      dup9\n      dup9\n      call\n      swap4\n      pop\n      pop\n      pop\n      pop\n      iszero\n      dup1\n      iszero\n      tag_153\n      jumpi\n      returndatasize\n      0x00\n      dup1\n      returndatacopy\n      revert(0x00, returndatasize)\n    tag_153:\n      pop\n        /* \"truffle/contracts/Dhakon.v0.2.sol\":2914:2928  winningTickets */\n      0x06\n        /* \"truffle/contracts/Dhakon.v0.2.sol\":2934:2941  tickets */\n      0x04\n        /* \"truffle/contracts/Dhakon.v0.2.sol\":2942:2951  ticketIdx */\n      dup3\n        /* \"truffle/contracts/Dhakon.v0.2.sol\":2934:2952  tickets[ticketIdx] */\n      dup2\n      sload\n      dup2\n      lt\n      tag_154\n      jumpi\n      tag_155\n      tag_89\n      jump\t// in\n    tag_155:\n    tag_154:\n      swap1\n      0x00\n      mstore\n      keccak256(0x00, 0x20)\n      add\n      sload\n        /* \"truffle/contracts/Dhakon.v0.2.sol\":2914:2953  winningTickets.push(tickets[ticketIdx]) */\n      swap1\n      dup1\n      0x01\n      dup2\n      sload\n      add\n      dup1\n      dup3\n      sstore\n      dup1\n      swap2\n      pop\n      pop\n      0x01\n      swap1\n      sub\n      swap1\n      0x00\n      mstore\n      keccak256(0x00, 0x20)\n      add\n      0x00\n      swap1\n      swap2\n      swap1\n      swap2\n      swap1\n      swap2\n      pop\n      sstore\n        /* \"truffle/contracts/Dhakon.v0.2.sol\":3015:3027  resetRound() */\n      tag_158\n        /* \"truffle/contracts/Dhakon.v0.2.sol\":3015:3025  resetRound */\n      tag_159\n        /* \"truffle/contracts/Dhakon.v0.2.sol\":3015:3027  resetRound() */\n      jump\t// in\n    tag_158:\n        /* \"truffle/contracts/Dhakon.v0.2.sol\":2784:3034  function payWinner(uint ticketIdx) internal {... */\n      pop\n      jump\t// out\n        /* \"@chainlink/contracts/src/v0.8/VRFRequestIDBase.sol\":796:1036  function makeVRFInputSeed(... */\n    tag_143:\n        /* \"@chainlink/contracts/src/v0.8/VRFRequestIDBase.sol\":938:945  uint256 */\n      0x00\n        /* \"@chainlink/contracts/src/v0.8/VRFRequestIDBase.sol\":989:997  _keyHash */\n      dup5\n        /* \"@chainlink/contracts/src/v0.8/VRFRequestIDBase.sol\":999:1008  _userSeed */\n      dup5\n        /* \"@chainlink/contracts/src/v0.8/VRFRequestIDBase.sol\":1010:1020  _requester */\n      dup5\n        /* \"@chainlink/contracts/src/v0.8/VRFRequestIDBase.sol\":1022:1028  _nonce */\n      dup5\n        /* \"@chainlink/contracts/src/v0.8/VRFRequestIDBase.sol\":978:1029  abi.encode(_keyHash, _userSeed, _requester, _nonce) */\n      add(0x20, mload(0x40))\n      tag_161\n      swap5\n      swap4\n      swap3\n      swap2\n      swap1\n      tag_162\n      jump\t// in\n    tag_161:\n      mload(0x40)\n      0x20\n      dup2\n      dup4\n      sub\n      sub\n      dup2\n      mstore\n      swap1\n      0x40\n      mstore\n        /* \"@chainlink/contracts/src/v0.8/VRFRequestIDBase.sol\":968:1030  keccak256(abi.encode(_keyHash, _userSeed, _requester, _nonce)) */\n      dup1\n      mload\n      swap1\n      0x20\n      add\n      keccak256\n        /* \"@chainlink/contracts/src/v0.8/VRFRequestIDBase.sol\":960:1031  uint256(keccak256(abi.encode(_keyHash, _userSeed, _requester, _nonce))) */\n      0x00\n      shr\n        /* \"@chainlink/contracts/src/v0.8/VRFRequestIDBase.sol\":953:1031  return uint256(keccak256(abi.encode(_keyHash, _userSeed, _requester, _nonce))) */\n      swap1\n      pop\n        /* \"@chainlink/contracts/src/v0.8/VRFRequestIDBase.sol\":796:1036  function makeVRFInputSeed(... */\n      swap5\n      swap4\n      pop\n      pop\n      pop\n      pop\n      jump\t// out\n        /* \"@chainlink/contracts/src/v0.8/VRFRequestIDBase.sol\":1416:1582  function makeRequestId(bytes32 _keyHash, uint256 _vRFInputSeed) internal pure returns (bytes32) {... */\n    tag_147:\n        /* \"@chainlink/contracts/src/v0.8/VRFRequestIDBase.sol\":1503:1510  bytes32 */\n      0x00\n        /* \"@chainlink/contracts/src/v0.8/VRFRequestIDBase.sol\":1552:1560  _keyHash */\n      dup3\n        /* \"@chainlink/contracts/src/v0.8/VRFRequestIDBase.sol\":1562:1575  _vRFInputSeed */\n      dup3\n        /* \"@chainlink/contracts/src/v0.8/VRFRequestIDBase.sol\":1535:1576  abi.encodePacked(_keyHash, _vRFInputSeed) */\n      add(0x20, mload(0x40))\n      tag_164\n      swap3\n      swap2\n      swap1\n      tag_165\n      jump\t// in\n    tag_164:\n      mload(0x40)\n      0x20\n      dup2\n      dup4\n      sub\n      sub\n      dup2\n      mstore\n      swap1\n      0x40\n      mstore\n        /* \"@chainlink/contracts/src/v0.8/VRFRequestIDBase.sol\":1525:1577  keccak256(abi.encodePacked(_keyHash, _vRFInputSeed)) */\n      dup1\n      mload\n      swap1\n      0x20\n      add\n      keccak256\n        /* \"@chainlink/contracts/src/v0.8/VRFRequestIDBase.sol\":1518:1577  return keccak256(abi.encodePacked(_keyHash, _vRFInputSeed)) */\n      swap1\n      pop\n        /* \"@chainlink/contracts/src/v0.8/VRFRequestIDBase.sol\":1416:1582  function makeRequestId(bytes32 _keyHash, uint256 _vRFInputSeed) internal pure returns (bytes32) {... */\n      swap3\n      swap2\n      pop\n      pop\n      jump\t// out\n        /* \"truffle/contracts/Dhakon.v0.2.sol\":3040:3458  function resetRound() internal {        ... */\n    tag_159:\n        /* \"truffle/contracts/Dhakon.v0.2.sol\":3093:3099  uint i */\n      0x00\n        /* \"truffle/contracts/Dhakon.v0.2.sol\":3089:3226  for(uint i=0;i<players.length;i++) {... */\n    tag_167:\n        /* \"truffle/contracts/Dhakon.v0.2.sol\":3104:3111  players */\n      0x02\n        /* \"truffle/contracts/Dhakon.v0.2.sol\":3104:3118  players.length */\n      dup1\n      sload\n      swap1\n      pop\n        /* \"truffle/contracts/Dhakon.v0.2.sol\":3102:3103  i */\n      dup2\n        /* \"truffle/contracts/Dhakon.v0.2.sol\":3102:3118  i<players.length */\n      lt\n        /* \"truffle/contracts/Dhakon.v0.2.sol\":3089:3226  for(uint i=0;i<players.length;i++) {... */\n      iszero\n      tag_168\n      jumpi\n        /* \"truffle/contracts/Dhakon.v0.2.sol\":3145:3157  checkPlayers */\n      0x03\n        /* \"truffle/contracts/Dhakon.v0.2.sol\":3145:3169  checkPlayers[players[i]] */\n      0x00\n        /* \"truffle/contracts/Dhakon.v0.2.sol\":3158:3165  players */\n      0x02\n        /* \"truffle/contracts/Dhakon.v0.2.sol\":3166:3167  i */\n      dup4\n        /* \"truffle/contracts/Dhakon.v0.2.sol\":3158:3168  players[i] */\n      dup2\n      sload\n      dup2\n      lt\n      tag_170\n      jumpi\n      tag_171\n      tag_89\n      jump\t// in\n    tag_171:\n    tag_170:\n      swap1\n      0x00\n      mstore\n      keccak256(0x00, 0x20)\n      add\n      0x00\n      swap1\n      sload\n      swap1\n      0x0100\n      exp\n      swap1\n      div\n      0xffffffffffffffffffffffffffffffffffffffff\n      and\n        /* \"truffle/contracts/Dhakon.v0.2.sol\":3145:3169  checkPlayers[players[i]] */\n      0xffffffffffffffffffffffffffffffffffffffff\n      and\n      0xffffffffffffffffffffffffffffffffffffffff\n      and\n      dup2\n      mstore\n      0x20\n      add\n      swap1\n      dup2\n      mstore\n      0x20\n      add\n      0x00\n      keccak256\n      0x00\n        /* \"truffle/contracts/Dhakon.v0.2.sol\":3138:3169  delete checkPlayers[players[i]] */\n      0x0100\n      exp\n      dup2\n      sload\n      swap1\n      0xff\n      mul\n      not\n      and\n      swap1\n      sstore\n        /* \"truffle/contracts/Dhakon.v0.2.sol\":3119:3122  i++ */\n      dup1\n      dup1\n      tag_173\n      swap1\n      tag_174\n      jump\t// in\n    tag_173:\n      swap2\n      pop\n      pop\n        /* \"truffle/contracts/Dhakon.v0.2.sol\":3089:3226  for(uint i=0;i<players.length;i++) {... */\n      jump(tag_167)\n    tag_168:\n      pop\n        /* \"truffle/contracts/Dhakon.v0.2.sol\":3267:3268  0 */\n      0x00\n        /* \"truffle/contracts/Dhakon.v0.2.sol\":3245:3269  new address payable[](0) */\n      0xffffffffffffffff\n      dup2\n      gt\n      iszero\n      tag_175\n      jumpi\n      tag_176\n      tag_177\n      jump\t// in\n    tag_176:\n    tag_175:\n      mload(0x40)\n      swap1\n      dup1\n      dup3\n      mstore\n      dup1\n      0x20\n      mul\n      0x20\n      add\n      dup3\n      add\n      0x40\n      mstore\n      dup1\n      iszero\n      tag_178\n      jumpi\n      dup2\n      0x20\n      add\n      0x20\n      dup3\n      mul\n      dup1\n      calldatasize\n      dup4\n      calldatacopy\n      dup1\n      dup3\n      add\n      swap2\n      pop\n      pop\n      swap1\n      pop\n    tag_178:\n      pop\n        /* \"truffle/contracts/Dhakon.v0.2.sol\":3235:3242  players */\n      0x02\n        /* \"truffle/contracts/Dhakon.v0.2.sol\":3235:3269  players = new address payable[](0) */\n      swap1\n      dup1\n      mload\n      swap1\n      0x20\n      add\n      swap1\n      tag_179\n      swap3\n      swap2\n      swap1\n      tag_180\n      jump\t// in\n    tag_179:\n      pop\n        /* \"truffle/contracts/Dhakon.v0.2.sol\":3284:3290  uint i */\n      0x00\n        /* \"truffle/contracts/Dhakon.v0.2.sol\":3280:3419  for(uint i=0;i<tickets.length;i++) {  // TODO: workaround as this requires more gas... */\n    tag_181:\n        /* \"truffle/contracts/Dhakon.v0.2.sol\":3295:3302  tickets */\n      0x04\n        /* \"truffle/contracts/Dhakon.v0.2.sol\":3295:3309  tickets.length */\n      dup1\n      sload\n      swap1\n      pop\n        /* \"truffle/contracts/Dhakon.v0.2.sol\":3293:3294  i */\n      dup2\n        /* \"truffle/contracts/Dhakon.v0.2.sol\":3293:3309  i<tickets.length */\n      lt\n        /* \"truffle/contracts/Dhakon.v0.2.sol\":3280:3419  for(uint i=0;i<tickets.length;i++) {  // TODO: workaround as this requires more gas... */\n      iszero\n      tag_182\n      jumpi\n        /* \"truffle/contracts/Dhakon.v0.2.sol\":3383:3396  playerTickets */\n      0x05\n        /* \"truffle/contracts/Dhakon.v0.2.sol\":3383:3408  playerTickets[tickets[i]] */\n      0x00\n        /* \"truffle/contracts/Dhakon.v0.2.sol\":3397:3404  tickets */\n      0x04\n        /* \"truffle/contracts/Dhakon.v0.2.sol\":3405:3406  i */\n      dup4\n        /* \"truffle/contracts/Dhakon.v0.2.sol\":3397:3407  tickets[i] */\n      dup2\n      sload\n      dup2\n      lt\n      tag_184\n      jumpi\n      tag_185\n      tag_89\n      jump\t// in\n    tag_185:\n    tag_184:\n      swap1\n      0x00\n      mstore\n      keccak256(0x00, 0x20)\n      add\n      sload\n        /* \"truffle/contracts/Dhakon.v0.2.sol\":3383:3408  playerTickets[tickets[i]] */\n      dup2\n      mstore\n      0x20\n      add\n      swap1\n      dup2\n      mstore\n      0x20\n      add\n      0x00\n      keccak256\n      0x00\n        /* \"truffle/contracts/Dhakon.v0.2.sol\":3376:3408  delete playerTickets[tickets[i]] */\n      0x0100\n      exp\n      dup2\n      sload\n      swap1\n      0xffffffffffffffffffffffffffffffffffffffff\n      mul\n      not\n      and\n      swap1\n      sstore\n        /* \"truffle/contracts/Dhakon.v0.2.sol\":3310:3313  i++ */\n      dup1\n      dup1\n      tag_187\n      swap1\n      tag_174\n      jump\t// in\n    tag_187:\n      swap2\n      pop\n      pop\n        /* \"truffle/contracts/Dhakon.v0.2.sol\":3280:3419  for(uint i=0;i<tickets.length;i++) {  // TODO: workaround as this requires more gas... */\n      jump(tag_181)\n    tag_182:\n      pop\n        /* \"truffle/contracts/Dhakon.v0.2.sol\":3449:3450  0 */\n      0x00\n        /* \"truffle/contracts/Dhakon.v0.2.sol\":3438:3451  new uint[](0) */\n      0xffffffffffffffff\n      dup2\n      gt\n      iszero\n      tag_188\n      jumpi\n      tag_189\n      tag_177\n      jump\t// in\n    tag_189:\n    tag_188:\n      mload(0x40)\n      swap1\n      dup1\n      dup3\n      mstore\n      dup1\n      0x20\n      mul\n      0x20\n      add\n      dup3\n      add\n      0x40\n      mstore\n      dup1\n      iszero\n      tag_190\n      jumpi\n      dup2\n      0x20\n      add\n      0x20\n      dup3\n      mul\n      dup1\n      calldatasize\n      dup4\n      calldatacopy\n      dup1\n      dup3\n      add\n      swap2\n      pop\n      pop\n      swap1\n      pop\n    tag_190:\n      pop\n        /* \"truffle/contracts/Dhakon.v0.2.sol\":3428:3435  tickets */\n      0x04\n        /* \"truffle/contracts/Dhakon.v0.2.sol\":3428:3451  tickets = new uint[](0) */\n      swap1\n      dup1\n      mload\n      swap1\n      0x20\n      add\n      swap1\n      tag_191\n      swap3\n      swap2\n      swap1\n      tag_192\n      jump\t// in\n    tag_191:\n      pop\n        /* \"truffle/contracts/Dhakon.v0.2.sol\":3040:3458  function resetRound() internal {        ... */\n      jump\t// out\n    tag_180:\n      dup3\n      dup1\n      sload\n      dup3\n      dup3\n      sstore\n      swap1\n      0x00\n      mstore\n      keccak256(0x00, 0x20)\n      swap1\n      dup2\n      add\n      swap3\n      dup3\n      iszero\n      tag_193\n      jumpi\n      swap2\n      0x20\n      mul\n      dup3\n      add\n    tag_194:\n      dup3\n      dup2\n      gt\n      iszero\n      tag_195\n      jumpi\n      dup3\n      mload\n      dup3\n      exp(0x0100, 0x00)\n      dup2\n      sload\n      dup2\n      0xffffffffffffffffffffffffffffffffffffffff\n      mul\n      not\n      and\n      swap1\n      dup4\n      0xffffffffffffffffffffffffffffffffffffffff\n      and\n      mul\n      or\n      swap1\n      sstore\n      pop\n      swap2\n      0x20\n      add\n      swap2\n      swap1\n      0x01\n      add\n      swap1\n      jump(tag_194)\n    tag_195:\n    tag_193:\n      pop\n      swap1\n      pop\n      tag_196\n      swap2\n      swap1\n      tag_197\n      jump\t// in\n    tag_196:\n      pop\n      swap1\n      jump\t// out\n    tag_192:\n      dup3\n      dup1\n      sload\n      dup3\n      dup3\n      sstore\n      swap1\n      0x00\n      mstore\n      keccak256(0x00, 0x20)\n      swap1\n      dup2\n      add\n      swap3\n      dup3\n      iszero\n      tag_198\n      jumpi\n      swap2\n      0x20\n      mul\n      dup3\n      add\n    tag_199:\n      dup3\n      dup2\n      gt\n      iszero\n      tag_200\n      jumpi\n      dup3\n      mload\n      dup3\n      sstore\n      swap2\n      0x20\n      add\n      swap2\n      swap1\n      0x01\n      add\n      swap1\n      jump(tag_199)\n    tag_200:\n    tag_198:\n      pop\n      swap1\n      pop\n      tag_201\n      swap2\n      swap1\n      tag_197\n      jump\t// in\n    tag_201:\n      pop\n      swap1\n      jump\t// out\n    tag_197:\n    tag_202:\n      dup1\n      dup3\n      gt\n      iszero\n      tag_203\n      jumpi\n      0x00\n      dup2\n      0x00\n      swap1\n      sstore\n      pop\n      0x01\n      add\n      jump(tag_202)\n    tag_203:\n      pop\n      swap1\n      jump\t// out\n        /* \"#utility.yul\":7:84   */\n    tag_204:\n        /* \"#utility.yul\":44:51   */\n      0x00\n        /* \"#utility.yul\":73:78   */\n      dup2\n        /* \"#utility.yul\":62:78   */\n      swap1\n      pop\n        /* \"#utility.yul\":7:84   */\n      swap2\n      swap1\n      pop\n      jump\t// out\n        /* \"#utility.yul\":90:208   */\n    tag_205:\n        /* \"#utility.yul\":177:201   */\n      tag_257\n        /* \"#utility.yul\":195:200   */\n      dup2\n        /* \"#utility.yul\":177:201   */\n      tag_204\n      jump\t// in\n    tag_257:\n        /* \"#utility.yul\":172:175   */\n      dup3\n        /* \"#utility.yul\":165:202   */\n      mstore\n        /* \"#utility.yul\":90:208   */\n      pop\n      pop\n      jump\t// out\n        /* \"#utility.yul\":214:436   */\n    tag_19:\n        /* \"#utility.yul\":307:311   */\n      0x00\n        /* \"#utility.yul\":345:347   */\n      0x20\n        /* \"#utility.yul\":334:343   */\n      dup3\n        /* \"#utility.yul\":330:348   */\n      add\n        /* \"#utility.yul\":322:348   */\n      swap1\n      pop\n        /* \"#utility.yul\":358:429   */\n      tag_259\n        /* \"#utility.yul\":426:427   */\n      0x00\n        /* \"#utility.yul\":415:424   */\n      dup4\n        /* \"#utility.yul\":411:428   */\n      add\n        /* \"#utility.yul\":402:408   */\n      dup5\n        /* \"#utility.yul\":358:429   */\n      tag_205\n      jump\t// in\n    tag_259:\n        /* \"#utility.yul\":214:436   */\n      swap3\n      swap2\n      pop\n      pop\n      jump\t// out\n        /* \"#utility.yul\":523:640   */\n    tag_207:\n        /* \"#utility.yul\":632:633   */\n      0x00\n        /* \"#utility.yul\":629:630   */\n      dup1\n        /* \"#utility.yul\":622:634   */\n      revert\n        /* \"#utility.yul\":769:891   */\n    tag_209:\n        /* \"#utility.yul\":842:866   */\n      tag_264\n        /* \"#utility.yul\":860:865   */\n      dup2\n        /* \"#utility.yul\":842:866   */\n      tag_204\n      jump\t// in\n    tag_264:\n        /* \"#utility.yul\":835:840   */\n      dup2\n        /* \"#utility.yul\":832:867   */\n      eq\n        /* \"#utility.yul\":822:885   */\n      tag_265\n      jumpi\n        /* \"#utility.yul\":881:882   */\n      0x00\n        /* \"#utility.yul\":878:879   */\n      dup1\n        /* \"#utility.yul\":871:883   */\n      revert\n        /* \"#utility.yul\":822:885   */\n    tag_265:\n        /* \"#utility.yul\":769:891   */\n      pop\n      jump\t// out\n        /* \"#utility.yul\":897:1036   */\n    tag_210:\n        /* \"#utility.yul\":943:948   */\n      0x00\n        /* \"#utility.yul\":981:987   */\n      dup2\n        /* \"#utility.yul\":968:988   */\n      calldataload\n        /* \"#utility.yul\":959:988   */\n      swap1\n      pop\n        /* \"#utility.yul\":997:1030   */\n      tag_267\n        /* \"#utility.yul\":1024:1029   */\n      dup2\n        /* \"#utility.yul\":997:1030   */\n      tag_209\n      jump\t// in\n    tag_267:\n        /* \"#utility.yul\":897:1036   */\n      swap3\n      swap2\n      pop\n      pop\n      jump\t// out\n        /* \"#utility.yul\":1042:1371   */\n    tag_23:\n        /* \"#utility.yul\":1101:1107   */\n      0x00\n        /* \"#utility.yul\":1150:1152   */\n      0x20\n        /* \"#utility.yul\":1138:1147   */\n      dup3\n        /* \"#utility.yul\":1129:1136   */\n      dup5\n        /* \"#utility.yul\":1125:1148   */\n      sub\n        /* \"#utility.yul\":1121:1153   */\n      slt\n        /* \"#utility.yul\":1118:1237   */\n      iszero\n      tag_269\n      jumpi\n        /* \"#utility.yul\":1156:1235   */\n      tag_270\n      tag_207\n      jump\t// in\n    tag_270:\n        /* \"#utility.yul\":1118:1237   */\n    tag_269:\n        /* \"#utility.yul\":1276:1277   */\n      0x00\n        /* \"#utility.yul\":1301:1354   */\n      tag_271\n        /* \"#utility.yul\":1346:1353   */\n      dup5\n        /* \"#utility.yul\":1337:1343   */\n      dup3\n        /* \"#utility.yul\":1326:1335   */\n      dup6\n        /* \"#utility.yul\":1322:1344   */\n      add\n        /* \"#utility.yul\":1301:1354   */\n      tag_210\n      jump\t// in\n    tag_271:\n        /* \"#utility.yul\":1291:1354   */\n      swap2\n      pop\n        /* \"#utility.yul\":1247:1364   */\n      pop\n        /* \"#utility.yul\":1042:1371   */\n      swap3\n      swap2\n      pop\n      pop\n      jump\t// out\n        /* \"#utility.yul\":1377:1491   */\n    tag_211:\n        /* \"#utility.yul\":1444:1450   */\n      0x00\n        /* \"#utility.yul\":1478:1483   */\n      dup2\n        /* \"#utility.yul\":1472:1484   */\n      mload\n        /* \"#utility.yul\":1462:1484   */\n      swap1\n      pop\n        /* \"#utility.yul\":1377:1491   */\n      swap2\n      swap1\n      pop\n      jump\t// out\n        /* \"#utility.yul\":1497:1681   */\n    tag_212:\n        /* \"#utility.yul\":1596:1607   */\n      0x00\n        /* \"#utility.yul\":1630:1636   */\n      dup3\n        /* \"#utility.yul\":1625:1628   */\n      dup3\n        /* \"#utility.yul\":1618:1637   */\n      mstore\n        /* \"#utility.yul\":1670:1674   */\n      0x20\n        /* \"#utility.yul\":1665:1668   */\n      dup3\n        /* \"#utility.yul\":1661:1675   */\n      add\n        /* \"#utility.yul\":1646:1675   */\n      swap1\n      pop\n        /* \"#utility.yul\":1497:1681   */\n      swap3\n      swap2\n      pop\n      pop\n      jump\t// out\n        /* \"#utility.yul\":1687:1819   */\n    tag_213:\n        /* \"#utility.yul\":1754:1758   */\n      0x00\n        /* \"#utility.yul\":1777:1780   */\n      dup2\n        /* \"#utility.yul\":1769:1780   */\n      swap1\n      pop\n        /* \"#utility.yul\":1807:1811   */\n      0x20\n        /* \"#utility.yul\":1802:1805   */\n      dup3\n        /* \"#utility.yul\":1798:1812   */\n      add\n        /* \"#utility.yul\":1790:1812   */\n      swap1\n      pop\n        /* \"#utility.yul\":1687:1819   */\n      swap2\n      swap1\n      pop\n      jump\t// out\n        /* \"#utility.yul\":1825:1951   */\n    tag_214:\n        /* \"#utility.yul\":1862:1869   */\n      0x00\n        /* \"#utility.yul\":1902:1944   */\n      0xffffffffffffffffffffffffffffffffffffffff\n        /* \"#utility.yul\":1895:1900   */\n      dup3\n        /* \"#utility.yul\":1891:1945   */\n      and\n        /* \"#utility.yul\":1880:1945   */\n      swap1\n      pop\n        /* \"#utility.yul\":1825:1951   */\n      swap2\n      swap1\n      pop\n      jump\t// out\n        /* \"#utility.yul\":1957:2053   */\n    tag_215:\n        /* \"#utility.yul\":1994:2001   */\n      0x00\n        /* \"#utility.yul\":2023:2047   */\n      tag_277\n        /* \"#utility.yul\":2041:2046   */\n      dup3\n        /* \"#utility.yul\":2023:2047   */\n      tag_214\n      jump\t// in\n    tag_277:\n        /* \"#utility.yul\":2012:2047   */\n      swap1\n      pop\n        /* \"#utility.yul\":1957:2053   */\n      swap2\n      swap1\n      pop\n      jump\t// out\n        /* \"#utility.yul\":2059:2167   */\n    tag_216:\n        /* \"#utility.yul\":2136:2160   */\n      tag_279\n        /* \"#utility.yul\":2154:2159   */\n      dup2\n        /* \"#utility.yul\":2136:2160   */\n      tag_215\n      jump\t// in\n    tag_279:\n        /* \"#utility.yul\":2131:2134   */\n      dup3\n        /* \"#utility.yul\":2124:2161   */\n      mstore\n        /* \"#utility.yul\":2059:2167   */\n      pop\n      pop\n      jump\t// out\n        /* \"#utility.yul\":2173:2352   */\n    tag_217:\n        /* \"#utility.yul\":2242:2252   */\n      0x00\n        /* \"#utility.yul\":2263:2309   */\n      tag_281\n        /* \"#utility.yul\":2305:2308   */\n      dup4\n        /* \"#utility.yul\":2297:2303   */\n      dup4\n        /* \"#utility.yul\":2263:2309   */\n      tag_216\n      jump\t// in\n    tag_281:\n        /* \"#utility.yul\":2341:2345   */\n      0x20\n        /* \"#utility.yul\":2336:2339   */\n      dup4\n        /* \"#utility.yul\":2332:2346   */\n      add\n        /* \"#utility.yul\":2318:2346   */\n      swap1\n      pop\n        /* \"#utility.yul\":2173:2352   */\n      swap3\n      swap2\n      pop\n      pop\n      jump\t// out\n        /* \"#utility.yul\":2358:2471   */\n    tag_218:\n        /* \"#utility.yul\":2428:2432   */\n      0x00\n        /* \"#utility.yul\":2460:2464   */\n      0x20\n        /* \"#utility.yul\":2455:2458   */\n      dup3\n        /* \"#utility.yul\":2451:2465   */\n      add\n        /* \"#utility.yul\":2443:2465   */\n      swap1\n      pop\n        /* \"#utility.yul\":2358:2471   */\n      swap2\n      swap1\n      pop\n      jump\t// out\n        /* \"#utility.yul\":2507:3239   */\n    tag_219:\n        /* \"#utility.yul\":2626:2629   */\n      0x00\n        /* \"#utility.yul\":2655:2709   */\n      tag_284\n        /* \"#utility.yul\":2703:2708   */\n      dup3\n        /* \"#utility.yul\":2655:2709   */\n      tag_211\n      jump\t// in\n    tag_284:\n        /* \"#utility.yul\":2725:2811   */\n      tag_285\n        /* \"#utility.yul\":2804:2810   */\n      dup2\n        /* \"#utility.yul\":2799:2802   */\n      dup6\n        /* \"#utility.yul\":2725:2811   */\n      tag_212\n      jump\t// in\n    tag_285:\n        /* \"#utility.yul\":2718:2811   */\n      swap4\n      pop\n        /* \"#utility.yul\":2835:2891   */\n      tag_286\n        /* \"#utility.yul\":2885:2890   */\n      dup4\n        /* \"#utility.yul\":2835:2891   */\n      tag_213\n      jump\t// in\n    tag_286:\n        /* \"#utility.yul\":2914:2921   */\n      dup1\n        /* \"#utility.yul\":2945:2946   */\n      0x00\n        /* \"#utility.yul\":2930:3214   */\n    tag_287:\n        /* \"#utility.yul\":2955:2961   */\n      dup4\n        /* \"#utility.yul\":2952:2953   */\n      dup2\n        /* \"#utility.yul\":2949:2962   */\n      lt\n        /* \"#utility.yul\":2930:3214   */\n      iszero\n      tag_289\n      jumpi\n        /* \"#utility.yul\":3031:3037   */\n      dup2\n        /* \"#utility.yul\":3025:3038   */\n      mload\n        /* \"#utility.yul\":3058:3121   */\n      tag_290\n        /* \"#utility.yul\":3117:3120   */\n      dup9\n        /* \"#utility.yul\":3102:3115   */\n      dup3\n        /* \"#utility.yul\":3058:3121   */\n      tag_217\n      jump\t// in\n    tag_290:\n        /* \"#utility.yul\":3051:3121   */\n      swap8\n      pop\n        /* \"#utility.yul\":3144:3204   */\n      tag_291\n        /* \"#utility.yul\":3197:3203   */\n      dup4\n        /* \"#utility.yul\":3144:3204   */\n      tag_218\n      jump\t// in\n    tag_291:\n        /* \"#utility.yul\":3134:3204   */\n      swap3\n      pop\n        /* \"#utility.yul\":2990:3214   */\n      pop\n        /* \"#utility.yul\":2977:2978   */\n      0x01\n        /* \"#utility.yul\":2974:2975   */\n      dup2\n        /* \"#utility.yul\":2970:2979   */\n      add\n        /* \"#utility.yul\":2965:2979   */\n      swap1\n      pop\n        /* \"#utility.yul\":2930:3214   */\n      jump(tag_287)\n    tag_289:\n        /* \"#utility.yul\":2934:2948   */\n      pop\n        /* \"#utility.yul\":3230:3233   */\n      dup6\n        /* \"#utility.yul\":3223:3233   */\n      swap4\n      pop\n        /* \"#utility.yul\":2631:3239   */\n      pop\n      pop\n      pop\n        /* \"#utility.yul\":2507:3239   */\n      swap3\n      swap2\n      pop\n      pop\n      jump\t// out\n        /* \"#utility.yul\":3245:3618   */\n    tag_38:\n        /* \"#utility.yul\":3388:3392   */\n      0x00\n        /* \"#utility.yul\":3426:3428   */\n      0x20\n        /* \"#utility.yul\":3415:3424   */\n      dup3\n        /* \"#utility.yul\":3411:3429   */\n      add\n        /* \"#utility.yul\":3403:3429   */\n      swap1\n      pop\n        /* \"#utility.yul\":3475:3484   */\n      dup2\n        /* \"#utility.yul\":3469:3473   */\n      dup2\n        /* \"#utility.yul\":3465:3485   */\n      sub\n        /* \"#utility.yul\":3461:3462   */\n      0x00\n        /* \"#utility.yul\":3450:3459   */\n      dup4\n        /* \"#utility.yul\":3446:3463   */\n      add\n        /* \"#utility.yul\":3439:3486   */\n      mstore\n        /* \"#utility.yul\":3503:3611   */\n      tag_293\n        /* \"#utility.yul\":3606:3610   */\n      dup2\n        /* \"#utility.yul\":3597:3603   */\n      dup5\n        /* \"#utility.yul\":3503:3611   */\n      tag_219\n      jump\t// in\n    tag_293:\n        /* \"#utility.yul\":3495:3611   */\n      swap1\n      pop\n        /* \"#utility.yul\":3245:3618   */\n      swap3\n      swap2\n      pop\n      pop\n      jump\t// out\n        /* \"#utility.yul\":3624:3742   */\n    tag_220:\n        /* \"#utility.yul\":3711:3735   */\n      tag_295\n        /* \"#utility.yul\":3729:3734   */\n      dup2\n        /* \"#utility.yul\":3711:3735   */\n      tag_215\n      jump\t// in\n    tag_295:\n        /* \"#utility.yul\":3706:3709   */\n      dup3\n        /* \"#utility.yul\":3699:3736   */\n      mstore\n        /* \"#utility.yul\":3624:3742   */\n      pop\n      pop\n      jump\t// out\n        /* \"#utility.yul\":3748:3970   */\n    tag_43:\n        /* \"#utility.yul\":3841:3845   */\n      0x00\n        /* \"#utility.yul\":3879:3881   */\n      0x20\n        /* \"#utility.yul\":3868:3877   */\n      dup3\n        /* \"#utility.yul\":3864:3882   */\n      add\n        /* \"#utility.yul\":3856:3882   */\n      swap1\n      pop\n        /* \"#utility.yul\":3892:3963   */\n      tag_297\n        /* \"#utility.yul\":3960:3961   */\n      0x00\n        /* \"#utility.yul\":3949:3958   */\n      dup4\n        /* \"#utility.yul\":3945:3962   */\n      add\n        /* \"#utility.yul\":3936:3942   */\n      dup5\n        /* \"#utility.yul\":3892:3963   */\n      tag_220\n      jump\t// in\n    tag_297:\n        /* \"#utility.yul\":3748:3970   */\n      swap3\n      swap2\n      pop\n      pop\n      jump\t// out\n        /* \"#utility.yul\":3976:4053   */\n    tag_221:\n        /* \"#utility.yul\":4013:4020   */\n      0x00\n        /* \"#utility.yul\":4042:4047   */\n      dup2\n        /* \"#utility.yul\":4031:4047   */\n      swap1\n      pop\n        /* \"#utility.yul\":3976:4053   */\n      swap2\n      swap1\n      pop\n      jump\t// out\n        /* \"#utility.yul\":4059:4181   */\n    tag_222:\n        /* \"#utility.yul\":4132:4156   */\n      tag_300\n        /* \"#utility.yul\":4150:4155   */\n      dup2\n        /* \"#utility.yul\":4132:4156   */\n      tag_221\n      jump\t// in\n    tag_300:\n        /* \"#utility.yul\":4125:4130   */\n      dup2\n        /* \"#utility.yul\":4122:4157   */\n      eq\n        /* \"#utility.yul\":4112:4175   */\n      tag_301\n      jumpi\n        /* \"#utility.yul\":4171:4172   */\n      0x00\n        /* \"#utility.yul\":4168:4169   */\n      dup1\n        /* \"#utility.yul\":4161:4173   */\n      revert\n        /* \"#utility.yul\":4112:4175   */\n    tag_301:\n        /* \"#utility.yul\":4059:4181   */\n      pop\n      jump\t// out\n        /* \"#utility.yul\":4187:4326   */\n    tag_223:\n        /* \"#utility.yul\":4233:4238   */\n      0x00\n        /* \"#utility.yul\":4271:4277   */\n      dup2\n        /* \"#utility.yul\":4258:4278   */\n      calldataload\n        /* \"#utility.yul\":4249:4278   */\n      swap1\n      pop\n        /* \"#utility.yul\":4287:4320   */\n      tag_303\n        /* \"#utility.yul\":4314:4319   */\n      dup2\n        /* \"#utility.yul\":4287:4320   */\n      tag_222\n      jump\t// in\n    tag_303:\n        /* \"#utility.yul\":4187:4326   */\n      swap3\n      swap2\n      pop\n      pop\n      jump\t// out\n        /* \"#utility.yul\":4332:4806   */\n    tag_47:\n        /* \"#utility.yul\":4400:4406   */\n      0x00\n        /* \"#utility.yul\":4408:4414   */\n      dup1\n        /* \"#utility.yul\":4457:4459   */\n      0x40\n        /* \"#utility.yul\":4445:4454   */\n      dup4\n        /* \"#utility.yul\":4436:4443   */\n      dup6\n        /* \"#utility.yul\":4432:4455   */\n      sub\n        /* \"#utility.yul\":4428:4460   */\n      slt\n        /* \"#utility.yul\":4425:4544   */\n      iszero\n      tag_305\n      jumpi\n        /* \"#utility.yul\":4463:4542   */\n      tag_306\n      tag_207\n      jump\t// in\n    tag_306:\n        /* \"#utility.yul\":4425:4544   */\n    tag_305:\n        /* \"#utility.yul\":4583:4584   */\n      0x00\n        /* \"#utility.yul\":4608:4661   */\n      tag_307\n        /* \"#utility.yul\":4653:4660   */\n      dup6\n        /* \"#utility.yul\":4644:4650   */\n      dup3\n        /* \"#utility.yul\":4633:4642   */\n      dup7\n        /* \"#utility.yul\":4629:4651   */\n      add\n        /* \"#utility.yul\":4608:4661   */\n      tag_223\n      jump\t// in\n    tag_307:\n        /* \"#utility.yul\":4598:4661   */\n      swap3\n      pop\n        /* \"#utility.yul\":4554:4671   */\n      pop\n        /* \"#utility.yul\":4710:4712   */\n      0x20\n        /* \"#utility.yul\":4736:4789   */\n      tag_308\n        /* \"#utility.yul\":4781:4788   */\n      dup6\n        /* \"#utility.yul\":4772:4778   */\n      dup3\n        /* \"#utility.yul\":4761:4770   */\n      dup7\n        /* \"#utility.yul\":4757:4779   */\n      add\n        /* \"#utility.yul\":4736:4789   */\n      tag_210\n      jump\t// in\n    tag_308:\n        /* \"#utility.yul\":4726:4789   */\n      swap2\n      pop\n        /* \"#utility.yul\":4681:4799   */\n      pop\n        /* \"#utility.yul\":4332:4806   */\n      swap3\n      pop\n      swap3\n      swap1\n      pop\n      jump\t// out\n        /* \"#utility.yul\":4812:4916   */\n    tag_224:\n        /* \"#utility.yul\":4857:4864   */\n      0x00\n        /* \"#utility.yul\":4886:4910   */\n      tag_310\n        /* \"#utility.yul\":4904:4909   */\n      dup3\n        /* \"#utility.yul\":4886:4910   */\n      tag_214\n      jump\t// in\n    tag_310:\n        /* \"#utility.yul\":4875:4910   */\n      swap1\n      pop\n        /* \"#utility.yul\":4812:4916   */\n      swap2\n      swap1\n      pop\n      jump\t// out\n        /* \"#utility.yul\":4922:5064   */\n    tag_225:\n        /* \"#utility.yul\":5025:5057   */\n      tag_312\n        /* \"#utility.yul\":5051:5056   */\n      dup2\n        /* \"#utility.yul\":5025:5057   */\n      tag_224\n      jump\t// in\n    tag_312:\n        /* \"#utility.yul\":5020:5023   */\n      dup3\n        /* \"#utility.yul\":5013:5058   */\n      mstore\n        /* \"#utility.yul\":4922:5064   */\n      pop\n      pop\n      jump\t// out\n        /* \"#utility.yul\":5070:5324   */\n    tag_54:\n        /* \"#utility.yul\":5179:5183   */\n      0x00\n        /* \"#utility.yul\":5217:5219   */\n      0x20\n        /* \"#utility.yul\":5206:5215   */\n      dup3\n        /* \"#utility.yul\":5202:5220   */\n      add\n        /* \"#utility.yul\":5194:5220   */\n      swap1\n      pop\n        /* \"#utility.yul\":5230:5317   */\n      tag_314\n        /* \"#utility.yul\":5314:5315   */\n      0x00\n        /* \"#utility.yul\":5303:5312   */\n      dup4\n        /* \"#utility.yul\":5299:5316   */\n      add\n        /* \"#utility.yul\":5290:5296   */\n      dup5\n        /* \"#utility.yul\":5230:5317   */\n      tag_225\n      jump\t// in\n    tag_314:\n        /* \"#utility.yul\":5070:5324   */\n      swap3\n      swap2\n      pop\n      pop\n      jump\t// out\n        /* \"#utility.yul\":5330:5420   */\n    tag_226:\n        /* \"#utility.yul\":5364:5371   */\n      0x00\n        /* \"#utility.yul\":5407:5412   */\n      dup2\n        /* \"#utility.yul\":5400:5413   */\n      iszero\n        /* \"#utility.yul\":5393:5414   */\n      iszero\n        /* \"#utility.yul\":5382:5414   */\n      swap1\n      pop\n        /* \"#utility.yul\":5330:5420   */\n      swap2\n      swap1\n      pop\n      jump\t// out\n        /* \"#utility.yul\":5426:5535   */\n    tag_227:\n        /* \"#utility.yul\":5507:5528   */\n      tag_317\n        /* \"#utility.yul\":5522:5527   */\n      dup2\n        /* \"#utility.yul\":5507:5528   */\n      tag_226\n      jump\t// in\n    tag_317:\n        /* \"#utility.yul\":5502:5505   */\n      dup3\n        /* \"#utility.yul\":5495:5529   */\n      mstore\n        /* \"#utility.yul\":5426:5535   */\n      pop\n      pop\n      jump\t// out\n        /* \"#utility.yul\":5541:5751   */\n    tag_59:\n        /* \"#utility.yul\":5628:5632   */\n      0x00\n        /* \"#utility.yul\":5666:5668   */\n      0x20\n        /* \"#utility.yul\":5655:5664   */\n      dup3\n        /* \"#utility.yul\":5651:5669   */\n      add\n        /* \"#utility.yul\":5643:5669   */\n      swap1\n      pop\n        /* \"#utility.yul\":5679:5744   */\n      tag_319\n        /* \"#utility.yul\":5741:5742   */\n      0x00\n        /* \"#utility.yul\":5730:5739   */\n      dup4\n        /* \"#utility.yul\":5726:5743   */\n      add\n        /* \"#utility.yul\":5717:5723   */\n      dup5\n        /* \"#utility.yul\":5679:5744   */\n      tag_227\n      jump\t// in\n    tag_319:\n        /* \"#utility.yul\":5541:5751   */\n      swap3\n      swap2\n      pop\n      pop\n      jump\t// out\n        /* \"#utility.yul\":5757:5926   */\n    tag_228:\n        /* \"#utility.yul\":5841:5852   */\n      0x00\n        /* \"#utility.yul\":5875:5881   */\n      dup3\n        /* \"#utility.yul\":5870:5873   */\n      dup3\n        /* \"#utility.yul\":5863:5882   */\n      mstore\n        /* \"#utility.yul\":5915:5919   */\n      0x20\n        /* \"#utility.yul\":5910:5913   */\n      dup3\n        /* \"#utility.yul\":5906:5920   */\n      add\n        /* \"#utility.yul\":5891:5920   */\n      swap1\n      pop\n        /* \"#utility.yul\":5757:5926   */\n      swap3\n      swap2\n      pop\n      pop\n      jump\t// out\n        /* \"#utility.yul\":5932:6104   */\n    tag_229:\n        /* \"#utility.yul\":6072:6096   */\n      0x5468657265206973206e6f207375636820726f756e6400000000000000000000\n        /* \"#utility.yul\":6068:6069   */\n      0x00\n        /* \"#utility.yul\":6060:6066   */\n      dup3\n        /* \"#utility.yul\":6056:6070   */\n      add\n        /* \"#utility.yul\":6049:6097   */\n      mstore\n        /* \"#utility.yul\":5932:6104   */\n      pop\n      jump\t// out\n        /* \"#utility.yul\":6110:6476   */\n    tag_230:\n        /* \"#utility.yul\":6252:6255   */\n      0x00\n        /* \"#utility.yul\":6273:6340   */\n      tag_323\n        /* \"#utility.yul\":6337:6339   */\n      0x16\n        /* \"#utility.yul\":6332:6335   */\n      dup4\n        /* \"#utility.yul\":6273:6340   */\n      tag_228\n      jump\t// in\n    tag_323:\n        /* \"#utility.yul\":6266:6340   */\n      swap2\n      pop\n        /* \"#utility.yul\":6349:6442   */\n      tag_324\n        /* \"#utility.yul\":6438:6441   */\n      dup3\n        /* \"#utility.yul\":6349:6442   */\n      tag_229\n      jump\t// in\n    tag_324:\n        /* \"#utility.yul\":6467:6469   */\n      0x20\n        /* \"#utility.yul\":6462:6465   */\n      dup3\n        /* \"#utility.yul\":6458:6470   */\n      add\n        /* \"#utility.yul\":6451:6470   */\n      swap1\n      pop\n        /* \"#utility.yul\":6110:6476   */\n      swap2\n      swap1\n      pop\n      jump\t// out\n        /* \"#utility.yul\":6482:6901   */\n    tag_84:\n        /* \"#utility.yul\":6648:6652   */\n      0x00\n        /* \"#utility.yul\":6686:6688   */\n      0x20\n        /* \"#utility.yul\":6675:6684   */\n      dup3\n        /* \"#utility.yul\":6671:6689   */\n      add\n        /* \"#utility.yul\":6663:6689   */\n      swap1\n      pop\n        /* \"#utility.yul\":6735:6744   */\n      dup2\n        /* \"#utility.yul\":6729:6733   */\n      dup2\n        /* \"#utility.yul\":6725:6745   */\n      sub\n        /* \"#utility.yul\":6721:6722   */\n      0x00\n        /* \"#utility.yul\":6710:6719   */\n      dup4\n        /* \"#utility.yul\":6706:6723   */\n      add\n        /* \"#utility.yul\":6699:6746   */\n      mstore\n        /* \"#utility.yul\":6763:6894   */\n      tag_326\n        /* \"#utility.yul\":6889:6893   */\n      dup2\n        /* \"#utility.yul\":6763:6894   */\n      tag_230\n      jump\t// in\n    tag_326:\n        /* \"#utility.yul\":6755:6894   */\n      swap1\n      pop\n        /* \"#utility.yul\":6482:6901   */\n      swap2\n      swap1\n      pop\n      jump\t// out\n        /* \"#utility.yul\":6907:7087   */\n    tag_231:\n        /* \"#utility.yul\":6955:7032   */\n      0x4e487b7100000000000000000000000000000000000000000000000000000000\n        /* \"#utility.yul\":6952:6953   */\n      0x00\n        /* \"#utility.yul\":6945:7033   */\n      mstore\n        /* \"#utility.yul\":7052:7056   */\n      0x11\n        /* \"#utility.yul\":7049:7050   */\n      0x04\n        /* \"#utility.yul\":7042:7057   */\n      mstore\n        /* \"#utility.yul\":7076:7080   */\n      0x24\n        /* \"#utility.yul\":7073:7074   */\n      0x00\n        /* \"#utility.yul\":7066:7081   */\n      revert\n        /* \"#utility.yul\":7093:7287   */\n    tag_86:\n        /* \"#utility.yul\":7133:7137   */\n      0x00\n        /* \"#utility.yul\":7153:7173   */\n      tag_329\n        /* \"#utility.yul\":7171:7172   */\n      dup3\n        /* \"#utility.yul\":7153:7173   */\n      tag_204\n      jump\t// in\n    tag_329:\n        /* \"#utility.yul\":7148:7173   */\n      swap2\n      pop\n        /* \"#utility.yul\":7187:7207   */\n      tag_330\n        /* \"#utility.yul\":7205:7206   */\n      dup4\n        /* \"#utility.yul\":7187:7207   */\n      tag_204\n      jump\t// in\n    tag_330:\n        /* \"#utility.yul\":7182:7207   */\n      swap3\n      pop\n        /* \"#utility.yul\":7231:7232   */\n      dup3\n        /* \"#utility.yul\":7228:7229   */\n      dup3\n        /* \"#utility.yul\":7224:7233   */\n      sub\n        /* \"#utility.yul\":7216:7233   */\n      swap1\n      pop\n        /* \"#utility.yul\":7255:7256   */\n      dup2\n        /* \"#utility.yul\":7249:7253   */\n      dup2\n        /* \"#utility.yul\":7246:7257   */\n      gt\n        /* \"#utility.yul\":7243:7280   */\n      iszero\n      tag_331\n      jumpi\n        /* \"#utility.yul\":7260:7278   */\n      tag_332\n      tag_231\n      jump\t// in\n    tag_332:\n        /* \"#utility.yul\":7243:7280   */\n    tag_331:\n        /* \"#utility.yul\":7093:7287   */\n      swap3\n      swap2\n      pop\n      pop\n      jump\t// out\n        /* \"#utility.yul\":7293:7473   */\n    tag_89:\n        /* \"#utility.yul\":7341:7418   */\n      0x4e487b7100000000000000000000000000000000000000000000000000000000\n        /* \"#utility.yul\":7338:7339   */\n      0x00\n        /* \"#utility.yul\":7331:7419   */\n      mstore\n        /* \"#utility.yul\":7438:7442   */\n      0x32\n        /* \"#utility.yul\":7435:7436   */\n      0x04\n        /* \"#utility.yul\":7428:7443   */\n      mstore\n        /* \"#utility.yul\":7462:7466   */\n      0x24\n        /* \"#utility.yul\":7459:7460   */\n      0x00\n        /* \"#utility.yul\":7452:7467   */\n      revert\n        /* \"#utility.yul\":7479:7660   */\n    tag_232:\n        /* \"#utility.yul\":7619:7652   */\n      0x4f6e6c7920565246436f6f7264696e61746f722063616e2066756c66696c6c00\n        /* \"#utility.yul\":7615:7616   */\n      0x00\n        /* \"#utility.yul\":7607:7613   */\n      dup3\n        /* \"#utility.yul\":7603:7617   */\n      add\n        /* \"#utility.yul\":7596:7653   */\n      mstore\n        /* \"#utility.yul\":7479:7660   */\n      pop\n      jump\t// out\n        /* \"#utility.yul\":7666:8032   */\n    tag_233:\n        /* \"#utility.yul\":7808:7811   */\n      0x00\n        /* \"#utility.yul\":7829:7896   */\n      tag_336\n        /* \"#utility.yul\":7893:7895   */\n      0x1f\n        /* \"#utility.yul\":7888:7891   */\n      dup4\n        /* \"#utility.yul\":7829:7896   */\n      tag_228\n      jump\t// in\n    tag_336:\n        /* \"#utility.yul\":7822:7896   */\n      swap2\n      pop\n        /* \"#utility.yul\":7905:7998   */\n      tag_337\n        /* \"#utility.yul\":7994:7997   */\n      dup3\n        /* \"#utility.yul\":7905:7998   */\n      tag_232\n      jump\t// in\n    tag_337:\n        /* \"#utility.yul\":8023:8025   */\n      0x20\n        /* \"#utility.yul\":8018:8021   */\n      dup3\n        /* \"#utility.yul\":8014:8026   */\n      add\n        /* \"#utility.yul\":8007:8026   */\n      swap1\n      pop\n        /* \"#utility.yul\":7666:8032   */\n      swap2\n      swap1\n      pop\n      jump\t// out\n        /* \"#utility.yul\":8038:8457   */\n    tag_97:\n        /* \"#utility.yul\":8204:8208   */\n      0x00\n        /* \"#utility.yul\":8242:8244   */\n      0x20\n        /* \"#utility.yul\":8231:8240   */\n      dup3\n        /* \"#utility.yul\":8227:8245   */\n      add\n        /* \"#utility.yul\":8219:8245   */\n      swap1\n      pop\n        /* \"#utility.yul\":8291:8300   */\n      dup2\n        /* \"#utility.yul\":8285:8289   */\n      dup2\n        /* \"#utility.yul\":8281:8301   */\n      sub\n        /* \"#utility.yul\":8277:8278   */\n      0x00\n        /* \"#utility.yul\":8266:8275   */\n      dup4\n        /* \"#utility.yul\":8262:8279   */\n      add\n        /* \"#utility.yul\":8255:8302   */\n      mstore\n        /* \"#utility.yul\":8319:8450   */\n      tag_339\n        /* \"#utility.yul\":8445:8449   */\n      dup2\n        /* \"#utility.yul\":8319:8450   */\n      tag_233\n      jump\t// in\n    tag_339:\n        /* \"#utility.yul\":8311:8450   */\n      swap1\n      pop\n        /* \"#utility.yul\":8038:8457   */\n      swap2\n      swap1\n      pop\n      jump\t// out\n        /* \"#utility.yul\":8463:8606   */\n    tag_234:\n        /* \"#utility.yul\":8520:8525   */\n      0x00\n        /* \"#utility.yul\":8551:8557   */\n      dup2\n        /* \"#utility.yul\":8545:8558   */\n      mload\n        /* \"#utility.yul\":8536:8558   */\n      swap1\n      pop\n        /* \"#utility.yul\":8567:8600   */\n      tag_341\n        /* \"#utility.yul\":8594:8599   */\n      dup2\n        /* \"#utility.yul\":8567:8600   */\n      tag_209\n      jump\t// in\n    tag_341:\n        /* \"#utility.yul\":8463:8606   */\n      swap3\n      swap2\n      pop\n      pop\n      jump\t// out\n        /* \"#utility.yul\":8612:8963   */\n    tag_116:\n        /* \"#utility.yul\":8682:8688   */\n      0x00\n        /* \"#utility.yul\":8731:8733   */\n      0x20\n        /* \"#utility.yul\":8719:8728   */\n      dup3\n        /* \"#utility.yul\":8710:8717   */\n      dup5\n        /* \"#utility.yul\":8706:8729   */\n      sub\n        /* \"#utility.yul\":8702:8734   */\n      slt\n        /* \"#utility.yul\":8699:8818   */\n      iszero\n      tag_343\n      jumpi\n        /* \"#utility.yul\":8737:8816   */\n      tag_344\n      tag_207\n      jump\t// in\n    tag_344:\n        /* \"#utility.yul\":8699:8818   */\n    tag_343:\n        /* \"#utility.yul\":8857:8858   */\n      0x00\n        /* \"#utility.yul\":8882:8946   */\n      tag_345\n        /* \"#utility.yul\":8938:8945   */\n      dup5\n        /* \"#utility.yul\":8929:8935   */\n      dup3\n        /* \"#utility.yul\":8918:8927   */\n      dup6\n        /* \"#utility.yul\":8914:8936   */\n      add\n        /* \"#utility.yul\":8882:8946   */\n      tag_234\n      jump\t// in\n    tag_345:\n        /* \"#utility.yul\":8872:8946   */\n      swap2\n      pop\n        /* \"#utility.yul\":8828:8956   */\n      pop\n        /* \"#utility.yul\":8612:8963   */\n      swap3\n      swap2\n      pop\n      pop\n      jump\t// out\n        /* \"#utility.yul\":8969:9146   */\n    tag_235:\n        /* \"#utility.yul\":9109:9138   */\n      0x4e6f7420656e6f756768204c494e4b20696e20636f6e74726163740000000000\n        /* \"#utility.yul\":9105:9106   */\n      0x00\n        /* \"#utility.yul\":9097:9103   */\n      dup3\n        /* \"#utility.yul\":9093:9107   */\n      add\n        /* \"#utility.yul\":9086:9139   */\n      mstore\n        /* \"#utility.yul\":8969:9146   */\n      pop\n      jump\t// out\n        /* \"#utility.yul\":9152:9518   */\n    tag_236:\n        /* \"#utility.yul\":9294:9297   */\n      0x00\n        /* \"#utility.yul\":9315:9382   */\n      tag_348\n        /* \"#utility.yul\":9379:9381   */\n      0x1b\n        /* \"#utility.yul\":9374:9377   */\n      dup4\n        /* \"#utility.yul\":9315:9382   */\n      tag_228\n      jump\t// in\n    tag_348:\n        /* \"#utility.yul\":9308:9382   */\n      swap2\n      pop\n        /* \"#utility.yul\":9391:9484   */\n      tag_349\n        /* \"#utility.yul\":9480:9483   */\n      dup3\n        /* \"#utility.yul\":9391:9484   */\n      tag_235\n      jump\t// in\n    tag_349:\n        /* \"#utility.yul\":9509:9511   */\n      0x20\n        /* \"#utility.yul\":9504:9507   */\n      dup3\n        /* \"#utility.yul\":9500:9512   */\n      add\n        /* \"#utility.yul\":9493:9512   */\n      swap1\n      pop\n        /* \"#utility.yul\":9152:9518   */\n      swap2\n      swap1\n      pop\n      jump\t// out\n        /* \"#utility.yul\":9524:9943   */\n    tag_119:\n        /* \"#utility.yul\":9690:9694   */\n      0x00\n        /* \"#utility.yul\":9728:9730   */\n      0x20\n        /* \"#utility.yul\":9717:9726   */\n      dup3\n        /* \"#utility.yul\":9713:9731   */\n      add\n        /* \"#utility.yul\":9705:9731   */\n      swap1\n      pop\n        /* \"#utility.yul\":9777:9786   */\n      dup2\n        /* \"#utility.yul\":9771:9775   */\n      dup2\n        /* \"#utility.yul\":9767:9787   */\n      sub\n        /* \"#utility.yul\":9763:9764   */\n      0x00\n        /* \"#utility.yul\":9752:9761   */\n      dup4\n        /* \"#utility.yul\":9748:9765   */\n      add\n        /* \"#utility.yul\":9741:9788   */\n      mstore\n        /* \"#utility.yul\":9805:9936   */\n      tag_351\n        /* \"#utility.yul\":9931:9935   */\n      dup2\n        /* \"#utility.yul\":9805:9936   */\n      tag_236\n      jump\t// in\n    tag_351:\n        /* \"#utility.yul\":9797:9936   */\n      swap1\n      pop\n        /* \"#utility.yul\":9524:9943   */\n      swap2\n      swap1\n      pop\n      jump\t// out\n        /* \"#utility.yul\":9949:10129   */\n    tag_237:\n        /* \"#utility.yul\":9997:10074   */\n      0x4e487b7100000000000000000000000000000000000000000000000000000000\n        /* \"#utility.yul\":9994:9995   */\n      0x00\n        /* \"#utility.yul\":9987:10075   */\n      mstore\n        /* \"#utility.yul\":10094:10098   */\n      0x12\n        /* \"#utility.yul\":10091:10092   */\n      0x04\n        /* \"#utility.yul\":10084:10099   */\n      mstore\n        /* \"#utility.yul\":10118:10122   */\n      0x24\n        /* \"#utility.yul\":10115:10116   */\n      0x00\n        /* \"#utility.yul\":10108:10123   */\n      revert\n        /* \"#utility.yul\":10135:10311   */\n    tag_124:\n        /* \"#utility.yul\":10167:10168   */\n      0x00\n        /* \"#utility.yul\":10184:10204   */\n      tag_354\n        /* \"#utility.yul\":10202:10203   */\n      dup3\n        /* \"#utility.yul\":10184:10204   */\n      tag_204\n      jump\t// in\n    tag_354:\n        /* \"#utility.yul\":10179:10204   */\n      swap2\n      pop\n        /* \"#utility.yul\":10218:10238   */\n      tag_355\n        /* \"#utility.yul\":10236:10237   */\n      dup4\n        /* \"#utility.yul\":10218:10238   */\n      tag_204\n      jump\t// in\n    tag_355:\n        /* \"#utility.yul\":10213:10238   */\n      swap3\n      pop\n        /* \"#utility.yul\":10257:10258   */\n      dup3\n        /* \"#utility.yul\":10247:10282   */\n      tag_356\n      jumpi\n        /* \"#utility.yul\":10262:10280   */\n      tag_357\n      tag_237\n      jump\t// in\n    tag_357:\n        /* \"#utility.yul\":10247:10282   */\n    tag_356:\n        /* \"#utility.yul\":10303:10304   */\n      dup3\n        /* \"#utility.yul\":10300:10301   */\n      dup3\n        /* \"#utility.yul\":10296:10305   */\n      mod\n        /* \"#utility.yul\":10291:10305   */\n      swap1\n      pop\n        /* \"#utility.yul\":10135:10311   */\n      swap3\n      swap2\n      pop\n      pop\n      jump\t// out\n        /* \"#utility.yul\":10317:10411   */\n    tag_238:\n        /* \"#utility.yul\":10350:10358   */\n      0x00\n        /* \"#utility.yul\":10398:10403   */\n      dup2\n        /* \"#utility.yul\":10394:10396   */\n      0x60\n        /* \"#utility.yul\":10390:10404   */\n      shl\n        /* \"#utility.yul\":10369:10404   */\n      swap1\n      pop\n        /* \"#utility.yul\":10317:10411   */\n      swap2\n      swap1\n      pop\n      jump\t// out\n        /* \"#utility.yul\":10417:10511   */\n    tag_239:\n        /* \"#utility.yul\":10456:10463   */\n      0x00\n        /* \"#utility.yul\":10485:10505   */\n      tag_360\n        /* \"#utility.yul\":10499:10504   */\n      dup3\n        /* \"#utility.yul\":10485:10505   */\n      tag_238\n      jump\t// in\n    tag_360:\n        /* \"#utility.yul\":10474:10505   */\n      swap1\n      pop\n        /* \"#utility.yul\":10417:10511   */\n      swap2\n      swap1\n      pop\n      jump\t// out\n        /* \"#utility.yul\":10517:10617   */\n    tag_240:\n        /* \"#utility.yul\":10556:10563   */\n      0x00\n        /* \"#utility.yul\":10585:10611   */\n      tag_362\n        /* \"#utility.yul\":10605:10610   */\n      dup3\n        /* \"#utility.yul\":10585:10611   */\n      tag_239\n      jump\t// in\n    tag_362:\n        /* \"#utility.yul\":10574:10611   */\n      swap1\n      pop\n        /* \"#utility.yul\":10517:10617   */\n      swap2\n      swap1\n      pop\n      jump\t// out\n        /* \"#utility.yul\":10623:10780   */\n    tag_241:\n        /* \"#utility.yul\":10728:10773   */\n      tag_364\n        /* \"#utility.yul\":10748:10772   */\n      tag_365\n        /* \"#utility.yul\":10766:10771   */\n      dup3\n        /* \"#utility.yul\":10748:10772   */\n      tag_215\n      jump\t// in\n    tag_365:\n        /* \"#utility.yul\":10728:10773   */\n      tag_240\n      jump\t// in\n    tag_364:\n        /* \"#utility.yul\":10723:10726   */\n      dup3\n        /* \"#utility.yul\":10716:10774   */\n      mstore\n        /* \"#utility.yul\":10623:10780   */\n      pop\n      pop\n      jump\t// out\n        /* \"#utility.yul\":10786:10865   */\n    tag_242:\n        /* \"#utility.yul\":10825:10832   */\n      0x00\n        /* \"#utility.yul\":10854:10859   */\n      dup2\n        /* \"#utility.yul\":10843:10859   */\n      swap1\n      pop\n        /* \"#utility.yul\":10786:10865   */\n      swap2\n      swap1\n      pop\n      jump\t// out\n        /* \"#utility.yul\":10871:11028   */\n    tag_243:\n        /* \"#utility.yul\":10976:11021   */\n      tag_368\n        /* \"#utility.yul\":10996:11020   */\n      tag_369\n        /* \"#utility.yul\":11014:11019   */\n      dup3\n        /* \"#utility.yul\":10996:11020   */\n      tag_204\n      jump\t// in\n    tag_369:\n        /* \"#utility.yul\":10976:11021   */\n      tag_242\n      jump\t// in\n    tag_368:\n        /* \"#utility.yul\":10971:10974   */\n      dup3\n        /* \"#utility.yul\":10964:11022   */\n      mstore\n        /* \"#utility.yul\":10871:11028   */\n      pop\n      pop\n      jump\t// out\n        /* \"#utility.yul\":11034:11431   */\n    tag_129:\n        /* \"#utility.yul\":11174:11177   */\n      0x00\n        /* \"#utility.yul\":11189:11264   */\n      tag_371\n        /* \"#utility.yul\":11260:11263   */\n      dup3\n        /* \"#utility.yul\":11251:11257   */\n      dup6\n        /* \"#utility.yul\":11189:11264   */\n      tag_241\n      jump\t// in\n    tag_371:\n        /* \"#utility.yul\":11289:11291   */\n      0x14\n        /* \"#utility.yul\":11284:11287   */\n      dup3\n        /* \"#utility.yul\":11280:11292   */\n      add\n        /* \"#utility.yul\":11273:11292   */\n      swap2\n      pop\n        /* \"#utility.yul\":11302:11377   */\n      tag_372\n        /* \"#utility.yul\":11373:11376   */\n      dup3\n        /* \"#utility.yul\":11364:11370   */\n      dup5\n        /* \"#utility.yul\":11302:11377   */\n      tag_243\n      jump\t// in\n    tag_372:\n        /* \"#utility.yul\":11402:11404   */\n      0x20\n        /* \"#utility.yul\":11397:11400   */\n      dup3\n        /* \"#utility.yul\":11393:11405   */\n      add\n        /* \"#utility.yul\":11386:11405   */\n      swap2\n      pop\n        /* \"#utility.yul\":11422:11425   */\n      dup2\n        /* \"#utility.yul\":11415:11425   */\n      swap1\n      pop\n        /* \"#utility.yul\":11034:11431   */\n      swap4\n      swap3\n      pop\n      pop\n      pop\n      jump\t// out\n        /* \"#utility.yul\":11437:11555   */\n    tag_244:\n        /* \"#utility.yul\":11524:11548   */\n      tag_374\n        /* \"#utility.yul\":11542:11547   */\n      dup2\n        /* \"#utility.yul\":11524:11548   */\n      tag_221\n      jump\t// in\n    tag_374:\n        /* \"#utility.yul\":11519:11522   */\n      dup3\n        /* \"#utility.yul\":11512:11549   */\n      mstore\n        /* \"#utility.yul\":11437:11555   */\n      pop\n      pop\n      jump\t// out\n        /* \"#utility.yul\":11561:11893   */\n    tag_135:\n        /* \"#utility.yul\":11682:11686   */\n      0x00\n        /* \"#utility.yul\":11720:11722   */\n      0x40\n        /* \"#utility.yul\":11709:11718   */\n      dup3\n        /* \"#utility.yul\":11705:11723   */\n      add\n        /* \"#utility.yul\":11697:11723   */\n      swap1\n      pop\n        /* \"#utility.yul\":11733:11804   */\n      tag_376\n        /* \"#utility.yul\":11801:11802   */\n      0x00\n        /* \"#utility.yul\":11790:11799   */\n      dup4\n        /* \"#utility.yul\":11786:11803   */\n      add\n        /* \"#utility.yul\":11777:11783   */\n      dup6\n        /* \"#utility.yul\":11733:11804   */\n      tag_244\n      jump\t// in\n    tag_376:\n        /* \"#utility.yul\":11814:11886   */\n      tag_377\n        /* \"#utility.yul\":11882:11884   */\n      0x20\n        /* \"#utility.yul\":11871:11880   */\n      dup4\n        /* \"#utility.yul\":11867:11885   */\n      add\n        /* \"#utility.yul\":11858:11864   */\n      dup5\n        /* \"#utility.yul\":11814:11886   */\n      tag_205\n      jump\t// in\n    tag_377:\n        /* \"#utility.yul\":11561:11893   */\n      swap4\n      swap3\n      pop\n      pop\n      pop\n      jump\t// out\n        /* \"#utility.yul\":11899:11997   */\n    tag_245:\n        /* \"#utility.yul\":11950:11956   */\n      0x00\n        /* \"#utility.yul\":11984:11989   */\n      dup2\n        /* \"#utility.yul\":11978:11990   */\n      mload\n        /* \"#utility.yul\":11968:11990   */\n      swap1\n      pop\n        /* \"#utility.yul\":11899:11997   */\n      swap2\n      swap1\n      pop\n      jump\t// out\n        /* \"#utility.yul\":12003:12171   */\n    tag_246:\n        /* \"#utility.yul\":12086:12097   */\n      0x00\n        /* \"#utility.yul\":12120:12126   */\n      dup3\n        /* \"#utility.yul\":12115:12118   */\n      dup3\n        /* \"#utility.yul\":12108:12127   */\n      mstore\n        /* \"#utility.yul\":12160:12164   */\n      0x20\n        /* \"#utility.yul\":12155:12158   */\n      dup3\n        /* \"#utility.yul\":12151:12165   */\n      add\n        /* \"#utility.yul\":12136:12165   */\n      swap1\n      pop\n        /* \"#utility.yul\":12003:12171   */\n      swap3\n      swap2\n      pop\n      pop\n      jump\t// out\n        /* \"#utility.yul\":12177:12423   */\n    tag_247:\n        /* \"#utility.yul\":12258:12259   */\n      0x00\n        /* \"#utility.yul\":12268:12381   */\n    tag_381:\n        /* \"#utility.yul\":12282:12288   */\n      dup4\n        /* \"#utility.yul\":12279:12280   */\n      dup2\n        /* \"#utility.yul\":12276:12289   */\n      lt\n        /* \"#utility.yul\":12268:12381   */\n      iszero\n      tag_383\n      jumpi\n        /* \"#utility.yul\":12367:12368   */\n      dup1\n        /* \"#utility.yul\":12362:12365   */\n      dup3\n        /* \"#utility.yul\":12358:12369   */\n      add\n        /* \"#utility.yul\":12352:12370   */\n      mload\n        /* \"#utility.yul\":12348:12349   */\n      dup2\n        /* \"#utility.yul\":12343:12346   */\n      dup5\n        /* \"#utility.yul\":12339:12350   */\n      add\n        /* \"#utility.yul\":12332:12371   */\n      mstore\n        /* \"#utility.yul\":12304:12306   */\n      0x20\n        /* \"#utility.yul\":12301:12302   */\n      dup2\n        /* \"#utility.yul\":12297:12307   */\n      add\n        /* \"#utility.yul\":12292:12307   */\n      swap1\n      pop\n        /* \"#utility.yul\":12268:12381   */\n      jump(tag_381)\n    tag_383:\n        /* \"#utility.yul\":12415:12416   */\n      0x00\n        /* \"#utility.yul\":12406:12412   */\n      dup5\n        /* \"#utility.yul\":12401:12404   */\n      dup5\n        /* \"#utility.yul\":12397:12413   */\n      add\n        /* \"#utility.yul\":12390:12417   */\n      mstore\n        /* \"#utility.yul\":12239:12423   */\n      pop\n        /* \"#utility.yul\":12177:12423   */\n      pop\n      pop\n      pop\n      jump\t// out\n        /* \"#utility.yul\":12429:12531   */\n    tag_248:\n        /* \"#utility.yul\":12470:12476   */\n      0x00\n        /* \"#utility.yul\":12521:12523   */\n      0x1f\n        /* \"#utility.yul\":12517:12524   */\n      not\n        /* \"#utility.yul\":12512:12514   */\n      0x1f\n        /* \"#utility.yul\":12505:12510   */\n      dup4\n        /* \"#utility.yul\":12501:12515   */\n      add\n        /* \"#utility.yul\":12497:12525   */\n      and\n        /* \"#utility.yul\":12487:12525   */\n      swap1\n      pop\n        /* \"#utility.yul\":12429:12531   */\n      swap2\n      swap1\n      pop\n      jump\t// out\n        /* \"#utility.yul\":12537:12910   */\n    tag_249:\n        /* \"#utility.yul\":12623:12626   */\n      0x00\n        /* \"#utility.yul\":12651:12689   */\n      tag_386\n        /* \"#utility.yul\":12683:12688   */\n      dup3\n        /* \"#utility.yul\":12651:12689   */\n      tag_245\n      jump\t// in\n    tag_386:\n        /* \"#utility.yul\":12705:12775   */\n      tag_387\n        /* \"#utility.yul\":12768:12774   */\n      dup2\n        /* \"#utility.yul\":12763:12766   */\n      dup6\n        /* \"#utility.yul\":12705:12775   */\n      tag_246\n      jump\t// in\n    tag_387:\n        /* \"#utility.yul\":12698:12775   */\n      swap4\n      pop\n        /* \"#utility.yul\":12784:12849   */\n      tag_388\n        /* \"#utility.yul\":12842:12848   */\n      dup2\n        /* \"#utility.yul\":12837:12840   */\n      dup6\n        /* \"#utility.yul\":12830:12834   */\n      0x20\n        /* \"#utility.yul\":12823:12828   */\n      dup7\n        /* \"#utility.yul\":12819:12835   */\n      add\n        /* \"#utility.yul\":12784:12849   */\n      tag_247\n      jump\t// in\n    tag_388:\n        /* \"#utility.yul\":12874:12903   */\n      tag_389\n        /* \"#utility.yul\":12896:12902   */\n      dup2\n        /* \"#utility.yul\":12874:12903   */\n      tag_248\n      jump\t// in\n    tag_389:\n        /* \"#utility.yul\":12869:12872   */\n      dup5\n        /* \"#utility.yul\":12865:12904   */\n      add\n        /* \"#utility.yul\":12858:12904   */\n      swap2\n      pop\n        /* \"#utility.yul\":12627:12910   */\n      pop\n        /* \"#utility.yul\":12537:12910   */\n      swap3\n      swap2\n      pop\n      pop\n      jump\t// out\n        /* \"#utility.yul\":12916:13445   */\n    tag_137:\n        /* \"#utility.yul\":13083:13087   */\n      0x00\n        /* \"#utility.yul\":13121:13123   */\n      0x60\n        /* \"#utility.yul\":13110:13119   */\n      dup3\n        /* \"#utility.yul\":13106:13124   */\n      add\n        /* \"#utility.yul\":13098:13124   */\n      swap1\n      pop\n        /* \"#utility.yul\":13134:13205   */\n      tag_391\n        /* \"#utility.yul\":13202:13203   */\n      0x00\n        /* \"#utility.yul\":13191:13200   */\n      dup4\n        /* \"#utility.yul\":13187:13204   */\n      add\n        /* \"#utility.yul\":13178:13184   */\n      dup7\n        /* \"#utility.yul\":13134:13205   */\n      tag_220\n      jump\t// in\n    tag_391:\n        /* \"#utility.yul\":13215:13287   */\n      tag_392\n        /* \"#utility.yul\":13283:13285   */\n      0x20\n        /* \"#utility.yul\":13272:13281   */\n      dup4\n        /* \"#utility.yul\":13268:13286   */\n      add\n        /* \"#utility.yul\":13259:13265   */\n      dup6\n        /* \"#utility.yul\":13215:13287   */\n      tag_205\n      jump\t// in\n    tag_392:\n        /* \"#utility.yul\":13334:13343   */\n      dup2\n        /* \"#utility.yul\":13328:13332   */\n      dup2\n        /* \"#utility.yul\":13324:13344   */\n      sub\n        /* \"#utility.yul\":13319:13321   */\n      0x40\n        /* \"#utility.yul\":13308:13317   */\n      dup4\n        /* \"#utility.yul\":13304:13322   */\n      add\n        /* \"#utility.yul\":13297:13345   */\n      mstore\n        /* \"#utility.yul\":13362:13438   */\n      tag_393\n        /* \"#utility.yul\":13433:13437   */\n      dup2\n        /* \"#utility.yul\":13424:13430   */\n      dup5\n        /* \"#utility.yul\":13362:13438   */\n      tag_249\n      jump\t// in\n    tag_393:\n        /* \"#utility.yul\":13354:13438   */\n      swap1\n      pop\n        /* \"#utility.yul\":12916:13445   */\n      swap5\n      swap4\n      pop\n      pop\n      pop\n      pop\n      jump\t// out\n        /* \"#utility.yul\":13451:13567   */\n    tag_250:\n        /* \"#utility.yul\":13521:13542   */\n      tag_395\n        /* \"#utility.yul\":13536:13541   */\n      dup2\n        /* \"#utility.yul\":13521:13542   */\n      tag_226\n      jump\t// in\n    tag_395:\n        /* \"#utility.yul\":13514:13519   */\n      dup2\n        /* \"#utility.yul\":13511:13543   */\n      eq\n        /* \"#utility.yul\":13501:13561   */\n      tag_396\n      jumpi\n        /* \"#utility.yul\":13557:13558   */\n      0x00\n        /* \"#utility.yul\":13554:13555   */\n      dup1\n        /* \"#utility.yul\":13547:13559   */\n      revert\n        /* \"#utility.yul\":13501:13561   */\n    tag_396:\n        /* \"#utility.yul\":13451:13567   */\n      pop\n      jump\t// out\n        /* \"#utility.yul\":13573:13710   */\n    tag_251:\n        /* \"#utility.yul\":13627:13632   */\n      0x00\n        /* \"#utility.yul\":13658:13664   */\n      dup2\n        /* \"#utility.yul\":13652:13665   */\n      mload\n        /* \"#utility.yul\":13643:13665   */\n      swap1\n      pop\n        /* \"#utility.yul\":13674:13704   */\n      tag_398\n        /* \"#utility.yul\":13698:13703   */\n      dup2\n        /* \"#utility.yul\":13674:13704   */\n      tag_250\n      jump\t// in\n    tag_398:\n        /* \"#utility.yul\":13573:13710   */\n      swap3\n      swap2\n      pop\n      pop\n      jump\t// out\n        /* \"#utility.yul\":13716:14061   */\n    tag_141:\n        /* \"#utility.yul\":13783:13789   */\n      0x00\n        /* \"#utility.yul\":13832:13834   */\n      0x20\n        /* \"#utility.yul\":13820:13829   */\n      dup3\n        /* \"#utility.yul\":13811:13818   */\n      dup5\n        /* \"#utility.yul\":13807:13830   */\n      sub\n        /* \"#utility.yul\":13803:13835   */\n      slt\n        /* \"#utility.yul\":13800:13919   */\n      iszero\n      tag_400\n      jumpi\n        /* \"#utility.yul\":13838:13917   */\n      tag_401\n      tag_207\n      jump\t// in\n    tag_401:\n        /* \"#utility.yul\":13800:13919   */\n    tag_400:\n        /* \"#utility.yul\":13958:13959   */\n      0x00\n        /* \"#utility.yul\":13983:14044   */\n      tag_402\n        /* \"#utility.yul\":14036:14043   */\n      dup5\n        /* \"#utility.yul\":14027:14033   */\n      dup3\n        /* \"#utility.yul\":14016:14025   */\n      dup6\n        /* \"#utility.yul\":14012:14034   */\n      add\n        /* \"#utility.yul\":13983:14044   */\n      tag_251\n      jump\t// in\n    tag_402:\n        /* \"#utility.yul\":13973:14044   */\n      swap2\n      pop\n        /* \"#utility.yul\":13929:14054   */\n      pop\n        /* \"#utility.yul\":13716:14061   */\n      swap3\n      swap2\n      pop\n      pop\n      jump\t// out\n        /* \"#utility.yul\":14067:14258   */\n    tag_145:\n        /* \"#utility.yul\":14107:14110   */\n      0x00\n        /* \"#utility.yul\":14126:14146   */\n      tag_404\n        /* \"#utility.yul\":14144:14145   */\n      dup3\n        /* \"#utility.yul\":14126:14146   */\n      tag_204\n      jump\t// in\n    tag_404:\n        /* \"#utility.yul\":14121:14146   */\n      swap2\n      pop\n        /* \"#utility.yul\":14160:14180   */\n      tag_405\n        /* \"#utility.yul\":14178:14179   */\n      dup4\n        /* \"#utility.yul\":14160:14180   */\n      tag_204\n      jump\t// in\n    tag_405:\n        /* \"#utility.yul\":14155:14180   */\n      swap3\n      pop\n        /* \"#utility.yul\":14203:14204   */\n      dup3\n        /* \"#utility.yul\":14200:14201   */\n      dup3\n        /* \"#utility.yul\":14196:14205   */\n      add\n        /* \"#utility.yul\":14189:14205   */\n      swap1\n      pop\n        /* \"#utility.yul\":14224:14227   */\n      dup1\n        /* \"#utility.yul\":14221:14222   */\n      dup3\n        /* \"#utility.yul\":14218:14228   */\n      gt\n        /* \"#utility.yul\":14215:14251   */\n      iszero\n      tag_406\n      jumpi\n        /* \"#utility.yul\":14231:14249   */\n      tag_407\n      tag_231\n      jump\t// in\n    tag_407:\n        /* \"#utility.yul\":14215:14251   */\n    tag_406:\n        /* \"#utility.yul\":14067:14258   */\n      swap3\n      swap2\n      pop\n      pop\n      jump\t// out\n        /* \"#utility.yul\":14264:14817   */\n    tag_162:\n        /* \"#utility.yul\":14441:14445   */\n      0x00\n        /* \"#utility.yul\":14479:14482   */\n      0x80\n        /* \"#utility.yul\":14468:14477   */\n      dup3\n        /* \"#utility.yul\":14464:14483   */\n      add\n        /* \"#utility.yul\":14456:14483   */\n      swap1\n      pop\n        /* \"#utility.yul\":14493:14564   */\n      tag_409\n        /* \"#utility.yul\":14561:14562   */\n      0x00\n        /* \"#utility.yul\":14550:14559   */\n      dup4\n        /* \"#utility.yul\":14546:14563   */\n      add\n        /* \"#utility.yul\":14537:14543   */\n      dup8\n        /* \"#utility.yul\":14493:14564   */\n      tag_244\n      jump\t// in\n    tag_409:\n        /* \"#utility.yul\":14574:14646   */\n      tag_410\n        /* \"#utility.yul\":14642:14644   */\n      0x20\n        /* \"#utility.yul\":14631:14640   */\n      dup4\n        /* \"#utility.yul\":14627:14645   */\n      add\n        /* \"#utility.yul\":14618:14624   */\n      dup7\n        /* \"#utility.yul\":14574:14646   */\n      tag_205\n      jump\t// in\n    tag_410:\n        /* \"#utility.yul\":14656:14728   */\n      tag_411\n        /* \"#utility.yul\":14724:14726   */\n      0x40\n        /* \"#utility.yul\":14713:14722   */\n      dup4\n        /* \"#utility.yul\":14709:14727   */\n      add\n        /* \"#utility.yul\":14700:14706   */\n      dup6\n        /* \"#utility.yul\":14656:14728   */\n      tag_220\n      jump\t// in\n    tag_411:\n        /* \"#utility.yul\":14738:14810   */\n      tag_412\n        /* \"#utility.yul\":14806:14808   */\n      0x60\n        /* \"#utility.yul\":14795:14804   */\n      dup4\n        /* \"#utility.yul\":14791:14809   */\n      add\n        /* \"#utility.yul\":14782:14788   */\n      dup5\n        /* \"#utility.yul\":14738:14810   */\n      tag_205\n      jump\t// in\n    tag_412:\n        /* \"#utility.yul\":14264:14817   */\n      swap6\n      swap5\n      pop\n      pop\n      pop\n      pop\n      pop\n      jump\t// out\n        /* \"#utility.yul\":14823:14902   */\n    tag_252:\n        /* \"#utility.yul\":14862:14869   */\n      0x00\n        /* \"#utility.yul\":14891:14896   */\n      dup2\n        /* \"#utility.yul\":14880:14896   */\n      swap1\n      pop\n        /* \"#utility.yul\":14823:14902   */\n      swap2\n      swap1\n      pop\n      jump\t// out\n        /* \"#utility.yul\":14908:15065   */\n    tag_253:\n        /* \"#utility.yul\":15013:15058   */\n      tag_415\n        /* \"#utility.yul\":15033:15057   */\n      tag_416\n        /* \"#utility.yul\":15051:15056   */\n      dup3\n        /* \"#utility.yul\":15033:15057   */\n      tag_221\n      jump\t// in\n    tag_416:\n        /* \"#utility.yul\":15013:15058   */\n      tag_252\n      jump\t// in\n    tag_415:\n        /* \"#utility.yul\":15008:15011   */\n      dup3\n        /* \"#utility.yul\":15001:15059   */\n      mstore\n        /* \"#utility.yul\":14908:15065   */\n      pop\n      pop\n      jump\t// out\n        /* \"#utility.yul\":15071:15468   */\n    tag_165:\n        /* \"#utility.yul\":15211:15214   */\n      0x00\n        /* \"#utility.yul\":15226:15301   */\n      tag_418\n        /* \"#utility.yul\":15297:15300   */\n      dup3\n        /* \"#utility.yul\":15288:15294   */\n      dup6\n        /* \"#utility.yul\":15226:15301   */\n      tag_253\n      jump\t// in\n    tag_418:\n        /* \"#utility.yul\":15326:15328   */\n      0x20\n        /* \"#utility.yul\":15321:15324   */\n      dup3\n        /* \"#utility.yul\":15317:15329   */\n      add\n        /* \"#utility.yul\":15310:15329   */\n      swap2\n      pop\n        /* \"#utility.yul\":15339:15414   */\n      tag_419\n        /* \"#utility.yul\":15410:15413   */\n      dup3\n        /* \"#utility.yul\":15401:15407   */\n      dup5\n        /* \"#utility.yul\":15339:15414   */\n      tag_243\n      jump\t// in\n    tag_419:\n        /* \"#utility.yul\":15439:15441   */\n      0x20\n        /* \"#utility.yul\":15434:15437   */\n      dup3\n        /* \"#utility.yul\":15430:15442   */\n      add\n        /* \"#utility.yul\":15423:15442   */\n      swap2\n      pop\n        /* \"#utility.yul\":15459:15462   */\n      dup2\n        /* \"#utility.yul\":15452:15462   */\n      swap1\n      pop\n        /* \"#utility.yul\":15071:15468   */\n      swap4\n      swap3\n      pop\n      pop\n      pop\n      jump\t// out\n        /* \"#utility.yul\":15474:15707   */\n    tag_174:\n        /* \"#utility.yul\":15513:15516   */\n      0x00\n        /* \"#utility.yul\":15536:15560   */\n      tag_421\n        /* \"#utility.yul\":15554:15559   */\n      dup3\n        /* \"#utility.yul\":15536:15560   */\n      tag_204\n      jump\t// in\n    tag_421:\n        /* \"#utility.yul\":15527:15560   */\n      swap2\n      pop\n        /* \"#utility.yul\":15582:15648   */\n      0xffffffffffffffffffffffffffffffffffffffffffffffffffffffffffffffff\n        /* \"#utility.yul\":15575:15580   */\n      dup3\n        /* \"#utility.yul\":15572:15649   */\n      sub\n        /* \"#utility.yul\":15569:15672   */\n      tag_422\n      jumpi\n        /* \"#utility.yul\":15652:15670   */\n      tag_423\n      tag_231\n      jump\t// in\n    tag_423:\n        /* \"#utility.yul\":15569:15672   */\n    tag_422:\n        /* \"#utility.yul\":15699:15700   */\n      0x01\n        /* \"#utility.yul\":15692:15697   */\n      dup3\n        /* \"#utility.yul\":15688:15701   */\n      add\n        /* \"#utility.yul\":15681:15701   */\n      swap1\n      pop\n        /* \"#utility.yul\":15474:15707   */\n      swap2\n      swap1\n      pop\n      jump\t// out\n        /* \"#utility.yul\":15713:15893   */\n    tag_177:\n        /* \"#utility.yul\":15761:15838   */\n      0x4e487b7100000000000000000000000000000000000000000000000000000000\n        /* \"#utility.yul\":15758:15759   */\n      0x00\n        /* \"#utility.yul\":15751:15839   */\n      mstore\n        /* \"#utility.yul\":15858:15862   */\n      0x41\n        /* \"#utility.yul\":15855:15856   */\n      0x04\n        /* \"#utility.yul\":15848:15863   */\n      mstore\n        /* \"#utility.yul\":15882:15886   */\n      0x24\n        /* \"#utility.yul\":15879:15880   */\n      0x00\n        /* \"#utility.yul\":15872:15887   */\n      revert\n\n    auxdata: 0xa2646970667358221220e998b9bc16485cfca3851f3dbece4eb0456e188eee32801a3767e48bcaf3b56664736f6c63430008110033\n}\n",
				"bytecode": {
					"linkReferences": {},
					"object": "60c06040523480156200001157600080fd5b5060405162001a0738038062001a078339818101604052810190620000379190620001dc565b83838173ffffffffffffffffffffffffffffffffffffffff1660a08173ffffffffffffffffffffffffffffffffffffffff16815250508073ffffffffffffffffffffffffffffffffffffffff1660808173ffffffffffffffffffffffffffffffffffffffff16815250505050816008819055508060098190555033600160006101000a81548173ffffffffffffffffffffffffffffffffffffffff021916908373ffffffffffffffffffffffffffffffffffffffff160217905550505050506200024e565b600080fd5b600073ffffffffffffffffffffffffffffffffffffffff82169050919050565b60006200012e8262000101565b9050919050565b620001408162000121565b81146200014c57600080fd5b50565b600081519050620001608162000135565b92915050565b6000819050919050565b6200017b8162000166565b81146200018757600080fd5b50565b6000815190506200019b8162000170565b92915050565b6000819050919050565b620001b681620001a1565b8114620001c257600080fd5b50565b600081519050620001d681620001ab565b92915050565b60008060008060808587031215620001f957620001f8620000fc565b5b600062000209878288016200014f565b94505060206200021c878288016200014f565b93505060406200022f878288016200018a565b92505060606200024287828801620001c5565b91505092959194509250565b60805160a05161178562000282600039600081816104cb01526109970152600081816106c1015261095b01526117856000f3fe6080604052600436106100a75760003560e01c806394985ddd1161006457806394985ddd146101be578063a231b484146101e7578063c688d10a14610224578063e97dcb621461024f578063ed6c793114610259578063f71d96cb14610296576100a7565b806312065fe0146100ac57806350b44712146100d75780635d495aea1461011457806382b0db4f1461012b5780638b5b9ccc146101685780638da5cb5b14610193575b600080fd5b3480156100b857600080fd5b506100c16102d3565b6040516100ce9190610ef8565b60405180910390f35b3480156100e357600080fd5b506100fe60048036038101906100f99190610f44565b6102db565b60405161010b9190610ef8565b60405180910390f35b34801561012057600080fd5b506101296102ff565b005b34801561013757600080fd5b50610152600480360381019061014d9190610f44565b610399565b60405161015f9190610ef8565b60405180910390f35b34801561017457600080fd5b5061017d610415565b60405161018a9190611061565b60405180910390f35b34801561019f57600080fd5b506101a86104a3565b6040516101b59190611092565b60405180910390f35b3480156101ca57600080fd5b506101e560048036038101906101e091906110e3565b6104c9565b005b3480156101f357600080fd5b5061020e60048036038101906102099190610f44565b610565565b60405161021b9190611144565b60405180910390f35b34801561023057600080fd5b50610239610598565b604051610246919061117a565b60405180910390f35b6102576105ab565b005b34801561026557600080fd5b50610280600480360381019061027b9190610f44565b610657565b60405161028d9190610ef8565b60405180910390f35b3480156102a257600080fd5b506102bd60048036038101906102b89190610f44565b61067b565b6040516102ca9190611092565b60405180910390f35b600047905090565b600481815481106102eb57600080fd5b906000526020600020016000915090505481565b600160009054906101000a900473ffffffffffffffffffffffffffffffffffffffff1673ffffffffffffffffffffffffffffffffffffffff163373ffffffffffffffffffffffffffffffffffffffff161461035957600080fd5b600760009054906101000a900460ff161561037357600080fd5b6001600760006101000a81548160ff0219169083151502179055506103966106ba565b50565b60006006805490508211156103e3576040517f08c379a00000000000000000000000000000000000000000000000000000000081526004016103da906111f2565b60405180910390fd5b60066001836103f29190611241565b8154811061040357610402611275565b5b90600052602060002001549050919050565b6060600280548060200260200160405190810160405280929190818152602001828054801561049957602002820191906000526020600020905b8160009054906101000a900473ffffffffffffffffffffffffffffffffffffffff1673ffffffffffffffffffffffffffffffffffffffff168152602001906001019080831161044f575b5050505050905090565b600160009054906101000a900473ffffffffffffffffffffffffffffffffffffffff1681565b7f000000000000000000000000000000000000000000000000000000000000000073ffffffffffffffffffffffffffffffffffffffff163373ffffffffffffffffffffffffffffffffffffffff1614610557576040517f08c379a000000000000000000000000000000000000000000000000000000000815260040161054e906112f0565b60405180910390fd5b61056182826107ad565b5050565b60056020528060005260406000206000915054906101000a900473ffffffffffffffffffffffffffffffffffffffff1681565b600760009054906101000a900460ff1681565b662386f26fc1000034116105be57600080fd5b60006105c86107eb565b905060003390506004829080600181540180825580915050600190039060005260206000200160009091909190915055806005600084815260200190815260200160002060006101000a81548173ffffffffffffffffffffffffffffffffffffffff021916908373ffffffffffffffffffffffffffffffffffffffff16021790555061065381610840565b5050565b6006818154811061066757600080fd5b906000526020600020016000915090505481565b6002818154811061068b57600080fd5b906000526020600020016000915054906101000a900473ffffffffffffffffffffffffffffffffffffffff1681565b60006009547f000000000000000000000000000000000000000000000000000000000000000073ffffffffffffffffffffffffffffffffffffffff166370a08231306040518263ffffffff1660e01b81526004016107189190611092565b602060405180830381865afa158015610735573d6000803e3d6000fd5b505050506040513d601f19601f820116820180604052508101906107599190611325565b101561079a576040517f08c379a00000000000000000000000000000000000000000000000000000000081526004016107919061139e565b60405180910390fd5b6107a8600854600954610957565b905090565b6000600480549050826107c091906113ed565b90506107cb81610aa7565b6000600760006101000a81548160ff021916908315150217905550505050565b6000600160009054906101000a900473ffffffffffffffffffffffffffffffffffffffff1642604051602001610822929190611487565b6040516020818303038152906040528051906020012060001c905090565b60011515600360008373ffffffffffffffffffffffffffffffffffffffff1673ffffffffffffffffffffffffffffffffffffffff16815260200190815260200160002060009054906101000a900460ff16151514610954576001600360008373ffffffffffffffffffffffffffffffffffffffff1673ffffffffffffffffffffffffffffffffffffffff16815260200190815260200160002060006101000a81548160ff0219169083151502179055506002819080600181540180825580915050600190039060005260206000200160009091909190916101000a81548173ffffffffffffffffffffffffffffffffffffffff021916908373ffffffffffffffffffffffffffffffffffffffff1602179055505b50565b60007f000000000000000000000000000000000000000000000000000000000000000073ffffffffffffffffffffffffffffffffffffffff16634000aea07f0000000000000000000000000000000000000000000000000000000000000000848660006040516020016109cb9291906114c2565b6040516020818303038152906040526040518463ffffffff1660e01b81526004016109f89392919061157b565b6020604051808303816000875af1158015610a17573d6000803e3d6000fd5b505050506040513d601f19601f82011682018060405250810190610a3b91906115e5565b506000610a5d8460003060008089815260200190815260200160002054610b91565b9050600160008086815260200190815260200160002054610a7e9190611612565b60008086815260200190815260200160002081905550610a9e8482610bcd565b91505092915050565b6005600060048381548110610abf57610abe611275565b5b9060005260206000200154815260200190815260200160002060009054906101000a900473ffffffffffffffffffffffffffffffffffffffff1673ffffffffffffffffffffffffffffffffffffffff166108fc479081150290604051600060405180830381858888f19350505050158015610b3e573d6000803e3d6000fd5b50600660048281548110610b5557610b54611275565b5b90600052602060002001549080600181540180825580915050600190039060005260206000200160009091909190915055610b8e610c00565b50565b600084848484604051602001610baa9493929190611646565b6040516020818303038152906040528051906020012060001c9050949350505050565b60008282604051602001610be29291906116ac565b60405160208183030381529060405280519060200120905092915050565b60005b600280549050811015610cb0576003600060028381548110610c2857610c27611275565b5b9060005260206000200160009054906101000a900473ffffffffffffffffffffffffffffffffffffffff1673ffffffffffffffffffffffffffffffffffffffff1673ffffffffffffffffffffffffffffffffffffffff16815260200190815260200160002060006101000a81549060ff02191690558080610ca8906116d8565b915050610c03565b50600067ffffffffffffffff811115610ccc57610ccb611720565b5b604051908082528060200260200182016040528015610cfa5781602001602082028036833780820191505090505b5060029080519060200190610d10929190610deb565b5060005b600480549050811015610d88576005600060048381548110610d3957610d38611275565b5b9060005260206000200154815260200190815260200160002060006101000a81549073ffffffffffffffffffffffffffffffffffffffff02191690558080610d80906116d8565b915050610d14565b50600067ffffffffffffffff811115610da457610da3611720565b5b604051908082528060200260200182016040528015610dd25781602001602082028036833780820191505090505b5060049080519060200190610de8929190610e75565b50565b828054828255906000526020600020908101928215610e64579160200282015b82811115610e635782518260006101000a81548173ffffffffffffffffffffffffffffffffffffffff021916908373ffffffffffffffffffffffffffffffffffffffff16021790555091602001919060010190610e0b565b5b509050610e719190610ec2565b5090565b828054828255906000526020600020908101928215610eb1579160200282015b82811115610eb0578251825591602001919060010190610e95565b5b509050610ebe9190610ec2565b5090565b5b80821115610edb576000816000905550600101610ec3565b5090565b6000819050919050565b610ef281610edf565b82525050565b6000602082019050610f0d6000830184610ee9565b92915050565b600080fd5b610f2181610edf565b8114610f2c57600080fd5b50565b600081359050610f3e81610f18565b92915050565b600060208284031215610f5a57610f59610f13565b5b6000610f6884828501610f2f565b91505092915050565b600081519050919050565b600082825260208201905092915050565b6000819050602082019050919050565b600073ffffffffffffffffffffffffffffffffffffffff82169050919050565b6000610fc882610f9d565b9050919050565b610fd881610fbd565b82525050565b6000610fea8383610fcf565b60208301905092915050565b6000602082019050919050565b600061100e82610f71565b6110188185610f7c565b935061102383610f8d565b8060005b8381101561105457815161103b8882610fde565b975061104683610ff6565b925050600181019050611027565b5085935050505092915050565b6000602082019050818103600083015261107b8184611003565b905092915050565b61108c81610fbd565b82525050565b60006020820190506110a76000830184611083565b92915050565b6000819050919050565b6110c0816110ad565b81146110cb57600080fd5b50565b6000813590506110dd816110b7565b92915050565b600080604083850312156110fa576110f9610f13565b5b6000611108858286016110ce565b925050602061111985828601610f2f565b9150509250929050565b600061112e82610f9d565b9050919050565b61113e81611123565b82525050565b60006020820190506111596000830184611135565b92915050565b60008115159050919050565b6111748161115f565b82525050565b600060208201905061118f600083018461116b565b92915050565b600082825260208201905092915050565b7f5468657265206973206e6f207375636820726f756e6400000000000000000000600082015250565b60006111dc601683611195565b91506111e7826111a6565b602082019050919050565b6000602082019050818103600083015261120b816111cf565b9050919050565b7f4e487b7100000000000000000000000000000000000000000000000000000000600052601160045260246000fd5b600061124c82610edf565b915061125783610edf565b925082820390508181111561126f5761126e611212565b5b92915050565b7f4e487b7100000000000000000000000000000000000000000000000000000000600052603260045260246000fd5b7f4f6e6c7920565246436f6f7264696e61746f722063616e2066756c66696c6c00600082015250565b60006112da601f83611195565b91506112e5826112a4565b602082019050919050565b60006020820190508181036000830152611309816112cd565b9050919050565b60008151905061131f81610f18565b92915050565b60006020828403121561133b5761133a610f13565b5b600061134984828501611310565b91505092915050565b7f4e6f7420656e6f756768204c494e4b20696e20636f6e74726163740000000000600082015250565b6000611388601b83611195565b915061139382611352565b602082019050919050565b600060208201905081810360008301526113b78161137b565b9050919050565b7f4e487b7100000000000000000000000000000000000000000000000000000000600052601260045260246000fd5b60006113f882610edf565b915061140383610edf565b925082611413576114126113be565b5b828206905092915050565b60008160601b9050919050565b60006114368261141e565b9050919050565b60006114488261142b565b9050919050565b61146061145b82610fbd565b61143d565b82525050565b6000819050919050565b61148161147c82610edf565b611466565b82525050565b6000611493828561144f565b6014820191506114a38284611470565b6020820191508190509392505050565b6114bc816110ad565b82525050565b60006040820190506114d760008301856114b3565b6114e46020830184610ee9565b9392505050565b600081519050919050565b600082825260208201905092915050565b60005b8381101561152557808201518184015260208101905061150a565b60008484015250505050565b6000601f19601f8301169050919050565b600061154d826114eb565b61155781856114f6565b9350611567818560208601611507565b61157081611531565b840191505092915050565b60006060820190506115906000830186611083565b61159d6020830185610ee9565b81810360408301526115af8184611542565b9050949350505050565b6115c28161115f565b81146115cd57600080fd5b50565b6000815190506115df816115b9565b92915050565b6000602082840312156115fb576115fa610f13565b5b6000611609848285016115d0565b91505092915050565b600061161d82610edf565b915061162883610edf565b92508282019050808211156116405761163f611212565b5b92915050565b600060808201905061165b60008301876114b3565b6116686020830186610ee9565b6116756040830185611083565b6116826060830184610ee9565b95945050505050565b6000819050919050565b6116a66116a1826110ad565b61168b565b82525050565b60006116b88285611695565b6020820191506116c88284611470565b6020820191508190509392505050565b60006116e382610edf565b91507fffffffffffffffffffffffffffffffffffffffffffffffffffffffffffffffff820361171557611714611212565b5b600182019050919050565b7f4e487b7100000000000000000000000000000000000000000000000000000000600052604160045260246000fdfea2646970667358221220e998b9bc16485cfca3851f3dbece4eb0456e188eee32801a3767e48bcaf3b56664736f6c63430008110033",
					"opcodes": "PUSH1 0xC0 PUSH1 0x40 MSTORE CALLVALUE DUP1 ISZERO PUSH3 0x11 JUMPI PUSH1 0x0 DUP1 REVERT JUMPDEST POP PUSH1 0x40 MLOAD PUSH3 0x1A07 CODESIZE SUB DUP1 PUSH3 0x1A07 DUP4 CODECOPY DUP2 DUP2 ADD PUSH1 0x40 MSTORE DUP2 ADD SWAP1 PUSH3 0x37 SWAP2 SWAP1 PUSH3 0x1DC JUMP JUMPDEST DUP4 DUP4 DUP2 PUSH20 0xFFFFFFFFFFFFFFFFFFFFFFFFFFFFFFFFFFFFFFFF AND PUSH1 0xA0 DUP2 PUSH20 0xFFFFFFFFFFFFFFFFFFFFFFFFFFFFFFFFFFFFFFFF AND DUP2 MSTORE POP POP DUP1 PUSH20 0xFFFFFFFFFFFFFFFFFFFFFFFFFFFFFFFFFFFFFFFF AND PUSH1 0x80 DUP2 PUSH20 0xFFFFFFFFFFFFFFFFFFFFFFFFFFFFFFFFFFFFFFFF AND DUP2 MSTORE POP POP POP POP DUP2 PUSH1 0x8 DUP2 SWAP1 SSTORE POP DUP1 PUSH1 0x9 DUP2 SWAP1 SSTORE POP CALLER PUSH1 0x1 PUSH1 0x0 PUSH2 0x100 EXP DUP2 SLOAD DUP2 PUSH20 0xFFFFFFFFFFFFFFFFFFFFFFFFFFFFFFFFFFFFFFFF MUL NOT AND SWAP1 DUP4 PUSH20 0xFFFFFFFFFFFFFFFFFFFFFFFFFFFFFFFFFFFFFFFF AND MUL OR SWAP1 SSTORE POP POP POP POP POP PUSH3 0x24E JUMP JUMPDEST PUSH1 0x0 DUP1 REVERT JUMPDEST PUSH1 0x0 PUSH20 0xFFFFFFFFFFFFFFFFFFFFFFFFFFFFFFFFFFFFFFFF DUP3 AND SWAP1 POP SWAP2 SWAP1 POP JUMP JUMPDEST PUSH1 0x0 PUSH3 0x12E DUP3 PUSH3 0x101 JUMP JUMPDEST SWAP1 POP SWAP2 SWAP1 POP JUMP JUMPDEST PUSH3 0x140 DUP2 PUSH3 0x121 JUMP JUMPDEST DUP2 EQ PUSH3 0x14C JUMPI PUSH1 0x0 DUP1 REVERT JUMPDEST POP JUMP JUMPDEST PUSH1 0x0 DUP2 MLOAD SWAP1 POP PUSH3 0x160 DUP2 PUSH3 0x135 JUMP JUMPDEST SWAP3 SWAP2 POP POP JUMP JUMPDEST PUSH1 0x0 DUP2 SWAP1 POP SWAP2 SWAP1 POP JUMP JUMPDEST PUSH3 0x17B DUP2 PUSH3 0x166 JUMP JUMPDEST DUP2 EQ PUSH3 0x187 JUMPI PUSH1 0x0 DUP1 REVERT JUMPDEST POP JUMP JUMPDEST PUSH1 0x0 DUP2 MLOAD SWAP1 POP PUSH3 0x19B DUP2 PUSH3 0x170 JUMP JUMPDEST SWAP3 SWAP2 POP POP JUMP JUMPDEST PUSH1 0x0 DUP2 SWAP1 POP SWAP2 SWAP1 POP JUMP JUMPDEST PUSH3 0x1B6 DUP2 PUSH3 0x1A1 JUMP JUMPDEST DUP2 EQ PUSH3 0x1C2 JUMPI PUSH1 0x0 DUP1 REVERT JUMPDEST POP JUMP JUMPDEST PUSH1 0x0 DUP2 MLOAD SWAP1 POP PUSH3 0x1D6 DUP2 PUSH3 0x1AB JUMP JUMPDEST SWAP3 SWAP2 POP POP JUMP JUMPDEST PUSH1 0x0 DUP1 PUSH1 0x0 DUP1 PUSH1 0x80 DUP6 DUP8 SUB SLT ISZERO PUSH3 0x1F9 JUMPI PUSH3 0x1F8 PUSH3 0xFC JUMP JUMPDEST JUMPDEST PUSH1 0x0 PUSH3 0x209 DUP8 DUP3 DUP9 ADD PUSH3 0x14F JUMP JUMPDEST SWAP5 POP POP PUSH1 0x20 PUSH3 0x21C DUP8 DUP3 DUP9 ADD PUSH3 0x14F JUMP JUMPDEST SWAP4 POP POP PUSH1 0x40 PUSH3 0x22F DUP8 DUP3 DUP9 ADD PUSH3 0x18A JUMP JUMPDEST SWAP3 POP POP PUSH1 0x60 PUSH3 0x242 DUP8 DUP3 DUP9 ADD PUSH3 0x1C5 JUMP JUMPDEST SWAP2 POP POP SWAP3 SWAP6 SWAP2 SWAP5 POP SWAP3 POP JUMP JUMPDEST PUSH1 0x80 MLOAD PUSH1 0xA0 MLOAD PUSH2 0x1785 PUSH3 0x282 PUSH1 0x0 CODECOPY PUSH1 0x0 DUP2 DUP2 PUSH2 0x4CB ADD MSTORE PUSH2 0x997 ADD MSTORE PUSH1 0x0 DUP2 DUP2 PUSH2 0x6C1 ADD MSTORE PUSH2 0x95B ADD MSTORE PUSH2 0x1785 PUSH1 0x0 RETURN INVALID PUSH1 0x80 PUSH1 0x40 MSTORE PUSH1 0x4 CALLDATASIZE LT PUSH2 0xA7 JUMPI PUSH1 0x0 CALLDATALOAD PUSH1 0xE0 SHR DUP1 PUSH4 0x94985DDD GT PUSH2 0x64 JUMPI DUP1 PUSH4 0x94985DDD EQ PUSH2 0x1BE JUMPI DUP1 PUSH4 0xA231B484 EQ PUSH2 0x1E7 JUMPI DUP1 PUSH4 0xC688D10A EQ PUSH2 0x224 JUMPI DUP1 PUSH4 0xE97DCB62 EQ PUSH2 0x24F JUMPI DUP1 PUSH4 0xED6C7931 EQ PUSH2 0x259 JUMPI DUP1 PUSH4 0xF71D96CB EQ PUSH2 0x296 JUMPI PUSH2 0xA7 JUMP JUMPDEST DUP1 PUSH4 0x12065FE0 EQ PUSH2 0xAC JUMPI DUP1 PUSH4 0x50B44712 EQ PUSH2 0xD7 JUMPI DUP1 PUSH4 0x5D495AEA EQ PUSH2 0x114 JUMPI DUP1 PUSH4 0x82B0DB4F EQ PUSH2 0x12B JUMPI DUP1 PUSH4 0x8B5B9CCC EQ PUSH2 0x168 JUMPI DUP1 PUSH4 0x8DA5CB5B EQ PUSH2 0x193 JUMPI JUMPDEST PUSH1 0x0 DUP1 REVERT JUMPDEST CALLVALUE DUP1 ISZERO PUSH2 0xB8 JUMPI PUSH1 0x0 DUP1 REVERT JUMPDEST POP PUSH2 0xC1 PUSH2 0x2D3 JUMP JUMPDEST PUSH1 0x40 MLOAD PUSH2 0xCE SWAP2 SWAP1 PUSH2 0xEF8 JUMP JUMPDEST PUSH1 0x40 MLOAD DUP1 SWAP2 SUB SWAP1 RETURN JUMPDEST CALLVALUE DUP1 ISZERO PUSH2 0xE3 JUMPI PUSH1 0x0 DUP1 REVERT JUMPDEST POP PUSH2 0xFE PUSH1 0x4 DUP1 CALLDATASIZE SUB DUP2 ADD SWAP1 PUSH2 0xF9 SWAP2 SWAP1 PUSH2 0xF44 JUMP JUMPDEST PUSH2 0x2DB JUMP JUMPDEST PUSH1 0x40 MLOAD PUSH2 0x10B SWAP2 SWAP1 PUSH2 0xEF8 JUMP JUMPDEST PUSH1 0x40 MLOAD DUP1 SWAP2 SUB SWAP1 RETURN JUMPDEST CALLVALUE DUP1 ISZERO PUSH2 0x120 JUMPI PUSH1 0x0 DUP1 REVERT JUMPDEST POP PUSH2 0x129 PUSH2 0x2FF JUMP JUMPDEST STOP JUMPDEST CALLVALUE DUP1 ISZERO PUSH2 0x137 JUMPI PUSH1 0x0 DUP1 REVERT JUMPDEST POP PUSH2 0x152 PUSH1 0x4 DUP1 CALLDATASIZE SUB DUP2 ADD SWAP1 PUSH2 0x14D SWAP2 SWAP1 PUSH2 0xF44 JUMP JUMPDEST PUSH2 0x399 JUMP JUMPDEST PUSH1 0x40 MLOAD PUSH2 0x15F SWAP2 SWAP1 PUSH2 0xEF8 JUMP JUMPDEST PUSH1 0x40 MLOAD DUP1 SWAP2 SUB SWAP1 RETURN JUMPDEST CALLVALUE DUP1 ISZERO PUSH2 0x174 JUMPI PUSH1 0x0 DUP1 REVERT JUMPDEST POP PUSH2 0x17D PUSH2 0x415 JUMP JUMPDEST PUSH1 0x40 MLOAD PUSH2 0x18A SWAP2 SWAP1 PUSH2 0x1061 JUMP JUMPDEST PUSH1 0x40 MLOAD DUP1 SWAP2 SUB SWAP1 RETURN JUMPDEST CALLVALUE DUP1 ISZERO PUSH2 0x19F JUMPI PUSH1 0x0 DUP1 REVERT JUMPDEST POP PUSH2 0x1A8 PUSH2 0x4A3 JUMP JUMPDEST PUSH1 0x40 MLOAD PUSH2 0x1B5 SWAP2 SWAP1 PUSH2 0x1092 JUMP JUMPDEST PUSH1 0x40 MLOAD DUP1 SWAP2 SUB SWAP1 RETURN JUMPDEST CALLVALUE DUP1 ISZERO PUSH2 0x1CA JUMPI PUSH1 0x0 DUP1 REVERT JUMPDEST POP PUSH2 0x1E5 PUSH1 0x4 DUP1 CALLDATASIZE SUB DUP2 ADD SWAP1 PUSH2 0x1E0 SWAP2 SWAP1 PUSH2 0x10E3 JUMP JUMPDEST PUSH2 0x4C9 JUMP JUMPDEST STOP JUMPDEST CALLVALUE DUP1 ISZERO PUSH2 0x1F3 JUMPI PUSH1 0x0 DUP1 REVERT JUMPDEST POP PUSH2 0x20E PUSH1 0x4 DUP1 CALLDATASIZE SUB DUP2 ADD SWAP1 PUSH2 0x209 SWAP2 SWAP1 PUSH2 0xF44 JUMP JUMPDEST PUSH2 0x565 JUMP JUMPDEST PUSH1 0x40 MLOAD PUSH2 0x21B SWAP2 SWAP1 PUSH2 0x1144 JUMP JUMPDEST PUSH1 0x40 MLOAD DUP1 SWAP2 SUB SWAP1 RETURN JUMPDEST CALLVALUE DUP1 ISZERO PUSH2 0x230 JUMPI PUSH1 0x0 DUP1 REVERT JUMPDEST POP PUSH2 0x239 PUSH2 0x598 JUMP JUMPDEST PUSH1 0x40 MLOAD PUSH2 0x246 SWAP2 SWAP1 PUSH2 0x117A JUMP JUMPDEST PUSH1 0x40 MLOAD DUP1 SWAP2 SUB SWAP1 RETURN JUMPDEST PUSH2 0x257 PUSH2 0x5AB JUMP JUMPDEST STOP JUMPDEST CALLVALUE DUP1 ISZERO PUSH2 0x265 JUMPI PUSH1 0x0 DUP1 REVERT JUMPDEST POP PUSH2 0x280 PUSH1 0x4 DUP1 CALLDATASIZE SUB DUP2 ADD SWAP1 PUSH2 0x27B SWAP2 SWAP1 PUSH2 0xF44 JUMP JUMPDEST PUSH2 0x657 JUMP JUMPDEST PUSH1 0x40 MLOAD PUSH2 0x28D SWAP2 SWAP1 PUSH2 0xEF8 JUMP JUMPDEST PUSH1 0x40 MLOAD DUP1 SWAP2 SUB SWAP1 RETURN JUMPDEST CALLVALUE DUP1 ISZERO PUSH2 0x2A2 JUMPI PUSH1 0x0 DUP1 REVERT JUMPDEST POP PUSH2 0x2BD PUSH1 0x4 DUP1 CALLDATASIZE SUB DUP2 ADD SWAP1 PUSH2 0x2B8 SWAP2 SWAP1 PUSH2 0xF44 JUMP JUMPDEST PUSH2 0x67B JUMP JUMPDEST PUSH1 0x40 MLOAD PUSH2 0x2CA SWAP2 SWAP1 PUSH2 0x1092 JUMP JUMPDEST PUSH1 0x40 MLOAD DUP1 SWAP2 SUB SWAP1 RETURN JUMPDEST PUSH1 0x0 SELFBALANCE SWAP1 POP SWAP1 JUMP JUMPDEST PUSH1 0x4 DUP2 DUP2 SLOAD DUP2 LT PUSH2 0x2EB JUMPI PUSH1 0x0 DUP1 REVERT JUMPDEST SWAP1 PUSH1 0x0 MSTORE PUSH1 0x20 PUSH1 0x0 KECCAK256 ADD PUSH1 0x0 SWAP2 POP SWAP1 POP SLOAD DUP2 JUMP JUMPDEST PUSH1 0x1 PUSH1 0x0 SWAP1 SLOAD SWAP1 PUSH2 0x100 EXP SWAP1 DIV PUSH20 0xFFFFFFFFFFFFFFFFFFFFFFFFFFFFFFFFFFFFFFFF AND PUSH20 0xFFFFFFFFFFFFFFFFFFFFFFFFFFFFFFFFFFFFFFFF AND CALLER PUSH20 0xFFFFFFFFFFFFFFFFFFFFFFFFFFFFFFFFFFFFFFFF AND EQ PUSH2 0x359 JUMPI PUSH1 0x0 DUP1 REVERT JUMPDEST PUSH1 0x7 PUSH1 0x0 SWAP1 SLOAD SWAP1 PUSH2 0x100 EXP SWAP1 DIV PUSH1 0xFF AND ISZERO PUSH2 0x373 JUMPI PUSH1 0x0 DUP1 REVERT JUMPDEST PUSH1 0x1 PUSH1 0x7 PUSH1 0x0 PUSH2 0x100 EXP DUP2 SLOAD DUP2 PUSH1 0xFF MUL NOT AND SWAP1 DUP4 ISZERO ISZERO MUL OR SWAP1 SSTORE POP PUSH2 0x396 PUSH2 0x6BA JUMP JUMPDEST POP JUMP JUMPDEST PUSH1 0x0 PUSH1 0x6 DUP1 SLOAD SWAP1 POP DUP3 GT ISZERO PUSH2 0x3E3 JUMPI PUSH1 0x40 MLOAD PUSH32 0x8C379A000000000000000000000000000000000000000000000000000000000 DUP2 MSTORE PUSH1 0x4 ADD PUSH2 0x3DA SWAP1 PUSH2 0x11F2 JUMP JUMPDEST PUSH1 0x40 MLOAD DUP1 SWAP2 SUB SWAP1 REVERT JUMPDEST PUSH1 0x6 PUSH1 0x1 DUP4 PUSH2 0x3F2 SWAP2 SWAP1 PUSH2 0x1241 JUMP JUMPDEST DUP2 SLOAD DUP2 LT PUSH2 0x403 JUMPI PUSH2 0x402 PUSH2 0x1275 JUMP JUMPDEST JUMPDEST SWAP1 PUSH1 0x0 MSTORE PUSH1 0x20 PUSH1 0x0 KECCAK256 ADD SLOAD SWAP1 POP SWAP2 SWAP1 POP JUMP JUMPDEST PUSH1 0x60 PUSH1 0x2 DUP1 SLOAD DUP1 PUSH1 0x20 MUL PUSH1 0x20 ADD PUSH1 0x40 MLOAD SWAP1 DUP2 ADD PUSH1 0x40 MSTORE DUP1 SWAP3 SWAP2 SWAP1 DUP2 DUP2 MSTORE PUSH1 0x20 ADD DUP3 DUP1 SLOAD DUP1 ISZERO PUSH2 0x499 JUMPI PUSH1 0x20 MUL DUP3 ADD SWAP2 SWAP1 PUSH1 0x0 MSTORE PUSH1 0x20 PUSH1 0x0 KECCAK256 SWAP1 JUMPDEST DUP2 PUSH1 0x0 SWAP1 SLOAD SWAP1 PUSH2 0x100 EXP SWAP1 DIV PUSH20 0xFFFFFFFFFFFFFFFFFFFFFFFFFFFFFFFFFFFFFFFF AND PUSH20 0xFFFFFFFFFFFFFFFFFFFFFFFFFFFFFFFFFFFFFFFF AND DUP2 MSTORE PUSH1 0x20 ADD SWAP1 PUSH1 0x1 ADD SWAP1 DUP1 DUP4 GT PUSH2 0x44F JUMPI JUMPDEST POP POP POP POP POP SWAP1 POP SWAP1 JUMP JUMPDEST PUSH1 0x1 PUSH1 0x0 SWAP1 SLOAD SWAP1 PUSH2 0x100 EXP SWAP1 DIV PUSH20 0xFFFFFFFFFFFFFFFFFFFFFFFFFFFFFFFFFFFFFFFF AND DUP2 JUMP JUMPDEST PUSH32 0x0 PUSH20 0xFFFFFFFFFFFFFFFFFFFFFFFFFFFFFFFFFFFFFFFF AND CALLER PUSH20 0xFFFFFFFFFFFFFFFFFFFFFFFFFFFFFFFFFFFFFFFF AND EQ PUSH2 0x557 JUMPI PUSH1 0x40 MLOAD PUSH32 0x8C379A000000000000000000000000000000000000000000000000000000000 DUP2 MSTORE PUSH1 0x4 ADD PUSH2 0x54E SWAP1 PUSH2 0x12F0 JUMP JUMPDEST PUSH1 0x40 MLOAD DUP1 SWAP2 SUB SWAP1 REVERT JUMPDEST PUSH2 0x561 DUP3 DUP3 PUSH2 0x7AD JUMP JUMPDEST POP POP JUMP JUMPDEST PUSH1 0x5 PUSH1 0x20 MSTORE DUP1 PUSH1 0x0 MSTORE PUSH1 0x40 PUSH1 0x0 KECCAK256 PUSH1 0x0 SWAP2 POP SLOAD SWAP1 PUSH2 0x100 EXP SWAP1 DIV PUSH20 0xFFFFFFFFFFFFFFFFFFFFFFFFFFFFFFFFFFFFFFFF AND DUP2 JUMP JUMPDEST PUSH1 0x7 PUSH1 0x0 SWAP1 SLOAD SWAP1 PUSH2 0x100 EXP SWAP1 DIV PUSH1 0xFF AND DUP2 JUMP JUMPDEST PUSH7 0x2386F26FC10000 CALLVALUE GT PUSH2 0x5BE JUMPI PUSH1 0x0 DUP1 REVERT JUMPDEST PUSH1 0x0 PUSH2 0x5C8 PUSH2 0x7EB JUMP JUMPDEST SWAP1 POP PUSH1 0x0 CALLER SWAP1 POP PUSH1 0x4 DUP3 SWAP1 DUP1 PUSH1 0x1 DUP2 SLOAD ADD DUP1 DUP3 SSTORE DUP1 SWAP2 POP POP PUSH1 0x1 SWAP1 SUB SWAP1 PUSH1 0x0 MSTORE PUSH1 0x20 PUSH1 0x0 KECCAK256 ADD PUSH1 0x0 SWAP1 SWAP2 SWAP1 SWAP2 SWAP1 SWAP2 POP SSTORE DUP1 PUSH1 0x5 PUSH1 0x0 DUP5 DUP2 MSTORE PUSH1 0x20 ADD SWAP1 DUP2 MSTORE PUSH1 0x20 ADD PUSH1 0x0 KECCAK256 PUSH1 0x0 PUSH2 0x100 EXP DUP2 SLOAD DUP2 PUSH20 0xFFFFFFFFFFFFFFFFFFFFFFFFFFFFFFFFFFFFFFFF MUL NOT AND SWAP1 DUP4 PUSH20 0xFFFFFFFFFFFFFFFFFFFFFFFFFFFFFFFFFFFFFFFF AND MUL OR SWAP1 SSTORE POP PUSH2 0x653 DUP2 PUSH2 0x840 JUMP JUMPDEST POP POP JUMP JUMPDEST PUSH1 0x6 DUP2 DUP2 SLOAD DUP2 LT PUSH2 0x667 JUMPI PUSH1 0x0 DUP1 REVERT JUMPDEST SWAP1 PUSH1 0x0 MSTORE PUSH1 0x20 PUSH1 0x0 KECCAK256 ADD PUSH1 0x0 SWAP2 POP SWAP1 POP SLOAD DUP2 JUMP JUMPDEST PUSH1 0x2 DUP2 DUP2 SLOAD DUP2 LT PUSH2 0x68B JUMPI PUSH1 0x0 DUP1 REVERT JUMPDEST SWAP1 PUSH1 0x0 MSTORE PUSH1 0x20 PUSH1 0x0 KECCAK256 ADD PUSH1 0x0 SWAP2 POP SLOAD SWAP1 PUSH2 0x100 EXP SWAP1 DIV PUSH20 0xFFFFFFFFFFFFFFFFFFFFFFFFFFFFFFFFFFFFFFFF AND DUP2 JUMP JUMPDEST PUSH1 0x0 PUSH1 0x9 SLOAD PUSH32 0x0 PUSH20 0xFFFFFFFFFFFFFFFFFFFFFFFFFFFFFFFFFFFFFFFF AND PUSH4 0x70A08231 ADDRESS PUSH1 0x40 MLOAD DUP3 PUSH4 0xFFFFFFFF AND PUSH1 0xE0 SHL DUP2 MSTORE PUSH1 0x4 ADD PUSH2 0x718 SWAP2 SWAP1 PUSH2 0x1092 JUMP JUMPDEST PUSH1 0x20 PUSH1 0x40 MLOAD DUP1 DUP4 SUB DUP2 DUP7 GAS STATICCALL ISZERO DUP1 ISZERO PUSH2 0x735 JUMPI RETURNDATASIZE PUSH1 0x0 DUP1 RETURNDATACOPY RETURNDATASIZE PUSH1 0x0 REVERT JUMPDEST POP POP POP POP PUSH1 0x40 MLOAD RETURNDATASIZE PUSH1 0x1F NOT PUSH1 0x1F DUP3 ADD AND DUP3 ADD DUP1 PUSH1 0x40 MSTORE POP DUP2 ADD SWAP1 PUSH2 0x759 SWAP2 SWAP1 PUSH2 0x1325 JUMP JUMPDEST LT ISZERO PUSH2 0x79A JUMPI PUSH1 0x40 MLOAD PUSH32 0x8C379A000000000000000000000000000000000000000000000000000000000 DUP2 MSTORE PUSH1 0x4 ADD PUSH2 0x791 SWAP1 PUSH2 0x139E JUMP JUMPDEST PUSH1 0x40 MLOAD DUP1 SWAP2 SUB SWAP1 REVERT JUMPDEST PUSH2 0x7A8 PUSH1 0x8 SLOAD PUSH1 0x9 SLOAD PUSH2 0x957 JUMP JUMPDEST SWAP1 POP SWAP1 JUMP JUMPDEST PUSH1 0x0 PUSH1 0x4 DUP1 SLOAD SWAP1 POP DUP3 PUSH2 0x7C0 SWAP2 SWAP1 PUSH2 0x13ED JUMP JUMPDEST SWAP1 POP PUSH2 0x7CB DUP2 PUSH2 0xAA7 JUMP JUMPDEST PUSH1 0x0 PUSH1 0x7 PUSH1 0x0 PUSH2 0x100 EXP DUP2 SLOAD DUP2 PUSH1 0xFF MUL NOT AND SWAP1 DUP4 ISZERO ISZERO MUL OR SWAP1 SSTORE POP POP POP POP JUMP JUMPDEST PUSH1 0x0 PUSH1 0x1 PUSH1 0x0 SWAP1 SLOAD SWAP1 PUSH2 0x100 EXP SWAP1 DIV PUSH20 0xFFFFFFFFFFFFFFFFFFFFFFFFFFFFFFFFFFFFFFFF AND TIMESTAMP PUSH1 0x40 MLOAD PUSH1 0x20 ADD PUSH2 0x822 SWAP3 SWAP2 SWAP1 PUSH2 0x1487 JUMP JUMPDEST PUSH1 0x40 MLOAD PUSH1 0x20 DUP2 DUP4 SUB SUB DUP2 MSTORE SWAP1 PUSH1 0x40 MSTORE DUP1 MLOAD SWAP1 PUSH1 0x20 ADD KECCAK256 PUSH1 0x0 SHR SWAP1 POP SWAP1 JUMP JUMPDEST PUSH1 0x1 ISZERO ISZERO PUSH1 0x3 PUSH1 0x0 DUP4 PUSH20 0xFFFFFFFFFFFFFFFFFFFFFFFFFFFFFFFFFFFFFFFF AND PUSH20 0xFFFFFFFFFFFFFFFFFFFFFFFFFFFFFFFFFFFFFFFF AND DUP2 MSTORE PUSH1 0x20 ADD SWAP1 DUP2 MSTORE PUSH1 0x20 ADD PUSH1 0x0 KECCAK256 PUSH1 0x0 SWAP1 SLOAD SWAP1 PUSH2 0x100 EXP SWAP1 DIV PUSH1 0xFF AND ISZERO ISZERO EQ PUSH2 0x954 JUMPI PUSH1 0x1 PUSH1 0x3 PUSH1 0x0 DUP4 PUSH20 0xFFFFFFFFFFFFFFFFFFFFFFFFFFFFFFFFFFFFFFFF AND PUSH20 0xFFFFFFFFFFFFFFFFFFFFFFFFFFFFFFFFFFFFFFFF AND DUP2 MSTORE PUSH1 0x20 ADD SWAP1 DUP2 MSTORE PUSH1 0x20 ADD PUSH1 0x0 KECCAK256 PUSH1 0x0 PUSH2 0x100 EXP DUP2 SLOAD DUP2 PUSH1 0xFF MUL NOT AND SWAP1 DUP4 ISZERO ISZERO MUL OR SWAP1 SSTORE POP PUSH1 0x2 DUP2 SWAP1 DUP1 PUSH1 0x1 DUP2 SLOAD ADD DUP1 DUP3 SSTORE DUP1 SWAP2 POP POP PUSH1 0x1 SWAP1 SUB SWAP1 PUSH1 0x0 MSTORE PUSH1 0x20 PUSH1 0x0 KECCAK256 ADD PUSH1 0x0 SWAP1 SWAP2 SWAP1 SWAP2 SWAP1 SWAP2 PUSH2 0x100 EXP DUP2 SLOAD DUP2 PUSH20 0xFFFFFFFFFFFFFFFFFFFFFFFFFFFFFFFFFFFFFFFF MUL NOT AND SWAP1 DUP4 PUSH20 0xFFFFFFFFFFFFFFFFFFFFFFFFFFFFFFFFFFFFFFFF AND MUL OR SWAP1 SSTORE POP JUMPDEST POP JUMP JUMPDEST PUSH1 0x0 PUSH32 0x0 PUSH20 0xFFFFFFFFFFFFFFFFFFFFFFFFFFFFFFFFFFFFFFFF AND PUSH4 0x4000AEA0 PUSH32 0x0 DUP5 DUP7 PUSH1 0x0 PUSH1 0x40 MLOAD PUSH1 0x20 ADD PUSH2 0x9CB SWAP3 SWAP2 SWAP1 PUSH2 0x14C2 JUMP JUMPDEST PUSH1 0x40 MLOAD PUSH1 0x20 DUP2 DUP4 SUB SUB DUP2 MSTORE SWAP1 PUSH1 0x40 MSTORE PUSH1 0x40 MLOAD DUP5 PUSH4 0xFFFFFFFF AND PUSH1 0xE0 SHL DUP2 MSTORE PUSH1 0x4 ADD PUSH2 0x9F8 SWAP4 SWAP3 SWAP2 SWAP1 PUSH2 0x157B JUMP JUMPDEST PUSH1 0x20 PUSH1 0x40 MLOAD DUP1 DUP4 SUB DUP2 PUSH1 0x0 DUP8 GAS CALL ISZERO DUP1 ISZERO PUSH2 0xA17 JUMPI RETURNDATASIZE PUSH1 0x0 DUP1 RETURNDATACOPY RETURNDATASIZE PUSH1 0x0 REVERT JUMPDEST POP POP POP POP PUSH1 0x40 MLOAD RETURNDATASIZE PUSH1 0x1F NOT PUSH1 0x1F DUP3 ADD AND DUP3 ADD DUP1 PUSH1 0x40 MSTORE POP DUP2 ADD SWAP1 PUSH2 0xA3B SWAP2 SWAP1 PUSH2 0x15E5 JUMP JUMPDEST POP PUSH1 0x0 PUSH2 0xA5D DUP5 PUSH1 0x0 ADDRESS PUSH1 0x0 DUP1 DUP10 DUP2 MSTORE PUSH1 0x20 ADD SWAP1 DUP2 MSTORE PUSH1 0x20 ADD PUSH1 0x0 KECCAK256 SLOAD PUSH2 0xB91 JUMP JUMPDEST SWAP1 POP PUSH1 0x1 PUSH1 0x0 DUP1 DUP7 DUP2 MSTORE PUSH1 0x20 ADD SWAP1 DUP2 MSTORE PUSH1 0x20 ADD PUSH1 0x0 KECCAK256 SLOAD PUSH2 0xA7E SWAP2 SWAP1 PUSH2 0x1612 JUMP JUMPDEST PUSH1 0x0 DUP1 DUP7 DUP2 MSTORE PUSH1 0x20 ADD SWAP1 DUP2 MSTORE PUSH1 0x20 ADD PUSH1 0x0 KECCAK256 DUP2 SWAP1 SSTORE POP PUSH2 0xA9E DUP5 DUP3 PUSH2 0xBCD JUMP JUMPDEST SWAP2 POP POP SWAP3 SWAP2 POP POP JUMP JUMPDEST PUSH1 0x5 PUSH1 0x0 PUSH1 0x4 DUP4 DUP2 SLOAD DUP2 LT PUSH2 0xABF JUMPI PUSH2 0xABE PUSH2 0x1275 JUMP JUMPDEST JUMPDEST SWAP1 PUSH1 0x0 MSTORE PUSH1 0x20 PUSH1 0x0 KECCAK256 ADD SLOAD DUP2 MSTORE PUSH1 0x20 ADD SWAP1 DUP2 MSTORE PUSH1 0x20 ADD PUSH1 0x0 KECCAK256 PUSH1 0x0 SWAP1 SLOAD SWAP1 PUSH2 0x100 EXP SWAP1 DIV PUSH20 0xFFFFFFFFFFFFFFFFFFFFFFFFFFFFFFFFFFFFFFFF AND PUSH20 0xFFFFFFFFFFFFFFFFFFFFFFFFFFFFFFFFFFFFFFFF AND PUSH2 0x8FC SELFBALANCE SWAP1 DUP2 ISZERO MUL SWAP1 PUSH1 0x40 MLOAD PUSH1 0x0 PUSH1 0x40 MLOAD DUP1 DUP4 SUB DUP2 DUP6 DUP9 DUP9 CALL SWAP4 POP POP POP POP ISZERO DUP1 ISZERO PUSH2 0xB3E JUMPI RETURNDATASIZE PUSH1 0x0 DUP1 RETURNDATACOPY RETURNDATASIZE PUSH1 0x0 REVERT JUMPDEST POP PUSH1 0x6 PUSH1 0x4 DUP3 DUP2 SLOAD DUP2 LT PUSH2 0xB55 JUMPI PUSH2 0xB54 PUSH2 0x1275 JUMP JUMPDEST JUMPDEST SWAP1 PUSH1 0x0 MSTORE PUSH1 0x20 PUSH1 0x0 KECCAK256 ADD SLOAD SWAP1 DUP1 PUSH1 0x1 DUP2 SLOAD ADD DUP1 DUP3 SSTORE DUP1 SWAP2 POP POP PUSH1 0x1 SWAP1 SUB SWAP1 PUSH1 0x0 MSTORE PUSH1 0x20 PUSH1 0x0 KECCAK256 ADD PUSH1 0x0 SWAP1 SWAP2 SWAP1 SWAP2 SWAP1 SWAP2 POP SSTORE PUSH2 0xB8E PUSH2 0xC00 JUMP JUMPDEST POP JUMP JUMPDEST PUSH1 0x0 DUP5 DUP5 DUP5 DUP5 PUSH1 0x40 MLOAD PUSH1 0x20 ADD PUSH2 0xBAA SWAP5 SWAP4 SWAP3 SWAP2 SWAP1 PUSH2 0x1646 JUMP JUMPDEST PUSH1 0x40 MLOAD PUSH1 0x20 DUP2 DUP4 SUB SUB DUP2 MSTORE SWAP1 PUSH1 0x40 MSTORE DUP1 MLOAD SWAP1 PUSH1 0x20 ADD KECCAK256 PUSH1 0x0 SHR SWAP1 POP SWAP5 SWAP4 POP POP POP POP JUMP JUMPDEST PUSH1 0x0 DUP3 DUP3 PUSH1 0x40 MLOAD PUSH1 0x20 ADD PUSH2 0xBE2 SWAP3 SWAP2 SWAP1 PUSH2 0x16AC JUMP JUMPDEST PUSH1 0x40 MLOAD PUSH1 0x20 DUP2 DUP4 SUB SUB DUP2 MSTORE SWAP1 PUSH1 0x40 MSTORE DUP1 MLOAD SWAP1 PUSH1 0x20 ADD KECCAK256 SWAP1 POP SWAP3 SWAP2 POP POP JUMP JUMPDEST PUSH1 0x0 JUMPDEST PUSH1 0x2 DUP1 SLOAD SWAP1 POP DUP2 LT ISZERO PUSH2 0xCB0 JUMPI PUSH1 0x3 PUSH1 0x0 PUSH1 0x2 DUP4 DUP2 SLOAD DUP2 LT PUSH2 0xC28 JUMPI PUSH2 0xC27 PUSH2 0x1275 JUMP JUMPDEST JUMPDEST SWAP1 PUSH1 0x0 MSTORE PUSH1 0x20 PUSH1 0x0 KECCAK256 ADD PUSH1 0x0 SWAP1 SLOAD SWAP1 PUSH2 0x100 EXP SWAP1 DIV PUSH20 0xFFFFFFFFFFFFFFFFFFFFFFFFFFFFFFFFFFFFFFFF AND PUSH20 0xFFFFFFFFFFFFFFFFFFFFFFFFFFFFFFFFFFFFFFFF AND PUSH20 0xFFFFFFFFFFFFFFFFFFFFFFFFFFFFFFFFFFFFFFFF AND DUP2 MSTORE PUSH1 0x20 ADD SWAP1 DUP2 MSTORE PUSH1 0x20 ADD PUSH1 0x0 KECCAK256 PUSH1 0x0 PUSH2 0x100 EXP DUP2 SLOAD SWAP1 PUSH1 0xFF MUL NOT AND SWAP1 SSTORE DUP1 DUP1 PUSH2 0xCA8 SWAP1 PUSH2 0x16D8 JUMP JUMPDEST SWAP2 POP POP PUSH2 0xC03 JUMP JUMPDEST POP PUSH1 0x0 PUSH8 0xFFFFFFFFFFFFFFFF DUP2 GT ISZERO PUSH2 0xCCC JUMPI PUSH2 0xCCB PUSH2 0x1720 JUMP JUMPDEST JUMPDEST PUSH1 0x40 MLOAD SWAP1 DUP1 DUP3 MSTORE DUP1 PUSH1 0x20 MUL PUSH1 0x20 ADD DUP3 ADD PUSH1 0x40 MSTORE DUP1 ISZERO PUSH2 0xCFA JUMPI DUP2 PUSH1 0x20 ADD PUSH1 0x20 DUP3 MUL DUP1 CALLDATASIZE DUP4 CALLDATACOPY DUP1 DUP3 ADD SWAP2 POP POP SWAP1 POP JUMPDEST POP PUSH1 0x2 SWAP1 DUP1 MLOAD SWAP1 PUSH1 0x20 ADD SWAP1 PUSH2 0xD10 SWAP3 SWAP2 SWAP1 PUSH2 0xDEB JUMP JUMPDEST POP PUSH1 0x0 JUMPDEST PUSH1 0x4 DUP1 SLOAD SWAP1 POP DUP2 LT ISZERO PUSH2 0xD88 JUMPI PUSH1 0x5 PUSH1 0x0 PUSH1 0x4 DUP4 DUP2 SLOAD DUP2 LT PUSH2 0xD39 JUMPI PUSH2 0xD38 PUSH2 0x1275 JUMP JUMPDEST JUMPDEST SWAP1 PUSH1 0x0 MSTORE PUSH1 0x20 PUSH1 0x0 KECCAK256 ADD SLOAD DUP2 MSTORE PUSH1 0x20 ADD SWAP1 DUP2 MSTORE PUSH1 0x20 ADD PUSH1 0x0 KECCAK256 PUSH1 0x0 PUSH2 0x100 EXP DUP2 SLOAD SWAP1 PUSH20 0xFFFFFFFFFFFFFFFFFFFFFFFFFFFFFFFFFFFFFFFF MUL NOT AND SWAP1 SSTORE DUP1 DUP1 PUSH2 0xD80 SWAP1 PUSH2 0x16D8 JUMP JUMPDEST SWAP2 POP POP PUSH2 0xD14 JUMP JUMPDEST POP PUSH1 0x0 PUSH8 0xFFFFFFFFFFFFFFFF DUP2 GT ISZERO PUSH2 0xDA4 JUMPI PUSH2 0xDA3 PUSH2 0x1720 JUMP JUMPDEST JUMPDEST PUSH1 0x40 MLOAD SWAP1 DUP1 DUP3 MSTORE DUP1 PUSH1 0x20 MUL PUSH1 0x20 ADD DUP3 ADD PUSH1 0x40 MSTORE DUP1 ISZERO PUSH2 0xDD2 JUMPI DUP2 PUSH1 0x20 ADD PUSH1 0x20 DUP3 MUL DUP1 CALLDATASIZE DUP4 CALLDATACOPY DUP1 DUP3 ADD SWAP2 POP POP SWAP1 POP JUMPDEST POP PUSH1 0x4 SWAP1 DUP1 MLOAD SWAP1 PUSH1 0x20 ADD SWAP1 PUSH2 0xDE8 SWAP3 SWAP2 SWAP1 PUSH2 0xE75 JUMP JUMPDEST POP JUMP JUMPDEST DUP3 DUP1 SLOAD DUP3 DUP3 SSTORE SWAP1 PUSH1 0x0 MSTORE PUSH1 0x20 PUSH1 0x0 KECCAK256 SWAP1 DUP2 ADD SWAP3 DUP3 ISZERO PUSH2 0xE64 JUMPI SWAP2 PUSH1 0x20 MUL DUP3 ADD JUMPDEST DUP3 DUP2 GT ISZERO PUSH2 0xE63 JUMPI DUP3 MLOAD DUP3 PUSH1 0x0 PUSH2 0x100 EXP DUP2 SLOAD DUP2 PUSH20 0xFFFFFFFFFFFFFFFFFFFFFFFFFFFFFFFFFFFFFFFF MUL NOT AND SWAP1 DUP4 PUSH20 0xFFFFFFFFFFFFFFFFFFFFFFFFFFFFFFFFFFFFFFFF AND MUL OR SWAP1 SSTORE POP SWAP2 PUSH1 0x20 ADD SWAP2 SWAP1 PUSH1 0x1 ADD SWAP1 PUSH2 0xE0B JUMP JUMPDEST JUMPDEST POP SWAP1 POP PUSH2 0xE71 SWAP2 SWAP1 PUSH2 0xEC2 JUMP JUMPDEST POP SWAP1 JUMP JUMPDEST DUP3 DUP1 SLOAD DUP3 DUP3 SSTORE SWAP1 PUSH1 0x0 MSTORE PUSH1 0x20 PUSH1 0x0 KECCAK256 SWAP1 DUP2 ADD SWAP3 DUP3 ISZERO PUSH2 0xEB1 JUMPI SWAP2 PUSH1 0x20 MUL DUP3 ADD JUMPDEST DUP3 DUP2 GT ISZERO PUSH2 0xEB0 JUMPI DUP3 MLOAD DUP3 SSTORE SWAP2 PUSH1 0x20 ADD SWAP2 SWAP1 PUSH1 0x1 ADD SWAP1 PUSH2 0xE95 JUMP JUMPDEST JUMPDEST POP SWAP1 POP PUSH2 0xEBE SWAP2 SWAP1 PUSH2 0xEC2 JUMP JUMPDEST POP SWAP1 JUMP JUMPDEST JUMPDEST DUP1 DUP3 GT ISZERO PUSH2 0xEDB JUMPI PUSH1 0x0 DUP2 PUSH1 0x0 SWAP1 SSTORE POP PUSH1 0x1 ADD PUSH2 0xEC3 JUMP JUMPDEST POP SWAP1 JUMP JUMPDEST PUSH1 0x0 DUP2 SWAP1 POP SWAP2 SWAP1 POP JUMP JUMPDEST PUSH2 0xEF2 DUP2 PUSH2 0xEDF JUMP JUMPDEST DUP3 MSTORE POP POP JUMP JUMPDEST PUSH1 0x0 PUSH1 0x20 DUP3 ADD SWAP1 POP PUSH2 0xF0D PUSH1 0x0 DUP4 ADD DUP5 PUSH2 0xEE9 JUMP JUMPDEST SWAP3 SWAP2 POP POP JUMP JUMPDEST PUSH1 0x0 DUP1 REVERT JUMPDEST PUSH2 0xF21 DUP2 PUSH2 0xEDF JUMP JUMPDEST DUP2 EQ PUSH2 0xF2C JUMPI PUSH1 0x0 DUP1 REVERT JUMPDEST POP JUMP JUMPDEST PUSH1 0x0 DUP2 CALLDATALOAD SWAP1 POP PUSH2 0xF3E DUP2 PUSH2 0xF18 JUMP JUMPDEST SWAP3 SWAP2 POP POP JUMP JUMPDEST PUSH1 0x0 PUSH1 0x20 DUP3 DUP5 SUB SLT ISZERO PUSH2 0xF5A JUMPI PUSH2 0xF59 PUSH2 0xF13 JUMP JUMPDEST JUMPDEST PUSH1 0x0 PUSH2 0xF68 DUP5 DUP3 DUP6 ADD PUSH2 0xF2F JUMP JUMPDEST SWAP2 POP POP SWAP3 SWAP2 POP POP JUMP JUMPDEST PUSH1 0x0 DUP2 MLOAD SWAP1 POP SWAP2 SWAP1 POP JUMP JUMPDEST PUSH1 0x0 DUP3 DUP3 MSTORE PUSH1 0x20 DUP3 ADD SWAP1 POP SWAP3 SWAP2 POP POP JUMP JUMPDEST PUSH1 0x0 DUP2 SWAP1 POP PUSH1 0x20 DUP3 ADD SWAP1 POP SWAP2 SWAP1 POP JUMP JUMPDEST PUSH1 0x0 PUSH20 0xFFFFFFFFFFFFFFFFFFFFFFFFFFFFFFFFFFFFFFFF DUP3 AND SWAP1 POP SWAP2 SWAP1 POP JUMP JUMPDEST PUSH1 0x0 PUSH2 0xFC8 DUP3 PUSH2 0xF9D JUMP JUMPDEST SWAP1 POP SWAP2 SWAP1 POP JUMP JUMPDEST PUSH2 0xFD8 DUP2 PUSH2 0xFBD JUMP JUMPDEST DUP3 MSTORE POP POP JUMP JUMPDEST PUSH1 0x0 PUSH2 0xFEA DUP4 DUP4 PUSH2 0xFCF JUMP JUMPDEST PUSH1 0x20 DUP4 ADD SWAP1 POP SWAP3 SWAP2 POP POP JUMP JUMPDEST PUSH1 0x0 PUSH1 0x20 DUP3 ADD SWAP1 POP SWAP2 SWAP1 POP JUMP JUMPDEST PUSH1 0x0 PUSH2 0x100E DUP3 PUSH2 0xF71 JUMP JUMPDEST PUSH2 0x1018 DUP2 DUP6 PUSH2 0xF7C JUMP JUMPDEST SWAP4 POP PUSH2 0x1023 DUP4 PUSH2 0xF8D JUMP JUMPDEST DUP1 PUSH1 0x0 JUMPDEST DUP4 DUP2 LT ISZERO PUSH2 0x1054 JUMPI DUP2 MLOAD PUSH2 0x103B DUP9 DUP3 PUSH2 0xFDE JUMP JUMPDEST SWAP8 POP PUSH2 0x1046 DUP4 PUSH2 0xFF6 JUMP JUMPDEST SWAP3 POP POP PUSH1 0x1 DUP2 ADD SWAP1 POP PUSH2 0x1027 JUMP JUMPDEST POP DUP6 SWAP4 POP POP POP POP SWAP3 SWAP2 POP POP JUMP JUMPDEST PUSH1 0x0 PUSH1 0x20 DUP3 ADD SWAP1 POP DUP2 DUP2 SUB PUSH1 0x0 DUP4 ADD MSTORE PUSH2 0x107B DUP2 DUP5 PUSH2 0x1003 JUMP JUMPDEST SWAP1 POP SWAP3 SWAP2 POP POP JUMP JUMPDEST PUSH2 0x108C DUP2 PUSH2 0xFBD JUMP JUMPDEST DUP3 MSTORE POP POP JUMP JUMPDEST PUSH1 0x0 PUSH1 0x20 DUP3 ADD SWAP1 POP PUSH2 0x10A7 PUSH1 0x0 DUP4 ADD DUP5 PUSH2 0x1083 JUMP JUMPDEST SWAP3 SWAP2 POP POP JUMP JUMPDEST PUSH1 0x0 DUP2 SWAP1 POP SWAP2 SWAP1 POP JUMP JUMPDEST PUSH2 0x10C0 DUP2 PUSH2 0x10AD JUMP JUMPDEST DUP2 EQ PUSH2 0x10CB JUMPI PUSH1 0x0 DUP1 REVERT JUMPDEST POP JUMP JUMPDEST PUSH1 0x0 DUP2 CALLDATALOAD SWAP1 POP PUSH2 0x10DD DUP2 PUSH2 0x10B7 JUMP JUMPDEST SWAP3 SWAP2 POP POP JUMP JUMPDEST PUSH1 0x0 DUP1 PUSH1 0x40 DUP4 DUP6 SUB SLT ISZERO PUSH2 0x10FA JUMPI PUSH2 0x10F9 PUSH2 0xF13 JUMP JUMPDEST JUMPDEST PUSH1 0x0 PUSH2 0x1108 DUP6 DUP3 DUP7 ADD PUSH2 0x10CE JUMP JUMPDEST SWAP3 POP POP PUSH1 0x20 PUSH2 0x1119 DUP6 DUP3 DUP7 ADD PUSH2 0xF2F JUMP JUMPDEST SWAP2 POP POP SWAP3 POP SWAP3 SWAP1 POP JUMP JUMPDEST PUSH1 0x0 PUSH2 0x112E DUP3 PUSH2 0xF9D JUMP JUMPDEST SWAP1 POP SWAP2 SWAP1 POP JUMP JUMPDEST PUSH2 0x113E DUP2 PUSH2 0x1123 JUMP JUMPDEST DUP3 MSTORE POP POP JUMP JUMPDEST PUSH1 0x0 PUSH1 0x20 DUP3 ADD SWAP1 POP PUSH2 0x1159 PUSH1 0x0 DUP4 ADD DUP5 PUSH2 0x1135 JUMP JUMPDEST SWAP3 SWAP2 POP POP JUMP JUMPDEST PUSH1 0x0 DUP2 ISZERO ISZERO SWAP1 POP SWAP2 SWAP1 POP JUMP JUMPDEST PUSH2 0x1174 DUP2 PUSH2 0x115F JUMP JUMPDEST DUP3 MSTORE POP POP JUMP JUMPDEST PUSH1 0x0 PUSH1 0x20 DUP3 ADD SWAP1 POP PUSH2 0x118F PUSH1 0x0 DUP4 ADD DUP5 PUSH2 0x116B JUMP JUMPDEST SWAP3 SWAP2 POP POP JUMP JUMPDEST PUSH1 0x0 DUP3 DUP3 MSTORE PUSH1 0x20 DUP3 ADD SWAP1 POP SWAP3 SWAP2 POP POP JUMP JUMPDEST PUSH32 0x5468657265206973206E6F207375636820726F756E6400000000000000000000 PUSH1 0x0 DUP3 ADD MSTORE POP JUMP JUMPDEST PUSH1 0x0 PUSH2 0x11DC PUSH1 0x16 DUP4 PUSH2 0x1195 JUMP JUMPDEST SWAP2 POP PUSH2 0x11E7 DUP3 PUSH2 0x11A6 JUMP JUMPDEST PUSH1 0x20 DUP3 ADD SWAP1 POP SWAP2 SWAP1 POP JUMP JUMPDEST PUSH1 0x0 PUSH1 0x20 DUP3 ADD SWAP1 POP DUP2 DUP2 SUB PUSH1 0x0 DUP4 ADD MSTORE PUSH2 0x120B DUP2 PUSH2 0x11CF JUMP JUMPDEST SWAP1 POP SWAP2 SWAP1 POP JUMP JUMPDEST PUSH32 0x4E487B7100000000000000000000000000000000000000000000000000000000 PUSH1 0x0 MSTORE PUSH1 0x11 PUSH1 0x4 MSTORE PUSH1 0x24 PUSH1 0x0 REVERT JUMPDEST PUSH1 0x0 PUSH2 0x124C DUP3 PUSH2 0xEDF JUMP JUMPDEST SWAP2 POP PUSH2 0x1257 DUP4 PUSH2 0xEDF JUMP JUMPDEST SWAP3 POP DUP3 DUP3 SUB SWAP1 POP DUP2 DUP2 GT ISZERO PUSH2 0x126F JUMPI PUSH2 0x126E PUSH2 0x1212 JUMP JUMPDEST JUMPDEST SWAP3 SWAP2 POP POP JUMP JUMPDEST PUSH32 0x4E487B7100000000000000000000000000000000000000000000000000000000 PUSH1 0x0 MSTORE PUSH1 0x32 PUSH1 0x4 MSTORE PUSH1 0x24 PUSH1 0x0 REVERT JUMPDEST PUSH32 0x4F6E6C7920565246436F6F7264696E61746F722063616E2066756C66696C6C00 PUSH1 0x0 DUP3 ADD MSTORE POP JUMP JUMPDEST PUSH1 0x0 PUSH2 0x12DA PUSH1 0x1F DUP4 PUSH2 0x1195 JUMP JUMPDEST SWAP2 POP PUSH2 0x12E5 DUP3 PUSH2 0x12A4 JUMP JUMPDEST PUSH1 0x20 DUP3 ADD SWAP1 POP SWAP2 SWAP1 POP JUMP JUMPDEST PUSH1 0x0 PUSH1 0x20 DUP3 ADD SWAP1 POP DUP2 DUP2 SUB PUSH1 0x0 DUP4 ADD MSTORE PUSH2 0x1309 DUP2 PUSH2 0x12CD JUMP JUMPDEST SWAP1 POP SWAP2 SWAP1 POP JUMP JUMPDEST PUSH1 0x0 DUP2 MLOAD SWAP1 POP PUSH2 0x131F DUP2 PUSH2 0xF18 JUMP JUMPDEST SWAP3 SWAP2 POP POP JUMP JUMPDEST PUSH1 0x0 PUSH1 0x20 DUP3 DUP5 SUB SLT ISZERO PUSH2 0x133B JUMPI PUSH2 0x133A PUSH2 0xF13 JUMP JUMPDEST JUMPDEST PUSH1 0x0 PUSH2 0x1349 DUP5 DUP3 DUP6 ADD PUSH2 0x1310 JUMP JUMPDEST SWAP2 POP POP SWAP3 SWAP2 POP POP JUMP JUMPDEST PUSH32 0x4E6F7420656E6F756768204C494E4B20696E20636F6E74726163740000000000 PUSH1 0x0 DUP3 ADD MSTORE POP JUMP JUMPDEST PUSH1 0x0 PUSH2 0x1388 PUSH1 0x1B DUP4 PUSH2 0x1195 JUMP JUMPDEST SWAP2 POP PUSH2 0x1393 DUP3 PUSH2 0x1352 JUMP JUMPDEST PUSH1 0x20 DUP3 ADD SWAP1 POP SWAP2 SWAP1 POP JUMP JUMPDEST PUSH1 0x0 PUSH1 0x20 DUP3 ADD SWAP1 POP DUP2 DUP2 SUB PUSH1 0x0 DUP4 ADD MSTORE PUSH2 0x13B7 DUP2 PUSH2 0x137B JUMP JUMPDEST SWAP1 POP SWAP2 SWAP1 POP JUMP JUMPDEST PUSH32 0x4E487B7100000000000000000000000000000000000000000000000000000000 PUSH1 0x0 MSTORE PUSH1 0x12 PUSH1 0x4 MSTORE PUSH1 0x24 PUSH1 0x0 REVERT JUMPDEST PUSH1 0x0 PUSH2 0x13F8 DUP3 PUSH2 0xEDF JUMP JUMPDEST SWAP2 POP PUSH2 0x1403 DUP4 PUSH2 0xEDF JUMP JUMPDEST SWAP3 POP DUP3 PUSH2 0x1413 JUMPI PUSH2 0x1412 PUSH2 0x13BE JUMP JUMPDEST JUMPDEST DUP3 DUP3 MOD SWAP1 POP SWAP3 SWAP2 POP POP JUMP JUMPDEST PUSH1 0x0 DUP2 PUSH1 0x60 SHL SWAP1 POP SWAP2 SWAP1 POP JUMP JUMPDEST PUSH1 0x0 PUSH2 0x1436 DUP3 PUSH2 0x141E JUMP JUMPDEST SWAP1 POP SWAP2 SWAP1 POP JUMP JUMPDEST PUSH1 0x0 PUSH2 0x1448 DUP3 PUSH2 0x142B JUMP JUMPDEST SWAP1 POP SWAP2 SWAP1 POP JUMP JUMPDEST PUSH2 0x1460 PUSH2 0x145B DUP3 PUSH2 0xFBD JUMP JUMPDEST PUSH2 0x143D JUMP JUMPDEST DUP3 MSTORE POP POP JUMP JUMPDEST PUSH1 0x0 DUP2 SWAP1 POP SWAP2 SWAP1 POP JUMP JUMPDEST PUSH2 0x1481 PUSH2 0x147C DUP3 PUSH2 0xEDF JUMP JUMPDEST PUSH2 0x1466 JUMP JUMPDEST DUP3 MSTORE POP POP JUMP JUMPDEST PUSH1 0x0 PUSH2 0x1493 DUP3 DUP6 PUSH2 0x144F JUMP JUMPDEST PUSH1 0x14 DUP3 ADD SWAP2 POP PUSH2 0x14A3 DUP3 DUP5 PUSH2 0x1470 JUMP JUMPDEST PUSH1 0x20 DUP3 ADD SWAP2 POP DUP2 SWAP1 POP SWAP4 SWAP3 POP POP POP JUMP JUMPDEST PUSH2 0x14BC DUP2 PUSH2 0x10AD JUMP JUMPDEST DUP3 MSTORE POP POP JUMP JUMPDEST PUSH1 0x0 PUSH1 0x40 DUP3 ADD SWAP1 POP PUSH2 0x14D7 PUSH1 0x0 DUP4 ADD DUP6 PUSH2 0x14B3 JUMP JUMPDEST PUSH2 0x14E4 PUSH1 0x20 DUP4 ADD DUP5 PUSH2 0xEE9 JUMP JUMPDEST SWAP4 SWAP3 POP POP POP JUMP JUMPDEST PUSH1 0x0 DUP2 MLOAD SWAP1 POP SWAP2 SWAP1 POP JUMP JUMPDEST PUSH1 0x0 DUP3 DUP3 MSTORE PUSH1 0x20 DUP3 ADD SWAP1 POP SWAP3 SWAP2 POP POP JUMP JUMPDEST PUSH1 0x0 JUMPDEST DUP4 DUP2 LT ISZERO PUSH2 0x1525 JUMPI DUP1 DUP3 ADD MLOAD DUP2 DUP5 ADD MSTORE PUSH1 0x20 DUP2 ADD SWAP1 POP PUSH2 0x150A JUMP JUMPDEST PUSH1 0x0 DUP5 DUP5 ADD MSTORE POP POP POP POP JUMP JUMPDEST PUSH1 0x0 PUSH1 0x1F NOT PUSH1 0x1F DUP4 ADD AND SWAP1 POP SWAP2 SWAP1 POP JUMP JUMPDEST PUSH1 0x0 PUSH2 0x154D DUP3 PUSH2 0x14EB JUMP JUMPDEST PUSH2 0x1557 DUP2 DUP6 PUSH2 0x14F6 JUMP JUMPDEST SWAP4 POP PUSH2 0x1567 DUP2 DUP6 PUSH1 0x20 DUP7 ADD PUSH2 0x1507 JUMP JUMPDEST PUSH2 0x1570 DUP2 PUSH2 0x1531 JUMP JUMPDEST DUP5 ADD SWAP2 POP POP SWAP3 SWAP2 POP POP JUMP JUMPDEST PUSH1 0x0 PUSH1 0x60 DUP3 ADD SWAP1 POP PUSH2 0x1590 PUSH1 0x0 DUP4 ADD DUP7 PUSH2 0x1083 JUMP JUMPDEST PUSH2 0x159D PUSH1 0x20 DUP4 ADD DUP6 PUSH2 0xEE9 JUMP JUMPDEST DUP2 DUP2 SUB PUSH1 0x40 DUP4 ADD MSTORE PUSH2 0x15AF DUP2 DUP5 PUSH2 0x1542 JUMP JUMPDEST SWAP1 POP SWAP5 SWAP4 POP POP POP POP JUMP JUMPDEST PUSH2 0x15C2 DUP2 PUSH2 0x115F JUMP JUMPDEST DUP2 EQ PUSH2 0x15CD JUMPI PUSH1 0x0 DUP1 REVERT JUMPDEST POP JUMP JUMPDEST PUSH1 0x0 DUP2 MLOAD SWAP1 POP PUSH2 0x15DF DUP2 PUSH2 0x15B9 JUMP JUMPDEST SWAP3 SWAP2 POP POP JUMP JUMPDEST PUSH1 0x0 PUSH1 0x20 DUP3 DUP5 SUB SLT ISZERO PUSH2 0x15FB JUMPI PUSH2 0x15FA PUSH2 0xF13 JUMP JUMPDEST JUMPDEST PUSH1 0x0 PUSH2 0x1609 DUP5 DUP3 DUP6 ADD PUSH2 0x15D0 JUMP JUMPDEST SWAP2 POP POP SWAP3 SWAP2 POP POP JUMP JUMPDEST PUSH1 0x0 PUSH2 0x161D DUP3 PUSH2 0xEDF JUMP JUMPDEST SWAP2 POP PUSH2 0x1628 DUP4 PUSH2 0xEDF JUMP JUMPDEST SWAP3 POP DUP3 DUP3 ADD SWAP1 POP DUP1 DUP3 GT ISZERO PUSH2 0x1640 JUMPI PUSH2 0x163F PUSH2 0x1212 JUMP JUMPDEST JUMPDEST SWAP3 SWAP2 POP POP JUMP JUMPDEST PUSH1 0x0 PUSH1 0x80 DUP3 ADD SWAP1 POP PUSH2 0x165B PUSH1 0x0 DUP4 ADD DUP8 PUSH2 0x14B3 JUMP JUMPDEST PUSH2 0x1668 PUSH1 0x20 DUP4 ADD DUP7 PUSH2 0xEE9 JUMP JUMPDEST PUSH2 0x1675 PUSH1 0x40 DUP4 ADD DUP6 PUSH2 0x1083 JUMP JUMPDEST PUSH2 0x1682 PUSH1 0x60 DUP4 ADD DUP5 PUSH2 0xEE9 JUMP JUMPDEST SWAP6 SWAP5 POP POP POP POP POP JUMP JUMPDEST PUSH1 0x0 DUP2 SWAP1 POP SWAP2 SWAP1 POP JUMP JUMPDEST PUSH2 0x16A6 PUSH2 0x16A1 DUP3 PUSH2 0x10AD JUMP JUMPDEST PUSH2 0x168B JUMP JUMPDEST DUP3 MSTORE POP POP JUMP JUMPDEST PUSH1 0x0 PUSH2 0x16B8 DUP3 DUP6 PUSH2 0x1695 JUMP JUMPDEST PUSH1 0x20 DUP3 ADD SWAP2 POP PUSH2 0x16C8 DUP3 DUP5 PUSH2 0x1470 JUMP JUMPDEST PUSH1 0x20 DUP3 ADD SWAP2 POP DUP2 SWAP1 POP SWAP4 SWAP3 POP POP POP JUMP JUMPDEST PUSH1 0x0 PUSH2 0x16E3 DUP3 PUSH2 0xEDF JUMP JUMPDEST SWAP2 POP PUSH32 0xFFFFFFFFFFFFFFFFFFFFFFFFFFFFFFFFFFFFFFFFFFFFFFFFFFFFFFFFFFFFFFFF DUP3 SUB PUSH2 0x1715 JUMPI PUSH2 0x1714 PUSH2 0x1212 JUMP JUMPDEST JUMPDEST PUSH1 0x1 DUP3 ADD SWAP1 POP SWAP2 SWAP1 POP JUMP JUMPDEST PUSH32 0x4E487B7100000000000000000000000000000000000000000000000000000000 PUSH1 0x0 MSTORE PUSH1 0x41 PUSH1 0x4 MSTORE PUSH1 0x24 PUSH1 0x0 REVERT INVALID LOG2 PUSH5 0x6970667358 0x22 SLT KECCAK256 0xE9 SWAP9 0xB9 0xBC AND BASEFEE 0x5C 0xFC LOG3 DUP6 0x1F RETURNDATASIZE 0xBE 0xCE 0x4E 0xB0 GASLIMIT PUSH15 0x188EEE32801A3767E48BCAF3B56664 PUSH20 0x6F6C634300081100330000000000000000000000 "
				},
				"gasEstimates": {
					"creation": {
						"codeDepositCost": "1204200",
						"executionCost": "infinite",
						"totalCost": "infinite"
					},
					"external": {
						"enter()": "149006",
						"getBalance()": "340",
						"getPlayers()": "infinite",
						"getWinnerByRound(uint256)": "infinite",
						"isPickingWinner()": "2515",
						"owner()": "2625",
						"pickWinner()": "infinite",
						"playerTickets(uint256)": "2861",
						"players(uint256)": "5066",
						"rawFulfillRandomness(bytes32,uint256)": "infinite",
						"tickets(uint256)": "infinite",
						"winningTickets(uint256)": "infinite"
					},
					"internal": {
						"addPlayers(address)": "75214",
						"fulfillRandomness(bytes32,uint256)": "infinite",
						"generateTicket()": "infinite",
						"getRandomNumber()": "infinite",
						"payWinner(uint256)": "infinite",
						"resetRound()": "infinite"
					}
				},
				"methodIdentifiers": {
					"enter()": "e97dcb62",
					"getBalance()": "12065fe0",
					"getPlayers()": "8b5b9ccc",
					"getWinnerByRound(uint256)": "82b0db4f",
					"isPickingWinner()": "c688d10a",
					"owner()": "8da5cb5b",
					"pickWinner()": "5d495aea",
					"playerTickets(uint256)": "a231b484",
					"players(uint256)": "f71d96cb",
					"rawFulfillRandomness(bytes32,uint256)": "94985ddd",
					"tickets(uint256)": "50b44712",
					"winningTickets(uint256)": "ed6c7931"
				}
			},
			"storageLayout": {
				"storage": [
					{
						"astId": 79,
						"contract": "truffle/contracts/Dhakon.v0.2.sol:Dhakon",
						"label": "nonces",
						"offset": 0,
						"slot": "0",
						"type": "t_mapping(t_bytes32,t_uint256)"
					},
					{
						"astId": 272,
						"contract": "truffle/contracts/Dhakon.v0.2.sol:Dhakon",
						"label": "owner",
						"offset": 0,
						"slot": "1",
						"type": "t_address"
					},
					{
						"astId": 275,
						"contract": "truffle/contracts/Dhakon.v0.2.sol:Dhakon",
						"label": "players",
						"offset": 0,
						"slot": "2",
						"type": "t_array(t_address)dyn_storage"
					},
					{
						"astId": 279,
						"contract": "truffle/contracts/Dhakon.v0.2.sol:Dhakon",
						"label": "checkPlayers",
						"offset": 0,
						"slot": "3",
						"type": "t_mapping(t_address,t_bool)"
					},
					{
						"astId": 282,
						"contract": "truffle/contracts/Dhakon.v0.2.sol:Dhakon",
						"label": "tickets",
						"offset": 0,
						"slot": "4",
						"type": "t_array(t_uint256)dyn_storage"
					},
					{
						"astId": 286,
						"contract": "truffle/contracts/Dhakon.v0.2.sol:Dhakon",
						"label": "playerTickets",
						"offset": 0,
						"slot": "5",
						"type": "t_mapping(t_uint256,t_address_payable)"
					},
					{
						"astId": 289,
						"contract": "truffle/contracts/Dhakon.v0.2.sol:Dhakon",
						"label": "winningTickets",
						"offset": 0,
						"slot": "6",
						"type": "t_array(t_uint256)dyn_storage"
					},
					{
						"astId": 291,
						"contract": "truffle/contracts/Dhakon.v0.2.sol:Dhakon",
						"label": "isPickingWinner",
						"offset": 0,
						"slot": "7",
						"type": "t_bool"
					},
					{
						"astId": 293,
						"contract": "truffle/contracts/Dhakon.v0.2.sol:Dhakon",
						"label": "keyHash",
						"offset": 0,
						"slot": "8",
						"type": "t_bytes32"
					},
					{
						"astId": 295,
						"contract": "truffle/contracts/Dhakon.v0.2.sol:Dhakon",
						"label": "fee",
						"offset": 0,
						"slot": "9",
						"type": "t_uint256"
					}
				],
				"types": {
					"t_address": {
						"encoding": "inplace",
						"label": "address",
						"numberOfBytes": "20"
					},
					"t_address_payable": {
						"encoding": "inplace",
						"label": "address payable",
						"numberOfBytes": "20"
					},
					"t_array(t_address)dyn_storage": {
						"base": "t_address",
						"encoding": "dynamic_array",
						"label": "address[]",
						"numberOfBytes": "32"
					},
					"t_array(t_uint256)dyn_storage": {
						"base": "t_uint256",
						"encoding": "dynamic_array",
						"label": "uint256[]",
						"numberOfBytes": "32"
					},
					"t_bool": {
						"encoding": "inplace",
						"label": "bool",
						"numberOfBytes": "1"
					},
					"t_bytes32": {
						"encoding": "inplace",
						"label": "bytes32",
						"numberOfBytes": "32"
					},
					"t_mapping(t_address,t_bool)": {
						"encoding": "mapping",
						"key": "t_address",
						"label": "mapping(address => bool)",
						"numberOfBytes": "32",
						"value": "t_bool"
					},
					"t_mapping(t_bytes32,t_uint256)": {
						"encoding": "mapping",
						"key": "t_bytes32",
						"label": "mapping(bytes32 => uint256)",
						"numberOfBytes": "32",
						"value": "t_uint256"
					},
					"t_mapping(t_uint256,t_address_payable)": {
						"encoding": "mapping",
						"key": "t_uint256",
						"label": "mapping(uint256 => address payable)",
						"numberOfBytes": "32",
						"value": "t_address_payable"
					},
					"t_uint256": {
						"encoding": "inplace",
						"label": "uint256",
						"numberOfBytes": "32"
					}
				}
			},
			"userdoc": {
				"kind": "user",
				"methods": {},
				"version": 1
			}
		}
	}
}