{
	"truffle/contracts/Dhakon.v0.2.sol": {
		"Dhakon": {
			"abi": [
				{
					"inputs": [
						{
							"internalType": "address",
							"name": "_VRFCoordinator",
							"type": "address"
						},
						{
							"internalType": "address",
							"name": "_LINKToken",
							"type": "address"
						},
						{
							"internalType": "bytes32",
							"name": "_keyHash",
							"type": "bytes32"
						},
						{
							"internalType": "uint256",
							"name": "_fee",
							"type": "uint256"
						}
					],
					"stateMutability": "nonpayable",
					"type": "constructor"
				},
				{
					"inputs": [],
					"name": "enter",
					"outputs": [],
					"stateMutability": "payable",
					"type": "function"
				},
				{
					"inputs": [],
					"name": "generateTicket",
					"outputs": [
						{
							"internalType": "uint256",
							"name": "",
							"type": "uint256"
						}
					],
					"stateMutability": "view",
					"type": "function"
				},
				{
					"inputs": [],
					"name": "getBalance",
					"outputs": [
						{
							"internalType": "uint256",
							"name": "",
							"type": "uint256"
						}
					],
					"stateMutability": "view",
					"type": "function"
				},
				{
					"inputs": [],
					"name": "getPlayers",
					"outputs": [
						{
							"internalType": "address[]",
							"name": "",
							"type": "address[]"
						}
					],
					"stateMutability": "view",
					"type": "function"
				},
				{
					"inputs": [],
					"name": "getRandomNumber",
					"outputs": [
						{
							"internalType": "bytes32",
							"name": "requestId",
							"type": "bytes32"
						}
					],
					"stateMutability": "nonpayable",
					"type": "function"
				},
				{
					"inputs": [
						{
							"internalType": "uint256",
							"name": "round",
							"type": "uint256"
						}
					],
					"name": "getWinnerByRound",
					"outputs": [
						{
							"internalType": "uint256",
							"name": "",
							"type": "uint256"
						}
					],
					"stateMutability": "view",
					"type": "function"
				},
				{
					"inputs": [],
					"name": "isPickingWinner",
					"outputs": [
						{
							"internalType": "bool",
							"name": "",
							"type": "bool"
						}
					],
					"stateMutability": "view",
					"type": "function"
				},
				{
					"inputs": [],
					"name": "owner",
					"outputs": [
						{
							"internalType": "address",
							"name": "",
							"type": "address"
						}
					],
					"stateMutability": "view",
					"type": "function"
				},
				{
					"inputs": [],
					"name": "pickWinner",
					"outputs": [],
					"stateMutability": "nonpayable",
					"type": "function"
				},
				{
					"inputs": [
						{
							"internalType": "uint256",
							"name": "",
							"type": "uint256"
						}
					],
					"name": "playerTickets",
					"outputs": [
						{
							"internalType": "address payable",
							"name": "",
							"type": "address"
						}
					],
					"stateMutability": "view",
					"type": "function"
				},
				{
					"inputs": [
						{
							"internalType": "uint256",
							"name": "",
							"type": "uint256"
						}
					],
					"name": "players",
					"outputs": [
						{
							"internalType": "address",
							"name": "",
							"type": "address"
						}
					],
					"stateMutability": "view",
					"type": "function"
				},
				{
					"inputs": [
						{
							"internalType": "bytes32",
							"name": "requestId",
							"type": "bytes32"
						},
						{
							"internalType": "uint256",
							"name": "randomness",
							"type": "uint256"
						}
					],
					"name": "rawFulfillRandomness",
					"outputs": [],
					"stateMutability": "nonpayable",
					"type": "function"
				},
				{
					"inputs": [
						{
							"internalType": "uint256",
							"name": "",
							"type": "uint256"
						}
					],
					"name": "tickets",
					"outputs": [
						{
							"internalType": "uint256",
							"name": "",
							"type": "uint256"
						}
					],
					"stateMutability": "view",
					"type": "function"
				},
				{
					"inputs": [
						{
							"internalType": "uint256",
							"name": "",
							"type": "uint256"
						}
					],
					"name": "winningTickets",
					"outputs": [
						{
							"internalType": "uint256",
							"name": "",
							"type": "uint256"
						}
					],
					"stateMutability": "view",
					"type": "function"
				}
			],
			"devdoc": {
				"kind": "dev",
				"methods": {},
				"version": 1
			},
			"evm": {
				"assembly": "    /* \"truffle/contracts/Dhakon.v0.2.sol\":128:3536  contract Dhakon is VRFConsumerBase {... */\n  mstore(0x40, 0xc0)\n    /* \"truffle/contracts/Dhakon.v0.2.sol\":558:1122  constructor(... */\n  callvalue\n  dup1\n  iszero\n  tag_1\n  jumpi\n  0x00\n  dup1\n  revert\ntag_1:\n  pop\n  mload(0x40)\n  sub(codesize, bytecodeSize)\n  dup1\n  bytecodeSize\n  dup4\n  codecopy\n  dup2\n  dup2\n  add\n  0x40\n  mstore\n  dup2\n  add\n  swap1\n  tag_2\n  swap2\n  swap1\n  tag_3\n  jump\t// in\ntag_2:\n    /* \"truffle/contracts/Dhakon.v0.2.sol\":716:731  _VRFCoordinator */\n  dup4\n    /* \"truffle/contracts/Dhakon.v0.2.sol\":814:824  _LINKToken */\n  dup4\n    /* \"@chainlink/contracts/src/v0.8/VRFConsumerBase.sol\":9323:9338  _vrfCoordinator */\n  dup2\n    /* \"@chainlink/contracts/src/v0.8/VRFConsumerBase.sol\":9306:9338  vrfCoordinator = _vrfCoordinator */\n  0xffffffffffffffffffffffffffffffffffffffff\n  and\n  0xa0\n  dup2\n  0xffffffffffffffffffffffffffffffffffffffff\n  and\n  dup2\n  mstore\n  pop\n  pop\n    /* \"@chainlink/contracts/src/v0.8/VRFConsumerBase.sol\":9370:9375  _link */\n  dup1\n    /* \"@chainlink/contracts/src/v0.8/VRFConsumerBase.sol\":9344:9376  LINK = LinkTokenInterface(_link) */\n  0xffffffffffffffffffffffffffffffffffffffff\n  and\n  0x80\n  dup2\n  0xffffffffffffffffffffffffffffffffffffffff\n  and\n  dup2\n  mstore\n  pop\n  pop\n    /* \"@chainlink/contracts/src/v0.8/VRFConsumerBase.sol\":9248:9381  constructor(address _vrfCoordinator, address _link) {... */\n  pop\n  pop\n    /* \"truffle/contracts/Dhakon.v0.2.sol\":937:945  _keyHash */\n  dup2\n    /* \"truffle/contracts/Dhakon.v0.2.sol\":927:934  keyHash */\n  0x08\n    /* \"truffle/contracts/Dhakon.v0.2.sol\":927:945  keyHash = _keyHash */\n  dup2\n  swap1\n  sstore\n  pop\n    /* \"truffle/contracts/Dhakon.v0.2.sol\":1039:1043  _fee */\n  dup1\n    /* \"truffle/contracts/Dhakon.v0.2.sol\":1033:1036  fee */\n  0x09\n    /* \"truffle/contracts/Dhakon.v0.2.sol\":1033:1043  fee = _fee */\n  dup2\n  swap1\n  sstore\n  pop\n    /* \"truffle/contracts/Dhakon.v0.2.sol\":1101:1111  msg.sender */\n  caller\n    /* \"truffle/contracts/Dhakon.v0.2.sol\":1093:1098  owner */\n  0x01\n  0x00\n    /* \"truffle/contracts/Dhakon.v0.2.sol\":1093:1111  owner = msg.sender */\n  0x0100\n  exp\n  dup2\n  sload\n  dup2\n  0xffffffffffffffffffffffffffffffffffffffff\n  mul\n  not\n  and\n  swap1\n  dup4\n  0xffffffffffffffffffffffffffffffffffffffff\n  and\n  mul\n  or\n  swap1\n  sstore\n  pop\n    /* \"truffle/contracts/Dhakon.v0.2.sol\":558:1122  constructor(... */\n  pop\n  pop\n  pop\n  pop\n    /* \"truffle/contracts/Dhakon.v0.2.sol\":128:3536  contract Dhakon is VRFConsumerBase {... */\n  jump(tag_8)\n    /* \"#utility.yul\":88:205   */\ntag_10:\n    /* \"#utility.yul\":197:198   */\n  0x00\n    /* \"#utility.yul\":194:195   */\n  dup1\n    /* \"#utility.yul\":187:199   */\n  revert\n    /* \"#utility.yul\":334:460   */\ntag_12:\n    /* \"#utility.yul\":371:378   */\n  0x00\n    /* \"#utility.yul\":411:453   */\n  0xffffffffffffffffffffffffffffffffffffffff\n    /* \"#utility.yul\":404:409   */\n  dup3\n    /* \"#utility.yul\":400:454   */\n  and\n    /* \"#utility.yul\":389:454   */\n  swap1\n  pop\n    /* \"#utility.yul\":334:460   */\n  swap2\n  swap1\n  pop\n  jump\t// out\n    /* \"#utility.yul\":466:562   */\ntag_13:\n    /* \"#utility.yul\":503:510   */\n  0x00\n    /* \"#utility.yul\":532:556   */\n  tag_28\n    /* \"#utility.yul\":550:555   */\n  dup3\n    /* \"#utility.yul\":532:556   */\n  tag_12\n  jump\t// in\ntag_28:\n    /* \"#utility.yul\":521:556   */\n  swap1\n  pop\n    /* \"#utility.yul\":466:562   */\n  swap2\n  swap1\n  pop\n  jump\t// out\n    /* \"#utility.yul\":568:690   */\ntag_14:\n    /* \"#utility.yul\":641:665   */\n  tag_30\n    /* \"#utility.yul\":659:664   */\n  dup2\n    /* \"#utility.yul\":641:665   */\n  tag_13\n  jump\t// in\ntag_30:\n    /* \"#utility.yul\":634:639   */\n  dup2\n    /* \"#utility.yul\":631:666   */\n  eq\n    /* \"#utility.yul\":621:684   */\n  tag_31\n  jumpi\n    /* \"#utility.yul\":680:681   */\n  0x00\n    /* \"#utility.yul\":677:678   */\n  dup1\n    /* \"#utility.yul\":670:682   */\n  revert\n    /* \"#utility.yul\":621:684   */\ntag_31:\n    /* \"#utility.yul\":568:690   */\n  pop\n  jump\t// out\n    /* \"#utility.yul\":696:839   */\ntag_15:\n    /* \"#utility.yul\":753:758   */\n  0x00\n    /* \"#utility.yul\":784:790   */\n  dup2\n    /* \"#utility.yul\":778:791   */\n  mload\n    /* \"#utility.yul\":769:791   */\n  swap1\n  pop\n    /* \"#utility.yul\":800:833   */\n  tag_33\n    /* \"#utility.yul\":827:832   */\n  dup2\n    /* \"#utility.yul\":800:833   */\n  tag_14\n  jump\t// in\ntag_33:\n    /* \"#utility.yul\":696:839   */\n  swap3\n  swap2\n  pop\n  pop\n  jump\t// out\n    /* \"#utility.yul\":845:922   */\ntag_16:\n    /* \"#utility.yul\":882:889   */\n  0x00\n    /* \"#utility.yul\":911:916   */\n  dup2\n    /* \"#utility.yul\":900:916   */\n  swap1\n  pop\n    /* \"#utility.yul\":845:922   */\n  swap2\n  swap1\n  pop\n  jump\t// out\n    /* \"#utility.yul\":928:1050   */\ntag_17:\n    /* \"#utility.yul\":1001:1025   */\n  tag_36\n    /* \"#utility.yul\":1019:1024   */\n  dup2\n    /* \"#utility.yul\":1001:1025   */\n  tag_16\n  jump\t// in\ntag_36:\n    /* \"#utility.yul\":994:999   */\n  dup2\n    /* \"#utility.yul\":991:1026   */\n  eq\n    /* \"#utility.yul\":981:1044   */\n  tag_37\n  jumpi\n    /* \"#utility.yul\":1040:1041   */\n  0x00\n    /* \"#utility.yul\":1037:1038   */\n  dup1\n    /* \"#utility.yul\":1030:1042   */\n  revert\n    /* \"#utility.yul\":981:1044   */\ntag_37:\n    /* \"#utility.yul\":928:1050   */\n  pop\n  jump\t// out\n    /* \"#utility.yul\":1056:1199   */\ntag_18:\n    /* \"#utility.yul\":1113:1118   */\n  0x00\n    /* \"#utility.yul\":1144:1150   */\n  dup2\n    /* \"#utility.yul\":1138:1151   */\n  mload\n    /* \"#utility.yul\":1129:1151   */\n  swap1\n  pop\n    /* \"#utility.yul\":1160:1193   */\n  tag_39\n    /* \"#utility.yul\":1187:1192   */\n  dup2\n    /* \"#utility.yul\":1160:1193   */\n  tag_17\n  jump\t// in\ntag_39:\n    /* \"#utility.yul\":1056:1199   */\n  swap3\n  swap2\n  pop\n  pop\n  jump\t// out\n    /* \"#utility.yul\":1205:1282   */\ntag_19:\n    /* \"#utility.yul\":1242:1249   */\n  0x00\n    /* \"#utility.yul\":1271:1276   */\n  dup2\n    /* \"#utility.yul\":1260:1276   */\n  swap1\n  pop\n    /* \"#utility.yul\":1205:1282   */\n  swap2\n  swap1\n  pop\n  jump\t// out\n    /* \"#utility.yul\":1288:1410   */\ntag_20:\n    /* \"#utility.yul\":1361:1385   */\n  tag_42\n    /* \"#utility.yul\":1379:1384   */\n  dup2\n    /* \"#utility.yul\":1361:1385   */\n  tag_19\n  jump\t// in\ntag_42:\n    /* \"#utility.yul\":1354:1359   */\n  dup2\n    /* \"#utility.yul\":1351:1386   */\n  eq\n    /* \"#utility.yul\":1341:1404   */\n  tag_43\n  jumpi\n    /* \"#utility.yul\":1400:1401   */\n  0x00\n    /* \"#utility.yul\":1397:1398   */\n  dup1\n    /* \"#utility.yul\":1390:1402   */\n  revert\n    /* \"#utility.yul\":1341:1404   */\ntag_43:\n    /* \"#utility.yul\":1288:1410   */\n  pop\n  jump\t// out\n    /* \"#utility.yul\":1416:1559   */\ntag_21:\n    /* \"#utility.yul\":1473:1478   */\n  0x00\n    /* \"#utility.yul\":1504:1510   */\n  dup2\n    /* \"#utility.yul\":1498:1511   */\n  mload\n    /* \"#utility.yul\":1489:1511   */\n  swap1\n  pop\n    /* \"#utility.yul\":1520:1553   */\n  tag_45\n    /* \"#utility.yul\":1547:1552   */\n  dup2\n    /* \"#utility.yul\":1520:1553   */\n  tag_20\n  jump\t// in\ntag_45:\n    /* \"#utility.yul\":1416:1559   */\n  swap3\n  swap2\n  pop\n  pop\n  jump\t// out\n    /* \"#utility.yul\":1565:2385   */\ntag_3:\n    /* \"#utility.yul\":1662:1668   */\n  0x00\n    /* \"#utility.yul\":1670:1676   */\n  dup1\n    /* \"#utility.yul\":1678:1684   */\n  0x00\n    /* \"#utility.yul\":1686:1692   */\n  dup1\n    /* \"#utility.yul\":1735:1738   */\n  0x80\n    /* \"#utility.yul\":1723:1732   */\n  dup6\n    /* \"#utility.yul\":1714:1721   */\n  dup8\n    /* \"#utility.yul\":1710:1733   */\n  sub\n    /* \"#utility.yul\":1706:1739   */\n  slt\n    /* \"#utility.yul\":1703:1823   */\n  iszero\n  tag_47\n  jumpi\n    /* \"#utility.yul\":1742:1821   */\n  tag_48\n  tag_10\n  jump\t// in\ntag_48:\n    /* \"#utility.yul\":1703:1823   */\ntag_47:\n    /* \"#utility.yul\":1862:1863   */\n  0x00\n    /* \"#utility.yul\":1887:1951   */\n  tag_49\n    /* \"#utility.yul\":1943:1950   */\n  dup8\n    /* \"#utility.yul\":1934:1940   */\n  dup3\n    /* \"#utility.yul\":1923:1932   */\n  dup9\n    /* \"#utility.yul\":1919:1941   */\n  add\n    /* \"#utility.yul\":1887:1951   */\n  tag_15\n  jump\t// in\ntag_49:\n    /* \"#utility.yul\":1877:1951   */\n  swap5\n  pop\n    /* \"#utility.yul\":1833:1961   */\n  pop\n    /* \"#utility.yul\":2000:2002   */\n  0x20\n    /* \"#utility.yul\":2026:2090   */\n  tag_50\n    /* \"#utility.yul\":2082:2089   */\n  dup8\n    /* \"#utility.yul\":2073:2079   */\n  dup3\n    /* \"#utility.yul\":2062:2071   */\n  dup9\n    /* \"#utility.yul\":2058:2080   */\n  add\n    /* \"#utility.yul\":2026:2090   */\n  tag_15\n  jump\t// in\ntag_50:\n    /* \"#utility.yul\":2016:2090   */\n  swap4\n  pop\n    /* \"#utility.yul\":1971:2100   */\n  pop\n    /* \"#utility.yul\":2139:2141   */\n  0x40\n    /* \"#utility.yul\":2165:2229   */\n  tag_51\n    /* \"#utility.yul\":2221:2228   */\n  dup8\n    /* \"#utility.yul\":2212:2218   */\n  dup3\n    /* \"#utility.yul\":2201:2210   */\n  dup9\n    /* \"#utility.yul\":2197:2219   */\n  add\n    /* \"#utility.yul\":2165:2229   */\n  tag_18\n  jump\t// in\ntag_51:\n    /* \"#utility.yul\":2155:2229   */\n  swap3\n  pop\n    /* \"#utility.yul\":2110:2239   */\n  pop\n    /* \"#utility.yul\":2278:2280   */\n  0x60\n    /* \"#utility.yul\":2304:2368   */\n  tag_52\n    /* \"#utility.yul\":2360:2367   */\n  dup8\n    /* \"#utility.yul\":2351:2357   */\n  dup3\n    /* \"#utility.yul\":2340:2349   */\n  dup9\n    /* \"#utility.yul\":2336:2358   */\n  add\n    /* \"#utility.yul\":2304:2368   */\n  tag_21\n  jump\t// in\ntag_52:\n    /* \"#utility.yul\":2294:2368   */\n  swap2\n  pop\n    /* \"#utility.yul\":2249:2378   */\n  pop\n    /* \"#utility.yul\":1565:2385   */\n  swap3\n  swap6\n  swap2\n  swap5\n  pop\n  swap3\n  pop\n  jump\t// out\n    /* \"truffle/contracts/Dhakon.v0.2.sol\":128:3536  contract Dhakon is VRFConsumerBase {... */\ntag_8:\n  mload(0x80)\n  mload(0xa0)\n  codecopy(0x00, dataOffset(sub_0), dataSize(sub_0))\n  0x00\n  assignImmutable(\"0x6dbb33232cde86c8a04f90a8bed9fc1c5ef520188a14538d96eb100d69bc2a94\")\n  0x00\n  assignImmutable(\"0xb2219b801710730437d0358146c829b62297a059eceaa0b40b27aea2daecf595\")\n  return(0x00, dataSize(sub_0))\nstop\n\nsub_0: assembly {\n        /* \"truffle/contracts/Dhakon.v0.2.sol\":128:3536  contract Dhakon is VRFConsumerBase {... */\n      mstore(0x40, 0x80)\n      jumpi(tag_1, lt(calldatasize, 0x04))\n      shr(0xe0, calldataload(0x00))\n      dup1\n      0x94985ddd\n      gt\n      tag_16\n      jumpi\n      dup1\n      0xdbdff2c1\n      gt\n      tag_17\n      jumpi\n      dup1\n      0xdbdff2c1\n      eq\n      tag_12\n      jumpi\n      dup1\n      0xe97dcb62\n      eq\n      tag_13\n      jumpi\n      dup1\n      0xed6c7931\n      eq\n      tag_14\n      jumpi\n      dup1\n      0xf71d96cb\n      eq\n      tag_15\n      jumpi\n      jump(tag_1)\n    tag_17:\n      dup1\n      0x94985ddd\n      eq\n      tag_9\n      jumpi\n      dup1\n      0xa231b484\n      eq\n      tag_10\n      jumpi\n      dup1\n      0xc688d10a\n      eq\n      tag_11\n      jumpi\n      jump(tag_1)\n    tag_16:\n      dup1\n      0x82b0db4f\n      gt\n      tag_18\n      jumpi\n      dup1\n      0x82b0db4f\n      eq\n      tag_5\n      jumpi\n      dup1\n      0x8b5b9ccc\n      eq\n      tag_6\n      jumpi\n      dup1\n      0x8da5cb5b\n      eq\n      tag_7\n      jumpi\n      dup1\n      0x91f6cfe2\n      eq\n      tag_8\n      jumpi\n      jump(tag_1)\n    tag_18:\n      dup1\n      0x12065fe0\n      eq\n      tag_2\n      jumpi\n      dup1\n      0x50b44712\n      eq\n      tag_3\n      jumpi\n      dup1\n      0x5d495aea\n      eq\n      tag_4\n      jumpi\n    tag_1:\n      0x00\n      dup1\n      revert\n        /* \"truffle/contracts/Dhakon.v0.2.sol\":1873:1967  function getBalance() public view returns (uint) {... */\n    tag_2:\n      callvalue\n      dup1\n      iszero\n      tag_19\n      jumpi\n      0x00\n      dup1\n      revert\n    tag_19:\n      pop\n      tag_20\n      tag_21\n      jump\t// in\n    tag_20:\n      mload(0x40)\n      tag_22\n      swap2\n      swap1\n      tag_23\n      jump\t// in\n    tag_22:\n      mload(0x40)\n      dup1\n      swap2\n      sub\n      swap1\n      return\n        /* \"truffle/contracts/Dhakon.v0.2.sol\":270:291  uint[] public tickets */\n    tag_3:\n      callvalue\n      dup1\n      iszero\n      tag_24\n      jumpi\n      0x00\n      dup1\n      revert\n    tag_24:\n      pop\n      tag_25\n      0x04\n      dup1\n      calldatasize\n      sub\n      dup2\n      add\n      swap1\n      tag_26\n      swap2\n      swap1\n      tag_27\n      jump\t// in\n    tag_26:\n      tag_28\n      jump\t// in\n    tag_25:\n      mload(0x40)\n      tag_29\n      swap2\n      swap1\n      tag_23\n      jump\t// in\n    tag_29:\n      mload(0x40)\n      dup1\n      swap2\n      sub\n      swap1\n      return\n        /* \"truffle/contracts/Dhakon.v0.2.sol\":2634:2774  function pickWinner() public onlyowner {... */\n    tag_4:\n      callvalue\n      dup1\n      iszero\n      tag_30\n      jumpi\n      0x00\n      dup1\n      revert\n    tag_30:\n      pop\n      tag_31\n      tag_32\n      jump\t// in\n    tag_31:\n      stop\n        /* \"truffle/contracts/Dhakon.v0.2.sol\":1680:1867  function getWinnerByRound(uint round) public view returns (uint) {... */\n    tag_5:\n      callvalue\n      dup1\n      iszero\n      tag_33\n      jumpi\n      0x00\n      dup1\n      revert\n    tag_33:\n      pop\n      tag_34\n      0x04\n      dup1\n      calldatasize\n      sub\n      dup2\n      add\n      swap1\n      tag_35\n      swap2\n      swap1\n      tag_27\n      jump\t// in\n    tag_35:\n      tag_36\n      jump\t// in\n    tag_34:\n      mload(0x40)\n      tag_37\n      swap2\n      swap1\n      tag_23\n      jump\t// in\n    tag_37:\n      mload(0x40)\n      dup1\n      swap2\n      sub\n      swap1\n      return\n        /* \"truffle/contracts/Dhakon.v0.2.sol\":1973:2065  function getPlayers() public view returns (address[] memory) {... */\n    tag_6:\n      callvalue\n      dup1\n      iszero\n      tag_38\n      jumpi\n      0x00\n      dup1\n      revert\n    tag_38:\n      pop\n      tag_39\n      tag_40\n      jump\t// in\n    tag_39:\n      mload(0x40)\n      tag_41\n      swap2\n      swap1\n      tag_42\n      jump\t// in\n    tag_41:\n      mload(0x40)\n      dup1\n      swap2\n      sub\n      swap1\n      return\n        /* \"truffle/contracts/Dhakon.v0.2.sol\":169:189  address public owner */\n    tag_7:\n      callvalue\n      dup1\n      iszero\n      tag_43\n      jumpi\n      0x00\n      dup1\n      revert\n    tag_43:\n      pop\n      tag_44\n      tag_45\n      jump\t// in\n    tag_44:\n      mload(0x40)\n      tag_46\n      swap2\n      swap1\n      tag_47\n      jump\t// in\n    tag_46:\n      mload(0x40)\n      dup1\n      swap2\n      sub\n      swap1\n      return\n        /* \"truffle/contracts/Dhakon.v0.2.sol\":1540:1674  function generateTicket() public view returns (uint) {... */\n    tag_8:\n      callvalue\n      dup1\n      iszero\n      tag_48\n      jumpi\n      0x00\n      dup1\n      revert\n    tag_48:\n      pop\n      tag_49\n      tag_50\n      jump\t// in\n    tag_49:\n      mload(0x40)\n      tag_51\n      swap2\n      swap1\n      tag_23\n      jump\t// in\n    tag_51:\n      mload(0x40)\n      dup1\n      swap2\n      sub\n      swap1\n      return\n        /* \"@chainlink/contracts/src/v0.8/VRFConsumerBase.sol\":9576:9783  function rawFulfillRandomness(bytes32 requestId, uint256 randomness) external {... */\n    tag_9:\n      callvalue\n      dup1\n      iszero\n      tag_52\n      jumpi\n      0x00\n      dup1\n      revert\n    tag_52:\n      pop\n      tag_53\n      0x04\n      dup1\n      calldatasize\n      sub\n      dup2\n      add\n      swap1\n      tag_54\n      swap2\n      swap1\n      tag_55\n      jump\t// in\n    tag_54:\n      tag_56\n      jump\t// in\n    tag_53:\n      stop\n        /* \"truffle/contracts/Dhakon.v0.2.sol\":297:350  mapping(uint => address payable) public playerTickets */\n    tag_10:\n      callvalue\n      dup1\n      iszero\n      tag_57\n      jumpi\n      0x00\n      dup1\n      revert\n    tag_57:\n      pop\n      tag_58\n      0x04\n      dup1\n      calldatasize\n      sub\n      dup2\n      add\n      swap1\n      tag_59\n      swap2\n      swap1\n      tag_27\n      jump\t// in\n    tag_59:\n      tag_60\n      jump\t// in\n    tag_58:\n      mload(0x40)\n      tag_61\n      swap2\n      swap1\n      tag_62\n      jump\t// in\n    tag_61:\n      mload(0x40)\n      dup1\n      swap2\n      sub\n      swap1\n      return\n        /* \"truffle/contracts/Dhakon.v0.2.sol\":391:418  bool public isPickingWinner */\n    tag_11:\n      callvalue\n      dup1\n      iszero\n      tag_63\n      jumpi\n      0x00\n      dup1\n      revert\n    tag_63:\n      pop\n      tag_64\n      tag_65\n      jump\t// in\n    tag_64:\n      mload(0x40)\n      tag_66\n      swap2\n      swap1\n      tag_67\n      jump\t// in\n    tag_66:\n      mload(0x40)\n      dup1\n      swap2\n      sub\n      swap1\n      return\n        /* \"truffle/contracts/Dhakon.v0.2.sol\":1128:1331  function getRandomNumber() public returns (bytes32 requestId) {... */\n    tag_12:\n      callvalue\n      dup1\n      iszero\n      tag_68\n      jumpi\n      0x00\n      dup1\n      revert\n    tag_68:\n      pop\n      tag_69\n      tag_70\n      jump\t// in\n    tag_69:\n      mload(0x40)\n      tag_71\n      swap2\n      swap1\n      tag_72\n      jump\t// in\n    tag_71:\n      mload(0x40)\n      dup1\n      swap2\n      sub\n      swap1\n      return\n        /* \"truffle/contracts/Dhakon.v0.2.sol\":2309:2628  function enter() public payable {... */\n    tag_13:\n      tag_73\n      tag_74\n      jump\t// in\n    tag_73:\n      stop\n        /* \"truffle/contracts/Dhakon.v0.2.sol\":357:385  uint[] public winningTickets */\n    tag_14:\n      callvalue\n      dup1\n      iszero\n      tag_75\n      jumpi\n      0x00\n      dup1\n      revert\n    tag_75:\n      pop\n      tag_76\n      0x04\n      dup1\n      calldatasize\n      sub\n      dup2\n      add\n      swap1\n      tag_77\n      swap2\n      swap1\n      tag_27\n      jump\t// in\n    tag_77:\n      tag_78\n      jump\t// in\n    tag_76:\n      mload(0x40)\n      tag_79\n      swap2\n      swap1\n      tag_23\n      jump\t// in\n    tag_79:\n      mload(0x40)\n      dup1\n      swap2\n      sub\n      swap1\n      return\n        /* \"truffle/contracts/Dhakon.v0.2.sol\":196:220  address[] public players */\n    tag_15:\n      callvalue\n      dup1\n      iszero\n      tag_80\n      jumpi\n      0x00\n      dup1\n      revert\n    tag_80:\n      pop\n      tag_81\n      0x04\n      dup1\n      calldatasize\n      sub\n      dup2\n      add\n      swap1\n      tag_82\n      swap2\n      swap1\n      tag_27\n      jump\t// in\n    tag_82:\n      tag_83\n      jump\t// in\n    tag_81:\n      mload(0x40)\n      tag_84\n      swap2\n      swap1\n      tag_47\n      jump\t// in\n    tag_84:\n      mload(0x40)\n      dup1\n      swap2\n      sub\n      swap1\n      return\n        /* \"truffle/contracts/Dhakon.v0.2.sol\":1873:1967  function getBalance() public view returns (uint) {... */\n    tag_21:\n        /* \"truffle/contracts/Dhakon.v0.2.sol\":1916:1920  uint */\n      0x00\n        /* \"truffle/contracts/Dhakon.v0.2.sol\":1939:1960  address(this).balance */\n      selfbalance\n        /* \"truffle/contracts/Dhakon.v0.2.sol\":1932:1960  return address(this).balance */\n      swap1\n      pop\n        /* \"truffle/contracts/Dhakon.v0.2.sol\":1873:1967  function getBalance() public view returns (uint) {... */\n      swap1\n      jump\t// out\n        /* \"truffle/contracts/Dhakon.v0.2.sol\":270:291  uint[] public tickets */\n    tag_28:\n      0x04\n      dup2\n      dup2\n      sload\n      dup2\n      lt\n      tag_86\n      jumpi\n      0x00\n      dup1\n      revert\n    tag_86:\n      swap1\n      0x00\n      mstore\n      keccak256(0x00, 0x20)\n      add\n      0x00\n      swap2\n      pop\n      swap1\n      pop\n      sload\n      dup2\n      jump\t// out\n        /* \"truffle/contracts/Dhakon.v0.2.sol\":2634:2774  function pickWinner() public onlyowner {... */\n    tag_32:\n        /* \"truffle/contracts/Dhakon.v0.2.sol\":3512:3517  owner */\n      0x01\n      0x00\n      swap1\n      sload\n      swap1\n      0x0100\n      exp\n      swap1\n      div\n      0xffffffffffffffffffffffffffffffffffffffff\n      and\n        /* \"truffle/contracts/Dhakon.v0.2.sol\":3498:3517  msg.sender == owner */\n      0xffffffffffffffffffffffffffffffffffffffff\n      and\n        /* \"truffle/contracts/Dhakon.v0.2.sol\":3498:3508  msg.sender */\n      caller\n        /* \"truffle/contracts/Dhakon.v0.2.sol\":3498:3517  msg.sender == owner */\n      0xffffffffffffffffffffffffffffffffffffffff\n      and\n      eq\n        /* \"truffle/contracts/Dhakon.v0.2.sol\":3490:3518  require(msg.sender == owner) */\n      tag_89\n      jumpi\n      0x00\n      dup1\n      revert\n    tag_89:\n        /* \"truffle/contracts/Dhakon.v0.2.sol\":2692:2707  isPickingWinner */\n      0x07\n      0x00\n      swap1\n      sload\n      swap1\n      0x0100\n      exp\n      swap1\n      div\n      0xff\n      and\n        /* \"truffle/contracts/Dhakon.v0.2.sol\":2691:2707  !isPickingWinner */\n      iszero\n        /* \"truffle/contracts/Dhakon.v0.2.sol\":2683:2708  require(!isPickingWinner) */\n      tag_91\n      jumpi\n      0x00\n      dup1\n      revert\n    tag_91:\n        /* \"truffle/contracts/Dhakon.v0.2.sol\":2736:2740  true */\n      0x01\n        /* \"truffle/contracts/Dhakon.v0.2.sol\":2718:2733  isPickingWinner */\n      0x07\n      0x00\n        /* \"truffle/contracts/Dhakon.v0.2.sol\":2718:2740  isPickingWinner = true */\n      0x0100\n      exp\n      dup2\n      sload\n      dup2\n      0xff\n      mul\n      not\n      and\n      swap1\n      dup4\n      iszero\n      iszero\n      mul\n      or\n      swap1\n      sstore\n      pop\n        /* \"truffle/contracts/Dhakon.v0.2.sol\":2750:2767  getRandomNumber() */\n      tag_92\n        /* \"truffle/contracts/Dhakon.v0.2.sol\":2750:2765  getRandomNumber */\n      tag_70\n        /* \"truffle/contracts/Dhakon.v0.2.sol\":2750:2767  getRandomNumber() */\n      jump\t// in\n    tag_92:\n      pop\n        /* \"truffle/contracts/Dhakon.v0.2.sol\":2634:2774  function pickWinner() public onlyowner {... */\n      jump\t// out\n        /* \"truffle/contracts/Dhakon.v0.2.sol\":1680:1867  function getWinnerByRound(uint round) public view returns (uint) {... */\n    tag_36:\n        /* \"truffle/contracts/Dhakon.v0.2.sol\":1739:1743  uint */\n      0x00\n        /* \"truffle/contracts/Dhakon.v0.2.sol\":1772:1786  winningTickets */\n      0x06\n        /* \"truffle/contracts/Dhakon.v0.2.sol\":1772:1793  winningTickets.length */\n      dup1\n      sload\n      swap1\n      pop\n        /* \"truffle/contracts/Dhakon.v0.2.sol\":1763:1768  round */\n      dup3\n        /* \"truffle/contracts/Dhakon.v0.2.sol\":1763:1793  round <= winningTickets.length */\n      gt\n      iszero\n        /* \"truffle/contracts/Dhakon.v0.2.sol\":1755:1820  require(round <= winningTickets.length, \"There is no such round\") */\n      tag_94\n      jumpi\n      mload(0x40)\n      0x08c379a000000000000000000000000000000000000000000000000000000000\n      dup2\n      mstore\n      0x04\n      add\n      tag_95\n      swap1\n      tag_96\n      jump\t// in\n    tag_95:\n      mload(0x40)\n      dup1\n      swap2\n      sub\n      swap1\n      revert\n    tag_94:\n        /* \"truffle/contracts/Dhakon.v0.2.sol\":1837:1851  winningTickets */\n      0x06\n        /* \"truffle/contracts/Dhakon.v0.2.sol\":1858:1859  1 */\n      0x01\n        /* \"truffle/contracts/Dhakon.v0.2.sol\":1852:1857  round */\n      dup4\n        /* \"truffle/contracts/Dhakon.v0.2.sol\":1852:1859  round-1 */\n      tag_97\n      swap2\n      swap1\n      tag_98\n      jump\t// in\n    tag_97:\n        /* \"truffle/contracts/Dhakon.v0.2.sol\":1837:1860  winningTickets[round-1] */\n      dup2\n      sload\n      dup2\n      lt\n      tag_99\n      jumpi\n      tag_100\n      tag_101\n      jump\t// in\n    tag_100:\n    tag_99:\n      swap1\n      0x00\n      mstore\n      keccak256(0x00, 0x20)\n      add\n      sload\n        /* \"truffle/contracts/Dhakon.v0.2.sol\":1830:1860  return winningTickets[round-1] */\n      swap1\n      pop\n        /* \"truffle/contracts/Dhakon.v0.2.sol\":1680:1867  function getWinnerByRound(uint round) public view returns (uint) {... */\n      swap2\n      swap1\n      pop\n      jump\t// out\n        /* \"truffle/contracts/Dhakon.v0.2.sol\":1973:2065  function getPlayers() public view returns (address[] memory) {... */\n    tag_40:\n        /* \"truffle/contracts/Dhakon.v0.2.sol\":2016:2032  address[] memory */\n      0x60\n        /* \"truffle/contracts/Dhakon.v0.2.sol\":2051:2058  players */\n      0x02\n        /* \"truffle/contracts/Dhakon.v0.2.sol\":2044:2058  return players */\n      dup1\n      sload\n      dup1\n      0x20\n      mul\n      0x20\n      add\n      mload(0x40)\n      swap1\n      dup2\n      add\n      0x40\n      mstore\n      dup1\n      swap3\n      swap2\n      swap1\n      dup2\n      dup2\n      mstore\n      0x20\n      add\n      dup3\n      dup1\n      sload\n      dup1\n      iszero\n      tag_104\n      jumpi\n      0x20\n      mul\n      dup3\n      add\n      swap2\n      swap1\n      0x00\n      mstore\n      keccak256(0x00, 0x20)\n      swap1\n    tag_105:\n      dup2\n      0x00\n      swap1\n      sload\n      swap1\n      0x0100\n      exp\n      swap1\n      div\n      0xffffffffffffffffffffffffffffffffffffffff\n      and\n      0xffffffffffffffffffffffffffffffffffffffff\n      and\n      dup2\n      mstore\n      0x20\n      add\n      swap1\n      0x01\n      add\n      swap1\n      dup1\n      dup4\n      gt\n      tag_105\n      jumpi\n    tag_104:\n      pop\n      pop\n      pop\n      pop\n      pop\n      swap1\n      pop\n        /* \"truffle/contracts/Dhakon.v0.2.sol\":1973:2065  function getPlayers() public view returns (address[] memory) {... */\n      swap1\n      jump\t// out\n        /* \"truffle/contracts/Dhakon.v0.2.sol\":169:189  address public owner */\n    tag_45:\n      0x01\n      0x00\n      swap1\n      sload\n      swap1\n      0x0100\n      exp\n      swap1\n      div\n      0xffffffffffffffffffffffffffffffffffffffff\n      and\n      dup2\n      jump\t// out\n        /* \"truffle/contracts/Dhakon.v0.2.sol\":1540:1674  function generateTicket() public view returns (uint) {... */\n    tag_50:\n        /* \"truffle/contracts/Dhakon.v0.2.sol\":1587:1591  uint */\n      0x00\n        /* \"truffle/contracts/Dhakon.v0.2.sol\":1642:1647  owner */\n      0x01\n      0x00\n      swap1\n      sload\n      swap1\n      0x0100\n      exp\n      swap1\n      div\n      0xffffffffffffffffffffffffffffffffffffffff\n      and\n        /* \"truffle/contracts/Dhakon.v0.2.sol\":1649:1664  block.timestamp */\n      timestamp\n        /* \"truffle/contracts/Dhakon.v0.2.sol\":1625:1665  abi.encodePacked(owner, block.timestamp) */\n      add(0x20, mload(0x40))\n      tag_107\n      swap3\n      swap2\n      swap1\n      tag_108\n      jump\t// in\n    tag_107:\n      mload(0x40)\n      0x20\n      dup2\n      dup4\n      sub\n      sub\n      dup2\n      mstore\n      swap1\n      0x40\n      mstore\n        /* \"truffle/contracts/Dhakon.v0.2.sol\":1615:1666  keccak256(abi.encodePacked(owner, block.timestamp)) */\n      dup1\n      mload\n      swap1\n      0x20\n      add\n      keccak256\n        /* \"truffle/contracts/Dhakon.v0.2.sol\":1610:1667  uint(keccak256(abi.encodePacked(owner, block.timestamp))) */\n      0x00\n      shr\n        /* \"truffle/contracts/Dhakon.v0.2.sol\":1603:1667  return uint(keccak256(abi.encodePacked(owner, block.timestamp))) */\n      swap1\n      pop\n        /* \"truffle/contracts/Dhakon.v0.2.sol\":1540:1674  function generateTicket() public view returns (uint) {... */\n      swap1\n      jump\t// out\n        /* \"@chainlink/contracts/src/v0.8/VRFConsumerBase.sol\":9576:9783  function rawFulfillRandomness(bytes32 requestId, uint256 randomness) external {... */\n    tag_56:\n        /* \"@chainlink/contracts/src/v0.8/VRFConsumerBase.sol\":9682:9696  vrfCoordinator */\n      immutable(\"0x6dbb33232cde86c8a04f90a8bed9fc1c5ef520188a14538d96eb100d69bc2a94\")\n        /* \"@chainlink/contracts/src/v0.8/VRFConsumerBase.sol\":9668:9696  msg.sender == vrfCoordinator */\n      0xffffffffffffffffffffffffffffffffffffffff\n      and\n        /* \"@chainlink/contracts/src/v0.8/VRFConsumerBase.sol\":9668:9678  msg.sender */\n      caller\n        /* \"@chainlink/contracts/src/v0.8/VRFConsumerBase.sol\":9668:9696  msg.sender == vrfCoordinator */\n      0xffffffffffffffffffffffffffffffffffffffff\n      and\n      eq\n        /* \"@chainlink/contracts/src/v0.8/VRFConsumerBase.sol\":9660:9732  require(msg.sender == vrfCoordinator, \"Only VRFCoordinator can fulfill\") */\n      tag_110\n      jumpi\n      mload(0x40)\n      0x08c379a000000000000000000000000000000000000000000000000000000000\n      dup2\n      mstore\n      0x04\n      add\n      tag_111\n      swap1\n      tag_112\n      jump\t// in\n    tag_111:\n      mload(0x40)\n      dup1\n      swap2\n      sub\n      swap1\n      revert\n    tag_110:\n        /* \"@chainlink/contracts/src/v0.8/VRFConsumerBase.sol\":9738:9778  fulfillRandomness(requestId, randomness) */\n      tag_113\n        /* \"@chainlink/contracts/src/v0.8/VRFConsumerBase.sol\":9756:9765  requestId */\n      dup3\n        /* \"@chainlink/contracts/src/v0.8/VRFConsumerBase.sol\":9767:9777  randomness */\n      dup3\n        /* \"@chainlink/contracts/src/v0.8/VRFConsumerBase.sol\":9738:9755  fulfillRandomness */\n      tag_114\n        /* \"@chainlink/contracts/src/v0.8/VRFConsumerBase.sol\":9738:9778  fulfillRandomness(requestId, randomness) */\n      jump\t// in\n    tag_113:\n        /* \"@chainlink/contracts/src/v0.8/VRFConsumerBase.sol\":9576:9783  function rawFulfillRandomness(bytes32 requestId, uint256 randomness) external {... */\n      pop\n      pop\n      jump\t// out\n        /* \"truffle/contracts/Dhakon.v0.2.sol\":297:350  mapping(uint => address payable) public playerTickets */\n    tag_60:\n      mstore(0x20, 0x05)\n      dup1\n      0x00\n      mstore\n      keccak256(0x00, 0x40)\n      0x00\n      swap2\n      pop\n      sload\n      swap1\n      0x0100\n      exp\n      swap1\n      div\n      0xffffffffffffffffffffffffffffffffffffffff\n      and\n      dup2\n      jump\t// out\n        /* \"truffle/contracts/Dhakon.v0.2.sol\":391:418  bool public isPickingWinner */\n    tag_65:\n      0x07\n      0x00\n      swap1\n      sload\n      swap1\n      0x0100\n      exp\n      swap1\n      div\n      0xff\n      and\n      dup2\n      jump\t// out\n        /* \"truffle/contracts/Dhakon.v0.2.sol\":1128:1331  function getRandomNumber() public returns (bytes32 requestId) {... */\n    tag_70:\n        /* \"truffle/contracts/Dhakon.v0.2.sol\":1171:1188  bytes32 requestId */\n      0x00\n        /* \"truffle/contracts/Dhakon.v0.2.sol\":1241:1244  fee */\n      sload(0x09)\n        /* \"truffle/contracts/Dhakon.v0.2.sol\":1208:1212  LINK */\n      immutable(\"0xb2219b801710730437d0358146c829b62297a059eceaa0b40b27aea2daecf595\")\n        /* \"truffle/contracts/Dhakon.v0.2.sol\":1208:1222  LINK.balanceOf */\n      0xffffffffffffffffffffffffffffffffffffffff\n      and\n      0x70a08231\n        /* \"truffle/contracts/Dhakon.v0.2.sol\":1231:1235  this */\n      address\n        /* \"truffle/contracts/Dhakon.v0.2.sol\":1208:1237  LINK.balanceOf(address(this)) */\n      mload(0x40)\n      dup3\n      0xffffffff\n      and\n      0xe0\n      shl\n      dup2\n      mstore\n      0x04\n      add\n      tag_116\n      swap2\n      swap1\n      tag_47\n      jump\t// in\n    tag_116:\n      0x20\n      mload(0x40)\n      dup1\n      dup4\n      sub\n      dup2\n      dup7\n      gas\n      staticcall\n      iszero\n      dup1\n      iszero\n      tag_118\n      jumpi\n      returndatasize\n      0x00\n      dup1\n      returndatacopy\n      revert(0x00, returndatasize)\n    tag_118:\n      pop\n      pop\n      pop\n      pop\n      mload(0x40)\n      returndatasize\n      not(0x1f)\n      0x1f\n      dup3\n      add\n      and\n      dup3\n      add\n      dup1\n      0x40\n      mstore\n      pop\n      dup2\n      add\n      swap1\n      tag_119\n      swap2\n      swap1\n      tag_120\n      jump\t// in\n    tag_119:\n        /* \"truffle/contracts/Dhakon.v0.2.sol\":1208:1244  LINK.balanceOf(address(this)) >= fee */\n      lt\n      iszero\n        /* \"truffle/contracts/Dhakon.v0.2.sol\":1200:1276  require(LINK.balanceOf(address(this)) >= fee, \"Not enough LINK in contract\") */\n      tag_121\n      jumpi\n      mload(0x40)\n      0x08c379a000000000000000000000000000000000000000000000000000000000\n      dup2\n      mstore\n      0x04\n      add\n      tag_122\n      swap1\n      tag_123\n      jump\t// in\n    tag_122:\n      mload(0x40)\n      dup1\n      swap2\n      sub\n      swap1\n      revert\n    tag_121:\n        /* \"truffle/contracts/Dhakon.v0.2.sol\":1293:1324  requestRandomness(keyHash, fee) */\n      tag_124\n        /* \"truffle/contracts/Dhakon.v0.2.sol\":1311:1318  keyHash */\n      sload(0x08)\n        /* \"truffle/contracts/Dhakon.v0.2.sol\":1320:1323  fee */\n      sload(0x09)\n        /* \"truffle/contracts/Dhakon.v0.2.sol\":1293:1310  requestRandomness */\n      tag_125\n        /* \"truffle/contracts/Dhakon.v0.2.sol\":1293:1324  requestRandomness(keyHash, fee) */\n      jump\t// in\n    tag_124:\n        /* \"truffle/contracts/Dhakon.v0.2.sol\":1286:1324  return requestRandomness(keyHash, fee) */\n      swap1\n      pop\n        /* \"truffle/contracts/Dhakon.v0.2.sol\":1128:1331  function getRandomNumber() public returns (bytes32 requestId) {... */\n      swap1\n      jump\t// out\n        /* \"truffle/contracts/Dhakon.v0.2.sol\":2309:2628  function enter() public payable {... */\n    tag_74:\n        /* \"truffle/contracts/Dhakon.v0.2.sol\":2371:2380  .01 ether */\n      0x2386f26fc10000\n        /* \"truffle/contracts/Dhakon.v0.2.sol\":2359:2368  msg.value */\n      callvalue\n        /* \"truffle/contracts/Dhakon.v0.2.sol\":2359:2380  msg.value > .01 ether */\n      gt\n        /* \"truffle/contracts/Dhakon.v0.2.sol\":2351:2381  require(msg.value > .01 ether) */\n      tag_127\n      jumpi\n      0x00\n      dup1\n      revert\n    tag_127:\n        /* \"truffle/contracts/Dhakon.v0.2.sol\":2438:2449  uint ticket */\n      0x00\n        /* \"truffle/contracts/Dhakon.v0.2.sol\":2452:2468  generateTicket() */\n      tag_128\n        /* \"truffle/contracts/Dhakon.v0.2.sol\":2452:2466  generateTicket */\n      tag_50\n        /* \"truffle/contracts/Dhakon.v0.2.sol\":2452:2468  generateTicket() */\n      jump\t// in\n    tag_128:\n        /* \"truffle/contracts/Dhakon.v0.2.sol\":2438:2468  uint ticket = generateTicket() */\n      swap1\n      pop\n        /* \"truffle/contracts/Dhakon.v0.2.sol\":2478:2500  address payable player */\n      0x00\n        /* \"truffle/contracts/Dhakon.v0.2.sol\":2511:2521  msg.sender */\n      caller\n        /* \"truffle/contracts/Dhakon.v0.2.sol\":2478:2522  address payable player = payable(msg.sender) */\n      swap1\n      pop\n        /* \"truffle/contracts/Dhakon.v0.2.sol\":2532:2539  tickets */\n      0x04\n        /* \"truffle/contracts/Dhakon.v0.2.sol\":2545:2551  ticket */\n      dup3\n        /* \"truffle/contracts/Dhakon.v0.2.sol\":2532:2552  tickets.push(ticket) */\n      swap1\n      dup1\n      0x01\n      dup2\n      sload\n      add\n      dup1\n      dup3\n      sstore\n      dup1\n      swap2\n      pop\n      pop\n      0x01\n      swap1\n      sub\n      swap1\n      0x00\n      mstore\n      keccak256(0x00, 0x20)\n      add\n      0x00\n      swap1\n      swap2\n      swap1\n      swap2\n      swap1\n      swap2\n      pop\n      sstore\n        /* \"truffle/contracts/Dhakon.v0.2.sol\":2586:2592  player */\n      dup1\n        /* \"truffle/contracts/Dhakon.v0.2.sol\":2562:2575  playerTickets */\n      0x05\n        /* \"truffle/contracts/Dhakon.v0.2.sol\":2562:2583  playerTickets[ticket] */\n      0x00\n        /* \"truffle/contracts/Dhakon.v0.2.sol\":2576:2582  ticket */\n      dup5\n        /* \"truffle/contracts/Dhakon.v0.2.sol\":2562:2583  playerTickets[ticket] */\n      dup2\n      mstore\n      0x20\n      add\n      swap1\n      dup2\n      mstore\n      0x20\n      add\n      0x00\n      keccak256\n      0x00\n        /* \"truffle/contracts/Dhakon.v0.2.sol\":2562:2592  playerTickets[ticket] = player */\n      0x0100\n      exp\n      dup2\n      sload\n      dup2\n      0xffffffffffffffffffffffffffffffffffffffff\n      mul\n      not\n      and\n      swap1\n      dup4\n      0xffffffffffffffffffffffffffffffffffffffff\n      and\n      mul\n      or\n      swap1\n      sstore\n      pop\n        /* \"truffle/contracts/Dhakon.v0.2.sol\":2603:2621  addPlayers(player) */\n      tag_130\n        /* \"truffle/contracts/Dhakon.v0.2.sol\":2614:2620  player */\n      dup2\n        /* \"truffle/contracts/Dhakon.v0.2.sol\":2603:2613  addPlayers */\n      tag_131\n        /* \"truffle/contracts/Dhakon.v0.2.sol\":2603:2621  addPlayers(player) */\n      jump\t// in\n    tag_130:\n        /* \"truffle/contracts/Dhakon.v0.2.sol\":2341:2628  {... */\n      pop\n      pop\n        /* \"truffle/contracts/Dhakon.v0.2.sol\":2309:2628  function enter() public payable {... */\n      jump\t// out\n        /* \"truffle/contracts/Dhakon.v0.2.sol\":357:385  uint[] public winningTickets */\n    tag_78:\n      0x06\n      dup2\n      dup2\n      sload\n      dup2\n      lt\n      tag_132\n      jumpi\n      0x00\n      dup1\n      revert\n    tag_132:\n      swap1\n      0x00\n      mstore\n      keccak256(0x00, 0x20)\n      add\n      0x00\n      swap2\n      pop\n      swap1\n      pop\n      sload\n      dup2\n      jump\t// out\n        /* \"truffle/contracts/Dhakon.v0.2.sol\":196:220  address[] public players */\n    tag_83:\n      0x02\n      dup2\n      dup2\n      sload\n      dup2\n      lt\n      tag_134\n      jumpi\n      0x00\n      dup1\n      revert\n    tag_134:\n      swap1\n      0x00\n      mstore\n      keccak256(0x00, 0x20)\n      add\n      0x00\n      swap2\n      pop\n      sload\n      swap1\n      0x0100\n      exp\n      swap1\n      div\n      0xffffffffffffffffffffffffffffffffffffffff\n      and\n      dup2\n      jump\t// out\n        /* \"truffle/contracts/Dhakon.v0.2.sol\":1337:1534  function fulfillRandomness(bytes32 requestId, uint randomness) internal override {... */\n    tag_114:\n        /* \"truffle/contracts/Dhakon.v0.2.sol\":1428:1438  uint index */\n      0x00\n        /* \"truffle/contracts/Dhakon.v0.2.sol\":1454:1461  tickets */\n      0x04\n        /* \"truffle/contracts/Dhakon.v0.2.sol\":1454:1468  tickets.length */\n      dup1\n      sload\n      swap1\n      pop\n        /* \"truffle/contracts/Dhakon.v0.2.sol\":1441:1451  randomness */\n      dup3\n        /* \"truffle/contracts/Dhakon.v0.2.sol\":1441:1468  randomness % tickets.length */\n      tag_137\n      swap2\n      swap1\n      tag_138\n      jump\t// in\n    tag_137:\n        /* \"truffle/contracts/Dhakon.v0.2.sol\":1428:1468  uint index = randomness % tickets.length */\n      swap1\n      pop\n        /* \"truffle/contracts/Dhakon.v0.2.sol\":1478:1494  payWinner(index) */\n      tag_139\n        /* \"truffle/contracts/Dhakon.v0.2.sol\":1488:1493  index */\n      dup2\n        /* \"truffle/contracts/Dhakon.v0.2.sol\":1478:1487  payWinner */\n      tag_140\n        /* \"truffle/contracts/Dhakon.v0.2.sol\":1478:1494  payWinner(index) */\n      jump\t// in\n    tag_139:\n        /* \"truffle/contracts/Dhakon.v0.2.sol\":1522:1527  false */\n      0x00\n        /* \"truffle/contracts/Dhakon.v0.2.sol\":1504:1519  isPickingWinner */\n      0x07\n      0x00\n        /* \"truffle/contracts/Dhakon.v0.2.sol\":1504:1527  isPickingWinner = false */\n      0x0100\n      exp\n      dup2\n      sload\n      dup2\n      0xff\n      mul\n      not\n      and\n      swap1\n      dup4\n      iszero\n      iszero\n      mul\n      or\n      swap1\n      sstore\n      pop\n        /* \"truffle/contracts/Dhakon.v0.2.sol\":1418:1534  {... */\n      pop\n        /* \"truffle/contracts/Dhakon.v0.2.sol\":1337:1534  function fulfillRandomness(bytes32 requestId, uint randomness) internal override {... */\n      pop\n      pop\n      jump\t// out\n        /* \"@chainlink/contracts/src/v0.8/VRFConsumerBase.sol\":7732:8752  function requestRandomness(bytes32 _keyHash, uint256 _fee) internal returns (bytes32 requestId) {... */\n    tag_125:\n        /* \"@chainlink/contracts/src/v0.8/VRFConsumerBase.sol\":7809:7826  bytes32 requestId */\n      0x00\n        /* \"@chainlink/contracts/src/v0.8/VRFConsumerBase.sol\":7834:7838  LINK */\n      immutable(\"0xb2219b801710730437d0358146c829b62297a059eceaa0b40b27aea2daecf595\")\n        /* \"@chainlink/contracts/src/v0.8/VRFConsumerBase.sol\":7834:7854  LINK.transferAndCall */\n      0xffffffffffffffffffffffffffffffffffffffff\n      and\n      0x4000aea0\n        /* \"@chainlink/contracts/src/v0.8/VRFConsumerBase.sol\":7855:7869  vrfCoordinator */\n      immutable(\"0x6dbb33232cde86c8a04f90a8bed9fc1c5ef520188a14538d96eb100d69bc2a94\")\n        /* \"@chainlink/contracts/src/v0.8/VRFConsumerBase.sol\":7871:7875  _fee */\n      dup5\n        /* \"@chainlink/contracts/src/v0.8/VRFConsumerBase.sol\":7888:7896  _keyHash */\n      dup7\n        /* \"@chainlink/contracts/src/v0.8/VRFConsumerBase.sol\":6589:6590  0 */\n      0x00\n        /* \"@chainlink/contracts/src/v0.8/VRFConsumerBase.sol\":7877:7920  abi.encode(_keyHash, USER_SEED_PLACEHOLDER) */\n      add(0x20, mload(0x40))\n      tag_142\n      swap3\n      swap2\n      swap1\n      tag_143\n      jump\t// in\n    tag_142:\n      mload(0x40)\n      0x20\n      dup2\n      dup4\n      sub\n      sub\n      dup2\n      mstore\n      swap1\n      0x40\n      mstore\n        /* \"@chainlink/contracts/src/v0.8/VRFConsumerBase.sol\":7834:7921  LINK.transferAndCall(vrfCoordinator, _fee, abi.encode(_keyHash, USER_SEED_PLACEHOLDER)) */\n      mload(0x40)\n      dup5\n      0xffffffff\n      and\n      0xe0\n      shl\n      dup2\n      mstore\n      0x04\n      add\n      tag_144\n      swap4\n      swap3\n      swap2\n      swap1\n      tag_145\n      jump\t// in\n    tag_144:\n      0x20\n      mload(0x40)\n      dup1\n      dup4\n      sub\n      dup2\n      0x00\n      dup8\n      gas\n      call\n      iszero\n      dup1\n      iszero\n      tag_147\n      jumpi\n      returndatasize\n      0x00\n      dup1\n      returndatacopy\n      revert(0x00, returndatasize)\n    tag_147:\n      pop\n      pop\n      pop\n      pop\n      mload(0x40)\n      returndatasize\n      not(0x1f)\n      0x1f\n      dup3\n      add\n      and\n      dup3\n      add\n      dup1\n      0x40\n      mstore\n      pop\n      dup2\n      add\n      swap1\n      tag_148\n      swap2\n      swap1\n      tag_149\n      jump\t// in\n    tag_148:\n      pop\n        /* \"@chainlink/contracts/src/v0.8/VRFConsumerBase.sol\":8152:8167  uint256 vRFSeed */\n      0x00\n        /* \"@chainlink/contracts/src/v0.8/VRFConsumerBase.sol\":8170:8252  makeVRFInputSeed(_keyHash, USER_SEED_PLACEHOLDER, address(this), nonces[_keyHash]) */\n      tag_150\n        /* \"@chainlink/contracts/src/v0.8/VRFConsumerBase.sol\":8187:8195  _keyHash */\n      dup5\n        /* \"@chainlink/contracts/src/v0.8/VRFConsumerBase.sol\":6589:6590  0 */\n      0x00\n        /* \"@chainlink/contracts/src/v0.8/VRFConsumerBase.sol\":8228:8232  this */\n      address\n        /* \"@chainlink/contracts/src/v0.8/VRFConsumerBase.sol\":8235:8241  nonces */\n      0x00\n        /* \"@chainlink/contracts/src/v0.8/VRFConsumerBase.sol\":8235:8251  nonces[_keyHash] */\n      dup1\n        /* \"@chainlink/contracts/src/v0.8/VRFConsumerBase.sol\":8242:8250  _keyHash */\n      dup10\n        /* \"@chainlink/contracts/src/v0.8/VRFConsumerBase.sol\":8235:8251  nonces[_keyHash] */\n      dup2\n      mstore\n      0x20\n      add\n      swap1\n      dup2\n      mstore\n      0x20\n      add\n      0x00\n      keccak256\n      sload\n        /* \"@chainlink/contracts/src/v0.8/VRFConsumerBase.sol\":8170:8186  makeVRFInputSeed */\n      tag_151\n        /* \"@chainlink/contracts/src/v0.8/VRFConsumerBase.sol\":8170:8252  makeVRFInputSeed(_keyHash, USER_SEED_PLACEHOLDER, address(this), nonces[_keyHash]) */\n      jump\t// in\n    tag_150:\n        /* \"@chainlink/contracts/src/v0.8/VRFConsumerBase.sol\":8152:8252  uint256 vRFSeed = makeVRFInputSeed(_keyHash, USER_SEED_PLACEHOLDER, address(this), nonces[_keyHash]) */\n      swap1\n      pop\n        /* \"@chainlink/contracts/src/v0.8/VRFConsumerBase.sol\":8701:8702  1 */\n      0x01\n        /* \"@chainlink/contracts/src/v0.8/VRFConsumerBase.sol\":8682:8688  nonces */\n      0x00\n        /* \"@chainlink/contracts/src/v0.8/VRFConsumerBase.sol\":8682:8698  nonces[_keyHash] */\n      dup1\n        /* \"@chainlink/contracts/src/v0.8/VRFConsumerBase.sol\":8689:8697  _keyHash */\n      dup7\n        /* \"@chainlink/contracts/src/v0.8/VRFConsumerBase.sol\":8682:8698  nonces[_keyHash] */\n      dup2\n      mstore\n      0x20\n      add\n      swap1\n      dup2\n      mstore\n      0x20\n      add\n      0x00\n      keccak256\n      sload\n        /* \"@chainlink/contracts/src/v0.8/VRFConsumerBase.sol\":8682:8702  nonces[_keyHash] + 1 */\n      tag_152\n      swap2\n      swap1\n      tag_153\n      jump\t// in\n    tag_152:\n        /* \"@chainlink/contracts/src/v0.8/VRFConsumerBase.sol\":8663:8669  nonces */\n      0x00\n        /* \"@chainlink/contracts/src/v0.8/VRFConsumerBase.sol\":8663:8679  nonces[_keyHash] */\n      dup1\n        /* \"@chainlink/contracts/src/v0.8/VRFConsumerBase.sol\":8670:8678  _keyHash */\n      dup7\n        /* \"@chainlink/contracts/src/v0.8/VRFConsumerBase.sol\":8663:8679  nonces[_keyHash] */\n      dup2\n      mstore\n      0x20\n      add\n      swap1\n      dup2\n      mstore\n      0x20\n      add\n      0x00\n      keccak256\n        /* \"@chainlink/contracts/src/v0.8/VRFConsumerBase.sol\":8663:8702  nonces[_keyHash] = nonces[_keyHash] + 1 */\n      dup2\n      swap1\n      sstore\n      pop\n        /* \"@chainlink/contracts/src/v0.8/VRFConsumerBase.sol\":8715:8747  makeRequestId(_keyHash, vRFSeed) */\n      tag_154\n        /* \"@chainlink/contracts/src/v0.8/VRFConsumerBase.sol\":8729:8737  _keyHash */\n      dup5\n        /* \"@chainlink/contracts/src/v0.8/VRFConsumerBase.sol\":8739:8746  vRFSeed */\n      dup3\n        /* \"@chainlink/contracts/src/v0.8/VRFConsumerBase.sol\":8715:8728  makeRequestId */\n      tag_155\n        /* \"@chainlink/contracts/src/v0.8/VRFConsumerBase.sol\":8715:8747  makeRequestId(_keyHash, vRFSeed) */\n      jump\t// in\n    tag_154:\n        /* \"@chainlink/contracts/src/v0.8/VRFConsumerBase.sol\":8708:8747  return makeRequestId(_keyHash, vRFSeed) */\n      swap2\n      pop\n      pop\n        /* \"@chainlink/contracts/src/v0.8/VRFConsumerBase.sol\":7732:8752  function requestRandomness(bytes32 _keyHash, uint256 _fee) internal returns (bytes32 requestId) {... */\n      swap3\n      swap2\n      pop\n      pop\n      jump\t// out\n        /* \"truffle/contracts/Dhakon.v0.2.sol\":2071:2303  function addPlayers(address playerAddr) internal {... */\n    tag_131:\n        /* \"truffle/contracts/Dhakon.v0.2.sol\":2162:2166  true */\n      0x01\n        /* \"truffle/contracts/Dhakon.v0.2.sol\":2134:2166  checkPlayers[playerAddr] != true */\n      iszero\n      iszero\n        /* \"truffle/contracts/Dhakon.v0.2.sol\":2134:2146  checkPlayers */\n      0x03\n        /* \"truffle/contracts/Dhakon.v0.2.sol\":2134:2158  checkPlayers[playerAddr] */\n      0x00\n        /* \"truffle/contracts/Dhakon.v0.2.sol\":2147:2157  playerAddr */\n      dup4\n        /* \"truffle/contracts/Dhakon.v0.2.sol\":2134:2158  checkPlayers[playerAddr] */\n      0xffffffffffffffffffffffffffffffffffffffff\n      and\n      0xffffffffffffffffffffffffffffffffffffffff\n      and\n      dup2\n      mstore\n      0x20\n      add\n      swap1\n      dup2\n      mstore\n      0x20\n      add\n      0x00\n      keccak256\n      0x00\n      swap1\n      sload\n      swap1\n      0x0100\n      exp\n      swap1\n      div\n      0xff\n      and\n        /* \"truffle/contracts/Dhakon.v0.2.sol\":2134:2166  checkPlayers[playerAddr] != true */\n      iszero\n      iszero\n      eq\n        /* \"truffle/contracts/Dhakon.v0.2.sol\":2130:2297  if (checkPlayers[playerAddr] != true) {  // player's address not yet exist... */\n      tag_157\n      jumpi\n        /* \"truffle/contracts/Dhakon.v0.2.sol\":2244:2248  true */\n      0x01\n        /* \"truffle/contracts/Dhakon.v0.2.sol\":2217:2229  checkPlayers */\n      0x03\n        /* \"truffle/contracts/Dhakon.v0.2.sol\":2217:2241  checkPlayers[playerAddr] */\n      0x00\n        /* \"truffle/contracts/Dhakon.v0.2.sol\":2230:2240  playerAddr */\n      dup4\n        /* \"truffle/contracts/Dhakon.v0.2.sol\":2217:2241  checkPlayers[playerAddr] */\n      0xffffffffffffffffffffffffffffffffffffffff\n      and\n      0xffffffffffffffffffffffffffffffffffffffff\n      and\n      dup2\n      mstore\n      0x20\n      add\n      swap1\n      dup2\n      mstore\n      0x20\n      add\n      0x00\n      keccak256\n      0x00\n        /* \"truffle/contracts/Dhakon.v0.2.sol\":2217:2248  checkPlayers[playerAddr] = true */\n      0x0100\n      exp\n      dup2\n      sload\n      dup2\n      0xff\n      mul\n      not\n      and\n      swap1\n      dup4\n      iszero\n      iszero\n      mul\n      or\n      swap1\n      sstore\n      pop\n        /* \"truffle/contracts/Dhakon.v0.2.sol\":2262:2269  players */\n      0x02\n        /* \"truffle/contracts/Dhakon.v0.2.sol\":2275:2285  playerAddr */\n      dup2\n        /* \"truffle/contracts/Dhakon.v0.2.sol\":2262:2286  players.push(playerAddr) */\n      swap1\n      dup1\n      0x01\n      dup2\n      sload\n      add\n      dup1\n      dup3\n      sstore\n      dup1\n      swap2\n      pop\n      pop\n      0x01\n      swap1\n      sub\n      swap1\n      0x00\n      mstore\n      keccak256(0x00, 0x20)\n      add\n      0x00\n      swap1\n      swap2\n      swap1\n      swap2\n      swap1\n      swap2\n      0x0100\n      exp\n      dup2\n      sload\n      dup2\n      0xffffffffffffffffffffffffffffffffffffffff\n      mul\n      not\n      and\n      swap1\n      dup4\n      0xffffffffffffffffffffffffffffffffffffffff\n      and\n      mul\n      or\n      swap1\n      sstore\n      pop\n        /* \"truffle/contracts/Dhakon.v0.2.sol\":2130:2297  if (checkPlayers[playerAddr] != true) {  // player's address not yet exist... */\n    tag_157:\n        /* \"truffle/contracts/Dhakon.v0.2.sol\":2071:2303  function addPlayers(address playerAddr) internal {... */\n      pop\n      jump\t// out\n        /* \"truffle/contracts/Dhakon.v0.2.sol\":2780:3030  function payWinner(uint ticketIdx) internal {... */\n    tag_140:\n        /* \"truffle/contracts/Dhakon.v0.2.sol\":2834:2847  playerTickets */\n      0x05\n        /* \"truffle/contracts/Dhakon.v0.2.sol\":2834:2867  playerTickets[tickets[ticketIdx]] */\n      0x00\n        /* \"truffle/contracts/Dhakon.v0.2.sol\":2848:2855  tickets */\n      0x04\n        /* \"truffle/contracts/Dhakon.v0.2.sol\":2856:2865  ticketIdx */\n      dup4\n        /* \"truffle/contracts/Dhakon.v0.2.sol\":2848:2866  tickets[ticketIdx] */\n      dup2\n      sload\n      dup2\n      lt\n      tag_160\n      jumpi\n      tag_161\n      tag_101\n      jump\t// in\n    tag_161:\n    tag_160:\n      swap1\n      0x00\n      mstore\n      keccak256(0x00, 0x20)\n      add\n      sload\n        /* \"truffle/contracts/Dhakon.v0.2.sol\":2834:2867  playerTickets[tickets[ticketIdx]] */\n      dup2\n      mstore\n      0x20\n      add\n      swap1\n      dup2\n      mstore\n      0x20\n      add\n      0x00\n      keccak256\n      0x00\n      swap1\n      sload\n      swap1\n      0x0100\n      exp\n      swap1\n      div\n      0xffffffffffffffffffffffffffffffffffffffff\n      and\n        /* \"truffle/contracts/Dhakon.v0.2.sol\":2834:2876  playerTickets[tickets[ticketIdx]].transfer */\n      0xffffffffffffffffffffffffffffffffffffffff\n      and\n        /* \"truffle/contracts/Dhakon.v0.2.sol\":2834:2899  playerTickets[tickets[ticketIdx]].transfer(address(this).balance) */\n      0x08fc\n        /* \"truffle/contracts/Dhakon.v0.2.sol\":2877:2898  address(this).balance */\n      selfbalance\n        /* \"truffle/contracts/Dhakon.v0.2.sol\":2834:2899  playerTickets[tickets[ticketIdx]].transfer(address(this).balance) */\n      swap1\n      dup2\n      iszero\n      mul\n      swap1\n      mload(0x40)\n      0x00\n      mload(0x40)\n      dup1\n      dup4\n      sub\n      dup2\n      dup6\n      dup9\n      dup9\n      call\n      swap4\n      pop\n      pop\n      pop\n      pop\n      iszero\n      dup1\n      iszero\n      tag_164\n      jumpi\n      returndatasize\n      0x00\n      dup1\n      returndatacopy\n      revert(0x00, returndatasize)\n    tag_164:\n      pop\n        /* \"truffle/contracts/Dhakon.v0.2.sol\":2910:2924  winningTickets */\n      0x06\n        /* \"truffle/contracts/Dhakon.v0.2.sol\":2930:2937  tickets */\n      0x04\n        /* \"truffle/contracts/Dhakon.v0.2.sol\":2938:2947  ticketIdx */\n      dup3\n        /* \"truffle/contracts/Dhakon.v0.2.sol\":2930:2948  tickets[ticketIdx] */\n      dup2\n      sload\n      dup2\n      lt\n      tag_165\n      jumpi\n      tag_166\n      tag_101\n      jump\t// in\n    tag_166:\n    tag_165:\n      swap1\n      0x00\n      mstore\n      keccak256(0x00, 0x20)\n      add\n      sload\n        /* \"truffle/contracts/Dhakon.v0.2.sol\":2910:2949  winningTickets.push(tickets[ticketIdx]) */\n      swap1\n      dup1\n      0x01\n      dup2\n      sload\n      add\n      dup1\n      dup3\n      sstore\n      dup1\n      swap2\n      pop\n      pop\n      0x01\n      swap1\n      sub\n      swap1\n      0x00\n      mstore\n      keccak256(0x00, 0x20)\n      add\n      0x00\n      swap1\n      swap2\n      swap1\n      swap2\n      swap1\n      swap2\n      pop\n      sstore\n        /* \"truffle/contracts/Dhakon.v0.2.sol\":3011:3023  resetRound() */\n      tag_169\n        /* \"truffle/contracts/Dhakon.v0.2.sol\":3011:3021  resetRound */\n      tag_170\n        /* \"truffle/contracts/Dhakon.v0.2.sol\":3011:3023  resetRound() */\n      jump\t// in\n    tag_169:\n        /* \"truffle/contracts/Dhakon.v0.2.sol\":2780:3030  function payWinner(uint ticketIdx) internal {... */\n      pop\n      jump\t// out\n        /* \"@chainlink/contracts/src/v0.8/VRFRequestIDBase.sol\":796:1036  function makeVRFInputSeed(... */\n    tag_151:\n        /* \"@chainlink/contracts/src/v0.8/VRFRequestIDBase.sol\":938:945  uint256 */\n      0x00\n        /* \"@chainlink/contracts/src/v0.8/VRFRequestIDBase.sol\":989:997  _keyHash */\n      dup5\n        /* \"@chainlink/contracts/src/v0.8/VRFRequestIDBase.sol\":999:1008  _userSeed */\n      dup5\n        /* \"@chainlink/contracts/src/v0.8/VRFRequestIDBase.sol\":1010:1020  _requester */\n      dup5\n        /* \"@chainlink/contracts/src/v0.8/VRFRequestIDBase.sol\":1022:1028  _nonce */\n      dup5\n        /* \"@chainlink/contracts/src/v0.8/VRFRequestIDBase.sol\":978:1029  abi.encode(_keyHash, _userSeed, _requester, _nonce) */\n      add(0x20, mload(0x40))\n      tag_172\n      swap5\n      swap4\n      swap3\n      swap2\n      swap1\n      tag_173\n      jump\t// in\n    tag_172:\n      mload(0x40)\n      0x20\n      dup2\n      dup4\n      sub\n      sub\n      dup2\n      mstore\n      swap1\n      0x40\n      mstore\n        /* \"@chainlink/contracts/src/v0.8/VRFRequestIDBase.sol\":968:1030  keccak256(abi.encode(_keyHash, _userSeed, _requester, _nonce)) */\n      dup1\n      mload\n      swap1\n      0x20\n      add\n      keccak256\n        /* \"@chainlink/contracts/src/v0.8/VRFRequestIDBase.sol\":960:1031  uint256(keccak256(abi.encode(_keyHash, _userSeed, _requester, _nonce))) */\n      0x00\n      shr\n        /* \"@chainlink/contracts/src/v0.8/VRFRequestIDBase.sol\":953:1031  return uint256(keccak256(abi.encode(_keyHash, _userSeed, _requester, _nonce))) */\n      swap1\n      pop\n        /* \"@chainlink/contracts/src/v0.8/VRFRequestIDBase.sol\":796:1036  function makeVRFInputSeed(... */\n      swap5\n      swap4\n      pop\n      pop\n      pop\n      pop\n      jump\t// out\n        /* \"@chainlink/contracts/src/v0.8/VRFRequestIDBase.sol\":1416:1582  function makeRequestId(bytes32 _keyHash, uint256 _vRFInputSeed) internal pure returns (bytes32) {... */\n    tag_155:\n        /* \"@chainlink/contracts/src/v0.8/VRFRequestIDBase.sol\":1503:1510  bytes32 */\n      0x00\n        /* \"@chainlink/contracts/src/v0.8/VRFRequestIDBase.sol\":1552:1560  _keyHash */\n      dup3\n        /* \"@chainlink/contracts/src/v0.8/VRFRequestIDBase.sol\":1562:1575  _vRFInputSeed */\n      dup3\n        /* \"@chainlink/contracts/src/v0.8/VRFRequestIDBase.sol\":1535:1576  abi.encodePacked(_keyHash, _vRFInputSeed) */\n      add(0x20, mload(0x40))\n      tag_175\n      swap3\n      swap2\n      swap1\n      tag_176\n      jump\t// in\n    tag_175:\n      mload(0x40)\n      0x20\n      dup2\n      dup4\n      sub\n      sub\n      dup2\n      mstore\n      swap1\n      0x40\n      mstore\n        /* \"@chainlink/contracts/src/v0.8/VRFRequestIDBase.sol\":1525:1577  keccak256(abi.encodePacked(_keyHash, _vRFInputSeed)) */\n      dup1\n      mload\n      swap1\n      0x20\n      add\n      keccak256\n        /* \"@chainlink/contracts/src/v0.8/VRFRequestIDBase.sol\":1518:1577  return keccak256(abi.encodePacked(_keyHash, _vRFInputSeed)) */\n      swap1\n      pop\n        /* \"@chainlink/contracts/src/v0.8/VRFRequestIDBase.sol\":1416:1582  function makeRequestId(bytes32 _keyHash, uint256 _vRFInputSeed) internal pure returns (bytes32) {... */\n      swap3\n      swap2\n      pop\n      pop\n      jump\t// out\n        /* \"truffle/contracts/Dhakon.v0.2.sol\":3036:3454  function resetRound() internal {        ... */\n    tag_170:\n        /* \"truffle/contracts/Dhakon.v0.2.sol\":3089:3095  uint i */\n      0x00\n        /* \"truffle/contracts/Dhakon.v0.2.sol\":3085:3222  for(uint i=0;i<players.length;i++) {... */\n    tag_178:\n        /* \"truffle/contracts/Dhakon.v0.2.sol\":3100:3107  players */\n      0x02\n        /* \"truffle/contracts/Dhakon.v0.2.sol\":3100:3114  players.length */\n      dup1\n      sload\n      swap1\n      pop\n        /* \"truffle/contracts/Dhakon.v0.2.sol\":3098:3099  i */\n      dup2\n        /* \"truffle/contracts/Dhakon.v0.2.sol\":3098:3114  i<players.length */\n      lt\n        /* \"truffle/contracts/Dhakon.v0.2.sol\":3085:3222  for(uint i=0;i<players.length;i++) {... */\n      iszero\n      tag_179\n      jumpi\n        /* \"truffle/contracts/Dhakon.v0.2.sol\":3141:3153  checkPlayers */\n      0x03\n        /* \"truffle/contracts/Dhakon.v0.2.sol\":3141:3165  checkPlayers[players[i]] */\n      0x00\n        /* \"truffle/contracts/Dhakon.v0.2.sol\":3154:3161  players */\n      0x02\n        /* \"truffle/contracts/Dhakon.v0.2.sol\":3162:3163  i */\n      dup4\n        /* \"truffle/contracts/Dhakon.v0.2.sol\":3154:3164  players[i] */\n      dup2\n      sload\n      dup2\n      lt\n      tag_181\n      jumpi\n      tag_182\n      tag_101\n      jump\t// in\n    tag_182:\n    tag_181:\n      swap1\n      0x00\n      mstore\n      keccak256(0x00, 0x20)\n      add\n      0x00\n      swap1\n      sload\n      swap1\n      0x0100\n      exp\n      swap1\n      div\n      0xffffffffffffffffffffffffffffffffffffffff\n      and\n        /* \"truffle/contracts/Dhakon.v0.2.sol\":3141:3165  checkPlayers[players[i]] */\n      0xffffffffffffffffffffffffffffffffffffffff\n      and\n      0xffffffffffffffffffffffffffffffffffffffff\n      and\n      dup2\n      mstore\n      0x20\n      add\n      swap1\n      dup2\n      mstore\n      0x20\n      add\n      0x00\n      keccak256\n      0x00\n        /* \"truffle/contracts/Dhakon.v0.2.sol\":3134:3165  delete checkPlayers[players[i]] */\n      0x0100\n      exp\n      dup2\n      sload\n      swap1\n      0xff\n      mul\n      not\n      and\n      swap1\n      sstore\n        /* \"truffle/contracts/Dhakon.v0.2.sol\":3115:3118  i++ */\n      dup1\n      dup1\n      tag_184\n      swap1\n      tag_185\n      jump\t// in\n    tag_184:\n      swap2\n      pop\n      pop\n        /* \"truffle/contracts/Dhakon.v0.2.sol\":3085:3222  for(uint i=0;i<players.length;i++) {... */\n      jump(tag_178)\n    tag_179:\n      pop\n        /* \"truffle/contracts/Dhakon.v0.2.sol\":3263:3264  0 */\n      0x00\n        /* \"truffle/contracts/Dhakon.v0.2.sol\":3241:3265  new address payable[](0) */\n      0xffffffffffffffff\n      dup2\n      gt\n      iszero\n      tag_186\n      jumpi\n      tag_187\n      tag_188\n      jump\t// in\n    tag_187:\n    tag_186:\n      mload(0x40)\n      swap1\n      dup1\n      dup3\n      mstore\n      dup1\n      0x20\n      mul\n      0x20\n      add\n      dup3\n      add\n      0x40\n      mstore\n      dup1\n      iszero\n      tag_189\n      jumpi\n      dup2\n      0x20\n      add\n      0x20\n      dup3\n      mul\n      dup1\n      calldatasize\n      dup4\n      calldatacopy\n      dup1\n      dup3\n      add\n      swap2\n      pop\n      pop\n      swap1\n      pop\n    tag_189:\n      pop\n        /* \"truffle/contracts/Dhakon.v0.2.sol\":3231:3238  players */\n      0x02\n        /* \"truffle/contracts/Dhakon.v0.2.sol\":3231:3265  players = new address payable[](0) */\n      swap1\n      dup1\n      mload\n      swap1\n      0x20\n      add\n      swap1\n      tag_190\n      swap3\n      swap2\n      swap1\n      tag_191\n      jump\t// in\n    tag_190:\n      pop\n        /* \"truffle/contracts/Dhakon.v0.2.sol\":3280:3286  uint i */\n      0x00\n        /* \"truffle/contracts/Dhakon.v0.2.sol\":3276:3415  for(uint i=0;i<tickets.length;i++) {  // TODO: workaround as this requires more gas... */\n    tag_192:\n        /* \"truffle/contracts/Dhakon.v0.2.sol\":3291:3298  tickets */\n      0x04\n        /* \"truffle/contracts/Dhakon.v0.2.sol\":3291:3305  tickets.length */\n      dup1\n      sload\n      swap1\n      pop\n        /* \"truffle/contracts/Dhakon.v0.2.sol\":3289:3290  i */\n      dup2\n        /* \"truffle/contracts/Dhakon.v0.2.sol\":3289:3305  i<tickets.length */\n      lt\n        /* \"truffle/contracts/Dhakon.v0.2.sol\":3276:3415  for(uint i=0;i<tickets.length;i++) {  // TODO: workaround as this requires more gas... */\n      iszero\n      tag_193\n      jumpi\n        /* \"truffle/contracts/Dhakon.v0.2.sol\":3379:3392  playerTickets */\n      0x05\n        /* \"truffle/contracts/Dhakon.v0.2.sol\":3379:3404  playerTickets[tickets[i]] */\n      0x00\n        /* \"truffle/contracts/Dhakon.v0.2.sol\":3393:3400  tickets */\n      0x04\n        /* \"truffle/contracts/Dhakon.v0.2.sol\":3401:3402  i */\n      dup4\n        /* \"truffle/contracts/Dhakon.v0.2.sol\":3393:3403  tickets[i] */\n      dup2\n      sload\n      dup2\n      lt\n      tag_195\n      jumpi\n      tag_196\n      tag_101\n      jump\t// in\n    tag_196:\n    tag_195:\n      swap1\n      0x00\n      mstore\n      keccak256(0x00, 0x20)\n      add\n      sload\n        /* \"truffle/contracts/Dhakon.v0.2.sol\":3379:3404  playerTickets[tickets[i]] */\n      dup2\n      mstore\n      0x20\n      add\n      swap1\n      dup2\n      mstore\n      0x20\n      add\n      0x00\n      keccak256\n      0x00\n        /* \"truffle/contracts/Dhakon.v0.2.sol\":3372:3404  delete playerTickets[tickets[i]] */\n      0x0100\n      exp\n      dup2\n      sload\n      swap1\n      0xffffffffffffffffffffffffffffffffffffffff\n      mul\n      not\n      and\n      swap1\n      sstore\n        /* \"truffle/contracts/Dhakon.v0.2.sol\":3306:3309  i++ */\n      dup1\n      dup1\n      tag_198\n      swap1\n      tag_185\n      jump\t// in\n    tag_198:\n      swap2\n      pop\n      pop\n        /* \"truffle/contracts/Dhakon.v0.2.sol\":3276:3415  for(uint i=0;i<tickets.length;i++) {  // TODO: workaround as this requires more gas... */\n      jump(tag_192)\n    tag_193:\n      pop\n        /* \"truffle/contracts/Dhakon.v0.2.sol\":3445:3446  0 */\n      0x00\n        /* \"truffle/contracts/Dhakon.v0.2.sol\":3434:3447  new uint[](0) */\n      0xffffffffffffffff\n      dup2\n      gt\n      iszero\n      tag_199\n      jumpi\n      tag_200\n      tag_188\n      jump\t// in\n    tag_200:\n    tag_199:\n      mload(0x40)\n      swap1\n      dup1\n      dup3\n      mstore\n      dup1\n      0x20\n      mul\n      0x20\n      add\n      dup3\n      add\n      0x40\n      mstore\n      dup1\n      iszero\n      tag_201\n      jumpi\n      dup2\n      0x20\n      add\n      0x20\n      dup3\n      mul\n      dup1\n      calldatasize\n      dup4\n      calldatacopy\n      dup1\n      dup3\n      add\n      swap2\n      pop\n      pop\n      swap1\n      pop\n    tag_201:\n      pop\n        /* \"truffle/contracts/Dhakon.v0.2.sol\":3424:3431  tickets */\n      0x04\n        /* \"truffle/contracts/Dhakon.v0.2.sol\":3424:3447  tickets = new uint[](0) */\n      swap1\n      dup1\n      mload\n      swap1\n      0x20\n      add\n      swap1\n      tag_202\n      swap3\n      swap2\n      swap1\n      tag_203\n      jump\t// in\n    tag_202:\n      pop\n        /* \"truffle/contracts/Dhakon.v0.2.sol\":3036:3454  function resetRound() internal {        ... */\n      jump\t// out\n    tag_191:\n      dup3\n      dup1\n      sload\n      dup3\n      dup3\n      sstore\n      swap1\n      0x00\n      mstore\n      keccak256(0x00, 0x20)\n      swap1\n      dup2\n      add\n      swap3\n      dup3\n      iszero\n      tag_204\n      jumpi\n      swap2\n      0x20\n      mul\n      dup3\n      add\n    tag_205:\n      dup3\n      dup2\n      gt\n      iszero\n      tag_206\n      jumpi\n      dup3\n      mload\n      dup3\n      exp(0x0100, 0x00)\n      dup2\n      sload\n      dup2\n      0xffffffffffffffffffffffffffffffffffffffff\n      mul\n      not\n      and\n      swap1\n      dup4\n      0xffffffffffffffffffffffffffffffffffffffff\n      and\n      mul\n      or\n      swap1\n      sstore\n      pop\n      swap2\n      0x20\n      add\n      swap2\n      swap1\n      0x01\n      add\n      swap1\n      jump(tag_205)\n    tag_206:\n    tag_204:\n      pop\n      swap1\n      pop\n      tag_207\n      swap2\n      swap1\n      tag_208\n      jump\t// in\n    tag_207:\n      pop\n      swap1\n      jump\t// out\n    tag_203:\n      dup3\n      dup1\n      sload\n      dup3\n      dup3\n      sstore\n      swap1\n      0x00\n      mstore\n      keccak256(0x00, 0x20)\n      swap1\n      dup2\n      add\n      swap3\n      dup3\n      iszero\n      tag_209\n      jumpi\n      swap2\n      0x20\n      mul\n      dup3\n      add\n    tag_210:\n      dup3\n      dup2\n      gt\n      iszero\n      tag_211\n      jumpi\n      dup3\n      mload\n      dup3\n      sstore\n      swap2\n      0x20\n      add\n      swap2\n      swap1\n      0x01\n      add\n      swap1\n      jump(tag_210)\n    tag_211:\n    tag_209:\n      pop\n      swap1\n      pop\n      tag_212\n      swap2\n      swap1\n      tag_208\n      jump\t// in\n    tag_212:\n      pop\n      swap1\n      jump\t// out\n    tag_208:\n    tag_213:\n      dup1\n      dup3\n      gt\n      iszero\n      tag_214\n      jumpi\n      0x00\n      dup2\n      0x00\n      swap1\n      sstore\n      pop\n      0x01\n      add\n      jump(tag_213)\n    tag_214:\n      pop\n      swap1\n      jump\t// out\n        /* \"#utility.yul\":7:84   */\n    tag_215:\n        /* \"#utility.yul\":44:51   */\n      0x00\n        /* \"#utility.yul\":73:78   */\n      dup2\n        /* \"#utility.yul\":62:78   */\n      swap1\n      pop\n        /* \"#utility.yul\":7:84   */\n      swap2\n      swap1\n      pop\n      jump\t// out\n        /* \"#utility.yul\":90:208   */\n    tag_216:\n        /* \"#utility.yul\":177:201   */\n      tag_268\n        /* \"#utility.yul\":195:200   */\n      dup2\n        /* \"#utility.yul\":177:201   */\n      tag_215\n      jump\t// in\n    tag_268:\n        /* \"#utility.yul\":172:175   */\n      dup3\n        /* \"#utility.yul\":165:202   */\n      mstore\n        /* \"#utility.yul\":90:208   */\n      pop\n      pop\n      jump\t// out\n        /* \"#utility.yul\":214:436   */\n    tag_23:\n        /* \"#utility.yul\":307:311   */\n      0x00\n        /* \"#utility.yul\":345:347   */\n      0x20\n        /* \"#utility.yul\":334:343   */\n      dup3\n        /* \"#utility.yul\":330:348   */\n      add\n        /* \"#utility.yul\":322:348   */\n      swap1\n      pop\n        /* \"#utility.yul\":358:429   */\n      tag_270\n        /* \"#utility.yul\":426:427   */\n      0x00\n        /* \"#utility.yul\":415:424   */\n      dup4\n        /* \"#utility.yul\":411:428   */\n      add\n        /* \"#utility.yul\":402:408   */\n      dup5\n        /* \"#utility.yul\":358:429   */\n      tag_216\n      jump\t// in\n    tag_270:\n        /* \"#utility.yul\":214:436   */\n      swap3\n      swap2\n      pop\n      pop\n      jump\t// out\n        /* \"#utility.yul\":523:640   */\n    tag_218:\n        /* \"#utility.yul\":632:633   */\n      0x00\n        /* \"#utility.yul\":629:630   */\n      dup1\n        /* \"#utility.yul\":622:634   */\n      revert\n        /* \"#utility.yul\":769:891   */\n    tag_220:\n        /* \"#utility.yul\":842:866   */\n      tag_275\n        /* \"#utility.yul\":860:865   */\n      dup2\n        /* \"#utility.yul\":842:866   */\n      tag_215\n      jump\t// in\n    tag_275:\n        /* \"#utility.yul\":835:840   */\n      dup2\n        /* \"#utility.yul\":832:867   */\n      eq\n        /* \"#utility.yul\":822:885   */\n      tag_276\n      jumpi\n        /* \"#utility.yul\":881:882   */\n      0x00\n        /* \"#utility.yul\":878:879   */\n      dup1\n        /* \"#utility.yul\":871:883   */\n      revert\n        /* \"#utility.yul\":822:885   */\n    tag_276:\n        /* \"#utility.yul\":769:891   */\n      pop\n      jump\t// out\n        /* \"#utility.yul\":897:1036   */\n    tag_221:\n        /* \"#utility.yul\":943:948   */\n      0x00\n        /* \"#utility.yul\":981:987   */\n      dup2\n        /* \"#utility.yul\":968:988   */\n      calldataload\n        /* \"#utility.yul\":959:988   */\n      swap1\n      pop\n        /* \"#utility.yul\":997:1030   */\n      tag_278\n        /* \"#utility.yul\":1024:1029   */\n      dup2\n        /* \"#utility.yul\":997:1030   */\n      tag_220\n      jump\t// in\n    tag_278:\n        /* \"#utility.yul\":897:1036   */\n      swap3\n      swap2\n      pop\n      pop\n      jump\t// out\n        /* \"#utility.yul\":1042:1371   */\n    tag_27:\n        /* \"#utility.yul\":1101:1107   */\n      0x00\n        /* \"#utility.yul\":1150:1152   */\n      0x20\n        /* \"#utility.yul\":1138:1147   */\n      dup3\n        /* \"#utility.yul\":1129:1136   */\n      dup5\n        /* \"#utility.yul\":1125:1148   */\n      sub\n        /* \"#utility.yul\":1121:1153   */\n      slt\n        /* \"#utility.yul\":1118:1237   */\n      iszero\n      tag_280\n      jumpi\n        /* \"#utility.yul\":1156:1235   */\n      tag_281\n      tag_218\n      jump\t// in\n    tag_281:\n        /* \"#utility.yul\":1118:1237   */\n    tag_280:\n        /* \"#utility.yul\":1276:1277   */\n      0x00\n        /* \"#utility.yul\":1301:1354   */\n      tag_282\n        /* \"#utility.yul\":1346:1353   */\n      dup5\n        /* \"#utility.yul\":1337:1343   */\n      dup3\n        /* \"#utility.yul\":1326:1335   */\n      dup6\n        /* \"#utility.yul\":1322:1344   */\n      add\n        /* \"#utility.yul\":1301:1354   */\n      tag_221\n      jump\t// in\n    tag_282:\n        /* \"#utility.yul\":1291:1354   */\n      swap2\n      pop\n        /* \"#utility.yul\":1247:1364   */\n      pop\n        /* \"#utility.yul\":1042:1371   */\n      swap3\n      swap2\n      pop\n      pop\n      jump\t// out\n        /* \"#utility.yul\":1377:1491   */\n    tag_222:\n        /* \"#utility.yul\":1444:1450   */\n      0x00\n        /* \"#utility.yul\":1478:1483   */\n      dup2\n        /* \"#utility.yul\":1472:1484   */\n      mload\n        /* \"#utility.yul\":1462:1484   */\n      swap1\n      pop\n        /* \"#utility.yul\":1377:1491   */\n      swap2\n      swap1\n      pop\n      jump\t// out\n        /* \"#utility.yul\":1497:1681   */\n    tag_223:\n        /* \"#utility.yul\":1596:1607   */\n      0x00\n        /* \"#utility.yul\":1630:1636   */\n      dup3\n        /* \"#utility.yul\":1625:1628   */\n      dup3\n        /* \"#utility.yul\":1618:1637   */\n      mstore\n        /* \"#utility.yul\":1670:1674   */\n      0x20\n        /* \"#utility.yul\":1665:1668   */\n      dup3\n        /* \"#utility.yul\":1661:1675   */\n      add\n        /* \"#utility.yul\":1646:1675   */\n      swap1\n      pop\n        /* \"#utility.yul\":1497:1681   */\n      swap3\n      swap2\n      pop\n      pop\n      jump\t// out\n        /* \"#utility.yul\":1687:1819   */\n    tag_224:\n        /* \"#utility.yul\":1754:1758   */\n      0x00\n        /* \"#utility.yul\":1777:1780   */\n      dup2\n        /* \"#utility.yul\":1769:1780   */\n      swap1\n      pop\n        /* \"#utility.yul\":1807:1811   */\n      0x20\n        /* \"#utility.yul\":1802:1805   */\n      dup3\n        /* \"#utility.yul\":1798:1812   */\n      add\n        /* \"#utility.yul\":1790:1812   */\n      swap1\n      pop\n        /* \"#utility.yul\":1687:1819   */\n      swap2\n      swap1\n      pop\n      jump\t// out\n        /* \"#utility.yul\":1825:1951   */\n    tag_225:\n        /* \"#utility.yul\":1862:1869   */\n      0x00\n        /* \"#utility.yul\":1902:1944   */\n      0xffffffffffffffffffffffffffffffffffffffff\n        /* \"#utility.yul\":1895:1900   */\n      dup3\n        /* \"#utility.yul\":1891:1945   */\n      and\n        /* \"#utility.yul\":1880:1945   */\n      swap1\n      pop\n        /* \"#utility.yul\":1825:1951   */\n      swap2\n      swap1\n      pop\n      jump\t// out\n        /* \"#utility.yul\":1957:2053   */\n    tag_226:\n        /* \"#utility.yul\":1994:2001   */\n      0x00\n        /* \"#utility.yul\":2023:2047   */\n      tag_288\n        /* \"#utility.yul\":2041:2046   */\n      dup3\n        /* \"#utility.yul\":2023:2047   */\n      tag_225\n      jump\t// in\n    tag_288:\n        /* \"#utility.yul\":2012:2047   */\n      swap1\n      pop\n        /* \"#utility.yul\":1957:2053   */\n      swap2\n      swap1\n      pop\n      jump\t// out\n        /* \"#utility.yul\":2059:2167   */\n    tag_227:\n        /* \"#utility.yul\":2136:2160   */\n      tag_290\n        /* \"#utility.yul\":2154:2159   */\n      dup2\n        /* \"#utility.yul\":2136:2160   */\n      tag_226\n      jump\t// in\n    tag_290:\n        /* \"#utility.yul\":2131:2134   */\n      dup3\n        /* \"#utility.yul\":2124:2161   */\n      mstore\n        /* \"#utility.yul\":2059:2167   */\n      pop\n      pop\n      jump\t// out\n        /* \"#utility.yul\":2173:2352   */\n    tag_228:\n        /* \"#utility.yul\":2242:2252   */\n      0x00\n        /* \"#utility.yul\":2263:2309   */\n      tag_292\n        /* \"#utility.yul\":2305:2308   */\n      dup4\n        /* \"#utility.yul\":2297:2303   */\n      dup4\n        /* \"#utility.yul\":2263:2309   */\n      tag_227\n      jump\t// in\n    tag_292:\n        /* \"#utility.yul\":2341:2345   */\n      0x20\n        /* \"#utility.yul\":2336:2339   */\n      dup4\n        /* \"#utility.yul\":2332:2346   */\n      add\n        /* \"#utility.yul\":2318:2346   */\n      swap1\n      pop\n        /* \"#utility.yul\":2173:2352   */\n      swap3\n      swap2\n      pop\n      pop\n      jump\t// out\n        /* \"#utility.yul\":2358:2471   */\n    tag_229:\n        /* \"#utility.yul\":2428:2432   */\n      0x00\n        /* \"#utility.yul\":2460:2464   */\n      0x20\n        /* \"#utility.yul\":2455:2458   */\n      dup3\n        /* \"#utility.yul\":2451:2465   */\n      add\n        /* \"#utility.yul\":2443:2465   */\n      swap1\n      pop\n        /* \"#utility.yul\":2358:2471   */\n      swap2\n      swap1\n      pop\n      jump\t// out\n        /* \"#utility.yul\":2507:3239   */\n    tag_230:\n        /* \"#utility.yul\":2626:2629   */\n      0x00\n        /* \"#utility.yul\":2655:2709   */\n      tag_295\n        /* \"#utility.yul\":2703:2708   */\n      dup3\n        /* \"#utility.yul\":2655:2709   */\n      tag_222\n      jump\t// in\n    tag_295:\n        /* \"#utility.yul\":2725:2811   */\n      tag_296\n        /* \"#utility.yul\":2804:2810   */\n      dup2\n        /* \"#utility.yul\":2799:2802   */\n      dup6\n        /* \"#utility.yul\":2725:2811   */\n      tag_223\n      jump\t// in\n    tag_296:\n        /* \"#utility.yul\":2718:2811   */\n      swap4\n      pop\n        /* \"#utility.yul\":2835:2891   */\n      tag_297\n        /* \"#utility.yul\":2885:2890   */\n      dup4\n        /* \"#utility.yul\":2835:2891   */\n      tag_224\n      jump\t// in\n    tag_297:\n        /* \"#utility.yul\":2914:2921   */\n      dup1\n        /* \"#utility.yul\":2945:2946   */\n      0x00\n        /* \"#utility.yul\":2930:3214   */\n    tag_298:\n        /* \"#utility.yul\":2955:2961   */\n      dup4\n        /* \"#utility.yul\":2952:2953   */\n      dup2\n        /* \"#utility.yul\":2949:2962   */\n      lt\n        /* \"#utility.yul\":2930:3214   */\n      iszero\n      tag_300\n      jumpi\n        /* \"#utility.yul\":3031:3037   */\n      dup2\n        /* \"#utility.yul\":3025:3038   */\n      mload\n        /* \"#utility.yul\":3058:3121   */\n      tag_301\n        /* \"#utility.yul\":3117:3120   */\n      dup9\n        /* \"#utility.yul\":3102:3115   */\n      dup3\n        /* \"#utility.yul\":3058:3121   */\n      tag_228\n      jump\t// in\n    tag_301:\n        /* \"#utility.yul\":3051:3121   */\n      swap8\n      pop\n        /* \"#utility.yul\":3144:3204   */\n      tag_302\n        /* \"#utility.yul\":3197:3203   */\n      dup4\n        /* \"#utility.yul\":3144:3204   */\n      tag_229\n      jump\t// in\n    tag_302:\n        /* \"#utility.yul\":3134:3204   */\n      swap3\n      pop\n        /* \"#utility.yul\":2990:3214   */\n      pop\n        /* \"#utility.yul\":2977:2978   */\n      0x01\n        /* \"#utility.yul\":2974:2975   */\n      dup2\n        /* \"#utility.yul\":2970:2979   */\n      add\n        /* \"#utility.yul\":2965:2979   */\n      swap1\n      pop\n        /* \"#utility.yul\":2930:3214   */\n      jump(tag_298)\n    tag_300:\n        /* \"#utility.yul\":2934:2948   */\n      pop\n        /* \"#utility.yul\":3230:3233   */\n      dup6\n        /* \"#utility.yul\":3223:3233   */\n      swap4\n      pop\n        /* \"#utility.yul\":2631:3239   */\n      pop\n      pop\n      pop\n        /* \"#utility.yul\":2507:3239   */\n      swap3\n      swap2\n      pop\n      pop\n      jump\t// out\n        /* \"#utility.yul\":3245:3618   */\n    tag_42:\n        /* \"#utility.yul\":3388:3392   */\n      0x00\n        /* \"#utility.yul\":3426:3428   */\n      0x20\n        /* \"#utility.yul\":3415:3424   */\n      dup3\n        /* \"#utility.yul\":3411:3429   */\n      add\n        /* \"#utility.yul\":3403:3429   */\n      swap1\n      pop\n        /* \"#utility.yul\":3475:3484   */\n      dup2\n        /* \"#utility.yul\":3469:3473   */\n      dup2\n        /* \"#utility.yul\":3465:3485   */\n      sub\n        /* \"#utility.yul\":3461:3462   */\n      0x00\n        /* \"#utility.yul\":3450:3459   */\n      dup4\n        /* \"#utility.yul\":3446:3463   */\n      add\n        /* \"#utility.yul\":3439:3486   */\n      mstore\n        /* \"#utility.yul\":3503:3611   */\n      tag_304\n        /* \"#utility.yul\":3606:3610   */\n      dup2\n        /* \"#utility.yul\":3597:3603   */\n      dup5\n        /* \"#utility.yul\":3503:3611   */\n      tag_230\n      jump\t// in\n    tag_304:\n        /* \"#utility.yul\":3495:3611   */\n      swap1\n      pop\n        /* \"#utility.yul\":3245:3618   */\n      swap3\n      swap2\n      pop\n      pop\n      jump\t// out\n        /* \"#utility.yul\":3624:3742   */\n    tag_231:\n        /* \"#utility.yul\":3711:3735   */\n      tag_306\n        /* \"#utility.yul\":3729:3734   */\n      dup2\n        /* \"#utility.yul\":3711:3735   */\n      tag_226\n      jump\t// in\n    tag_306:\n        /* \"#utility.yul\":3706:3709   */\n      dup3\n        /* \"#utility.yul\":3699:3736   */\n      mstore\n        /* \"#utility.yul\":3624:3742   */\n      pop\n      pop\n      jump\t// out\n        /* \"#utility.yul\":3748:3970   */\n    tag_47:\n        /* \"#utility.yul\":3841:3845   */\n      0x00\n        /* \"#utility.yul\":3879:3881   */\n      0x20\n        /* \"#utility.yul\":3868:3877   */\n      dup3\n        /* \"#utility.yul\":3864:3882   */\n      add\n        /* \"#utility.yul\":3856:3882   */\n      swap1\n      pop\n        /* \"#utility.yul\":3892:3963   */\n      tag_308\n        /* \"#utility.yul\":3960:3961   */\n      0x00\n        /* \"#utility.yul\":3949:3958   */\n      dup4\n        /* \"#utility.yul\":3945:3962   */\n      add\n        /* \"#utility.yul\":3936:3942   */\n      dup5\n        /* \"#utility.yul\":3892:3963   */\n      tag_231\n      jump\t// in\n    tag_308:\n        /* \"#utility.yul\":3748:3970   */\n      swap3\n      swap2\n      pop\n      pop\n      jump\t// out\n        /* \"#utility.yul\":3976:4053   */\n    tag_232:\n        /* \"#utility.yul\":4013:4020   */\n      0x00\n        /* \"#utility.yul\":4042:4047   */\n      dup2\n        /* \"#utility.yul\":4031:4047   */\n      swap1\n      pop\n        /* \"#utility.yul\":3976:4053   */\n      swap2\n      swap1\n      pop\n      jump\t// out\n        /* \"#utility.yul\":4059:4181   */\n    tag_233:\n        /* \"#utility.yul\":4132:4156   */\n      tag_311\n        /* \"#utility.yul\":4150:4155   */\n      dup2\n        /* \"#utility.yul\":4132:4156   */\n      tag_232\n      jump\t// in\n    tag_311:\n        /* \"#utility.yul\":4125:4130   */\n      dup2\n        /* \"#utility.yul\":4122:4157   */\n      eq\n        /* \"#utility.yul\":4112:4175   */\n      tag_312\n      jumpi\n        /* \"#utility.yul\":4171:4172   */\n      0x00\n        /* \"#utility.yul\":4168:4169   */\n      dup1\n        /* \"#utility.yul\":4161:4173   */\n      revert\n        /* \"#utility.yul\":4112:4175   */\n    tag_312:\n        /* \"#utility.yul\":4059:4181   */\n      pop\n      jump\t// out\n        /* \"#utility.yul\":4187:4326   */\n    tag_234:\n        /* \"#utility.yul\":4233:4238   */\n      0x00\n        /* \"#utility.yul\":4271:4277   */\n      dup2\n        /* \"#utility.yul\":4258:4278   */\n      calldataload\n        /* \"#utility.yul\":4249:4278   */\n      swap1\n      pop\n        /* \"#utility.yul\":4287:4320   */\n      tag_314\n        /* \"#utility.yul\":4314:4319   */\n      dup2\n        /* \"#utility.yul\":4287:4320   */\n      tag_233\n      jump\t// in\n    tag_314:\n        /* \"#utility.yul\":4187:4326   */\n      swap3\n      swap2\n      pop\n      pop\n      jump\t// out\n        /* \"#utility.yul\":4332:4806   */\n    tag_55:\n        /* \"#utility.yul\":4400:4406   */\n      0x00\n        /* \"#utility.yul\":4408:4414   */\n      dup1\n        /* \"#utility.yul\":4457:4459   */\n      0x40\n        /* \"#utility.yul\":4445:4454   */\n      dup4\n        /* \"#utility.yul\":4436:4443   */\n      dup6\n        /* \"#utility.yul\":4432:4455   */\n      sub\n        /* \"#utility.yul\":4428:4460   */\n      slt\n        /* \"#utility.yul\":4425:4544   */\n      iszero\n      tag_316\n      jumpi\n        /* \"#utility.yul\":4463:4542   */\n      tag_317\n      tag_218\n      jump\t// in\n    tag_317:\n        /* \"#utility.yul\":4425:4544   */\n    tag_316:\n        /* \"#utility.yul\":4583:4584   */\n      0x00\n        /* \"#utility.yul\":4608:4661   */\n      tag_318\n        /* \"#utility.yul\":4653:4660   */\n      dup6\n        /* \"#utility.yul\":4644:4650   */\n      dup3\n        /* \"#utility.yul\":4633:4642   */\n      dup7\n        /* \"#utility.yul\":4629:4651   */\n      add\n        /* \"#utility.yul\":4608:4661   */\n      tag_234\n      jump\t// in\n    tag_318:\n        /* \"#utility.yul\":4598:4661   */\n      swap3\n      pop\n        /* \"#utility.yul\":4554:4671   */\n      pop\n        /* \"#utility.yul\":4710:4712   */\n      0x20\n        /* \"#utility.yul\":4736:4789   */\n      tag_319\n        /* \"#utility.yul\":4781:4788   */\n      dup6\n        /* \"#utility.yul\":4772:4778   */\n      dup3\n        /* \"#utility.yul\":4761:4770   */\n      dup7\n        /* \"#utility.yul\":4757:4779   */\n      add\n        /* \"#utility.yul\":4736:4789   */\n      tag_221\n      jump\t// in\n    tag_319:\n        /* \"#utility.yul\":4726:4789   */\n      swap2\n      pop\n        /* \"#utility.yul\":4681:4799   */\n      pop\n        /* \"#utility.yul\":4332:4806   */\n      swap3\n      pop\n      swap3\n      swap1\n      pop\n      jump\t// out\n        /* \"#utility.yul\":4812:4916   */\n    tag_235:\n        /* \"#utility.yul\":4857:4864   */\n      0x00\n        /* \"#utility.yul\":4886:4910   */\n      tag_321\n        /* \"#utility.yul\":4904:4909   */\n      dup3\n        /* \"#utility.yul\":4886:4910   */\n      tag_225\n      jump\t// in\n    tag_321:\n        /* \"#utility.yul\":4875:4910   */\n      swap1\n      pop\n        /* \"#utility.yul\":4812:4916   */\n      swap2\n      swap1\n      pop\n      jump\t// out\n        /* \"#utility.yul\":4922:5064   */\n    tag_236:\n        /* \"#utility.yul\":5025:5057   */\n      tag_323\n        /* \"#utility.yul\":5051:5056   */\n      dup2\n        /* \"#utility.yul\":5025:5057   */\n      tag_235\n      jump\t// in\n    tag_323:\n        /* \"#utility.yul\":5020:5023   */\n      dup3\n        /* \"#utility.yul\":5013:5058   */\n      mstore\n        /* \"#utility.yul\":4922:5064   */\n      pop\n      pop\n      jump\t// out\n        /* \"#utility.yul\":5070:5324   */\n    tag_62:\n        /* \"#utility.yul\":5179:5183   */\n      0x00\n        /* \"#utility.yul\":5217:5219   */\n      0x20\n        /* \"#utility.yul\":5206:5215   */\n      dup3\n        /* \"#utility.yul\":5202:5220   */\n      add\n        /* \"#utility.yul\":5194:5220   */\n      swap1\n      pop\n        /* \"#utility.yul\":5230:5317   */\n      tag_325\n        /* \"#utility.yul\":5314:5315   */\n      0x00\n        /* \"#utility.yul\":5303:5312   */\n      dup4\n        /* \"#utility.yul\":5299:5316   */\n      add\n        /* \"#utility.yul\":5290:5296   */\n      dup5\n        /* \"#utility.yul\":5230:5317   */\n      tag_236\n      jump\t// in\n    tag_325:\n        /* \"#utility.yul\":5070:5324   */\n      swap3\n      swap2\n      pop\n      pop\n      jump\t// out\n        /* \"#utility.yul\":5330:5420   */\n    tag_237:\n        /* \"#utility.yul\":5364:5371   */\n      0x00\n        /* \"#utility.yul\":5407:5412   */\n      dup2\n        /* \"#utility.yul\":5400:5413   */\n      iszero\n        /* \"#utility.yul\":5393:5414   */\n      iszero\n        /* \"#utility.yul\":5382:5414   */\n      swap1\n      pop\n        /* \"#utility.yul\":5330:5420   */\n      swap2\n      swap1\n      pop\n      jump\t// out\n        /* \"#utility.yul\":5426:5535   */\n    tag_238:\n        /* \"#utility.yul\":5507:5528   */\n      tag_328\n        /* \"#utility.yul\":5522:5527   */\n      dup2\n        /* \"#utility.yul\":5507:5528   */\n      tag_237\n      jump\t// in\n    tag_328:\n        /* \"#utility.yul\":5502:5505   */\n      dup3\n        /* \"#utility.yul\":5495:5529   */\n      mstore\n        /* \"#utility.yul\":5426:5535   */\n      pop\n      pop\n      jump\t// out\n        /* \"#utility.yul\":5541:5751   */\n    tag_67:\n        /* \"#utility.yul\":5628:5632   */\n      0x00\n        /* \"#utility.yul\":5666:5668   */\n      0x20\n        /* \"#utility.yul\":5655:5664   */\n      dup3\n        /* \"#utility.yul\":5651:5669   */\n      add\n        /* \"#utility.yul\":5643:5669   */\n      swap1\n      pop\n        /* \"#utility.yul\":5679:5744   */\n      tag_330\n        /* \"#utility.yul\":5741:5742   */\n      0x00\n        /* \"#utility.yul\":5730:5739   */\n      dup4\n        /* \"#utility.yul\":5726:5743   */\n      add\n        /* \"#utility.yul\":5717:5723   */\n      dup5\n        /* \"#utility.yul\":5679:5744   */\n      tag_238\n      jump\t// in\n    tag_330:\n        /* \"#utility.yul\":5541:5751   */\n      swap3\n      swap2\n      pop\n      pop\n      jump\t// out\n        /* \"#utility.yul\":5757:5875   */\n    tag_239:\n        /* \"#utility.yul\":5844:5868   */\n      tag_332\n        /* \"#utility.yul\":5862:5867   */\n      dup2\n        /* \"#utility.yul\":5844:5868   */\n      tag_232\n      jump\t// in\n    tag_332:\n        /* \"#utility.yul\":5839:5842   */\n      dup3\n        /* \"#utility.yul\":5832:5869   */\n      mstore\n        /* \"#utility.yul\":5757:5875   */\n      pop\n      pop\n      jump\t// out\n        /* \"#utility.yul\":5881:6103   */\n    tag_72:\n        /* \"#utility.yul\":5974:5978   */\n      0x00\n        /* \"#utility.yul\":6012:6014   */\n      0x20\n        /* \"#utility.yul\":6001:6010   */\n      dup3\n        /* \"#utility.yul\":5997:6015   */\n      add\n        /* \"#utility.yul\":5989:6015   */\n      swap1\n      pop\n        /* \"#utility.yul\":6025:6096   */\n      tag_334\n        /* \"#utility.yul\":6093:6094   */\n      0x00\n        /* \"#utility.yul\":6082:6091   */\n      dup4\n        /* \"#utility.yul\":6078:6095   */\n      add\n        /* \"#utility.yul\":6069:6075   */\n      dup5\n        /* \"#utility.yul\":6025:6096   */\n      tag_239\n      jump\t// in\n    tag_334:\n        /* \"#utility.yul\":5881:6103   */\n      swap3\n      swap2\n      pop\n      pop\n      jump\t// out\n        /* \"#utility.yul\":6109:6278   */\n    tag_240:\n        /* \"#utility.yul\":6193:6204   */\n      0x00\n        /* \"#utility.yul\":6227:6233   */\n      dup3\n        /* \"#utility.yul\":6222:6225   */\n      dup3\n        /* \"#utility.yul\":6215:6234   */\n      mstore\n        /* \"#utility.yul\":6267:6271   */\n      0x20\n        /* \"#utility.yul\":6262:6265   */\n      dup3\n        /* \"#utility.yul\":6258:6272   */\n      add\n        /* \"#utility.yul\":6243:6272   */\n      swap1\n      pop\n        /* \"#utility.yul\":6109:6278   */\n      swap3\n      swap2\n      pop\n      pop\n      jump\t// out\n        /* \"#utility.yul\":6284:6456   */\n    tag_241:\n        /* \"#utility.yul\":6424:6448   */\n      0x5468657265206973206e6f207375636820726f756e6400000000000000000000\n        /* \"#utility.yul\":6420:6421   */\n      0x00\n        /* \"#utility.yul\":6412:6418   */\n      dup3\n        /* \"#utility.yul\":6408:6422   */\n      add\n        /* \"#utility.yul\":6401:6449   */\n      mstore\n        /* \"#utility.yul\":6284:6456   */\n      pop\n      jump\t// out\n        /* \"#utility.yul\":6462:6828   */\n    tag_242:\n        /* \"#utility.yul\":6604:6607   */\n      0x00\n        /* \"#utility.yul\":6625:6692   */\n      tag_338\n        /* \"#utility.yul\":6689:6691   */\n      0x16\n        /* \"#utility.yul\":6684:6687   */\n      dup4\n        /* \"#utility.yul\":6625:6692   */\n      tag_240\n      jump\t// in\n    tag_338:\n        /* \"#utility.yul\":6618:6692   */\n      swap2\n      pop\n        /* \"#utility.yul\":6701:6794   */\n      tag_339\n        /* \"#utility.yul\":6790:6793   */\n      dup3\n        /* \"#utility.yul\":6701:6794   */\n      tag_241\n      jump\t// in\n    tag_339:\n        /* \"#utility.yul\":6819:6821   */\n      0x20\n        /* \"#utility.yul\":6814:6817   */\n      dup3\n        /* \"#utility.yul\":6810:6822   */\n      add\n        /* \"#utility.yul\":6803:6822   */\n      swap1\n      pop\n        /* \"#utility.yul\":6462:6828   */\n      swap2\n      swap1\n      pop\n      jump\t// out\n        /* \"#utility.yul\":6834:7253   */\n    tag_96:\n        /* \"#utility.yul\":7000:7004   */\n      0x00\n        /* \"#utility.yul\":7038:7040   */\n      0x20\n        /* \"#utility.yul\":7027:7036   */\n      dup3\n        /* \"#utility.yul\":7023:7041   */\n      add\n        /* \"#utility.yul\":7015:7041   */\n      swap1\n      pop\n        /* \"#utility.yul\":7087:7096   */\n      dup2\n        /* \"#utility.yul\":7081:7085   */\n      dup2\n        /* \"#utility.yul\":7077:7097   */\n      sub\n        /* \"#utility.yul\":7073:7074   */\n      0x00\n        /* \"#utility.yul\":7062:7071   */\n      dup4\n        /* \"#utility.yul\":7058:7075   */\n      add\n        /* \"#utility.yul\":7051:7098   */\n      mstore\n        /* \"#utility.yul\":7115:7246   */\n      tag_341\n        /* \"#utility.yul\":7241:7245   */\n      dup2\n        /* \"#utility.yul\":7115:7246   */\n      tag_242\n      jump\t// in\n    tag_341:\n        /* \"#utility.yul\":7107:7246   */\n      swap1\n      pop\n        /* \"#utility.yul\":6834:7253   */\n      swap2\n      swap1\n      pop\n      jump\t// out\n        /* \"#utility.yul\":7259:7439   */\n    tag_243:\n        /* \"#utility.yul\":7307:7384   */\n      0x4e487b7100000000000000000000000000000000000000000000000000000000\n        /* \"#utility.yul\":7304:7305   */\n      0x00\n        /* \"#utility.yul\":7297:7385   */\n      mstore\n        /* \"#utility.yul\":7404:7408   */\n      0x11\n        /* \"#utility.yul\":7401:7402   */\n      0x04\n        /* \"#utility.yul\":7394:7409   */\n      mstore\n        /* \"#utility.yul\":7428:7432   */\n      0x24\n        /* \"#utility.yul\":7425:7426   */\n      0x00\n        /* \"#utility.yul\":7418:7433   */\n      revert\n        /* \"#utility.yul\":7445:7639   */\n    tag_98:\n        /* \"#utility.yul\":7485:7489   */\n      0x00\n        /* \"#utility.yul\":7505:7525   */\n      tag_344\n        /* \"#utility.yul\":7523:7524   */\n      dup3\n        /* \"#utility.yul\":7505:7525   */\n      tag_215\n      jump\t// in\n    tag_344:\n        /* \"#utility.yul\":7500:7525   */\n      swap2\n      pop\n        /* \"#utility.yul\":7539:7559   */\n      tag_345\n        /* \"#utility.yul\":7557:7558   */\n      dup4\n        /* \"#utility.yul\":7539:7559   */\n      tag_215\n      jump\t// in\n    tag_345:\n        /* \"#utility.yul\":7534:7559   */\n      swap3\n      pop\n        /* \"#utility.yul\":7583:7584   */\n      dup3\n        /* \"#utility.yul\":7580:7581   */\n      dup3\n        /* \"#utility.yul\":7576:7585   */\n      sub\n        /* \"#utility.yul\":7568:7585   */\n      swap1\n      pop\n        /* \"#utility.yul\":7607:7608   */\n      dup2\n        /* \"#utility.yul\":7601:7605   */\n      dup2\n        /* \"#utility.yul\":7598:7609   */\n      gt\n        /* \"#utility.yul\":7595:7632   */\n      iszero\n      tag_346\n      jumpi\n        /* \"#utility.yul\":7612:7630   */\n      tag_347\n      tag_243\n      jump\t// in\n    tag_347:\n        /* \"#utility.yul\":7595:7632   */\n    tag_346:\n        /* \"#utility.yul\":7445:7639   */\n      swap3\n      swap2\n      pop\n      pop\n      jump\t// out\n        /* \"#utility.yul\":7645:7825   */\n    tag_101:\n        /* \"#utility.yul\":7693:7770   */\n      0x4e487b7100000000000000000000000000000000000000000000000000000000\n        /* \"#utility.yul\":7690:7691   */\n      0x00\n        /* \"#utility.yul\":7683:7771   */\n      mstore\n        /* \"#utility.yul\":7790:7794   */\n      0x32\n        /* \"#utility.yul\":7787:7788   */\n      0x04\n        /* \"#utility.yul\":7780:7795   */\n      mstore\n        /* \"#utility.yul\":7814:7818   */\n      0x24\n        /* \"#utility.yul\":7811:7812   */\n      0x00\n        /* \"#utility.yul\":7804:7819   */\n      revert\n        /* \"#utility.yul\":7831:7925   */\n    tag_244:\n        /* \"#utility.yul\":7864:7872   */\n      0x00\n        /* \"#utility.yul\":7912:7917   */\n      dup2\n        /* \"#utility.yul\":7908:7910   */\n      0x60\n        /* \"#utility.yul\":7904:7918   */\n      shl\n        /* \"#utility.yul\":7883:7918   */\n      swap1\n      pop\n        /* \"#utility.yul\":7831:7925   */\n      swap2\n      swap1\n      pop\n      jump\t// out\n        /* \"#utility.yul\":7931:8025   */\n    tag_245:\n        /* \"#utility.yul\":7970:7977   */\n      0x00\n        /* \"#utility.yul\":7999:8019   */\n      tag_351\n        /* \"#utility.yul\":8013:8018   */\n      dup3\n        /* \"#utility.yul\":7999:8019   */\n      tag_244\n      jump\t// in\n    tag_351:\n        /* \"#utility.yul\":7988:8019   */\n      swap1\n      pop\n        /* \"#utility.yul\":7931:8025   */\n      swap2\n      swap1\n      pop\n      jump\t// out\n        /* \"#utility.yul\":8031:8131   */\n    tag_246:\n        /* \"#utility.yul\":8070:8077   */\n      0x00\n        /* \"#utility.yul\":8099:8125   */\n      tag_353\n        /* \"#utility.yul\":8119:8124   */\n      dup3\n        /* \"#utility.yul\":8099:8125   */\n      tag_245\n      jump\t// in\n    tag_353:\n        /* \"#utility.yul\":8088:8125   */\n      swap1\n      pop\n        /* \"#utility.yul\":8031:8131   */\n      swap2\n      swap1\n      pop\n      jump\t// out\n        /* \"#utility.yul\":8137:8294   */\n    tag_247:\n        /* \"#utility.yul\":8242:8287   */\n      tag_355\n        /* \"#utility.yul\":8262:8286   */\n      tag_356\n        /* \"#utility.yul\":8280:8285   */\n      dup3\n        /* \"#utility.yul\":8262:8286   */\n      tag_226\n      jump\t// in\n    tag_356:\n        /* \"#utility.yul\":8242:8287   */\n      tag_246\n      jump\t// in\n    tag_355:\n        /* \"#utility.yul\":8237:8240   */\n      dup3\n        /* \"#utility.yul\":8230:8288   */\n      mstore\n        /* \"#utility.yul\":8137:8294   */\n      pop\n      pop\n      jump\t// out\n        /* \"#utility.yul\":8300:8379   */\n    tag_248:\n        /* \"#utility.yul\":8339:8346   */\n      0x00\n        /* \"#utility.yul\":8368:8373   */\n      dup2\n        /* \"#utility.yul\":8357:8373   */\n      swap1\n      pop\n        /* \"#utility.yul\":8300:8379   */\n      swap2\n      swap1\n      pop\n      jump\t// out\n        /* \"#utility.yul\":8385:8542   */\n    tag_249:\n        /* \"#utility.yul\":8490:8535   */\n      tag_359\n        /* \"#utility.yul\":8510:8534   */\n      tag_360\n        /* \"#utility.yul\":8528:8533   */\n      dup3\n        /* \"#utility.yul\":8510:8534   */\n      tag_215\n      jump\t// in\n    tag_360:\n        /* \"#utility.yul\":8490:8535   */\n      tag_248\n      jump\t// in\n    tag_359:\n        /* \"#utility.yul\":8485:8488   */\n      dup3\n        /* \"#utility.yul\":8478:8536   */\n      mstore\n        /* \"#utility.yul\":8385:8542   */\n      pop\n      pop\n      jump\t// out\n        /* \"#utility.yul\":8548:8945   */\n    tag_108:\n        /* \"#utility.yul\":8688:8691   */\n      0x00\n        /* \"#utility.yul\":8703:8778   */\n      tag_362\n        /* \"#utility.yul\":8774:8777   */\n      dup3\n        /* \"#utility.yul\":8765:8771   */\n      dup6\n        /* \"#utility.yul\":8703:8778   */\n      tag_247\n      jump\t// in\n    tag_362:\n        /* \"#utility.yul\":8803:8805   */\n      0x14\n        /* \"#utility.yul\":8798:8801   */\n      dup3\n        /* \"#utility.yul\":8794:8806   */\n      add\n        /* \"#utility.yul\":8787:8806   */\n      swap2\n      pop\n        /* \"#utility.yul\":8816:8891   */\n      tag_363\n        /* \"#utility.yul\":8887:8890   */\n      dup3\n        /* \"#utility.yul\":8878:8884   */\n      dup5\n        /* \"#utility.yul\":8816:8891   */\n      tag_249\n      jump\t// in\n    tag_363:\n        /* \"#utility.yul\":8916:8918   */\n      0x20\n        /* \"#utility.yul\":8911:8914   */\n      dup3\n        /* \"#utility.yul\":8907:8919   */\n      add\n        /* \"#utility.yul\":8900:8919   */\n      swap2\n      pop\n        /* \"#utility.yul\":8936:8939   */\n      dup2\n        /* \"#utility.yul\":8929:8939   */\n      swap1\n      pop\n        /* \"#utility.yul\":8548:8945   */\n      swap4\n      swap3\n      pop\n      pop\n      pop\n      jump\t// out\n        /* \"#utility.yul\":8951:9132   */\n    tag_250:\n        /* \"#utility.yul\":9091:9124   */\n      0x4f6e6c7920565246436f6f7264696e61746f722063616e2066756c66696c6c00\n        /* \"#utility.yul\":9087:9088   */\n      0x00\n        /* \"#utility.yul\":9079:9085   */\n      dup3\n        /* \"#utility.yul\":9075:9089   */\n      add\n        /* \"#utility.yul\":9068:9125   */\n      mstore\n        /* \"#utility.yul\":8951:9132   */\n      pop\n      jump\t// out\n        /* \"#utility.yul\":9138:9504   */\n    tag_251:\n        /* \"#utility.yul\":9280:9283   */\n      0x00\n        /* \"#utility.yul\":9301:9368   */\n      tag_366\n        /* \"#utility.yul\":9365:9367   */\n      0x1f\n        /* \"#utility.yul\":9360:9363   */\n      dup4\n        /* \"#utility.yul\":9301:9368   */\n      tag_240\n      jump\t// in\n    tag_366:\n        /* \"#utility.yul\":9294:9368   */\n      swap2\n      pop\n        /* \"#utility.yul\":9377:9470   */\n      tag_367\n        /* \"#utility.yul\":9466:9469   */\n      dup3\n        /* \"#utility.yul\":9377:9470   */\n      tag_250\n      jump\t// in\n    tag_367:\n        /* \"#utility.yul\":9495:9497   */\n      0x20\n        /* \"#utility.yul\":9490:9493   */\n      dup3\n        /* \"#utility.yul\":9486:9498   */\n      add\n        /* \"#utility.yul\":9479:9498   */\n      swap1\n      pop\n        /* \"#utility.yul\":9138:9504   */\n      swap2\n      swap1\n      pop\n      jump\t// out\n        /* \"#utility.yul\":9510:9929   */\n    tag_112:\n        /* \"#utility.yul\":9676:9680   */\n      0x00\n        /* \"#utility.yul\":9714:9716   */\n      0x20\n        /* \"#utility.yul\":9703:9712   */\n      dup3\n        /* \"#utility.yul\":9699:9717   */\n      add\n        /* \"#utility.yul\":9691:9717   */\n      swap1\n      pop\n        /* \"#utility.yul\":9763:9772   */\n      dup2\n        /* \"#utility.yul\":9757:9761   */\n      dup2\n        /* \"#utility.yul\":9753:9773   */\n      sub\n        /* \"#utility.yul\":9749:9750   */\n      0x00\n        /* \"#utility.yul\":9738:9747   */\n      dup4\n        /* \"#utility.yul\":9734:9751   */\n      add\n        /* \"#utility.yul\":9727:9774   */\n      mstore\n        /* \"#utility.yul\":9791:9922   */\n      tag_369\n        /* \"#utility.yul\":9917:9921   */\n      dup2\n        /* \"#utility.yul\":9791:9922   */\n      tag_251\n      jump\t// in\n    tag_369:\n        /* \"#utility.yul\":9783:9922   */\n      swap1\n      pop\n        /* \"#utility.yul\":9510:9929   */\n      swap2\n      swap1\n      pop\n      jump\t// out\n        /* \"#utility.yul\":9935:10078   */\n    tag_252:\n        /* \"#utility.yul\":9992:9997   */\n      0x00\n        /* \"#utility.yul\":10023:10029   */\n      dup2\n        /* \"#utility.yul\":10017:10030   */\n      mload\n        /* \"#utility.yul\":10008:10030   */\n      swap1\n      pop\n        /* \"#utility.yul\":10039:10072   */\n      tag_371\n        /* \"#utility.yul\":10066:10071   */\n      dup2\n        /* \"#utility.yul\":10039:10072   */\n      tag_220\n      jump\t// in\n    tag_371:\n        /* \"#utility.yul\":9935:10078   */\n      swap3\n      swap2\n      pop\n      pop\n      jump\t// out\n        /* \"#utility.yul\":10084:10435   */\n    tag_120:\n        /* \"#utility.yul\":10154:10160   */\n      0x00\n        /* \"#utility.yul\":10203:10205   */\n      0x20\n        /* \"#utility.yul\":10191:10200   */\n      dup3\n        /* \"#utility.yul\":10182:10189   */\n      dup5\n        /* \"#utility.yul\":10178:10201   */\n      sub\n        /* \"#utility.yul\":10174:10206   */\n      slt\n        /* \"#utility.yul\":10171:10290   */\n      iszero\n      tag_373\n      jumpi\n        /* \"#utility.yul\":10209:10288   */\n      tag_374\n      tag_218\n      jump\t// in\n    tag_374:\n        /* \"#utility.yul\":10171:10290   */\n    tag_373:\n        /* \"#utility.yul\":10329:10330   */\n      0x00\n        /* \"#utility.yul\":10354:10418   */\n      tag_375\n        /* \"#utility.yul\":10410:10417   */\n      dup5\n        /* \"#utility.yul\":10401:10407   */\n      dup3\n        /* \"#utility.yul\":10390:10399   */\n      dup6\n        /* \"#utility.yul\":10386:10408   */\n      add\n        /* \"#utility.yul\":10354:10418   */\n      tag_252\n      jump\t// in\n    tag_375:\n        /* \"#utility.yul\":10344:10418   */\n      swap2\n      pop\n        /* \"#utility.yul\":10300:10428   */\n      pop\n        /* \"#utility.yul\":10084:10435   */\n      swap3\n      swap2\n      pop\n      pop\n      jump\t// out\n        /* \"#utility.yul\":10441:10618   */\n    tag_253:\n        /* \"#utility.yul\":10581:10610   */\n      0x4e6f7420656e6f756768204c494e4b20696e20636f6e74726163740000000000\n        /* \"#utility.yul\":10577:10578   */\n      0x00\n        /* \"#utility.yul\":10569:10575   */\n      dup3\n        /* \"#utility.yul\":10565:10579   */\n      add\n        /* \"#utility.yul\":10558:10611   */\n      mstore\n        /* \"#utility.yul\":10441:10618   */\n      pop\n      jump\t// out\n        /* \"#utility.yul\":10624:10990   */\n    tag_254:\n        /* \"#utility.yul\":10766:10769   */\n      0x00\n        /* \"#utility.yul\":10787:10854   */\n      tag_378\n        /* \"#utility.yul\":10851:10853   */\n      0x1b\n        /* \"#utility.yul\":10846:10849   */\n      dup4\n        /* \"#utility.yul\":10787:10854   */\n      tag_240\n      jump\t// in\n    tag_378:\n        /* \"#utility.yul\":10780:10854   */\n      swap2\n      pop\n        /* \"#utility.yul\":10863:10956   */\n      tag_379\n        /* \"#utility.yul\":10952:10955   */\n      dup3\n        /* \"#utility.yul\":10863:10956   */\n      tag_253\n      jump\t// in\n    tag_379:\n        /* \"#utility.yul\":10981:10983   */\n      0x20\n        /* \"#utility.yul\":10976:10979   */\n      dup3\n        /* \"#utility.yul\":10972:10984   */\n      add\n        /* \"#utility.yul\":10965:10984   */\n      swap1\n      pop\n        /* \"#utility.yul\":10624:10990   */\n      swap2\n      swap1\n      pop\n      jump\t// out\n        /* \"#utility.yul\":10996:11415   */\n    tag_123:\n        /* \"#utility.yul\":11162:11166   */\n      0x00\n        /* \"#utility.yul\":11200:11202   */\n      0x20\n        /* \"#utility.yul\":11189:11198   */\n      dup3\n        /* \"#utility.yul\":11185:11203   */\n      add\n        /* \"#utility.yul\":11177:11203   */\n      swap1\n      pop\n        /* \"#utility.yul\":11249:11258   */\n      dup2\n        /* \"#utility.yul\":11243:11247   */\n      dup2\n        /* \"#utility.yul\":11239:11259   */\n      sub\n        /* \"#utility.yul\":11235:11236   */\n      0x00\n        /* \"#utility.yul\":11224:11233   */\n      dup4\n        /* \"#utility.yul\":11220:11237   */\n      add\n        /* \"#utility.yul\":11213:11260   */\n      mstore\n        /* \"#utility.yul\":11277:11408   */\n      tag_381\n        /* \"#utility.yul\":11403:11407   */\n      dup2\n        /* \"#utility.yul\":11277:11408   */\n      tag_254\n      jump\t// in\n    tag_381:\n        /* \"#utility.yul\":11269:11408   */\n      swap1\n      pop\n        /* \"#utility.yul\":10996:11415   */\n      swap2\n      swap1\n      pop\n      jump\t// out\n        /* \"#utility.yul\":11421:11601   */\n    tag_255:\n        /* \"#utility.yul\":11469:11546   */\n      0x4e487b7100000000000000000000000000000000000000000000000000000000\n        /* \"#utility.yul\":11466:11467   */\n      0x00\n        /* \"#utility.yul\":11459:11547   */\n      mstore\n        /* \"#utility.yul\":11566:11570   */\n      0x12\n        /* \"#utility.yul\":11563:11564   */\n      0x04\n        /* \"#utility.yul\":11556:11571   */\n      mstore\n        /* \"#utility.yul\":11590:11594   */\n      0x24\n        /* \"#utility.yul\":11587:11588   */\n      0x00\n        /* \"#utility.yul\":11580:11595   */\n      revert\n        /* \"#utility.yul\":11607:11783   */\n    tag_138:\n        /* \"#utility.yul\":11639:11640   */\n      0x00\n        /* \"#utility.yul\":11656:11676   */\n      tag_384\n        /* \"#utility.yul\":11674:11675   */\n      dup3\n        /* \"#utility.yul\":11656:11676   */\n      tag_215\n      jump\t// in\n    tag_384:\n        /* \"#utility.yul\":11651:11676   */\n      swap2\n      pop\n        /* \"#utility.yul\":11690:11710   */\n      tag_385\n        /* \"#utility.yul\":11708:11709   */\n      dup4\n        /* \"#utility.yul\":11690:11710   */\n      tag_215\n      jump\t// in\n    tag_385:\n        /* \"#utility.yul\":11685:11710   */\n      swap3\n      pop\n        /* \"#utility.yul\":11729:11730   */\n      dup3\n        /* \"#utility.yul\":11719:11754   */\n      tag_386\n      jumpi\n        /* \"#utility.yul\":11734:11752   */\n      tag_387\n      tag_255\n      jump\t// in\n    tag_387:\n        /* \"#utility.yul\":11719:11754   */\n    tag_386:\n        /* \"#utility.yul\":11775:11776   */\n      dup3\n        /* \"#utility.yul\":11772:11773   */\n      dup3\n        /* \"#utility.yul\":11768:11777   */\n      mod\n        /* \"#utility.yul\":11763:11777   */\n      swap1\n      pop\n        /* \"#utility.yul\":11607:11783   */\n      swap3\n      swap2\n      pop\n      pop\n      jump\t// out\n        /* \"#utility.yul\":11789:12121   */\n    tag_143:\n        /* \"#utility.yul\":11910:11914   */\n      0x00\n        /* \"#utility.yul\":11948:11950   */\n      0x40\n        /* \"#utility.yul\":11937:11946   */\n      dup3\n        /* \"#utility.yul\":11933:11951   */\n      add\n        /* \"#utility.yul\":11925:11951   */\n      swap1\n      pop\n        /* \"#utility.yul\":11961:12032   */\n      tag_389\n        /* \"#utility.yul\":12029:12030   */\n      0x00\n        /* \"#utility.yul\":12018:12027   */\n      dup4\n        /* \"#utility.yul\":12014:12031   */\n      add\n        /* \"#utility.yul\":12005:12011   */\n      dup6\n        /* \"#utility.yul\":11961:12032   */\n      tag_239\n      jump\t// in\n    tag_389:\n        /* \"#utility.yul\":12042:12114   */\n      tag_390\n        /* \"#utility.yul\":12110:12112   */\n      0x20\n        /* \"#utility.yul\":12099:12108   */\n      dup4\n        /* \"#utility.yul\":12095:12113   */\n      add\n        /* \"#utility.yul\":12086:12092   */\n      dup5\n        /* \"#utility.yul\":12042:12114   */\n      tag_216\n      jump\t// in\n    tag_390:\n        /* \"#utility.yul\":11789:12121   */\n      swap4\n      swap3\n      pop\n      pop\n      pop\n      jump\t// out\n        /* \"#utility.yul\":12127:12225   */\n    tag_256:\n        /* \"#utility.yul\":12178:12184   */\n      0x00\n        /* \"#utility.yul\":12212:12217   */\n      dup2\n        /* \"#utility.yul\":12206:12218   */\n      mload\n        /* \"#utility.yul\":12196:12218   */\n      swap1\n      pop\n        /* \"#utility.yul\":12127:12225   */\n      swap2\n      swap1\n      pop\n      jump\t// out\n        /* \"#utility.yul\":12231:12399   */\n    tag_257:\n        /* \"#utility.yul\":12314:12325   */\n      0x00\n        /* \"#utility.yul\":12348:12354   */\n      dup3\n        /* \"#utility.yul\":12343:12346   */\n      dup3\n        /* \"#utility.yul\":12336:12355   */\n      mstore\n        /* \"#utility.yul\":12388:12392   */\n      0x20\n        /* \"#utility.yul\":12383:12386   */\n      dup3\n        /* \"#utility.yul\":12379:12393   */\n      add\n        /* \"#utility.yul\":12364:12393   */\n      swap1\n      pop\n        /* \"#utility.yul\":12231:12399   */\n      swap3\n      swap2\n      pop\n      pop\n      jump\t// out\n        /* \"#utility.yul\":12405:12651   */\n    tag_258:\n        /* \"#utility.yul\":12486:12487   */\n      0x00\n        /* \"#utility.yul\":12496:12609   */\n    tag_394:\n        /* \"#utility.yul\":12510:12516   */\n      dup4\n        /* \"#utility.yul\":12507:12508   */\n      dup2\n        /* \"#utility.yul\":12504:12517   */\n      lt\n        /* \"#utility.yul\":12496:12609   */\n      iszero\n      tag_396\n      jumpi\n        /* \"#utility.yul\":12595:12596   */\n      dup1\n        /* \"#utility.yul\":12590:12593   */\n      dup3\n        /* \"#utility.yul\":12586:12597   */\n      add\n        /* \"#utility.yul\":12580:12598   */\n      mload\n        /* \"#utility.yul\":12576:12577   */\n      dup2\n        /* \"#utility.yul\":12571:12574   */\n      dup5\n        /* \"#utility.yul\":12567:12578   */\n      add\n        /* \"#utility.yul\":12560:12599   */\n      mstore\n        /* \"#utility.yul\":12532:12534   */\n      0x20\n        /* \"#utility.yul\":12529:12530   */\n      dup2\n        /* \"#utility.yul\":12525:12535   */\n      add\n        /* \"#utility.yul\":12520:12535   */\n      swap1\n      pop\n        /* \"#utility.yul\":12496:12609   */\n      jump(tag_394)\n    tag_396:\n        /* \"#utility.yul\":12643:12644   */\n      0x00\n        /* \"#utility.yul\":12634:12640   */\n      dup5\n        /* \"#utility.yul\":12629:12632   */\n      dup5\n        /* \"#utility.yul\":12625:12641   */\n      add\n        /* \"#utility.yul\":12618:12645   */\n      mstore\n        /* \"#utility.yul\":12467:12651   */\n      pop\n        /* \"#utility.yul\":12405:12651   */\n      pop\n      pop\n      pop\n      jump\t// out\n        /* \"#utility.yul\":12657:12759   */\n    tag_259:\n        /* \"#utility.yul\":12698:12704   */\n      0x00\n        /* \"#utility.yul\":12749:12751   */\n      0x1f\n        /* \"#utility.yul\":12745:12752   */\n      not\n        /* \"#utility.yul\":12740:12742   */\n      0x1f\n        /* \"#utility.yul\":12733:12738   */\n      dup4\n        /* \"#utility.yul\":12729:12743   */\n      add\n        /* \"#utility.yul\":12725:12753   */\n      and\n        /* \"#utility.yul\":12715:12753   */\n      swap1\n      pop\n        /* \"#utility.yul\":12657:12759   */\n      swap2\n      swap1\n      pop\n      jump\t// out\n        /* \"#utility.yul\":12765:13138   */\n    tag_260:\n        /* \"#utility.yul\":12851:12854   */\n      0x00\n        /* \"#utility.yul\":12879:12917   */\n      tag_399\n        /* \"#utility.yul\":12911:12916   */\n      dup3\n        /* \"#utility.yul\":12879:12917   */\n      tag_256\n      jump\t// in\n    tag_399:\n        /* \"#utility.yul\":12933:13003   */\n      tag_400\n        /* \"#utility.yul\":12996:13002   */\n      dup2\n        /* \"#utility.yul\":12991:12994   */\n      dup6\n        /* \"#utility.yul\":12933:13003   */\n      tag_257\n      jump\t// in\n    tag_400:\n        /* \"#utility.yul\":12926:13003   */\n      swap4\n      pop\n        /* \"#utility.yul\":13012:13077   */\n      tag_401\n        /* \"#utility.yul\":13070:13076   */\n      dup2\n        /* \"#utility.yul\":13065:13068   */\n      dup6\n        /* \"#utility.yul\":13058:13062   */\n      0x20\n        /* \"#utility.yul\":13051:13056   */\n      dup7\n        /* \"#utility.yul\":13047:13063   */\n      add\n        /* \"#utility.yul\":13012:13077   */\n      tag_258\n      jump\t// in\n    tag_401:\n        /* \"#utility.yul\":13102:13131   */\n      tag_402\n        /* \"#utility.yul\":13124:13130   */\n      dup2\n        /* \"#utility.yul\":13102:13131   */\n      tag_259\n      jump\t// in\n    tag_402:\n        /* \"#utility.yul\":13097:13100   */\n      dup5\n        /* \"#utility.yul\":13093:13132   */\n      add\n        /* \"#utility.yul\":13086:13132   */\n      swap2\n      pop\n        /* \"#utility.yul\":12855:13138   */\n      pop\n        /* \"#utility.yul\":12765:13138   */\n      swap3\n      swap2\n      pop\n      pop\n      jump\t// out\n        /* \"#utility.yul\":13144:13673   */\n    tag_145:\n        /* \"#utility.yul\":13311:13315   */\n      0x00\n        /* \"#utility.yul\":13349:13351   */\n      0x60\n        /* \"#utility.yul\":13338:13347   */\n      dup3\n        /* \"#utility.yul\":13334:13352   */\n      add\n        /* \"#utility.yul\":13326:13352   */\n      swap1\n      pop\n        /* \"#utility.yul\":13362:13433   */\n      tag_404\n        /* \"#utility.yul\":13430:13431   */\n      0x00\n        /* \"#utility.yul\":13419:13428   */\n      dup4\n        /* \"#utility.yul\":13415:13432   */\n      add\n        /* \"#utility.yul\":13406:13412   */\n      dup7\n        /* \"#utility.yul\":13362:13433   */\n      tag_231\n      jump\t// in\n    tag_404:\n        /* \"#utility.yul\":13443:13515   */\n      tag_405\n        /* \"#utility.yul\":13511:13513   */\n      0x20\n        /* \"#utility.yul\":13500:13509   */\n      dup4\n        /* \"#utility.yul\":13496:13514   */\n      add\n        /* \"#utility.yul\":13487:13493   */\n      dup6\n        /* \"#utility.yul\":13443:13515   */\n      tag_216\n      jump\t// in\n    tag_405:\n        /* \"#utility.yul\":13562:13571   */\n      dup2\n        /* \"#utility.yul\":13556:13560   */\n      dup2\n        /* \"#utility.yul\":13552:13572   */\n      sub\n        /* \"#utility.yul\":13547:13549   */\n      0x40\n        /* \"#utility.yul\":13536:13545   */\n      dup4\n        /* \"#utility.yul\":13532:13550   */\n      add\n        /* \"#utility.yul\":13525:13573   */\n      mstore\n        /* \"#utility.yul\":13590:13666   */\n      tag_406\n        /* \"#utility.yul\":13661:13665   */\n      dup2\n        /* \"#utility.yul\":13652:13658   */\n      dup5\n        /* \"#utility.yul\":13590:13666   */\n      tag_260\n      jump\t// in\n    tag_406:\n        /* \"#utility.yul\":13582:13666   */\n      swap1\n      pop\n        /* \"#utility.yul\":13144:13673   */\n      swap5\n      swap4\n      pop\n      pop\n      pop\n      pop\n      jump\t// out\n        /* \"#utility.yul\":13679:13795   */\n    tag_261:\n        /* \"#utility.yul\":13749:13770   */\n      tag_408\n        /* \"#utility.yul\":13764:13769   */\n      dup2\n        /* \"#utility.yul\":13749:13770   */\n      tag_237\n      jump\t// in\n    tag_408:\n        /* \"#utility.yul\":13742:13747   */\n      dup2\n        /* \"#utility.yul\":13739:13771   */\n      eq\n        /* \"#utility.yul\":13729:13789   */\n      tag_409\n      jumpi\n        /* \"#utility.yul\":13785:13786   */\n      0x00\n        /* \"#utility.yul\":13782:13783   */\n      dup1\n        /* \"#utility.yul\":13775:13787   */\n      revert\n        /* \"#utility.yul\":13729:13789   */\n    tag_409:\n        /* \"#utility.yul\":13679:13795   */\n      pop\n      jump\t// out\n        /* \"#utility.yul\":13801:13938   */\n    tag_262:\n        /* \"#utility.yul\":13855:13860   */\n      0x00\n        /* \"#utility.yul\":13886:13892   */\n      dup2\n        /* \"#utility.yul\":13880:13893   */\n      mload\n        /* \"#utility.yul\":13871:13893   */\n      swap1\n      pop\n        /* \"#utility.yul\":13902:13932   */\n      tag_411\n        /* \"#utility.yul\":13926:13931   */\n      dup2\n        /* \"#utility.yul\":13902:13932   */\n      tag_261\n      jump\t// in\n    tag_411:\n        /* \"#utility.yul\":13801:13938   */\n      swap3\n      swap2\n      pop\n      pop\n      jump\t// out\n        /* \"#utility.yul\":13944:14289   */\n    tag_149:\n        /* \"#utility.yul\":14011:14017   */\n      0x00\n        /* \"#utility.yul\":14060:14062   */\n      0x20\n        /* \"#utility.yul\":14048:14057   */\n      dup3\n        /* \"#utility.yul\":14039:14046   */\n      dup5\n        /* \"#utility.yul\":14035:14058   */\n      sub\n        /* \"#utility.yul\":14031:14063   */\n      slt\n        /* \"#utility.yul\":14028:14147   */\n      iszero\n      tag_413\n      jumpi\n        /* \"#utility.yul\":14066:14145   */\n      tag_414\n      tag_218\n      jump\t// in\n    tag_414:\n        /* \"#utility.yul\":14028:14147   */\n    tag_413:\n        /* \"#utility.yul\":14186:14187   */\n      0x00\n        /* \"#utility.yul\":14211:14272   */\n      tag_415\n        /* \"#utility.yul\":14264:14271   */\n      dup5\n        /* \"#utility.yul\":14255:14261   */\n      dup3\n        /* \"#utility.yul\":14244:14253   */\n      dup6\n        /* \"#utility.yul\":14240:14262   */\n      add\n        /* \"#utility.yul\":14211:14272   */\n      tag_262\n      jump\t// in\n    tag_415:\n        /* \"#utility.yul\":14201:14272   */\n      swap2\n      pop\n        /* \"#utility.yul\":14157:14282   */\n      pop\n        /* \"#utility.yul\":13944:14289   */\n      swap3\n      swap2\n      pop\n      pop\n      jump\t// out\n        /* \"#utility.yul\":14295:14486   */\n    tag_153:\n        /* \"#utility.yul\":14335:14338   */\n      0x00\n        /* \"#utility.yul\":14354:14374   */\n      tag_417\n        /* \"#utility.yul\":14372:14373   */\n      dup3\n        /* \"#utility.yul\":14354:14374   */\n      tag_215\n      jump\t// in\n    tag_417:\n        /* \"#utility.yul\":14349:14374   */\n      swap2\n      pop\n        /* \"#utility.yul\":14388:14408   */\n      tag_418\n        /* \"#utility.yul\":14406:14407   */\n      dup4\n        /* \"#utility.yul\":14388:14408   */\n      tag_215\n      jump\t// in\n    tag_418:\n        /* \"#utility.yul\":14383:14408   */\n      swap3\n      pop\n        /* \"#utility.yul\":14431:14432   */\n      dup3\n        /* \"#utility.yul\":14428:14429   */\n      dup3\n        /* \"#utility.yul\":14424:14433   */\n      add\n        /* \"#utility.yul\":14417:14433   */\n      swap1\n      pop\n        /* \"#utility.yul\":14452:14455   */\n      dup1\n        /* \"#utility.yul\":14449:14450   */\n      dup3\n        /* \"#utility.yul\":14446:14456   */\n      gt\n        /* \"#utility.yul\":14443:14479   */\n      iszero\n      tag_419\n      jumpi\n        /* \"#utility.yul\":14459:14477   */\n      tag_420\n      tag_243\n      jump\t// in\n    tag_420:\n        /* \"#utility.yul\":14443:14479   */\n    tag_419:\n        /* \"#utility.yul\":14295:14486   */\n      swap3\n      swap2\n      pop\n      pop\n      jump\t// out\n        /* \"#utility.yul\":14492:15045   */\n    tag_173:\n        /* \"#utility.yul\":14669:14673   */\n      0x00\n        /* \"#utility.yul\":14707:14710   */\n      0x80\n        /* \"#utility.yul\":14696:14705   */\n      dup3\n        /* \"#utility.yul\":14692:14711   */\n      add\n        /* \"#utility.yul\":14684:14711   */\n      swap1\n      pop\n        /* \"#utility.yul\":14721:14792   */\n      tag_422\n        /* \"#utility.yul\":14789:14790   */\n      0x00\n        /* \"#utility.yul\":14778:14787   */\n      dup4\n        /* \"#utility.yul\":14774:14791   */\n      add\n        /* \"#utility.yul\":14765:14771   */\n      dup8\n        /* \"#utility.yul\":14721:14792   */\n      tag_239\n      jump\t// in\n    tag_422:\n        /* \"#utility.yul\":14802:14874   */\n      tag_423\n        /* \"#utility.yul\":14870:14872   */\n      0x20\n        /* \"#utility.yul\":14859:14868   */\n      dup4\n        /* \"#utility.yul\":14855:14873   */\n      add\n        /* \"#utility.yul\":14846:14852   */\n      dup7\n        /* \"#utility.yul\":14802:14874   */\n      tag_216\n      jump\t// in\n    tag_423:\n        /* \"#utility.yul\":14884:14956   */\n      tag_424\n        /* \"#utility.yul\":14952:14954   */\n      0x40\n        /* \"#utility.yul\":14941:14950   */\n      dup4\n        /* \"#utility.yul\":14937:14955   */\n      add\n        /* \"#utility.yul\":14928:14934   */\n      dup6\n        /* \"#utility.yul\":14884:14956   */\n      tag_231\n      jump\t// in\n    tag_424:\n        /* \"#utility.yul\":14966:15038   */\n      tag_425\n        /* \"#utility.yul\":15034:15036   */\n      0x60\n        /* \"#utility.yul\":15023:15032   */\n      dup4\n        /* \"#utility.yul\":15019:15037   */\n      add\n        /* \"#utility.yul\":15010:15016   */\n      dup5\n        /* \"#utility.yul\":14966:15038   */\n      tag_216\n      jump\t// in\n    tag_425:\n        /* \"#utility.yul\":14492:15045   */\n      swap6\n      swap5\n      pop\n      pop\n      pop\n      pop\n      pop\n      jump\t// out\n        /* \"#utility.yul\":15051:15130   */\n    tag_263:\n        /* \"#utility.yul\":15090:15097   */\n      0x00\n        /* \"#utility.yul\":15119:15124   */\n      dup2\n        /* \"#utility.yul\":15108:15124   */\n      swap1\n      pop\n        /* \"#utility.yul\":15051:15130   */\n      swap2\n      swap1\n      pop\n      jump\t// out\n        /* \"#utility.yul\":15136:15293   */\n    tag_264:\n        /* \"#utility.yul\":15241:15286   */\n      tag_428\n        /* \"#utility.yul\":15261:15285   */\n      tag_429\n        /* \"#utility.yul\":15279:15284   */\n      dup3\n        /* \"#utility.yul\":15261:15285   */\n      tag_232\n      jump\t// in\n    tag_429:\n        /* \"#utility.yul\":15241:15286   */\n      tag_263\n      jump\t// in\n    tag_428:\n        /* \"#utility.yul\":15236:15239   */\n      dup3\n        /* \"#utility.yul\":15229:15287   */\n      mstore\n        /* \"#utility.yul\":15136:15293   */\n      pop\n      pop\n      jump\t// out\n        /* \"#utility.yul\":15299:15696   */\n    tag_176:\n        /* \"#utility.yul\":15439:15442   */\n      0x00\n        /* \"#utility.yul\":15454:15529   */\n      tag_431\n        /* \"#utility.yul\":15525:15528   */\n      dup3\n        /* \"#utility.yul\":15516:15522   */\n      dup6\n        /* \"#utility.yul\":15454:15529   */\n      tag_264\n      jump\t// in\n    tag_431:\n        /* \"#utility.yul\":15554:15556   */\n      0x20\n        /* \"#utility.yul\":15549:15552   */\n      dup3\n        /* \"#utility.yul\":15545:15557   */\n      add\n        /* \"#utility.yul\":15538:15557   */\n      swap2\n      pop\n        /* \"#utility.yul\":15567:15642   */\n      tag_432\n        /* \"#utility.yul\":15638:15641   */\n      dup3\n        /* \"#utility.yul\":15629:15635   */\n      dup5\n        /* \"#utility.yul\":15567:15642   */\n      tag_249\n      jump\t// in\n    tag_432:\n        /* \"#utility.yul\":15667:15669   */\n      0x20\n        /* \"#utility.yul\":15662:15665   */\n      dup3\n        /* \"#utility.yul\":15658:15670   */\n      add\n        /* \"#utility.yul\":15651:15670   */\n      swap2\n      pop\n        /* \"#utility.yul\":15687:15690   */\n      dup2\n        /* \"#utility.yul\":15680:15690   */\n      swap1\n      pop\n        /* \"#utility.yul\":15299:15696   */\n      swap4\n      swap3\n      pop\n      pop\n      pop\n      jump\t// out\n        /* \"#utility.yul\":15702:15935   */\n    tag_185:\n        /* \"#utility.yul\":15741:15744   */\n      0x00\n        /* \"#utility.yul\":15764:15788   */\n      tag_434\n        /* \"#utility.yul\":15782:15787   */\n      dup3\n        /* \"#utility.yul\":15764:15788   */\n      tag_215\n      jump\t// in\n    tag_434:\n        /* \"#utility.yul\":15755:15788   */\n      swap2\n      pop\n        /* \"#utility.yul\":15810:15876   */\n      0xffffffffffffffffffffffffffffffffffffffffffffffffffffffffffffffff\n        /* \"#utility.yul\":15803:15808   */\n      dup3\n        /* \"#utility.yul\":15800:15877   */\n      sub\n        /* \"#utility.yul\":15797:15900   */\n      tag_435\n      jumpi\n        /* \"#utility.yul\":15880:15898   */\n      tag_436\n      tag_243\n      jump\t// in\n    tag_436:\n        /* \"#utility.yul\":15797:15900   */\n    tag_435:\n        /* \"#utility.yul\":15927:15928   */\n      0x01\n        /* \"#utility.yul\":15920:15925   */\n      dup3\n        /* \"#utility.yul\":15916:15929   */\n      add\n        /* \"#utility.yul\":15909:15929   */\n      swap1\n      pop\n        /* \"#utility.yul\":15702:15935   */\n      swap2\n      swap1\n      pop\n      jump\t// out\n        /* \"#utility.yul\":15941:16121   */\n    tag_188:\n        /* \"#utility.yul\":15989:16066   */\n      0x4e487b7100000000000000000000000000000000000000000000000000000000\n        /* \"#utility.yul\":15986:15987   */\n      0x00\n        /* \"#utility.yul\":15979:16067   */\n      mstore\n        /* \"#utility.yul\":16086:16090   */\n      0x41\n        /* \"#utility.yul\":16083:16084   */\n      0x04\n        /* \"#utility.yul\":16076:16091   */\n      mstore\n        /* \"#utility.yul\":16110:16114   */\n      0x24\n        /* \"#utility.yul\":16107:16108   */\n      0x00\n        /* \"#utility.yul\":16100:16115   */\n      revert\n\n    auxdata: 0xa264697066735822122094563277e5e19035e554d1ad4f38a5fda67eddd98f868a0604ee065f825c642164736f6c63430008110033\n}\n",
				"bytecode": {
					"linkReferences": {},
					"object": "60c06040523480156200001157600080fd5b5060405162001aae38038062001aae8339818101604052810190620000379190620001dc565b83838173ffffffffffffffffffffffffffffffffffffffff1660a08173ffffffffffffffffffffffffffffffffffffffff16815250508073ffffffffffffffffffffffffffffffffffffffff1660808173ffffffffffffffffffffffffffffffffffffffff16815250505050816008819055508060098190555033600160006101000a81548173ffffffffffffffffffffffffffffffffffffffff021916908373ffffffffffffffffffffffffffffffffffffffff160217905550505050506200024e565b600080fd5b600073ffffffffffffffffffffffffffffffffffffffff82169050919050565b60006200012e8262000101565b9050919050565b620001408162000121565b81146200014c57600080fd5b50565b600081519050620001608162000135565b92915050565b6000819050919050565b6200017b8162000166565b81146200018757600080fd5b50565b6000815190506200019b8162000170565b92915050565b6000819050919050565b620001b681620001a1565b8114620001c257600080fd5b50565b600081519050620001d681620001ab565b92915050565b60008060008060808587031215620001f957620001f8620000fc565b5b600062000209878288016200014f565b94505060206200021c878288016200014f565b93505060406200022f878288016200018a565b92505060606200024287828801620001c5565b91505092959194509250565b60805160a05161182c62000282600039600081816105ac015261090c01526000818161069301526108d0015261182c6000f3fe6080604052600436106100dd5760003560e01c806394985ddd1161007f578063dbdff2c111610059578063dbdff2c1146102b0578063e97dcb62146102db578063ed6c7931146102e5578063f71d96cb14610322576100dd565b806394985ddd1461021f578063a231b48414610248578063c688d10a14610285576100dd565b806382b0db4f116100bb57806382b0db4f146101615780638b5b9ccc1461019e5780638da5cb5b146101c957806391f6cfe2146101f4576100dd565b806312065fe0146100e257806350b447121461010d5780635d495aea1461014a575b600080fd5b3480156100ee57600080fd5b506100f761035f565b6040516101049190610f84565b60405180910390f35b34801561011957600080fd5b50610134600480360381019061012f9190610fd0565b610367565b6040516101419190610f84565b60405180910390f35b34801561015657600080fd5b5061015f61038b565b005b34801561016d57600080fd5b5061018860048036038101906101839190610fd0565b610425565b6040516101959190610f84565b60405180910390f35b3480156101aa57600080fd5b506101b36104a1565b6040516101c091906110ed565b60405180910390f35b3480156101d557600080fd5b506101de61052f565b6040516101eb919061111e565b60405180910390f35b34801561020057600080fd5b50610209610555565b6040516102169190610f84565b60405180910390f35b34801561022b57600080fd5b506102466004803603810190610241919061116f565b6105aa565b005b34801561025457600080fd5b5061026f600480360381019061026a9190610fd0565b610646565b60405161027c91906111d0565b60405180910390f35b34801561029157600080fd5b5061029a610679565b6040516102a79190611206565b60405180910390f35b3480156102bc57600080fd5b506102c561068c565b6040516102d29190611230565b60405180910390f35b6102e361077f565b005b3480156102f157600080fd5b5061030c60048036038101906103079190610fd0565b61082b565b6040516103199190610f84565b60405180910390f35b34801561032e57600080fd5b5061034960048036038101906103449190610fd0565b61084f565b604051610356919061111e565b60405180910390f35b600047905090565b6004818154811061037757600080fd5b906000526020600020016000915090505481565b600160009054906101000a900473ffffffffffffffffffffffffffffffffffffffff1673ffffffffffffffffffffffffffffffffffffffff163373ffffffffffffffffffffffffffffffffffffffff16146103e557600080fd5b600760009054906101000a900460ff16156103ff57600080fd5b6001600760006101000a81548160ff02191690831515021790555061042261068c565b50565b600060068054905082111561046f576040517f08c379a0000000000000000000000000000000000000000000000000000000008152600401610466906112a8565b60405180910390fd5b600660018361047e91906112f7565b8154811061048f5761048e61132b565b5b90600052602060002001549050919050565b6060600280548060200260200160405190810160405280929190818152602001828054801561052557602002820191906000526020600020905b8160009054906101000a900473ffffffffffffffffffffffffffffffffffffffff1673ffffffffffffffffffffffffffffffffffffffff16815260200190600101908083116104db575b5050505050905090565b600160009054906101000a900473ffffffffffffffffffffffffffffffffffffffff1681565b6000600160009054906101000a900473ffffffffffffffffffffffffffffffffffffffff164260405160200161058c9291906113c3565b6040516020818303038152906040528051906020012060001c905090565b7f000000000000000000000000000000000000000000000000000000000000000073ffffffffffffffffffffffffffffffffffffffff163373ffffffffffffffffffffffffffffffffffffffff1614610638576040517f08c379a000000000000000000000000000000000000000000000000000000000815260040161062f9061143b565b60405180910390fd5b610642828261088e565b5050565b60056020528060005260406000206000915054906101000a900473ffffffffffffffffffffffffffffffffffffffff1681565b600760009054906101000a900460ff1681565b60006009547f000000000000000000000000000000000000000000000000000000000000000073ffffffffffffffffffffffffffffffffffffffff166370a08231306040518263ffffffff1660e01b81526004016106ea919061111e565b602060405180830381865afa158015610707573d6000803e3d6000fd5b505050506040513d601f19601f8201168201806040525081019061072b9190611470565b101561076c576040517f08c379a0000000000000000000000000000000000000000000000000000000008152600401610763906114e9565b60405180910390fd5b61077a6008546009546108cc565b905090565b662386f26fc10000341161079257600080fd5b600061079c610555565b905060003390506004829080600181540180825580915050600190039060005260206000200160009091909190915055806005600084815260200190815260200160002060006101000a81548173ffffffffffffffffffffffffffffffffffffffff021916908373ffffffffffffffffffffffffffffffffffffffff16021790555061082781610a1c565b5050565b6006818154811061083b57600080fd5b906000526020600020016000915090505481565b6002818154811061085f57600080fd5b906000526020600020016000915054906101000a900473ffffffffffffffffffffffffffffffffffffffff1681565b6000600480549050826108a19190611538565b90506108ac81610b33565b6000600760006101000a81548160ff021916908315150217905550505050565b60007f000000000000000000000000000000000000000000000000000000000000000073ffffffffffffffffffffffffffffffffffffffff16634000aea07f000000000000000000000000000000000000000000000000000000000000000084866000604051602001610940929190611569565b6040516020818303038152906040526040518463ffffffff1660e01b815260040161096d93929190611622565b6020604051808303816000875af115801561098c573d6000803e3d6000fd5b505050506040513d601f19601f820116820180604052508101906109b0919061168c565b5060006109d28460003060008089815260200190815260200160002054610c1d565b90506001600080868152602001908152602001600020546109f391906116b9565b60008086815260200190815260200160002081905550610a138482610c59565b91505092915050565b60011515600360008373ffffffffffffffffffffffffffffffffffffffff1673ffffffffffffffffffffffffffffffffffffffff16815260200190815260200160002060009054906101000a900460ff16151514610b30576001600360008373ffffffffffffffffffffffffffffffffffffffff1673ffffffffffffffffffffffffffffffffffffffff16815260200190815260200160002060006101000a81548160ff0219169083151502179055506002819080600181540180825580915050600190039060005260206000200160009091909190916101000a81548173ffffffffffffffffffffffffffffffffffffffff021916908373ffffffffffffffffffffffffffffffffffffffff1602179055505b50565b6005600060048381548110610b4b57610b4a61132b565b5b9060005260206000200154815260200190815260200160002060009054906101000a900473ffffffffffffffffffffffffffffffffffffffff1673ffffffffffffffffffffffffffffffffffffffff166108fc479081150290604051600060405180830381858888f19350505050158015610bca573d6000803e3d6000fd5b50600660048281548110610be157610be061132b565b5b90600052602060002001549080600181540180825580915050600190039060005260206000200160009091909190915055610c1a610c8c565b50565b600084848484604051602001610c3694939291906116ed565b6040516020818303038152906040528051906020012060001c9050949350505050565b60008282604051602001610c6e929190611753565b60405160208183030381529060405280519060200120905092915050565b60005b600280549050811015610d3c576003600060028381548110610cb457610cb361132b565b5b9060005260206000200160009054906101000a900473ffffffffffffffffffffffffffffffffffffffff1673ffffffffffffffffffffffffffffffffffffffff1673ffffffffffffffffffffffffffffffffffffffff16815260200190815260200160002060006101000a81549060ff02191690558080610d349061177f565b915050610c8f565b50600067ffffffffffffffff811115610d5857610d576117c7565b5b604051908082528060200260200182016040528015610d865781602001602082028036833780820191505090505b5060029080519060200190610d9c929190610e77565b5060005b600480549050811015610e14576005600060048381548110610dc557610dc461132b565b5b9060005260206000200154815260200190815260200160002060006101000a81549073ffffffffffffffffffffffffffffffffffffffff02191690558080610e0c9061177f565b915050610da0565b50600067ffffffffffffffff811115610e3057610e2f6117c7565b5b604051908082528060200260200182016040528015610e5e5781602001602082028036833780820191505090505b5060049080519060200190610e74929190610f01565b50565b828054828255906000526020600020908101928215610ef0579160200282015b82811115610eef5782518260006101000a81548173ffffffffffffffffffffffffffffffffffffffff021916908373ffffffffffffffffffffffffffffffffffffffff16021790555091602001919060010190610e97565b5b509050610efd9190610f4e565b5090565b828054828255906000526020600020908101928215610f3d579160200282015b82811115610f3c578251825591602001919060010190610f21565b5b509050610f4a9190610f4e565b5090565b5b80821115610f67576000816000905550600101610f4f565b5090565b6000819050919050565b610f7e81610f6b565b82525050565b6000602082019050610f996000830184610f75565b92915050565b600080fd5b610fad81610f6b565b8114610fb857600080fd5b50565b600081359050610fca81610fa4565b92915050565b600060208284031215610fe657610fe5610f9f565b5b6000610ff484828501610fbb565b91505092915050565b600081519050919050565b600082825260208201905092915050565b6000819050602082019050919050565b600073ffffffffffffffffffffffffffffffffffffffff82169050919050565b600061105482611029565b9050919050565b61106481611049565b82525050565b6000611076838361105b565b60208301905092915050565b6000602082019050919050565b600061109a82610ffd565b6110a48185611008565b93506110af83611019565b8060005b838110156110e05781516110c7888261106a565b97506110d283611082565b9250506001810190506110b3565b5085935050505092915050565b60006020820190508181036000830152611107818461108f565b905092915050565b61111881611049565b82525050565b6000602082019050611133600083018461110f565b92915050565b6000819050919050565b61114c81611139565b811461115757600080fd5b50565b60008135905061116981611143565b92915050565b6000806040838503121561118657611185610f9f565b5b60006111948582860161115a565b92505060206111a585828601610fbb565b9150509250929050565b60006111ba82611029565b9050919050565b6111ca816111af565b82525050565b60006020820190506111e560008301846111c1565b92915050565b60008115159050919050565b611200816111eb565b82525050565b600060208201905061121b60008301846111f7565b92915050565b61122a81611139565b82525050565b60006020820190506112456000830184611221565b92915050565b600082825260208201905092915050565b7f5468657265206973206e6f207375636820726f756e6400000000000000000000600082015250565b600061129260168361124b565b915061129d8261125c565b602082019050919050565b600060208201905081810360008301526112c181611285565b9050919050565b7f4e487b7100000000000000000000000000000000000000000000000000000000600052601160045260246000fd5b600061130282610f6b565b915061130d83610f6b565b9250828203905081811115611325576113246112c8565b5b92915050565b7f4e487b7100000000000000000000000000000000000000000000000000000000600052603260045260246000fd5b60008160601b9050919050565b60006113728261135a565b9050919050565b600061138482611367565b9050919050565b61139c61139782611049565b611379565b82525050565b6000819050919050565b6113bd6113b882610f6b565b6113a2565b82525050565b60006113cf828561138b565b6014820191506113df82846113ac565b6020820191508190509392505050565b7f4f6e6c7920565246436f6f7264696e61746f722063616e2066756c66696c6c00600082015250565b6000611425601f8361124b565b9150611430826113ef565b602082019050919050565b6000602082019050818103600083015261145481611418565b9050919050565b60008151905061146a81610fa4565b92915050565b60006020828403121561148657611485610f9f565b5b60006114948482850161145b565b91505092915050565b7f4e6f7420656e6f756768204c494e4b20696e20636f6e74726163740000000000600082015250565b60006114d3601b8361124b565b91506114de8261149d565b602082019050919050565b60006020820190508181036000830152611502816114c6565b9050919050565b7f4e487b7100000000000000000000000000000000000000000000000000000000600052601260045260246000fd5b600061154382610f6b565b915061154e83610f6b565b92508261155e5761155d611509565b5b828206905092915050565b600060408201905061157e6000830185611221565b61158b6020830184610f75565b9392505050565b600081519050919050565b600082825260208201905092915050565b60005b838110156115cc5780820151818401526020810190506115b1565b60008484015250505050565b6000601f19601f8301169050919050565b60006115f482611592565b6115fe818561159d565b935061160e8185602086016115ae565b611617816115d8565b840191505092915050565b6000606082019050611637600083018661110f565b6116446020830185610f75565b818103604083015261165681846115e9565b9050949350505050565b611669816111eb565b811461167457600080fd5b50565b60008151905061168681611660565b92915050565b6000602082840312156116a2576116a1610f9f565b5b60006116b084828501611677565b91505092915050565b60006116c482610f6b565b91506116cf83610f6b565b92508282019050808211156116e7576116e66112c8565b5b92915050565b60006080820190506117026000830187611221565b61170f6020830186610f75565b61171c604083018561110f565b6117296060830184610f75565b95945050505050565b6000819050919050565b61174d61174882611139565b611732565b82525050565b600061175f828561173c565b60208201915061176f82846113ac565b6020820191508190509392505050565b600061178a82610f6b565b91507fffffffffffffffffffffffffffffffffffffffffffffffffffffffffffffffff82036117bc576117bb6112c8565b5b600182019050919050565b7f4e487b7100000000000000000000000000000000000000000000000000000000600052604160045260246000fdfea264697066735822122094563277e5e19035e554d1ad4f38a5fda67eddd98f868a0604ee065f825c642164736f6c63430008110033",
					"opcodes": "PUSH1 0xC0 PUSH1 0x40 MSTORE CALLVALUE DUP1 ISZERO PUSH3 0x11 JUMPI PUSH1 0x0 DUP1 REVERT JUMPDEST POP PUSH1 0x40 MLOAD PUSH3 0x1AAE CODESIZE SUB DUP1 PUSH3 0x1AAE DUP4 CODECOPY DUP2 DUP2 ADD PUSH1 0x40 MSTORE DUP2 ADD SWAP1 PUSH3 0x37 SWAP2 SWAP1 PUSH3 0x1DC JUMP JUMPDEST DUP4 DUP4 DUP2 PUSH20 0xFFFFFFFFFFFFFFFFFFFFFFFFFFFFFFFFFFFFFFFF AND PUSH1 0xA0 DUP2 PUSH20 0xFFFFFFFFFFFFFFFFFFFFFFFFFFFFFFFFFFFFFFFF AND DUP2 MSTORE POP POP DUP1 PUSH20 0xFFFFFFFFFFFFFFFFFFFFFFFFFFFFFFFFFFFFFFFF AND PUSH1 0x80 DUP2 PUSH20 0xFFFFFFFFFFFFFFFFFFFFFFFFFFFFFFFFFFFFFFFF AND DUP2 MSTORE POP POP POP POP DUP2 PUSH1 0x8 DUP2 SWAP1 SSTORE POP DUP1 PUSH1 0x9 DUP2 SWAP1 SSTORE POP CALLER PUSH1 0x1 PUSH1 0x0 PUSH2 0x100 EXP DUP2 SLOAD DUP2 PUSH20 0xFFFFFFFFFFFFFFFFFFFFFFFFFFFFFFFFFFFFFFFF MUL NOT AND SWAP1 DUP4 PUSH20 0xFFFFFFFFFFFFFFFFFFFFFFFFFFFFFFFFFFFFFFFF AND MUL OR SWAP1 SSTORE POP POP POP POP POP PUSH3 0x24E JUMP JUMPDEST PUSH1 0x0 DUP1 REVERT JUMPDEST PUSH1 0x0 PUSH20 0xFFFFFFFFFFFFFFFFFFFFFFFFFFFFFFFFFFFFFFFF DUP3 AND SWAP1 POP SWAP2 SWAP1 POP JUMP JUMPDEST PUSH1 0x0 PUSH3 0x12E DUP3 PUSH3 0x101 JUMP JUMPDEST SWAP1 POP SWAP2 SWAP1 POP JUMP JUMPDEST PUSH3 0x140 DUP2 PUSH3 0x121 JUMP JUMPDEST DUP2 EQ PUSH3 0x14C JUMPI PUSH1 0x0 DUP1 REVERT JUMPDEST POP JUMP JUMPDEST PUSH1 0x0 DUP2 MLOAD SWAP1 POP PUSH3 0x160 DUP2 PUSH3 0x135 JUMP JUMPDEST SWAP3 SWAP2 POP POP JUMP JUMPDEST PUSH1 0x0 DUP2 SWAP1 POP SWAP2 SWAP1 POP JUMP JUMPDEST PUSH3 0x17B DUP2 PUSH3 0x166 JUMP JUMPDEST DUP2 EQ PUSH3 0x187 JUMPI PUSH1 0x0 DUP1 REVERT JUMPDEST POP JUMP JUMPDEST PUSH1 0x0 DUP2 MLOAD SWAP1 POP PUSH3 0x19B DUP2 PUSH3 0x170 JUMP JUMPDEST SWAP3 SWAP2 POP POP JUMP JUMPDEST PUSH1 0x0 DUP2 SWAP1 POP SWAP2 SWAP1 POP JUMP JUMPDEST PUSH3 0x1B6 DUP2 PUSH3 0x1A1 JUMP JUMPDEST DUP2 EQ PUSH3 0x1C2 JUMPI PUSH1 0x0 DUP1 REVERT JUMPDEST POP JUMP JUMPDEST PUSH1 0x0 DUP2 MLOAD SWAP1 POP PUSH3 0x1D6 DUP2 PUSH3 0x1AB JUMP JUMPDEST SWAP3 SWAP2 POP POP JUMP JUMPDEST PUSH1 0x0 DUP1 PUSH1 0x0 DUP1 PUSH1 0x80 DUP6 DUP8 SUB SLT ISZERO PUSH3 0x1F9 JUMPI PUSH3 0x1F8 PUSH3 0xFC JUMP JUMPDEST JUMPDEST PUSH1 0x0 PUSH3 0x209 DUP8 DUP3 DUP9 ADD PUSH3 0x14F JUMP JUMPDEST SWAP5 POP POP PUSH1 0x20 PUSH3 0x21C DUP8 DUP3 DUP9 ADD PUSH3 0x14F JUMP JUMPDEST SWAP4 POP POP PUSH1 0x40 PUSH3 0x22F DUP8 DUP3 DUP9 ADD PUSH3 0x18A JUMP JUMPDEST SWAP3 POP POP PUSH1 0x60 PUSH3 0x242 DUP8 DUP3 DUP9 ADD PUSH3 0x1C5 JUMP JUMPDEST SWAP2 POP POP SWAP3 SWAP6 SWAP2 SWAP5 POP SWAP3 POP JUMP JUMPDEST PUSH1 0x80 MLOAD PUSH1 0xA0 MLOAD PUSH2 0x182C PUSH3 0x282 PUSH1 0x0 CODECOPY PUSH1 0x0 DUP2 DUP2 PUSH2 0x5AC ADD MSTORE PUSH2 0x90C ADD MSTORE PUSH1 0x0 DUP2 DUP2 PUSH2 0x693 ADD MSTORE PUSH2 0x8D0 ADD MSTORE PUSH2 0x182C PUSH1 0x0 RETURN INVALID PUSH1 0x80 PUSH1 0x40 MSTORE PUSH1 0x4 CALLDATASIZE LT PUSH2 0xDD JUMPI PUSH1 0x0 CALLDATALOAD PUSH1 0xE0 SHR DUP1 PUSH4 0x94985DDD GT PUSH2 0x7F JUMPI DUP1 PUSH4 0xDBDFF2C1 GT PUSH2 0x59 JUMPI DUP1 PUSH4 0xDBDFF2C1 EQ PUSH2 0x2B0 JUMPI DUP1 PUSH4 0xE97DCB62 EQ PUSH2 0x2DB JUMPI DUP1 PUSH4 0xED6C7931 EQ PUSH2 0x2E5 JUMPI DUP1 PUSH4 0xF71D96CB EQ PUSH2 0x322 JUMPI PUSH2 0xDD JUMP JUMPDEST DUP1 PUSH4 0x94985DDD EQ PUSH2 0x21F JUMPI DUP1 PUSH4 0xA231B484 EQ PUSH2 0x248 JUMPI DUP1 PUSH4 0xC688D10A EQ PUSH2 0x285 JUMPI PUSH2 0xDD JUMP JUMPDEST DUP1 PUSH4 0x82B0DB4F GT PUSH2 0xBB JUMPI DUP1 PUSH4 0x82B0DB4F EQ PUSH2 0x161 JUMPI DUP1 PUSH4 0x8B5B9CCC EQ PUSH2 0x19E JUMPI DUP1 PUSH4 0x8DA5CB5B EQ PUSH2 0x1C9 JUMPI DUP1 PUSH4 0x91F6CFE2 EQ PUSH2 0x1F4 JUMPI PUSH2 0xDD JUMP JUMPDEST DUP1 PUSH4 0x12065FE0 EQ PUSH2 0xE2 JUMPI DUP1 PUSH4 0x50B44712 EQ PUSH2 0x10D JUMPI DUP1 PUSH4 0x5D495AEA EQ PUSH2 0x14A JUMPI JUMPDEST PUSH1 0x0 DUP1 REVERT JUMPDEST CALLVALUE DUP1 ISZERO PUSH2 0xEE JUMPI PUSH1 0x0 DUP1 REVERT JUMPDEST POP PUSH2 0xF7 PUSH2 0x35F JUMP JUMPDEST PUSH1 0x40 MLOAD PUSH2 0x104 SWAP2 SWAP1 PUSH2 0xF84 JUMP JUMPDEST PUSH1 0x40 MLOAD DUP1 SWAP2 SUB SWAP1 RETURN JUMPDEST CALLVALUE DUP1 ISZERO PUSH2 0x119 JUMPI PUSH1 0x0 DUP1 REVERT JUMPDEST POP PUSH2 0x134 PUSH1 0x4 DUP1 CALLDATASIZE SUB DUP2 ADD SWAP1 PUSH2 0x12F SWAP2 SWAP1 PUSH2 0xFD0 JUMP JUMPDEST PUSH2 0x367 JUMP JUMPDEST PUSH1 0x40 MLOAD PUSH2 0x141 SWAP2 SWAP1 PUSH2 0xF84 JUMP JUMPDEST PUSH1 0x40 MLOAD DUP1 SWAP2 SUB SWAP1 RETURN JUMPDEST CALLVALUE DUP1 ISZERO PUSH2 0x156 JUMPI PUSH1 0x0 DUP1 REVERT JUMPDEST POP PUSH2 0x15F PUSH2 0x38B JUMP JUMPDEST STOP JUMPDEST CALLVALUE DUP1 ISZERO PUSH2 0x16D JUMPI PUSH1 0x0 DUP1 REVERT JUMPDEST POP PUSH2 0x188 PUSH1 0x4 DUP1 CALLDATASIZE SUB DUP2 ADD SWAP1 PUSH2 0x183 SWAP2 SWAP1 PUSH2 0xFD0 JUMP JUMPDEST PUSH2 0x425 JUMP JUMPDEST PUSH1 0x40 MLOAD PUSH2 0x195 SWAP2 SWAP1 PUSH2 0xF84 JUMP JUMPDEST PUSH1 0x40 MLOAD DUP1 SWAP2 SUB SWAP1 RETURN JUMPDEST CALLVALUE DUP1 ISZERO PUSH2 0x1AA JUMPI PUSH1 0x0 DUP1 REVERT JUMPDEST POP PUSH2 0x1B3 PUSH2 0x4A1 JUMP JUMPDEST PUSH1 0x40 MLOAD PUSH2 0x1C0 SWAP2 SWAP1 PUSH2 0x10ED JUMP JUMPDEST PUSH1 0x40 MLOAD DUP1 SWAP2 SUB SWAP1 RETURN JUMPDEST CALLVALUE DUP1 ISZERO PUSH2 0x1D5 JUMPI PUSH1 0x0 DUP1 REVERT JUMPDEST POP PUSH2 0x1DE PUSH2 0x52F JUMP JUMPDEST PUSH1 0x40 MLOAD PUSH2 0x1EB SWAP2 SWAP1 PUSH2 0x111E JUMP JUMPDEST PUSH1 0x40 MLOAD DUP1 SWAP2 SUB SWAP1 RETURN JUMPDEST CALLVALUE DUP1 ISZERO PUSH2 0x200 JUMPI PUSH1 0x0 DUP1 REVERT JUMPDEST POP PUSH2 0x209 PUSH2 0x555 JUMP JUMPDEST PUSH1 0x40 MLOAD PUSH2 0x216 SWAP2 SWAP1 PUSH2 0xF84 JUMP JUMPDEST PUSH1 0x40 MLOAD DUP1 SWAP2 SUB SWAP1 RETURN JUMPDEST CALLVALUE DUP1 ISZERO PUSH2 0x22B JUMPI PUSH1 0x0 DUP1 REVERT JUMPDEST POP PUSH2 0x246 PUSH1 0x4 DUP1 CALLDATASIZE SUB DUP2 ADD SWAP1 PUSH2 0x241 SWAP2 SWAP1 PUSH2 0x116F JUMP JUMPDEST PUSH2 0x5AA JUMP JUMPDEST STOP JUMPDEST CALLVALUE DUP1 ISZERO PUSH2 0x254 JUMPI PUSH1 0x0 DUP1 REVERT JUMPDEST POP PUSH2 0x26F PUSH1 0x4 DUP1 CALLDATASIZE SUB DUP2 ADD SWAP1 PUSH2 0x26A SWAP2 SWAP1 PUSH2 0xFD0 JUMP JUMPDEST PUSH2 0x646 JUMP JUMPDEST PUSH1 0x40 MLOAD PUSH2 0x27C SWAP2 SWAP1 PUSH2 0x11D0 JUMP JUMPDEST PUSH1 0x40 MLOAD DUP1 SWAP2 SUB SWAP1 RETURN JUMPDEST CALLVALUE DUP1 ISZERO PUSH2 0x291 JUMPI PUSH1 0x0 DUP1 REVERT JUMPDEST POP PUSH2 0x29A PUSH2 0x679 JUMP JUMPDEST PUSH1 0x40 MLOAD PUSH2 0x2A7 SWAP2 SWAP1 PUSH2 0x1206 JUMP JUMPDEST PUSH1 0x40 MLOAD DUP1 SWAP2 SUB SWAP1 RETURN JUMPDEST CALLVALUE DUP1 ISZERO PUSH2 0x2BC JUMPI PUSH1 0x0 DUP1 REVERT JUMPDEST POP PUSH2 0x2C5 PUSH2 0x68C JUMP JUMPDEST PUSH1 0x40 MLOAD PUSH2 0x2D2 SWAP2 SWAP1 PUSH2 0x1230 JUMP JUMPDEST PUSH1 0x40 MLOAD DUP1 SWAP2 SUB SWAP1 RETURN JUMPDEST PUSH2 0x2E3 PUSH2 0x77F JUMP JUMPDEST STOP JUMPDEST CALLVALUE DUP1 ISZERO PUSH2 0x2F1 JUMPI PUSH1 0x0 DUP1 REVERT JUMPDEST POP PUSH2 0x30C PUSH1 0x4 DUP1 CALLDATASIZE SUB DUP2 ADD SWAP1 PUSH2 0x307 SWAP2 SWAP1 PUSH2 0xFD0 JUMP JUMPDEST PUSH2 0x82B JUMP JUMPDEST PUSH1 0x40 MLOAD PUSH2 0x319 SWAP2 SWAP1 PUSH2 0xF84 JUMP JUMPDEST PUSH1 0x40 MLOAD DUP1 SWAP2 SUB SWAP1 RETURN JUMPDEST CALLVALUE DUP1 ISZERO PUSH2 0x32E JUMPI PUSH1 0x0 DUP1 REVERT JUMPDEST POP PUSH2 0x349 PUSH1 0x4 DUP1 CALLDATASIZE SUB DUP2 ADD SWAP1 PUSH2 0x344 SWAP2 SWAP1 PUSH2 0xFD0 JUMP JUMPDEST PUSH2 0x84F JUMP JUMPDEST PUSH1 0x40 MLOAD PUSH2 0x356 SWAP2 SWAP1 PUSH2 0x111E JUMP JUMPDEST PUSH1 0x40 MLOAD DUP1 SWAP2 SUB SWAP1 RETURN JUMPDEST PUSH1 0x0 SELFBALANCE SWAP1 POP SWAP1 JUMP JUMPDEST PUSH1 0x4 DUP2 DUP2 SLOAD DUP2 LT PUSH2 0x377 JUMPI PUSH1 0x0 DUP1 REVERT JUMPDEST SWAP1 PUSH1 0x0 MSTORE PUSH1 0x20 PUSH1 0x0 KECCAK256 ADD PUSH1 0x0 SWAP2 POP SWAP1 POP SLOAD DUP2 JUMP JUMPDEST PUSH1 0x1 PUSH1 0x0 SWAP1 SLOAD SWAP1 PUSH2 0x100 EXP SWAP1 DIV PUSH20 0xFFFFFFFFFFFFFFFFFFFFFFFFFFFFFFFFFFFFFFFF AND PUSH20 0xFFFFFFFFFFFFFFFFFFFFFFFFFFFFFFFFFFFFFFFF AND CALLER PUSH20 0xFFFFFFFFFFFFFFFFFFFFFFFFFFFFFFFFFFFFFFFF AND EQ PUSH2 0x3E5 JUMPI PUSH1 0x0 DUP1 REVERT JUMPDEST PUSH1 0x7 PUSH1 0x0 SWAP1 SLOAD SWAP1 PUSH2 0x100 EXP SWAP1 DIV PUSH1 0xFF AND ISZERO PUSH2 0x3FF JUMPI PUSH1 0x0 DUP1 REVERT JUMPDEST PUSH1 0x1 PUSH1 0x7 PUSH1 0x0 PUSH2 0x100 EXP DUP2 SLOAD DUP2 PUSH1 0xFF MUL NOT AND SWAP1 DUP4 ISZERO ISZERO MUL OR SWAP1 SSTORE POP PUSH2 0x422 PUSH2 0x68C JUMP JUMPDEST POP JUMP JUMPDEST PUSH1 0x0 PUSH1 0x6 DUP1 SLOAD SWAP1 POP DUP3 GT ISZERO PUSH2 0x46F JUMPI PUSH1 0x40 MLOAD PUSH32 0x8C379A000000000000000000000000000000000000000000000000000000000 DUP2 MSTORE PUSH1 0x4 ADD PUSH2 0x466 SWAP1 PUSH2 0x12A8 JUMP JUMPDEST PUSH1 0x40 MLOAD DUP1 SWAP2 SUB SWAP1 REVERT JUMPDEST PUSH1 0x6 PUSH1 0x1 DUP4 PUSH2 0x47E SWAP2 SWAP1 PUSH2 0x12F7 JUMP JUMPDEST DUP2 SLOAD DUP2 LT PUSH2 0x48F JUMPI PUSH2 0x48E PUSH2 0x132B JUMP JUMPDEST JUMPDEST SWAP1 PUSH1 0x0 MSTORE PUSH1 0x20 PUSH1 0x0 KECCAK256 ADD SLOAD SWAP1 POP SWAP2 SWAP1 POP JUMP JUMPDEST PUSH1 0x60 PUSH1 0x2 DUP1 SLOAD DUP1 PUSH1 0x20 MUL PUSH1 0x20 ADD PUSH1 0x40 MLOAD SWAP1 DUP2 ADD PUSH1 0x40 MSTORE DUP1 SWAP3 SWAP2 SWAP1 DUP2 DUP2 MSTORE PUSH1 0x20 ADD DUP3 DUP1 SLOAD DUP1 ISZERO PUSH2 0x525 JUMPI PUSH1 0x20 MUL DUP3 ADD SWAP2 SWAP1 PUSH1 0x0 MSTORE PUSH1 0x20 PUSH1 0x0 KECCAK256 SWAP1 JUMPDEST DUP2 PUSH1 0x0 SWAP1 SLOAD SWAP1 PUSH2 0x100 EXP SWAP1 DIV PUSH20 0xFFFFFFFFFFFFFFFFFFFFFFFFFFFFFFFFFFFFFFFF AND PUSH20 0xFFFFFFFFFFFFFFFFFFFFFFFFFFFFFFFFFFFFFFFF AND DUP2 MSTORE PUSH1 0x20 ADD SWAP1 PUSH1 0x1 ADD SWAP1 DUP1 DUP4 GT PUSH2 0x4DB JUMPI JUMPDEST POP POP POP POP POP SWAP1 POP SWAP1 JUMP JUMPDEST PUSH1 0x1 PUSH1 0x0 SWAP1 SLOAD SWAP1 PUSH2 0x100 EXP SWAP1 DIV PUSH20 0xFFFFFFFFFFFFFFFFFFFFFFFFFFFFFFFFFFFFFFFF AND DUP2 JUMP JUMPDEST PUSH1 0x0 PUSH1 0x1 PUSH1 0x0 SWAP1 SLOAD SWAP1 PUSH2 0x100 EXP SWAP1 DIV PUSH20 0xFFFFFFFFFFFFFFFFFFFFFFFFFFFFFFFFFFFFFFFF AND TIMESTAMP PUSH1 0x40 MLOAD PUSH1 0x20 ADD PUSH2 0x58C SWAP3 SWAP2 SWAP1 PUSH2 0x13C3 JUMP JUMPDEST PUSH1 0x40 MLOAD PUSH1 0x20 DUP2 DUP4 SUB SUB DUP2 MSTORE SWAP1 PUSH1 0x40 MSTORE DUP1 MLOAD SWAP1 PUSH1 0x20 ADD KECCAK256 PUSH1 0x0 SHR SWAP1 POP SWAP1 JUMP JUMPDEST PUSH32 0x0 PUSH20 0xFFFFFFFFFFFFFFFFFFFFFFFFFFFFFFFFFFFFFFFF AND CALLER PUSH20 0xFFFFFFFFFFFFFFFFFFFFFFFFFFFFFFFFFFFFFFFF AND EQ PUSH2 0x638 JUMPI PUSH1 0x40 MLOAD PUSH32 0x8C379A000000000000000000000000000000000000000000000000000000000 DUP2 MSTORE PUSH1 0x4 ADD PUSH2 0x62F SWAP1 PUSH2 0x143B JUMP JUMPDEST PUSH1 0x40 MLOAD DUP1 SWAP2 SUB SWAP1 REVERT JUMPDEST PUSH2 0x642 DUP3 DUP3 PUSH2 0x88E JUMP JUMPDEST POP POP JUMP JUMPDEST PUSH1 0x5 PUSH1 0x20 MSTORE DUP1 PUSH1 0x0 MSTORE PUSH1 0x40 PUSH1 0x0 KECCAK256 PUSH1 0x0 SWAP2 POP SLOAD SWAP1 PUSH2 0x100 EXP SWAP1 DIV PUSH20 0xFFFFFFFFFFFFFFFFFFFFFFFFFFFFFFFFFFFFFFFF AND DUP2 JUMP JUMPDEST PUSH1 0x7 PUSH1 0x0 SWAP1 SLOAD SWAP1 PUSH2 0x100 EXP SWAP1 DIV PUSH1 0xFF AND DUP2 JUMP JUMPDEST PUSH1 0x0 PUSH1 0x9 SLOAD PUSH32 0x0 PUSH20 0xFFFFFFFFFFFFFFFFFFFFFFFFFFFFFFFFFFFFFFFF AND PUSH4 0x70A08231 ADDRESS PUSH1 0x40 MLOAD DUP3 PUSH4 0xFFFFFFFF AND PUSH1 0xE0 SHL DUP2 MSTORE PUSH1 0x4 ADD PUSH2 0x6EA SWAP2 SWAP1 PUSH2 0x111E JUMP JUMPDEST PUSH1 0x20 PUSH1 0x40 MLOAD DUP1 DUP4 SUB DUP2 DUP7 GAS STATICCALL ISZERO DUP1 ISZERO PUSH2 0x707 JUMPI RETURNDATASIZE PUSH1 0x0 DUP1 RETURNDATACOPY RETURNDATASIZE PUSH1 0x0 REVERT JUMPDEST POP POP POP POP PUSH1 0x40 MLOAD RETURNDATASIZE PUSH1 0x1F NOT PUSH1 0x1F DUP3 ADD AND DUP3 ADD DUP1 PUSH1 0x40 MSTORE POP DUP2 ADD SWAP1 PUSH2 0x72B SWAP2 SWAP1 PUSH2 0x1470 JUMP JUMPDEST LT ISZERO PUSH2 0x76C JUMPI PUSH1 0x40 MLOAD PUSH32 0x8C379A000000000000000000000000000000000000000000000000000000000 DUP2 MSTORE PUSH1 0x4 ADD PUSH2 0x763 SWAP1 PUSH2 0x14E9 JUMP JUMPDEST PUSH1 0x40 MLOAD DUP1 SWAP2 SUB SWAP1 REVERT JUMPDEST PUSH2 0x77A PUSH1 0x8 SLOAD PUSH1 0x9 SLOAD PUSH2 0x8CC JUMP JUMPDEST SWAP1 POP SWAP1 JUMP JUMPDEST PUSH7 0x2386F26FC10000 CALLVALUE GT PUSH2 0x792 JUMPI PUSH1 0x0 DUP1 REVERT JUMPDEST PUSH1 0x0 PUSH2 0x79C PUSH2 0x555 JUMP JUMPDEST SWAP1 POP PUSH1 0x0 CALLER SWAP1 POP PUSH1 0x4 DUP3 SWAP1 DUP1 PUSH1 0x1 DUP2 SLOAD ADD DUP1 DUP3 SSTORE DUP1 SWAP2 POP POP PUSH1 0x1 SWAP1 SUB SWAP1 PUSH1 0x0 MSTORE PUSH1 0x20 PUSH1 0x0 KECCAK256 ADD PUSH1 0x0 SWAP1 SWAP2 SWAP1 SWAP2 SWAP1 SWAP2 POP SSTORE DUP1 PUSH1 0x5 PUSH1 0x0 DUP5 DUP2 MSTORE PUSH1 0x20 ADD SWAP1 DUP2 MSTORE PUSH1 0x20 ADD PUSH1 0x0 KECCAK256 PUSH1 0x0 PUSH2 0x100 EXP DUP2 SLOAD DUP2 PUSH20 0xFFFFFFFFFFFFFFFFFFFFFFFFFFFFFFFFFFFFFFFF MUL NOT AND SWAP1 DUP4 PUSH20 0xFFFFFFFFFFFFFFFFFFFFFFFFFFFFFFFFFFFFFFFF AND MUL OR SWAP1 SSTORE POP PUSH2 0x827 DUP2 PUSH2 0xA1C JUMP JUMPDEST POP POP JUMP JUMPDEST PUSH1 0x6 DUP2 DUP2 SLOAD DUP2 LT PUSH2 0x83B JUMPI PUSH1 0x0 DUP1 REVERT JUMPDEST SWAP1 PUSH1 0x0 MSTORE PUSH1 0x20 PUSH1 0x0 KECCAK256 ADD PUSH1 0x0 SWAP2 POP SWAP1 POP SLOAD DUP2 JUMP JUMPDEST PUSH1 0x2 DUP2 DUP2 SLOAD DUP2 LT PUSH2 0x85F JUMPI PUSH1 0x0 DUP1 REVERT JUMPDEST SWAP1 PUSH1 0x0 MSTORE PUSH1 0x20 PUSH1 0x0 KECCAK256 ADD PUSH1 0x0 SWAP2 POP SLOAD SWAP1 PUSH2 0x100 EXP SWAP1 DIV PUSH20 0xFFFFFFFFFFFFFFFFFFFFFFFFFFFFFFFFFFFFFFFF AND DUP2 JUMP JUMPDEST PUSH1 0x0 PUSH1 0x4 DUP1 SLOAD SWAP1 POP DUP3 PUSH2 0x8A1 SWAP2 SWAP1 PUSH2 0x1538 JUMP JUMPDEST SWAP1 POP PUSH2 0x8AC DUP2 PUSH2 0xB33 JUMP JUMPDEST PUSH1 0x0 PUSH1 0x7 PUSH1 0x0 PUSH2 0x100 EXP DUP2 SLOAD DUP2 PUSH1 0xFF MUL NOT AND SWAP1 DUP4 ISZERO ISZERO MUL OR SWAP1 SSTORE POP POP POP POP JUMP JUMPDEST PUSH1 0x0 PUSH32 0x0 PUSH20 0xFFFFFFFFFFFFFFFFFFFFFFFFFFFFFFFFFFFFFFFF AND PUSH4 0x4000AEA0 PUSH32 0x0 DUP5 DUP7 PUSH1 0x0 PUSH1 0x40 MLOAD PUSH1 0x20 ADD PUSH2 0x940 SWAP3 SWAP2 SWAP1 PUSH2 0x1569 JUMP JUMPDEST PUSH1 0x40 MLOAD PUSH1 0x20 DUP2 DUP4 SUB SUB DUP2 MSTORE SWAP1 PUSH1 0x40 MSTORE PUSH1 0x40 MLOAD DUP5 PUSH4 0xFFFFFFFF AND PUSH1 0xE0 SHL DUP2 MSTORE PUSH1 0x4 ADD PUSH2 0x96D SWAP4 SWAP3 SWAP2 SWAP1 PUSH2 0x1622 JUMP JUMPDEST PUSH1 0x20 PUSH1 0x40 MLOAD DUP1 DUP4 SUB DUP2 PUSH1 0x0 DUP8 GAS CALL ISZERO DUP1 ISZERO PUSH2 0x98C JUMPI RETURNDATASIZE PUSH1 0x0 DUP1 RETURNDATACOPY RETURNDATASIZE PUSH1 0x0 REVERT JUMPDEST POP POP POP POP PUSH1 0x40 MLOAD RETURNDATASIZE PUSH1 0x1F NOT PUSH1 0x1F DUP3 ADD AND DUP3 ADD DUP1 PUSH1 0x40 MSTORE POP DUP2 ADD SWAP1 PUSH2 0x9B0 SWAP2 SWAP1 PUSH2 0x168C JUMP JUMPDEST POP PUSH1 0x0 PUSH2 0x9D2 DUP5 PUSH1 0x0 ADDRESS PUSH1 0x0 DUP1 DUP10 DUP2 MSTORE PUSH1 0x20 ADD SWAP1 DUP2 MSTORE PUSH1 0x20 ADD PUSH1 0x0 KECCAK256 SLOAD PUSH2 0xC1D JUMP JUMPDEST SWAP1 POP PUSH1 0x1 PUSH1 0x0 DUP1 DUP7 DUP2 MSTORE PUSH1 0x20 ADD SWAP1 DUP2 MSTORE PUSH1 0x20 ADD PUSH1 0x0 KECCAK256 SLOAD PUSH2 0x9F3 SWAP2 SWAP1 PUSH2 0x16B9 JUMP JUMPDEST PUSH1 0x0 DUP1 DUP7 DUP2 MSTORE PUSH1 0x20 ADD SWAP1 DUP2 MSTORE PUSH1 0x20 ADD PUSH1 0x0 KECCAK256 DUP2 SWAP1 SSTORE POP PUSH2 0xA13 DUP5 DUP3 PUSH2 0xC59 JUMP JUMPDEST SWAP2 POP POP SWAP3 SWAP2 POP POP JUMP JUMPDEST PUSH1 0x1 ISZERO ISZERO PUSH1 0x3 PUSH1 0x0 DUP4 PUSH20 0xFFFFFFFFFFFFFFFFFFFFFFFFFFFFFFFFFFFFFFFF AND PUSH20 0xFFFFFFFFFFFFFFFFFFFFFFFFFFFFFFFFFFFFFFFF AND DUP2 MSTORE PUSH1 0x20 ADD SWAP1 DUP2 MSTORE PUSH1 0x20 ADD PUSH1 0x0 KECCAK256 PUSH1 0x0 SWAP1 SLOAD SWAP1 PUSH2 0x100 EXP SWAP1 DIV PUSH1 0xFF AND ISZERO ISZERO EQ PUSH2 0xB30 JUMPI PUSH1 0x1 PUSH1 0x3 PUSH1 0x0 DUP4 PUSH20 0xFFFFFFFFFFFFFFFFFFFFFFFFFFFFFFFFFFFFFFFF AND PUSH20 0xFFFFFFFFFFFFFFFFFFFFFFFFFFFFFFFFFFFFFFFF AND DUP2 MSTORE PUSH1 0x20 ADD SWAP1 DUP2 MSTORE PUSH1 0x20 ADD PUSH1 0x0 KECCAK256 PUSH1 0x0 PUSH2 0x100 EXP DUP2 SLOAD DUP2 PUSH1 0xFF MUL NOT AND SWAP1 DUP4 ISZERO ISZERO MUL OR SWAP1 SSTORE POP PUSH1 0x2 DUP2 SWAP1 DUP1 PUSH1 0x1 DUP2 SLOAD ADD DUP1 DUP3 SSTORE DUP1 SWAP2 POP POP PUSH1 0x1 SWAP1 SUB SWAP1 PUSH1 0x0 MSTORE PUSH1 0x20 PUSH1 0x0 KECCAK256 ADD PUSH1 0x0 SWAP1 SWAP2 SWAP1 SWAP2 SWAP1 SWAP2 PUSH2 0x100 EXP DUP2 SLOAD DUP2 PUSH20 0xFFFFFFFFFFFFFFFFFFFFFFFFFFFFFFFFFFFFFFFF MUL NOT AND SWAP1 DUP4 PUSH20 0xFFFFFFFFFFFFFFFFFFFFFFFFFFFFFFFFFFFFFFFF AND MUL OR SWAP1 SSTORE POP JUMPDEST POP JUMP JUMPDEST PUSH1 0x5 PUSH1 0x0 PUSH1 0x4 DUP4 DUP2 SLOAD DUP2 LT PUSH2 0xB4B JUMPI PUSH2 0xB4A PUSH2 0x132B JUMP JUMPDEST JUMPDEST SWAP1 PUSH1 0x0 MSTORE PUSH1 0x20 PUSH1 0x0 KECCAK256 ADD SLOAD DUP2 MSTORE PUSH1 0x20 ADD SWAP1 DUP2 MSTORE PUSH1 0x20 ADD PUSH1 0x0 KECCAK256 PUSH1 0x0 SWAP1 SLOAD SWAP1 PUSH2 0x100 EXP SWAP1 DIV PUSH20 0xFFFFFFFFFFFFFFFFFFFFFFFFFFFFFFFFFFFFFFFF AND PUSH20 0xFFFFFFFFFFFFFFFFFFFFFFFFFFFFFFFFFFFFFFFF AND PUSH2 0x8FC SELFBALANCE SWAP1 DUP2 ISZERO MUL SWAP1 PUSH1 0x40 MLOAD PUSH1 0x0 PUSH1 0x40 MLOAD DUP1 DUP4 SUB DUP2 DUP6 DUP9 DUP9 CALL SWAP4 POP POP POP POP ISZERO DUP1 ISZERO PUSH2 0xBCA JUMPI RETURNDATASIZE PUSH1 0x0 DUP1 RETURNDATACOPY RETURNDATASIZE PUSH1 0x0 REVERT JUMPDEST POP PUSH1 0x6 PUSH1 0x4 DUP3 DUP2 SLOAD DUP2 LT PUSH2 0xBE1 JUMPI PUSH2 0xBE0 PUSH2 0x132B JUMP JUMPDEST JUMPDEST SWAP1 PUSH1 0x0 MSTORE PUSH1 0x20 PUSH1 0x0 KECCAK256 ADD SLOAD SWAP1 DUP1 PUSH1 0x1 DUP2 SLOAD ADD DUP1 DUP3 SSTORE DUP1 SWAP2 POP POP PUSH1 0x1 SWAP1 SUB SWAP1 PUSH1 0x0 MSTORE PUSH1 0x20 PUSH1 0x0 KECCAK256 ADD PUSH1 0x0 SWAP1 SWAP2 SWAP1 SWAP2 SWAP1 SWAP2 POP SSTORE PUSH2 0xC1A PUSH2 0xC8C JUMP JUMPDEST POP JUMP JUMPDEST PUSH1 0x0 DUP5 DUP5 DUP5 DUP5 PUSH1 0x40 MLOAD PUSH1 0x20 ADD PUSH2 0xC36 SWAP5 SWAP4 SWAP3 SWAP2 SWAP1 PUSH2 0x16ED JUMP JUMPDEST PUSH1 0x40 MLOAD PUSH1 0x20 DUP2 DUP4 SUB SUB DUP2 MSTORE SWAP1 PUSH1 0x40 MSTORE DUP1 MLOAD SWAP1 PUSH1 0x20 ADD KECCAK256 PUSH1 0x0 SHR SWAP1 POP SWAP5 SWAP4 POP POP POP POP JUMP JUMPDEST PUSH1 0x0 DUP3 DUP3 PUSH1 0x40 MLOAD PUSH1 0x20 ADD PUSH2 0xC6E SWAP3 SWAP2 SWAP1 PUSH2 0x1753 JUMP JUMPDEST PUSH1 0x40 MLOAD PUSH1 0x20 DUP2 DUP4 SUB SUB DUP2 MSTORE SWAP1 PUSH1 0x40 MSTORE DUP1 MLOAD SWAP1 PUSH1 0x20 ADD KECCAK256 SWAP1 POP SWAP3 SWAP2 POP POP JUMP JUMPDEST PUSH1 0x0 JUMPDEST PUSH1 0x2 DUP1 SLOAD SWAP1 POP DUP2 LT ISZERO PUSH2 0xD3C JUMPI PUSH1 0x3 PUSH1 0x0 PUSH1 0x2 DUP4 DUP2 SLOAD DUP2 LT PUSH2 0xCB4 JUMPI PUSH2 0xCB3 PUSH2 0x132B JUMP JUMPDEST JUMPDEST SWAP1 PUSH1 0x0 MSTORE PUSH1 0x20 PUSH1 0x0 KECCAK256 ADD PUSH1 0x0 SWAP1 SLOAD SWAP1 PUSH2 0x100 EXP SWAP1 DIV PUSH20 0xFFFFFFFFFFFFFFFFFFFFFFFFFFFFFFFFFFFFFFFF AND PUSH20 0xFFFFFFFFFFFFFFFFFFFFFFFFFFFFFFFFFFFFFFFF AND PUSH20 0xFFFFFFFFFFFFFFFFFFFFFFFFFFFFFFFFFFFFFFFF AND DUP2 MSTORE PUSH1 0x20 ADD SWAP1 DUP2 MSTORE PUSH1 0x20 ADD PUSH1 0x0 KECCAK256 PUSH1 0x0 PUSH2 0x100 EXP DUP2 SLOAD SWAP1 PUSH1 0xFF MUL NOT AND SWAP1 SSTORE DUP1 DUP1 PUSH2 0xD34 SWAP1 PUSH2 0x177F JUMP JUMPDEST SWAP2 POP POP PUSH2 0xC8F JUMP JUMPDEST POP PUSH1 0x0 PUSH8 0xFFFFFFFFFFFFFFFF DUP2 GT ISZERO PUSH2 0xD58 JUMPI PUSH2 0xD57 PUSH2 0x17C7 JUMP JUMPDEST JUMPDEST PUSH1 0x40 MLOAD SWAP1 DUP1 DUP3 MSTORE DUP1 PUSH1 0x20 MUL PUSH1 0x20 ADD DUP3 ADD PUSH1 0x40 MSTORE DUP1 ISZERO PUSH2 0xD86 JUMPI DUP2 PUSH1 0x20 ADD PUSH1 0x20 DUP3 MUL DUP1 CALLDATASIZE DUP4 CALLDATACOPY DUP1 DUP3 ADD SWAP2 POP POP SWAP1 POP JUMPDEST POP PUSH1 0x2 SWAP1 DUP1 MLOAD SWAP1 PUSH1 0x20 ADD SWAP1 PUSH2 0xD9C SWAP3 SWAP2 SWAP1 PUSH2 0xE77 JUMP JUMPDEST POP PUSH1 0x0 JUMPDEST PUSH1 0x4 DUP1 SLOAD SWAP1 POP DUP2 LT ISZERO PUSH2 0xE14 JUMPI PUSH1 0x5 PUSH1 0x0 PUSH1 0x4 DUP4 DUP2 SLOAD DUP2 LT PUSH2 0xDC5 JUMPI PUSH2 0xDC4 PUSH2 0x132B JUMP JUMPDEST JUMPDEST SWAP1 PUSH1 0x0 MSTORE PUSH1 0x20 PUSH1 0x0 KECCAK256 ADD SLOAD DUP2 MSTORE PUSH1 0x20 ADD SWAP1 DUP2 MSTORE PUSH1 0x20 ADD PUSH1 0x0 KECCAK256 PUSH1 0x0 PUSH2 0x100 EXP DUP2 SLOAD SWAP1 PUSH20 0xFFFFFFFFFFFFFFFFFFFFFFFFFFFFFFFFFFFFFFFF MUL NOT AND SWAP1 SSTORE DUP1 DUP1 PUSH2 0xE0C SWAP1 PUSH2 0x177F JUMP JUMPDEST SWAP2 POP POP PUSH2 0xDA0 JUMP JUMPDEST POP PUSH1 0x0 PUSH8 0xFFFFFFFFFFFFFFFF DUP2 GT ISZERO PUSH2 0xE30 JUMPI PUSH2 0xE2F PUSH2 0x17C7 JUMP JUMPDEST JUMPDEST PUSH1 0x40 MLOAD SWAP1 DUP1 DUP3 MSTORE DUP1 PUSH1 0x20 MUL PUSH1 0x20 ADD DUP3 ADD PUSH1 0x40 MSTORE DUP1 ISZERO PUSH2 0xE5E JUMPI DUP2 PUSH1 0x20 ADD PUSH1 0x20 DUP3 MUL DUP1 CALLDATASIZE DUP4 CALLDATACOPY DUP1 DUP3 ADD SWAP2 POP POP SWAP1 POP JUMPDEST POP PUSH1 0x4 SWAP1 DUP1 MLOAD SWAP1 PUSH1 0x20 ADD SWAP1 PUSH2 0xE74 SWAP3 SWAP2 SWAP1 PUSH2 0xF01 JUMP JUMPDEST POP JUMP JUMPDEST DUP3 DUP1 SLOAD DUP3 DUP3 SSTORE SWAP1 PUSH1 0x0 MSTORE PUSH1 0x20 PUSH1 0x0 KECCAK256 SWAP1 DUP2 ADD SWAP3 DUP3 ISZERO PUSH2 0xEF0 JUMPI SWAP2 PUSH1 0x20 MUL DUP3 ADD JUMPDEST DUP3 DUP2 GT ISZERO PUSH2 0xEEF JUMPI DUP3 MLOAD DUP3 PUSH1 0x0 PUSH2 0x100 EXP DUP2 SLOAD DUP2 PUSH20 0xFFFFFFFFFFFFFFFFFFFFFFFFFFFFFFFFFFFFFFFF MUL NOT AND SWAP1 DUP4 PUSH20 0xFFFFFFFFFFFFFFFFFFFFFFFFFFFFFFFFFFFFFFFF AND MUL OR SWAP1 SSTORE POP SWAP2 PUSH1 0x20 ADD SWAP2 SWAP1 PUSH1 0x1 ADD SWAP1 PUSH2 0xE97 JUMP JUMPDEST JUMPDEST POP SWAP1 POP PUSH2 0xEFD SWAP2 SWAP1 PUSH2 0xF4E JUMP JUMPDEST POP SWAP1 JUMP JUMPDEST DUP3 DUP1 SLOAD DUP3 DUP3 SSTORE SWAP1 PUSH1 0x0 MSTORE PUSH1 0x20 PUSH1 0x0 KECCAK256 SWAP1 DUP2 ADD SWAP3 DUP3 ISZERO PUSH2 0xF3D JUMPI SWAP2 PUSH1 0x20 MUL DUP3 ADD JUMPDEST DUP3 DUP2 GT ISZERO PUSH2 0xF3C JUMPI DUP3 MLOAD DUP3 SSTORE SWAP2 PUSH1 0x20 ADD SWAP2 SWAP1 PUSH1 0x1 ADD SWAP1 PUSH2 0xF21 JUMP JUMPDEST JUMPDEST POP SWAP1 POP PUSH2 0xF4A SWAP2 SWAP1 PUSH2 0xF4E JUMP JUMPDEST POP SWAP1 JUMP JUMPDEST JUMPDEST DUP1 DUP3 GT ISZERO PUSH2 0xF67 JUMPI PUSH1 0x0 DUP2 PUSH1 0x0 SWAP1 SSTORE POP PUSH1 0x1 ADD PUSH2 0xF4F JUMP JUMPDEST POP SWAP1 JUMP JUMPDEST PUSH1 0x0 DUP2 SWAP1 POP SWAP2 SWAP1 POP JUMP JUMPDEST PUSH2 0xF7E DUP2 PUSH2 0xF6B JUMP JUMPDEST DUP3 MSTORE POP POP JUMP JUMPDEST PUSH1 0x0 PUSH1 0x20 DUP3 ADD SWAP1 POP PUSH2 0xF99 PUSH1 0x0 DUP4 ADD DUP5 PUSH2 0xF75 JUMP JUMPDEST SWAP3 SWAP2 POP POP JUMP JUMPDEST PUSH1 0x0 DUP1 REVERT JUMPDEST PUSH2 0xFAD DUP2 PUSH2 0xF6B JUMP JUMPDEST DUP2 EQ PUSH2 0xFB8 JUMPI PUSH1 0x0 DUP1 REVERT JUMPDEST POP JUMP JUMPDEST PUSH1 0x0 DUP2 CALLDATALOAD SWAP1 POP PUSH2 0xFCA DUP2 PUSH2 0xFA4 JUMP JUMPDEST SWAP3 SWAP2 POP POP JUMP JUMPDEST PUSH1 0x0 PUSH1 0x20 DUP3 DUP5 SUB SLT ISZERO PUSH2 0xFE6 JUMPI PUSH2 0xFE5 PUSH2 0xF9F JUMP JUMPDEST JUMPDEST PUSH1 0x0 PUSH2 0xFF4 DUP5 DUP3 DUP6 ADD PUSH2 0xFBB JUMP JUMPDEST SWAP2 POP POP SWAP3 SWAP2 POP POP JUMP JUMPDEST PUSH1 0x0 DUP2 MLOAD SWAP1 POP SWAP2 SWAP1 POP JUMP JUMPDEST PUSH1 0x0 DUP3 DUP3 MSTORE PUSH1 0x20 DUP3 ADD SWAP1 POP SWAP3 SWAP2 POP POP JUMP JUMPDEST PUSH1 0x0 DUP2 SWAP1 POP PUSH1 0x20 DUP3 ADD SWAP1 POP SWAP2 SWAP1 POP JUMP JUMPDEST PUSH1 0x0 PUSH20 0xFFFFFFFFFFFFFFFFFFFFFFFFFFFFFFFFFFFFFFFF DUP3 AND SWAP1 POP SWAP2 SWAP1 POP JUMP JUMPDEST PUSH1 0x0 PUSH2 0x1054 DUP3 PUSH2 0x1029 JUMP JUMPDEST SWAP1 POP SWAP2 SWAP1 POP JUMP JUMPDEST PUSH2 0x1064 DUP2 PUSH2 0x1049 JUMP JUMPDEST DUP3 MSTORE POP POP JUMP JUMPDEST PUSH1 0x0 PUSH2 0x1076 DUP4 DUP4 PUSH2 0x105B JUMP JUMPDEST PUSH1 0x20 DUP4 ADD SWAP1 POP SWAP3 SWAP2 POP POP JUMP JUMPDEST PUSH1 0x0 PUSH1 0x20 DUP3 ADD SWAP1 POP SWAP2 SWAP1 POP JUMP JUMPDEST PUSH1 0x0 PUSH2 0x109A DUP3 PUSH2 0xFFD JUMP JUMPDEST PUSH2 0x10A4 DUP2 DUP6 PUSH2 0x1008 JUMP JUMPDEST SWAP4 POP PUSH2 0x10AF DUP4 PUSH2 0x1019 JUMP JUMPDEST DUP1 PUSH1 0x0 JUMPDEST DUP4 DUP2 LT ISZERO PUSH2 0x10E0 JUMPI DUP2 MLOAD PUSH2 0x10C7 DUP9 DUP3 PUSH2 0x106A JUMP JUMPDEST SWAP8 POP PUSH2 0x10D2 DUP4 PUSH2 0x1082 JUMP JUMPDEST SWAP3 POP POP PUSH1 0x1 DUP2 ADD SWAP1 POP PUSH2 0x10B3 JUMP JUMPDEST POP DUP6 SWAP4 POP POP POP POP SWAP3 SWAP2 POP POP JUMP JUMPDEST PUSH1 0x0 PUSH1 0x20 DUP3 ADD SWAP1 POP DUP2 DUP2 SUB PUSH1 0x0 DUP4 ADD MSTORE PUSH2 0x1107 DUP2 DUP5 PUSH2 0x108F JUMP JUMPDEST SWAP1 POP SWAP3 SWAP2 POP POP JUMP JUMPDEST PUSH2 0x1118 DUP2 PUSH2 0x1049 JUMP JUMPDEST DUP3 MSTORE POP POP JUMP JUMPDEST PUSH1 0x0 PUSH1 0x20 DUP3 ADD SWAP1 POP PUSH2 0x1133 PUSH1 0x0 DUP4 ADD DUP5 PUSH2 0x110F JUMP JUMPDEST SWAP3 SWAP2 POP POP JUMP JUMPDEST PUSH1 0x0 DUP2 SWAP1 POP SWAP2 SWAP1 POP JUMP JUMPDEST PUSH2 0x114C DUP2 PUSH2 0x1139 JUMP JUMPDEST DUP2 EQ PUSH2 0x1157 JUMPI PUSH1 0x0 DUP1 REVERT JUMPDEST POP JUMP JUMPDEST PUSH1 0x0 DUP2 CALLDATALOAD SWAP1 POP PUSH2 0x1169 DUP2 PUSH2 0x1143 JUMP JUMPDEST SWAP3 SWAP2 POP POP JUMP JUMPDEST PUSH1 0x0 DUP1 PUSH1 0x40 DUP4 DUP6 SUB SLT ISZERO PUSH2 0x1186 JUMPI PUSH2 0x1185 PUSH2 0xF9F JUMP JUMPDEST JUMPDEST PUSH1 0x0 PUSH2 0x1194 DUP6 DUP3 DUP7 ADD PUSH2 0x115A JUMP JUMPDEST SWAP3 POP POP PUSH1 0x20 PUSH2 0x11A5 DUP6 DUP3 DUP7 ADD PUSH2 0xFBB JUMP JUMPDEST SWAP2 POP POP SWAP3 POP SWAP3 SWAP1 POP JUMP JUMPDEST PUSH1 0x0 PUSH2 0x11BA DUP3 PUSH2 0x1029 JUMP JUMPDEST SWAP1 POP SWAP2 SWAP1 POP JUMP JUMPDEST PUSH2 0x11CA DUP2 PUSH2 0x11AF JUMP JUMPDEST DUP3 MSTORE POP POP JUMP JUMPDEST PUSH1 0x0 PUSH1 0x20 DUP3 ADD SWAP1 POP PUSH2 0x11E5 PUSH1 0x0 DUP4 ADD DUP5 PUSH2 0x11C1 JUMP JUMPDEST SWAP3 SWAP2 POP POP JUMP JUMPDEST PUSH1 0x0 DUP2 ISZERO ISZERO SWAP1 POP SWAP2 SWAP1 POP JUMP JUMPDEST PUSH2 0x1200 DUP2 PUSH2 0x11EB JUMP JUMPDEST DUP3 MSTORE POP POP JUMP JUMPDEST PUSH1 0x0 PUSH1 0x20 DUP3 ADD SWAP1 POP PUSH2 0x121B PUSH1 0x0 DUP4 ADD DUP5 PUSH2 0x11F7 JUMP JUMPDEST SWAP3 SWAP2 POP POP JUMP JUMPDEST PUSH2 0x122A DUP2 PUSH2 0x1139 JUMP JUMPDEST DUP3 MSTORE POP POP JUMP JUMPDEST PUSH1 0x0 PUSH1 0x20 DUP3 ADD SWAP1 POP PUSH2 0x1245 PUSH1 0x0 DUP4 ADD DUP5 PUSH2 0x1221 JUMP JUMPDEST SWAP3 SWAP2 POP POP JUMP JUMPDEST PUSH1 0x0 DUP3 DUP3 MSTORE PUSH1 0x20 DUP3 ADD SWAP1 POP SWAP3 SWAP2 POP POP JUMP JUMPDEST PUSH32 0x5468657265206973206E6F207375636820726F756E6400000000000000000000 PUSH1 0x0 DUP3 ADD MSTORE POP JUMP JUMPDEST PUSH1 0x0 PUSH2 0x1292 PUSH1 0x16 DUP4 PUSH2 0x124B JUMP JUMPDEST SWAP2 POP PUSH2 0x129D DUP3 PUSH2 0x125C JUMP JUMPDEST PUSH1 0x20 DUP3 ADD SWAP1 POP SWAP2 SWAP1 POP JUMP JUMPDEST PUSH1 0x0 PUSH1 0x20 DUP3 ADD SWAP1 POP DUP2 DUP2 SUB PUSH1 0x0 DUP4 ADD MSTORE PUSH2 0x12C1 DUP2 PUSH2 0x1285 JUMP JUMPDEST SWAP1 POP SWAP2 SWAP1 POP JUMP JUMPDEST PUSH32 0x4E487B7100000000000000000000000000000000000000000000000000000000 PUSH1 0x0 MSTORE PUSH1 0x11 PUSH1 0x4 MSTORE PUSH1 0x24 PUSH1 0x0 REVERT JUMPDEST PUSH1 0x0 PUSH2 0x1302 DUP3 PUSH2 0xF6B JUMP JUMPDEST SWAP2 POP PUSH2 0x130D DUP4 PUSH2 0xF6B JUMP JUMPDEST SWAP3 POP DUP3 DUP3 SUB SWAP1 POP DUP2 DUP2 GT ISZERO PUSH2 0x1325 JUMPI PUSH2 0x1324 PUSH2 0x12C8 JUMP JUMPDEST JUMPDEST SWAP3 SWAP2 POP POP JUMP JUMPDEST PUSH32 0x4E487B7100000000000000000000000000000000000000000000000000000000 PUSH1 0x0 MSTORE PUSH1 0x32 PUSH1 0x4 MSTORE PUSH1 0x24 PUSH1 0x0 REVERT JUMPDEST PUSH1 0x0 DUP2 PUSH1 0x60 SHL SWAP1 POP SWAP2 SWAP1 POP JUMP JUMPDEST PUSH1 0x0 PUSH2 0x1372 DUP3 PUSH2 0x135A JUMP JUMPDEST SWAP1 POP SWAP2 SWAP1 POP JUMP JUMPDEST PUSH1 0x0 PUSH2 0x1384 DUP3 PUSH2 0x1367 JUMP JUMPDEST SWAP1 POP SWAP2 SWAP1 POP JUMP JUMPDEST PUSH2 0x139C PUSH2 0x1397 DUP3 PUSH2 0x1049 JUMP JUMPDEST PUSH2 0x1379 JUMP JUMPDEST DUP3 MSTORE POP POP JUMP JUMPDEST PUSH1 0x0 DUP2 SWAP1 POP SWAP2 SWAP1 POP JUMP JUMPDEST PUSH2 0x13BD PUSH2 0x13B8 DUP3 PUSH2 0xF6B JUMP JUMPDEST PUSH2 0x13A2 JUMP JUMPDEST DUP3 MSTORE POP POP JUMP JUMPDEST PUSH1 0x0 PUSH2 0x13CF DUP3 DUP6 PUSH2 0x138B JUMP JUMPDEST PUSH1 0x14 DUP3 ADD SWAP2 POP PUSH2 0x13DF DUP3 DUP5 PUSH2 0x13AC JUMP JUMPDEST PUSH1 0x20 DUP3 ADD SWAP2 POP DUP2 SWAP1 POP SWAP4 SWAP3 POP POP POP JUMP JUMPDEST PUSH32 0x4F6E6C7920565246436F6F7264696E61746F722063616E2066756C66696C6C00 PUSH1 0x0 DUP3 ADD MSTORE POP JUMP JUMPDEST PUSH1 0x0 PUSH2 0x1425 PUSH1 0x1F DUP4 PUSH2 0x124B JUMP JUMPDEST SWAP2 POP PUSH2 0x1430 DUP3 PUSH2 0x13EF JUMP JUMPDEST PUSH1 0x20 DUP3 ADD SWAP1 POP SWAP2 SWAP1 POP JUMP JUMPDEST PUSH1 0x0 PUSH1 0x20 DUP3 ADD SWAP1 POP DUP2 DUP2 SUB PUSH1 0x0 DUP4 ADD MSTORE PUSH2 0x1454 DUP2 PUSH2 0x1418 JUMP JUMPDEST SWAP1 POP SWAP2 SWAP1 POP JUMP JUMPDEST PUSH1 0x0 DUP2 MLOAD SWAP1 POP PUSH2 0x146A DUP2 PUSH2 0xFA4 JUMP JUMPDEST SWAP3 SWAP2 POP POP JUMP JUMPDEST PUSH1 0x0 PUSH1 0x20 DUP3 DUP5 SUB SLT ISZERO PUSH2 0x1486 JUMPI PUSH2 0x1485 PUSH2 0xF9F JUMP JUMPDEST JUMPDEST PUSH1 0x0 PUSH2 0x1494 DUP5 DUP3 DUP6 ADD PUSH2 0x145B JUMP JUMPDEST SWAP2 POP POP SWAP3 SWAP2 POP POP JUMP JUMPDEST PUSH32 0x4E6F7420656E6F756768204C494E4B20696E20636F6E74726163740000000000 PUSH1 0x0 DUP3 ADD MSTORE POP JUMP JUMPDEST PUSH1 0x0 PUSH2 0x14D3 PUSH1 0x1B DUP4 PUSH2 0x124B JUMP JUMPDEST SWAP2 POP PUSH2 0x14DE DUP3 PUSH2 0x149D JUMP JUMPDEST PUSH1 0x20 DUP3 ADD SWAP1 POP SWAP2 SWAP1 POP JUMP JUMPDEST PUSH1 0x0 PUSH1 0x20 DUP3 ADD SWAP1 POP DUP2 DUP2 SUB PUSH1 0x0 DUP4 ADD MSTORE PUSH2 0x1502 DUP2 PUSH2 0x14C6 JUMP JUMPDEST SWAP1 POP SWAP2 SWAP1 POP JUMP JUMPDEST PUSH32 0x4E487B7100000000000000000000000000000000000000000000000000000000 PUSH1 0x0 MSTORE PUSH1 0x12 PUSH1 0x4 MSTORE PUSH1 0x24 PUSH1 0x0 REVERT JUMPDEST PUSH1 0x0 PUSH2 0x1543 DUP3 PUSH2 0xF6B JUMP JUMPDEST SWAP2 POP PUSH2 0x154E DUP4 PUSH2 0xF6B JUMP JUMPDEST SWAP3 POP DUP3 PUSH2 0x155E JUMPI PUSH2 0x155D PUSH2 0x1509 JUMP JUMPDEST JUMPDEST DUP3 DUP3 MOD SWAP1 POP SWAP3 SWAP2 POP POP JUMP JUMPDEST PUSH1 0x0 PUSH1 0x40 DUP3 ADD SWAP1 POP PUSH2 0x157E PUSH1 0x0 DUP4 ADD DUP6 PUSH2 0x1221 JUMP JUMPDEST PUSH2 0x158B PUSH1 0x20 DUP4 ADD DUP5 PUSH2 0xF75 JUMP JUMPDEST SWAP4 SWAP3 POP POP POP JUMP JUMPDEST PUSH1 0x0 DUP2 MLOAD SWAP1 POP SWAP2 SWAP1 POP JUMP JUMPDEST PUSH1 0x0 DUP3 DUP3 MSTORE PUSH1 0x20 DUP3 ADD SWAP1 POP SWAP3 SWAP2 POP POP JUMP JUMPDEST PUSH1 0x0 JUMPDEST DUP4 DUP2 LT ISZERO PUSH2 0x15CC JUMPI DUP1 DUP3 ADD MLOAD DUP2 DUP5 ADD MSTORE PUSH1 0x20 DUP2 ADD SWAP1 POP PUSH2 0x15B1 JUMP JUMPDEST PUSH1 0x0 DUP5 DUP5 ADD MSTORE POP POP POP POP JUMP JUMPDEST PUSH1 0x0 PUSH1 0x1F NOT PUSH1 0x1F DUP4 ADD AND SWAP1 POP SWAP2 SWAP1 POP JUMP JUMPDEST PUSH1 0x0 PUSH2 0x15F4 DUP3 PUSH2 0x1592 JUMP JUMPDEST PUSH2 0x15FE DUP2 DUP6 PUSH2 0x159D JUMP JUMPDEST SWAP4 POP PUSH2 0x160E DUP2 DUP6 PUSH1 0x20 DUP7 ADD PUSH2 0x15AE JUMP JUMPDEST PUSH2 0x1617 DUP2 PUSH2 0x15D8 JUMP JUMPDEST DUP5 ADD SWAP2 POP POP SWAP3 SWAP2 POP POP JUMP JUMPDEST PUSH1 0x0 PUSH1 0x60 DUP3 ADD SWAP1 POP PUSH2 0x1637 PUSH1 0x0 DUP4 ADD DUP7 PUSH2 0x110F JUMP JUMPDEST PUSH2 0x1644 PUSH1 0x20 DUP4 ADD DUP6 PUSH2 0xF75 JUMP JUMPDEST DUP2 DUP2 SUB PUSH1 0x40 DUP4 ADD MSTORE PUSH2 0x1656 DUP2 DUP5 PUSH2 0x15E9 JUMP JUMPDEST SWAP1 POP SWAP5 SWAP4 POP POP POP POP JUMP JUMPDEST PUSH2 0x1669 DUP2 PUSH2 0x11EB JUMP JUMPDEST DUP2 EQ PUSH2 0x1674 JUMPI PUSH1 0x0 DUP1 REVERT JUMPDEST POP JUMP JUMPDEST PUSH1 0x0 DUP2 MLOAD SWAP1 POP PUSH2 0x1686 DUP2 PUSH2 0x1660 JUMP JUMPDEST SWAP3 SWAP2 POP POP JUMP JUMPDEST PUSH1 0x0 PUSH1 0x20 DUP3 DUP5 SUB SLT ISZERO PUSH2 0x16A2 JUMPI PUSH2 0x16A1 PUSH2 0xF9F JUMP JUMPDEST JUMPDEST PUSH1 0x0 PUSH2 0x16B0 DUP5 DUP3 DUP6 ADD PUSH2 0x1677 JUMP JUMPDEST SWAP2 POP POP SWAP3 SWAP2 POP POP JUMP JUMPDEST PUSH1 0x0 PUSH2 0x16C4 DUP3 PUSH2 0xF6B JUMP JUMPDEST SWAP2 POP PUSH2 0x16CF DUP4 PUSH2 0xF6B JUMP JUMPDEST SWAP3 POP DUP3 DUP3 ADD SWAP1 POP DUP1 DUP3 GT ISZERO PUSH2 0x16E7 JUMPI PUSH2 0x16E6 PUSH2 0x12C8 JUMP JUMPDEST JUMPDEST SWAP3 SWAP2 POP POP JUMP JUMPDEST PUSH1 0x0 PUSH1 0x80 DUP3 ADD SWAP1 POP PUSH2 0x1702 PUSH1 0x0 DUP4 ADD DUP8 PUSH2 0x1221 JUMP JUMPDEST PUSH2 0x170F PUSH1 0x20 DUP4 ADD DUP7 PUSH2 0xF75 JUMP JUMPDEST PUSH2 0x171C PUSH1 0x40 DUP4 ADD DUP6 PUSH2 0x110F JUMP JUMPDEST PUSH2 0x1729 PUSH1 0x60 DUP4 ADD DUP5 PUSH2 0xF75 JUMP JUMPDEST SWAP6 SWAP5 POP POP POP POP POP JUMP JUMPDEST PUSH1 0x0 DUP2 SWAP1 POP SWAP2 SWAP1 POP JUMP JUMPDEST PUSH2 0x174D PUSH2 0x1748 DUP3 PUSH2 0x1139 JUMP JUMPDEST PUSH2 0x1732 JUMP JUMPDEST DUP3 MSTORE POP POP JUMP JUMPDEST PUSH1 0x0 PUSH2 0x175F DUP3 DUP6 PUSH2 0x173C JUMP JUMPDEST PUSH1 0x20 DUP3 ADD SWAP2 POP PUSH2 0x176F DUP3 DUP5 PUSH2 0x13AC JUMP JUMPDEST PUSH1 0x20 DUP3 ADD SWAP2 POP DUP2 SWAP1 POP SWAP4 SWAP3 POP POP POP JUMP JUMPDEST PUSH1 0x0 PUSH2 0x178A DUP3 PUSH2 0xF6B JUMP JUMPDEST SWAP2 POP PUSH32 0xFFFFFFFFFFFFFFFFFFFFFFFFFFFFFFFFFFFFFFFFFFFFFFFFFFFFFFFFFFFFFFFF DUP3 SUB PUSH2 0x17BC JUMPI PUSH2 0x17BB PUSH2 0x12C8 JUMP JUMPDEST JUMPDEST PUSH1 0x1 DUP3 ADD SWAP1 POP SWAP2 SWAP1 POP JUMP JUMPDEST PUSH32 0x4E487B7100000000000000000000000000000000000000000000000000000000 PUSH1 0x0 MSTORE PUSH1 0x41 PUSH1 0x4 MSTORE PUSH1 0x24 PUSH1 0x0 REVERT INVALID LOG2 PUSH5 0x6970667358 0x22 SLT KECCAK256 SWAP5 JUMP ORIGIN PUSH24 0xE5E19035E554D1AD4F38A5FDA67EDDD98F868A0604EE065F DUP3 0x5C PUSH5 0x2164736F6C PUSH4 0x43000811 STOP CALLER "
				},
				"gasEstimates": {
					"creation": {
						"codeDepositCost": "1237600",
						"executionCost": "infinite",
						"totalCost": "infinite"
					},
					"external": {
						"enter()": "148984",
						"generateTicket()": "infinite",
						"getBalance()": "363",
						"getPlayers()": "infinite",
						"getRandomNumber()": "infinite",
						"getWinnerByRound(uint256)": "infinite",
						"isPickingWinner()": "2538",
						"owner()": "2581",
						"pickWinner()": "infinite",
						"playerTickets(uint256)": "2884",
						"players(uint256)": "5044",
						"rawFulfillRandomness(bytes32,uint256)": "infinite",
						"tickets(uint256)": "infinite",
						"winningTickets(uint256)": "infinite"
					},
					"internal": {
						"addPlayers(address)": "75214",
						"fulfillRandomness(bytes32,uint256)": "infinite",
						"payWinner(uint256)": "infinite",
						"resetRound()": "infinite"
					}
				},
				"methodIdentifiers": {
					"enter()": "e97dcb62",
					"generateTicket()": "91f6cfe2",
					"getBalance()": "12065fe0",
					"getPlayers()": "8b5b9ccc",
					"getRandomNumber()": "dbdff2c1",
					"getWinnerByRound(uint256)": "82b0db4f",
					"isPickingWinner()": "c688d10a",
					"owner()": "8da5cb5b",
					"pickWinner()": "5d495aea",
					"playerTickets(uint256)": "a231b484",
					"players(uint256)": "f71d96cb",
					"rawFulfillRandomness(bytes32,uint256)": "94985ddd",
					"tickets(uint256)": "50b44712",
					"winningTickets(uint256)": "ed6c7931"
				}
			},
			"storageLayout": {
				"storage": [
					{
						"astId": 79,
						"contract": "truffle/contracts/Dhakon.v0.2.sol:Dhakon",
						"label": "nonces",
						"offset": 0,
						"slot": "0",
						"type": "t_mapping(t_bytes32,t_uint256)"
					},
					{
						"astId": 272,
						"contract": "truffle/contracts/Dhakon.v0.2.sol:Dhakon",
						"label": "owner",
						"offset": 0,
						"slot": "1",
						"type": "t_address"
					},
					{
						"astId": 275,
						"contract": "truffle/contracts/Dhakon.v0.2.sol:Dhakon",
						"label": "players",
						"offset": 0,
						"slot": "2",
						"type": "t_array(t_address)dyn_storage"
					},
					{
						"astId": 279,
						"contract": "truffle/contracts/Dhakon.v0.2.sol:Dhakon",
						"label": "checkPlayers",
						"offset": 0,
						"slot": "3",
						"type": "t_mapping(t_address,t_bool)"
					},
					{
						"astId": 282,
						"contract": "truffle/contracts/Dhakon.v0.2.sol:Dhakon",
						"label": "tickets",
						"offset": 0,
						"slot": "4",
						"type": "t_array(t_uint256)dyn_storage"
					},
					{
						"astId": 286,
						"contract": "truffle/contracts/Dhakon.v0.2.sol:Dhakon",
						"label": "playerTickets",
						"offset": 0,
						"slot": "5",
						"type": "t_mapping(t_uint256,t_address_payable)"
					},
					{
						"astId": 289,
						"contract": "truffle/contracts/Dhakon.v0.2.sol:Dhakon",
						"label": "winningTickets",
						"offset": 0,
						"slot": "6",
						"type": "t_array(t_uint256)dyn_storage"
					},
					{
						"astId": 291,
						"contract": "truffle/contracts/Dhakon.v0.2.sol:Dhakon",
						"label": "isPickingWinner",
						"offset": 0,
						"slot": "7",
						"type": "t_bool"
					},
					{
						"astId": 293,
						"contract": "truffle/contracts/Dhakon.v0.2.sol:Dhakon",
						"label": "keyHash",
						"offset": 0,
						"slot": "8",
						"type": "t_bytes32"
					},
					{
						"astId": 295,
						"contract": "truffle/contracts/Dhakon.v0.2.sol:Dhakon",
						"label": "fee",
						"offset": 0,
						"slot": "9",
						"type": "t_uint256"
					}
				],
				"types": {
					"t_address": {
						"encoding": "inplace",
						"label": "address",
						"numberOfBytes": "20"
					},
					"t_address_payable": {
						"encoding": "inplace",
						"label": "address payable",
						"numberOfBytes": "20"
					},
					"t_array(t_address)dyn_storage": {
						"base": "t_address",
						"encoding": "dynamic_array",
						"label": "address[]",
						"numberOfBytes": "32"
					},
					"t_array(t_uint256)dyn_storage": {
						"base": "t_uint256",
						"encoding": "dynamic_array",
						"label": "uint256[]",
						"numberOfBytes": "32"
					},
					"t_bool": {
						"encoding": "inplace",
						"label": "bool",
						"numberOfBytes": "1"
					},
					"t_bytes32": {
						"encoding": "inplace",
						"label": "bytes32",
						"numberOfBytes": "32"
					},
					"t_mapping(t_address,t_bool)": {
						"encoding": "mapping",
						"key": "t_address",
						"label": "mapping(address => bool)",
						"numberOfBytes": "32",
						"value": "t_bool"
					},
					"t_mapping(t_bytes32,t_uint256)": {
						"encoding": "mapping",
						"key": "t_bytes32",
						"label": "mapping(bytes32 => uint256)",
						"numberOfBytes": "32",
						"value": "t_uint256"
					},
					"t_mapping(t_uint256,t_address_payable)": {
						"encoding": "mapping",
						"key": "t_uint256",
						"label": "mapping(uint256 => address payable)",
						"numberOfBytes": "32",
						"value": "t_address_payable"
					},
					"t_uint256": {
						"encoding": "inplace",
						"label": "uint256",
						"numberOfBytes": "32"
					}
				}
			},
			"userdoc": {
				"kind": "user",
				"methods": {},
				"version": 1
			}
		}
	}
}