{
  "contractName": "DhakonPickingWinnerCoordinator",
  "abi": [
    {
      "inputs": [
        {
          "internalType": "address",
          "name": "_dhakonAddr",
          "type": "address"
        }
      ],
      "stateMutability": "nonpayable",
      "type": "constructor"
    },
    {
      "inputs": [
        {
          "internalType": "bytes",
          "name": "",
          "type": "bytes"
        }
      ],
      "name": "checkUpkeep",
      "outputs": [
        {
          "internalType": "bool",
          "name": "upkeepNeeded",
          "type": "bool"
        },
        {
          "internalType": "bytes",
          "name": "",
          "type": "bytes"
        }
      ],
      "stateMutability": "view",
      "type": "function"
    },
    {
      "inputs": [
        {
          "internalType": "bytes",
          "name": "",
          "type": "bytes"
        }
      ],
      "name": "performUpkeep",
      "outputs": [],
      "stateMutability": "nonpayable",
      "type": "function"
    }
  ],
  "bytecode": "0x608060405234801561001057600080fd5b506040516105c93803806105c9833981810160405281019061003291906100db565b806000806101000a81548173ffffffffffffffffffffffffffffffffffffffff021916908373ffffffffffffffffffffffffffffffffffffffff16021790555050610108565b600080fd5b600073ffffffffffffffffffffffffffffffffffffffff82169050919050565b60006100a88261007d565b9050919050565b6100b88161009d565b81146100c357600080fd5b50565b6000815190506100d5816100af565b92915050565b6000602082840312156100f1576100f0610078565b5b60006100ff848285016100c6565b91505092915050565b6104b2806101176000396000f3fe608060405234801561001057600080fd5b50600436106100365760003560e01c80634585e33b1461003b5780636e04ff0d14610057575b600080fd5b610055600480360381019061005091906102b9565b610088565b005b610071600480360381019061006c91906102b9565b6101ab565b60405161007f9291906103ba565b60405180910390f35b4260008054906101000a900473ffffffffffffffffffffffffffffffffffffffff1673ffffffffffffffffffffffffffffffffffffffff1663be3209546040518163ffffffff1660e01b8152600401602060405180830381865afa1580156100f4573d6000803e3d6000fd5b505050506040513d601f19601f820116820180604052508101906101189190610420565b11156101275761012661044d565b5b60008054906101000a900473ffffffffffffffffffffffffffffffffffffffff1673ffffffffffffffffffffffffffffffffffffffff16635d495aea6040518163ffffffff1660e01b8152600401600060405180830381600087803b15801561018f57600080fd5b505af11580156101a3573d6000803e3d6000fd5b505050505050565b600060604260008054906101000a900473ffffffffffffffffffffffffffffffffffffffff1673ffffffffffffffffffffffffffffffffffffffff1663be3209546040518163ffffffff1660e01b8152600401602060405180830381865afa15801561021b573d6000803e3d6000fd5b505050506040513d601f19601f8201168201806040525081019061023f9190610420565b111591509250929050565b600080fd5b600080fd5b600080fd5b600080fd5b600080fd5b60008083601f84011261027957610278610254565b5b8235905067ffffffffffffffff81111561029657610295610259565b5b6020830191508360018202830111156102b2576102b161025e565b5b9250929050565b600080602083850312156102d0576102cf61024a565b5b600083013567ffffffffffffffff8111156102ee576102ed61024f565b5b6102fa85828601610263565b92509250509250929050565b60008115159050919050565b61031b81610306565b82525050565b600081519050919050565b600082825260208201905092915050565b60005b8381101561035b578082015181840152602081019050610340565b8381111561036a576000848401525b50505050565b6000601f19601f8301169050919050565b600061038c82610321565b610396818561032c565b93506103a681856020860161033d565b6103af81610370565b840191505092915050565b60006040820190506103cf6000830185610312565b81810360208301526103e18184610381565b90509392505050565b6000819050919050565b6103fd816103ea565b811461040857600080fd5b50565b60008151905061041a816103f4565b92915050565b6000602082840312156104365761043561024a565b5b60006104448482850161040b565b91505092915050565b7f4e487b7100000000000000000000000000000000000000000000000000000000600052600160045260246000fdfea2646970667358221220d901c59dfdf5cbce5aa07ccbb995f91e8f8e606a648e56067d788315134ae91264736f6c634300080e0033",
  "immutableReferences": {},
  "source": "// SPDX-License-Identifier: Proprietary\n\npragma solidity ^0.8.11;\n\nimport \"@chainlink/contracts/src/v0.8/AutomationCompatible.sol\";\nimport \"./Dhakon.sol\";\n\ncontract DhakonPickingWinnerCoordinator is AutomationCompatibleInterface\n{\n    Dhakon dhakon;\n\n    constructor(address _dhakonAddr) \n    {\n        dhakon = Dhakon(_dhakonAddr);\n    }\n\n    function checkUpkeep(bytes calldata /* checkData */) external view override\n        returns (bool upkeepNeeded, bytes memory /* performData */)\n    {\n        upkeepNeeded = dhakon.roundEndsAt() <= block.timestamp;\n    }\n\n    function performUpkeep(bytes calldata /* performData */) external override \n    {\n        assert(dhakon.roundEndsAt() <= block.timestamp);\n\n        dhakon.pickWinner();\n    }\n\n}",
  "sourcePath": "/home/adminx/code/dhakon/backend/contracts/DhakonPickingWinnerCoordinator.sol",
  "compiler": {
    "name": "solc",
    "version": "0.8.14+commit.80d49f37.Emscripten.clang"
  },
  "schemaVersion": "3.4.10",
  "updatedAt": "2022-12-13T09:10:24.990Z",
  "devdoc": {
    "kind": "dev",
    "methods": {},
    "version": 1
  },
  "userdoc": {
    "kind": "user",
    "methods": {},
    "version": 1
  }
}