{
  "contractName": "DhakonPayWinnerCoordinator",
  "abi": [
    {
      "inputs": [
        {
          "internalType": "address",
          "name": "_dhakonAddr",
          "type": "address"
        }
      ],
      "stateMutability": "nonpayable",
      "type": "constructor"
    },
    {
      "inputs": [
        {
          "internalType": "bytes",
          "name": "",
          "type": "bytes"
        }
      ],
      "name": "checkUpkeep",
      "outputs": [
        {
          "internalType": "bool",
          "name": "upkeepNeeded",
          "type": "bool"
        },
        {
          "internalType": "bytes",
          "name": "",
          "type": "bytes"
        }
      ],
      "stateMutability": "view",
      "type": "function"
    },
    {
      "inputs": [
        {
          "internalType": "bytes",
          "name": "",
          "type": "bytes"
        }
      ],
      "name": "performUpkeep",
      "outputs": [],
      "stateMutability": "nonpayable",
      "type": "function"
    }
  ],
  "bytecode": "0x608060405234801561001057600080fd5b50604051610752380380610752833981810160405281019061003291906100db565b806000806101000a81548173ffffffffffffffffffffffffffffffffffffffff021916908373ffffffffffffffffffffffffffffffffffffffff16021790555050610108565b600080fd5b600073ffffffffffffffffffffffffffffffffffffffff82169050919050565b60006100a88261007d565b9050919050565b6100b88161009d565b81146100c357600080fd5b50565b6000815190506100d5816100af565b92915050565b6000602082840312156100f1576100f0610078565b5b60006100ff848285016100c6565b91505092915050565b61063b806101176000396000f3fe608060405234801561001057600080fd5b50600436106100365760003560e01c80634585e33b1461003b5780636e04ff0d14610057575b600080fd5b610055600480360381019061005091906103db565b610088565b005b610071600480360381019061006c91906103db565b61023c565b60405161007f9291906104dc565b60405180910390f35b60008054906101000a900473ffffffffffffffffffffffffffffffffffffffff1673ffffffffffffffffffffffffffffffffffffffff16638a19c8bc6040518163ffffffff1660e01b8152600401602060405180830381865afa1580156100f3573d6000803e3d6000fd5b505050506040513d601f19601f820116820180604052508101906101179190610546565b61ffff1660008054906101000a900473ffffffffffffffffffffffffffffffffffffffff1673ffffffffffffffffffffffffffffffffffffffff1663869fe08d6040518163ffffffff1660e01b8152600401602060405180830381865afa158015610186573d6000803e3d6000fd5b505050506040513d601f19601f820116820180604052508101906101aa91906105a9565b116101b8576101b76105d6565b5b60008054906101000a900473ffffffffffffffffffffffffffffffffffffffff1673ffffffffffffffffffffffffffffffffffffffff1663be71248a6040518163ffffffff1660e01b8152600401600060405180830381600087803b15801561022057600080fd5b505af1158015610234573d6000803e3d6000fd5b505050505050565b6000606060008054906101000a900473ffffffffffffffffffffffffffffffffffffffff1673ffffffffffffffffffffffffffffffffffffffff16638a19c8bc6040518163ffffffff1660e01b8152600401602060405180830381865afa1580156102ab573d6000803e3d6000fd5b505050506040513d601f19601f820116820180604052508101906102cf9190610546565b61ffff1660008054906101000a900473ffffffffffffffffffffffffffffffffffffffff1673ffffffffffffffffffffffffffffffffffffffff1663869fe08d6040518163ffffffff1660e01b8152600401602060405180830381865afa15801561033e573d6000803e3d6000fd5b505050506040513d601f19601f8201168201806040525081019061036291906105a9565b1191509250929050565b600080fd5b600080fd5b600080fd5b600080fd5b600080fd5b60008083601f84011261039b5761039a610376565b5b8235905067ffffffffffffffff8111156103b8576103b761037b565b5b6020830191508360018202830111156103d4576103d3610380565b5b9250929050565b600080602083850312156103f2576103f161036c565b5b600083013567ffffffffffffffff8111156104105761040f610371565b5b61041c85828601610385565b92509250509250929050565b60008115159050919050565b61043d81610428565b82525050565b600081519050919050565b600082825260208201905092915050565b60005b8381101561047d578082015181840152602081019050610462565b8381111561048c576000848401525b50505050565b6000601f19601f8301169050919050565b60006104ae82610443565b6104b8818561044e565b93506104c881856020860161045f565b6104d181610492565b840191505092915050565b60006040820190506104f16000830185610434565b818103602083015261050381846104a3565b90509392505050565b600061ffff82169050919050565b6105238161050c565b811461052e57600080fd5b50565b6000815190506105408161051a565b92915050565b60006020828403121561055c5761055b61036c565b5b600061056a84828501610531565b91505092915050565b6000819050919050565b61058681610573565b811461059157600080fd5b50565b6000815190506105a38161057d565b92915050565b6000602082840312156105bf576105be61036c565b5b60006105cd84828501610594565b91505092915050565b7f4e487b7100000000000000000000000000000000000000000000000000000000600052600160045260246000fdfea2646970667358221220767e9d9f9dc01723ee6469c6b97e8b3ad390d2b76ee9e39a76706b93dda29c6964736f6c634300080e0033",
  "immutableReferences": {},
  "source": "// SPDX-License-Identifier: Proprietary\n\npragma solidity ^0.8.11;\n\nimport \"@chainlink/contracts/src/v0.8/AutomationCompatible.sol\";\nimport \"./Dhakon.sol\";\n\ncontract DhakonPayWinnerCoordinator is AutomationCompatibleInterface\n{\n    Dhakon dhakon;\n\n    constructor(address _dhakonAddr) \n    {\n        dhakon = Dhakon(_dhakonAddr);\n    }\n\n    function checkUpkeep(bytes calldata /* checkData */) external view override\n        returns (bool upkeepNeeded, bytes memory /* performData */)\n    {\n        upkeepNeeded = dhakon.getNumOfWinners() > dhakon.currentRound();\n    }\n\n    function performUpkeep(bytes calldata /* performData */) external override \n    {\n        assert(dhakon.getNumOfWinners() > dhakon.currentRound());\n\n        dhakon.payWinner();\n    }\n}",
  "sourcePath": "/home/adminx/code/dhakon/backend/contracts/DhakonPayWinnerCoordinator.sol",
  "compiler": {
    "name": "solc",
    "version": "0.8.14+commit.80d49f37.Emscripten.clang"
  },
  "schemaVersion": "3.4.10",
  "updatedAt": "2022-12-15T06:26:33.335Z",
  "devdoc": {
    "kind": "dev",
    "methods": {},
    "version": 1
  },
  "userdoc": {
    "kind": "user",
    "methods": {},
    "version": 1
  }
}