{
  "contractName": "MockDhakon",
  "abi": [
    {
      "inputs": [
        {
          "internalType": "address",
          "name": "_linkAddress",
          "type": "address"
        },
        {
          "internalType": "address",
          "name": "_wrapperAddress",
          "type": "address"
        },
        {
          "internalType": "uint32",
          "name": "_callbackGasLimit",
          "type": "uint32"
        },
        {
          "internalType": "uint256",
          "name": "_ticketPrice",
          "type": "uint256"
        },
        {
          "internalType": "uint8",
          "name": "_roundDays",
          "type": "uint8"
        },
        {
          "internalType": "uint16",
          "name": "_commissionPct",
          "type": "uint16"
        }
      ],
      "stateMutability": "nonpayable",
      "type": "constructor"
    },
    {
      "anonymous": false,
      "inputs": [
        {
          "indexed": true,
          "internalType": "uint32",
          "name": "ticket",
          "type": "uint32"
        },
        {
          "indexed": true,
          "internalType": "address",
          "name": "player",
          "type": "address"
        }
      ],
      "name": "NewPlayerEntered",
      "type": "event"
    },
    {
      "anonymous": false,
      "inputs": [
        {
          "indexed": true,
          "internalType": "uint16",
          "name": "round",
          "type": "uint16"
        },
        {
          "indexed": false,
          "internalType": "uint8",
          "name": "nDays",
          "type": "uint8"
        },
        {
          "indexed": false,
          "internalType": "uint256",
          "name": "endsAt",
          "type": "uint256"
        }
      ],
      "name": "RoundStarted",
      "type": "event"
    },
    {
      "anonymous": false,
      "inputs": [
        {
          "indexed": true,
          "internalType": "uint32",
          "name": "ticket",
          "type": "uint32"
        },
        {
          "indexed": false,
          "internalType": "address",
          "name": "player",
          "type": "address"
        }
      ],
      "name": "WinnerChosen",
      "type": "event"
    },
    {
      "anonymous": false,
      "inputs": [
        {
          "indexed": true,
          "internalType": "uint32",
          "name": "ticket",
          "type": "uint32"
        },
        {
          "indexed": false,
          "internalType": "address",
          "name": "player",
          "type": "address"
        },
        {
          "indexed": false,
          "internalType": "uint256",
          "name": "paidAt",
          "type": "uint256"
        }
      ],
      "name": "WinnerPaid",
      "type": "event"
    },
    {
      "inputs": [],
      "name": "callbackGasLimit",
      "outputs": [
        {
          "internalType": "uint32",
          "name": "",
          "type": "uint32"
        }
      ],
      "stateMutability": "view",
      "type": "function",
      "constant": true
    },
    {
      "inputs": [
        {
          "internalType": "bytes",
          "name": "checkData",
          "type": "bytes"
        }
      ],
      "name": "checkUpkeep",
      "outputs": [
        {
          "internalType": "bool",
          "name": "upkeepNeeded",
          "type": "bool"
        },
        {
          "internalType": "bytes",
          "name": "performData",
          "type": "bytes"
        }
      ],
      "stateMutability": "view",
      "type": "function",
      "constant": true
    },
    {
      "inputs": [],
      "name": "commissionPct",
      "outputs": [
        {
          "internalType": "uint16",
          "name": "",
          "type": "uint16"
        }
      ],
      "stateMutability": "view",
      "type": "function",
      "constant": true
    },
    {
      "inputs": [],
      "name": "currentRound",
      "outputs": [
        {
          "internalType": "uint16",
          "name": "",
          "type": "uint16"
        }
      ],
      "stateMutability": "view",
      "type": "function",
      "constant": true
    },
    {
      "inputs": [],
      "name": "enter",
      "outputs": [],
      "stateMutability": "payable",
      "type": "function",
      "payable": true
    },
    {
      "inputs": [],
      "name": "getBalance",
      "outputs": [
        {
          "internalType": "uint256",
          "name": "",
          "type": "uint256"
        }
      ],
      "stateMutability": "view",
      "type": "function",
      "constant": true
    },
    {
      "inputs": [],
      "name": "getNumOfPlayers",
      "outputs": [
        {
          "internalType": "uint256",
          "name": "",
          "type": "uint256"
        }
      ],
      "stateMutability": "view",
      "type": "function",
      "constant": true
    },
    {
      "inputs": [],
      "name": "getNumOfTickets",
      "outputs": [
        {
          "internalType": "uint256",
          "name": "",
          "type": "uint256"
        }
      ],
      "stateMutability": "view",
      "type": "function",
      "constant": true
    },
    {
      "inputs": [],
      "name": "getNumOfWinners",
      "outputs": [
        {
          "internalType": "uint256",
          "name": "",
          "type": "uint256"
        }
      ],
      "stateMutability": "view",
      "type": "function",
      "constant": true
    },
    {
      "inputs": [
        {
          "internalType": "uint8",
          "name": "limit",
          "type": "uint8"
        }
      ],
      "name": "getPlayers",
      "outputs": [
        {
          "internalType": "address[]",
          "name": "",
          "type": "address[]"
        }
      ],
      "stateMutability": "view",
      "type": "function",
      "constant": true
    },
    {
      "inputs": [
        {
          "internalType": "uint8",
          "name": "limit",
          "type": "uint8"
        }
      ],
      "name": "getTickets",
      "outputs": [
        {
          "components": [
            {
              "internalType": "uint32",
              "name": "num",
              "type": "uint32"
            },
            {
              "internalType": "uint256",
              "name": "time",
              "type": "uint256"
            },
            {
              "internalType": "address",
              "name": "player",
              "type": "address"
            }
          ],
          "internalType": "struct Dhakon.Ticket[]",
          "name": "",
          "type": "tuple[]"
        }
      ],
      "stateMutability": "view",
      "type": "function",
      "constant": true
    },
    {
      "inputs": [
        {
          "internalType": "uint16",
          "name": "_round",
          "type": "uint16"
        }
      ],
      "name": "getWinnerByRound",
      "outputs": [
        {
          "components": [
            {
              "internalType": "uint16",
              "name": "round",
              "type": "uint16"
            },
            {
              "internalType": "uint32",
              "name": "ticket",
              "type": "uint32"
            },
            {
              "internalType": "address",
              "name": "player",
              "type": "address"
            },
            {
              "internalType": "uint256",
              "name": "randRequestId",
              "type": "uint256"
            },
            {
              "internalType": "uint256",
              "name": "wonAt",
              "type": "uint256"
            },
            {
              "internalType": "uint256",
              "name": "paidAt",
              "type": "uint256"
            }
          ],
          "internalType": "struct Dhakon.Winner",
          "name": "",
          "type": "tuple"
        }
      ],
      "stateMutability": "view",
      "type": "function",
      "constant": true
    },
    {
      "inputs": [
        {
          "internalType": "uint32",
          "name": "limit",
          "type": "uint32"
        }
      ],
      "name": "getWinners",
      "outputs": [
        {
          "components": [
            {
              "internalType": "uint16",
              "name": "round",
              "type": "uint16"
            },
            {
              "internalType": "uint32",
              "name": "ticket",
              "type": "uint32"
            },
            {
              "internalType": "address",
              "name": "player",
              "type": "address"
            },
            {
              "internalType": "uint256",
              "name": "randRequestId",
              "type": "uint256"
            },
            {
              "internalType": "uint256",
              "name": "wonAt",
              "type": "uint256"
            },
            {
              "internalType": "uint256",
              "name": "paidAt",
              "type": "uint256"
            }
          ],
          "internalType": "struct Dhakon.Winner[]",
          "name": "",
          "type": "tuple[]"
        }
      ],
      "stateMutability": "view",
      "type": "function",
      "constant": true
    },
    {
      "inputs": [
        {
          "internalType": "address",
          "name": "_address",
          "type": "address"
        }
      ],
      "name": "isOwner",
      "outputs": [
        {
          "internalType": "bool",
          "name": "",
          "type": "bool"
        }
      ],
      "stateMutability": "view",
      "type": "function",
      "constant": true
    },
    {
      "inputs": [],
      "name": "isPaused",
      "outputs": [
        {
          "internalType": "bool",
          "name": "",
          "type": "bool"
        }
      ],
      "stateMutability": "view",
      "type": "function",
      "constant": true
    },
    {
      "inputs": [],
      "name": "isPayingWinner",
      "outputs": [
        {
          "internalType": "bool",
          "name": "",
          "type": "bool"
        }
      ],
      "stateMutability": "view",
      "type": "function",
      "constant": true
    },
    {
      "inputs": [],
      "name": "isPickingWinner",
      "outputs": [
        {
          "internalType": "bool",
          "name": "",
          "type": "bool"
        }
      ],
      "stateMutability": "view",
      "type": "function",
      "constant": true
    },
    {
      "inputs": [],
      "name": "lastRequestId",
      "outputs": [
        {
          "internalType": "uint256",
          "name": "",
          "type": "uint256"
        }
      ],
      "stateMutability": "view",
      "type": "function",
      "constant": true
    },
    {
      "inputs": [],
      "name": "payWinner",
      "outputs": [],
      "stateMutability": "nonpayable",
      "type": "function"
    },
    {
      "inputs": [
        {
          "internalType": "bytes",
          "name": "performData",
          "type": "bytes"
        }
      ],
      "name": "performUpkeep",
      "outputs": [],
      "stateMutability": "nonpayable",
      "type": "function"
    },
    {
      "inputs": [],
      "name": "pickWinner",
      "outputs": [],
      "stateMutability": "nonpayable",
      "type": "function"
    },
    {
      "inputs": [
        {
          "internalType": "uint32",
          "name": "",
          "type": "uint32"
        }
      ],
      "name": "playerTickets",
      "outputs": [
        {
          "internalType": "address",
          "name": "",
          "type": "address"
        }
      ],
      "stateMutability": "view",
      "type": "function",
      "constant": true
    },
    {
      "inputs": [
        {
          "internalType": "uint256",
          "name": "",
          "type": "uint256"
        }
      ],
      "name": "players",
      "outputs": [
        {
          "internalType": "address",
          "name": "",
          "type": "address"
        }
      ],
      "stateMutability": "view",
      "type": "function",
      "constant": true
    },
    {
      "inputs": [
        {
          "internalType": "uint256",
          "name": "_requestId",
          "type": "uint256"
        },
        {
          "internalType": "uint256[]",
          "name": "_randomWords",
          "type": "uint256[]"
        }
      ],
      "name": "rawFulfillRandomWords",
      "outputs": [],
      "stateMutability": "nonpayable",
      "type": "function"
    },
    {
      "inputs": [],
      "name": "roundDays",
      "outputs": [
        {
          "internalType": "uint8",
          "name": "",
          "type": "uint8"
        }
      ],
      "stateMutability": "view",
      "type": "function",
      "constant": true
    },
    {
      "inputs": [],
      "name": "roundEndsAt",
      "outputs": [
        {
          "internalType": "uint256",
          "name": "",
          "type": "uint256"
        }
      ],
      "stateMutability": "view",
      "type": "function",
      "constant": true
    },
    {
      "inputs": [
        {
          "internalType": "uint32",
          "name": "_val",
          "type": "uint32"
        }
      ],
      "name": "setCallbackGasLimit",
      "outputs": [],
      "stateMutability": "nonpayable",
      "type": "function"
    },
    {
      "inputs": [
        {
          "internalType": "bool",
          "name": "_val",
          "type": "bool"
        }
      ],
      "name": "setIsPaused",
      "outputs": [],
      "stateMutability": "nonpayable",
      "type": "function"
    },
    {
      "inputs": [
        {
          "internalType": "bool",
          "name": "_val",
          "type": "bool"
        }
      ],
      "name": "setIsPickingWinner",
      "outputs": [],
      "stateMutability": "nonpayable",
      "type": "function"
    },
    {
      "inputs": [
        {
          "internalType": "uint8",
          "name": "_roundDays",
          "type": "uint8"
        }
      ],
      "name": "setRoundDays",
      "outputs": [],
      "stateMutability": "nonpayable",
      "type": "function"
    },
    {
      "inputs": [
        {
          "internalType": "uint256",
          "name": "_timestamp",
          "type": "uint256"
        }
      ],
      "name": "setRoundEndsAt",
      "outputs": [],
      "stateMutability": "nonpayable",
      "type": "function"
    },
    {
      "inputs": [],
      "name": "ticketPrice",
      "outputs": [
        {
          "internalType": "uint256",
          "name": "",
          "type": "uint256"
        }
      ],
      "stateMutability": "view",
      "type": "function",
      "constant": true
    },
    {
      "inputs": [
        {
          "internalType": "uint256",
          "name": "",
          "type": "uint256"
        }
      ],
      "name": "tickets",
      "outputs": [
        {
          "internalType": "uint32",
          "name": "num",
          "type": "uint32"
        },
        {
          "internalType": "uint256",
          "name": "time",
          "type": "uint256"
        },
        {
          "internalType": "address",
          "name": "player",
          "type": "address"
        }
      ],
      "stateMutability": "view",
      "type": "function",
      "constant": true
    },
    {
      "inputs": [
        {
          "internalType": "uint256",
          "name": "",
          "type": "uint256"
        }
      ],
      "name": "winners",
      "outputs": [
        {
          "internalType": "uint16",
          "name": "round",
          "type": "uint16"
        },
        {
          "internalType": "uint32",
          "name": "ticket",
          "type": "uint32"
        },
        {
          "internalType": "address",
          "name": "player",
          "type": "address"
        },
        {
          "internalType": "uint256",
          "name": "randRequestId",
          "type": "uint256"
        },
        {
          "internalType": "uint256",
          "name": "wonAt",
          "type": "uint256"
        },
        {
          "internalType": "uint256",
          "name": "paidAt",
          "type": "uint256"
        }
      ],
      "stateMutability": "view",
      "type": "function",
      "constant": true
    },
    {
      "inputs": [],
      "name": "withdrawLINKToken",
      "outputs": [],
      "stateMutability": "nonpayable",
      "type": "function"
    }
  ],
  "bytecode": "0x6101006040526000600660036101000a81548161ffff021916908361ffff1602179055503480156200003057600080fd5b5060405162004437380380620044378339818101604052810190620000569190620002d1565b85858585858585858173ffffffffffffffffffffffffffffffffffffffff1660808173ffffffffffffffffffffffffffffffffffffffff16815250508073ffffffffffffffffffffffffffffffffffffffff1660a08173ffffffffffffffffffffffffffffffffffffffff1681525050505083600860006101000a81548163ffffffff021916908363ffffffff160217905550336000806101000a81548173ffffffffffffffffffffffffffffffffffffffff021916908373ffffffffffffffffffffffffffffffffffffffff1602179055508260c0818152505081600060146101000a81548160ff021916908360ff1602179055508061ffff1660e08161ffff16815250505050505050505050505050506200036d565b600080fd5b600073ffffffffffffffffffffffffffffffffffffffff82169050919050565b6000620001a08262000173565b9050919050565b620001b28162000193565b8114620001be57600080fd5b50565b600081519050620001d281620001a7565b92915050565b600063ffffffff82169050919050565b620001f381620001d8565b8114620001ff57600080fd5b50565b6000815190506200021381620001e8565b92915050565b6000819050919050565b6200022e8162000219565b81146200023a57600080fd5b50565b6000815190506200024e8162000223565b92915050565b600060ff82169050919050565b6200026c8162000254565b81146200027857600080fd5b50565b6000815190506200028c8162000261565b92915050565b600061ffff82169050919050565b620002ab8162000292565b8114620002b757600080fd5b50565b600081519050620002cb81620002a0565b92915050565b60008060008060008060c08789031215620002f157620002f06200016e565b5b60006200030189828a01620001c1565b96505060206200031489828a01620001c1565b95505060406200032789828a0162000202565b94505060606200033a89828a016200023d565b93505060806200034d89828a016200027b565b92505060a06200036089828a01620002ba565b9150509295509295509295565b60805160a05160c05160e05161407b620003bc600039600081816115590152611a7e0152600081816108a70152611e19015260006108cb015260008181610d560152610e35015261407b6000f3fe6080604052600436106102045760003560e01c8063869fe08d11610118578063be71248a116100a0578063e97dcb621161006f578063e97dcb6214610761578063f71d96cb1461076b578063f7d67d9f146107a8578063fc2a88c3146107e5578063ff53446a1461081057610204565b8063be71248a146106b9578063c688d10a146106d0578063d5b2d954146106fb578063daf5d8e11461072457610204565b8063a4eb718c116100e7578063a4eb718c146105d2578063b187bd26146105fb578063b18a02a414610626578063bc6e6a9014610663578063be3209541461068e57610204565b8063869fe08d1461050f57806386cce5051461053a5780638a19c8bc14610565578063a2fb11751461059057610204565b80632f903e031161019b57806350b447121161016a57806350b4471214610425578063565429de146104645780635d495aea1461048f5780636e04ff0d146104a65780637a5331f1146104e457610204565b80632f903e031461037f5780633df11d31146103a857806340a1b96e146103bf5780634585e33b146103fc57610204565b8063240976bf116101d7578063240976bf146102b157806324f74697146102da578063265c8483146103055780632f54bf6e1461034257610204565b80630e12689c1461020957806312065fe0146102325780631209b1f61461025d5780631fe543e314610288575b600080fd5b34801561021557600080fd5b50610230600480360381019061022b9190612997565b61083b565b005b34801561023e57600080fd5b5061024761089d565b60405161025491906129d3565b60405180910390f35b34801561026957600080fd5b506102726108a5565b60405161027f91906129d3565b60405180910390f35b34801561029457600080fd5b506102af60048036038101906102aa9190612b47565b6108c9565b005b3480156102bd57600080fd5b506102d860048036038101906102d39190612bdb565b610965565b005b3480156102e657600080fd5b506102ef6109da565b6040516102fc9190612c27565b60405180910390f35b34801561031157600080fd5b5061032c60048036038101906103279190612c6e565b6109f0565b6040516103399190612e41565b60405180910390f35b34801561034e57600080fd5b5061036960048036038101906103649190612e8f565b610c2b565b6040516103769190612ecb565b60405180910390f35b34801561038b57600080fd5b506103a660048036038101906103a19190612f1f565b610c84565b005b3480156103b457600080fd5b506103bd610cfa565b005b3480156103cb57600080fd5b506103e660048036038101906103e19190612f1f565b610ef5565b6040516103f3919061303d565b60405180910390f35b34801561040857600080fd5b50610423600480360381019061041e91906130ba565b6110f3565b005b34801561043157600080fd5b5061044c60048036038101906104479190612997565b611205565b60405161045b93929190613116565b60405180910390f35b34801561047057600080fd5b5061047961126f565b60405161048691906129d3565b60405180910390f35b34801561049b57600080fd5b506104a461127c565b005b3480156104b257600080fd5b506104cd60048036038101906104c891906130ba565b6113bf565b6040516104db9291906131d5565b60405180910390f35b3480156104f057600080fd5b506104f9611537565b6040516105069190613214565b60405180910390f35b34801561051b57600080fd5b5061052461154a565b60405161053191906129d3565b60405180910390f35b34801561054657600080fd5b5061054f611557565b60405161055c919061323e565b60405180910390f35b34801561057157600080fd5b5061057a61157b565b604051610587919061323e565b60405180910390f35b34801561059c57600080fd5b506105b760048036038101906105b29190612997565b61158f565b6040516105c996959493929190613259565b60405180910390f35b3480156105de57600080fd5b506105f960048036038101906105f49190612c6e565b611619565b005b34801561060757600080fd5b50610610611695565b60405161061d9190612ecb565b60405180910390f35b34801561063257600080fd5b5061064d60048036038101906106489190612f1f565b6116a8565b60405161065a9190613369565b60405180910390f35b34801561066f57600080fd5b50610678611855565b60405161068591906129d3565b60405180910390f35b34801561069a57600080fd5b506106a3611862565b6040516106b091906129d3565b60405180910390f35b3480156106c557600080fd5b506106ce611868565b005b3480156106dc57600080fd5b506106e5611bc1565b6040516106f29190612ecb565b60405180910390f35b34801561070757600080fd5b50610722600480360381019061071d9190612bdb565b611bd4565b005b34801561073057600080fd5b5061074b600480360381019061074691906133b7565b611c49565b604051610758919061345f565b60405180910390f35b610769611dc7565b005b34801561077757600080fd5b50610792600480360381019061078d9190612997565b6120a3565b60405161079f919061347a565b60405180910390f35b3480156107b457600080fd5b506107cf60048036038101906107ca9190612c6e565b6120e2565b6040516107dc919061347a565b60405180910390f35b3480156107f157600080fd5b506107fa612115565b60405161080791906129d3565b60405180910390f35b34801561081c57600080fd5b5061082561211b565b6040516108329190612ecb565b60405180910390f35b60008054906101000a900473ffffffffffffffffffffffffffffffffffffffff1673ffffffffffffffffffffffffffffffffffffffff163373ffffffffffffffffffffffffffffffffffffffff161461089357600080fd5b8060078190555050565b600047905090565b7f000000000000000000000000000000000000000000000000000000000000000081565b7f000000000000000000000000000000000000000000000000000000000000000073ffffffffffffffffffffffffffffffffffffffff163373ffffffffffffffffffffffffffffffffffffffff1614610957576040517f08c379a000000000000000000000000000000000000000000000000000000000815260040161094e906134f2565b60405180910390fd5b610961828261212e565b5050565b60008054906101000a900473ffffffffffffffffffffffffffffffffffffffff1673ffffffffffffffffffffffffffffffffffffffff163373ffffffffffffffffffffffffffffffffffffffff16146109bd57600080fd5b80600660026101000a81548160ff02191690831515021790555050565b600860009054906101000a900463ffffffff1681565b606060008263ffffffff1611610a3b576040517f08c379a0000000000000000000000000000000000000000000000000000000008152600401610a329061355e565b60405180910390fd5b60008263ffffffff1667ffffffffffffffff811115610a5d57610a5c612a04565b5b604051908082528060200260200182016040528015610a9657816020015b610a836127fb565b815260200190600190039081610a7b5790505b509050600060058054905003610aaf5780915050610c26565b600060019050600060058054905090505b8463ffffffff168260ff1611158015610ad95750600081115b15610c1f576005600182610aed91906135ad565b81548110610afe57610afd6135e1565b5b90600052602060002090600402016040518060c00160405290816000820160009054906101000a900461ffff1661ffff1661ffff1681526020016000820160029054906101000a900463ffffffff1663ffffffff1663ffffffff1681526020016000820160069054906101000a900473ffffffffffffffffffffffffffffffffffffffff1673ffffffffffffffffffffffffffffffffffffffff1673ffffffffffffffffffffffffffffffffffffffff168152602001600182015481526020016002820154815260200160038201548152505083600184610bdf9190613610565b60ff1681518110610bf357610bf26135e1565b5b60200260200101819052508180610c0990613644565b9250508080610c179061366d565b915050610ac0565b8293505050505b919050565b60008060009054906101000a900473ffffffffffffffffffffffffffffffffffffffff1673ffffffffffffffffffffffffffffffffffffffff168273ffffffffffffffffffffffffffffffffffffffff16149050919050565b60008054906101000a900473ffffffffffffffffffffffffffffffffffffffff1673ffffffffffffffffffffffffffffffffffffffff163373ffffffffffffffffffffffffffffffffffffffff1614610cdc57600080fd5b80600060146101000a81548160ff021916908360ff16021790555050565b60008054906101000a900473ffffffffffffffffffffffffffffffffffffffff1673ffffffffffffffffffffffffffffffffffffffff163373ffffffffffffffffffffffffffffffffffffffff1614610d5257600080fd5b60007f000000000000000000000000000000000000000000000000000000000000000073ffffffffffffffffffffffffffffffffffffffff166370a08231306040518263ffffffff1660e01b8152600401610dad919061347a565b602060405180830381865afa158015610dca573d6000803e3d6000fd5b505050506040513d601f19601f82011682018060405250810190610dee91906136ab565b905060008111610e33576040517f08c379a0000000000000000000000000000000000000000000000000000000008152600401610e2a90613724565b60405180910390fd5b7f000000000000000000000000000000000000000000000000000000000000000073ffffffffffffffffffffffffffffffffffffffff1663a9059cbb60008054906101000a900473ffffffffffffffffffffffffffffffffffffffff16836040518363ffffffff1660e01b8152600401610eae929190613744565b6020604051808303816000875af1158015610ecd573d6000803e3d6000fd5b505050506040513d601f19601f82011682018060405250810190610ef19190613782565b5050565b606060008260ff1611610f3d576040517f08c379a0000000000000000000000000000000000000000000000000000000008152600401610f349061355e565b60405180910390fd5b60008260ff1667ffffffffffffffff811115610f5c57610f5b612a04565b5b604051908082528060200260200182016040528015610f9557816020015b610f82612851565b815260200190600190039081610f7a5790505b509050600060038054905003610fae57809150506110ee565b600060019050600060038054905090505b8460ff168260ff1611158015610fd55750600081115b156110e7576003600182610fe991906135ad565b81548110610ffa57610ff96135e1565b5b90600052602060002090600302016040518060600160405290816000820160009054906101000a900463ffffffff1663ffffffff1663ffffffff168152602001600182015481526020016002820160009054906101000a900473ffffffffffffffffffffffffffffffffffffffff1673ffffffffffffffffffffffffffffffffffffffff1673ffffffffffffffffffffffffffffffffffffffff1681525050836001846110a79190613610565b60ff16815181106110bb576110ba6135e1565b5b602002602001018190525081806110d190613644565b92505080806110df9061366d565b915050610fbf565b8293505050505b919050565b7f5fe7f977e71dba2ea1a68e21057beebb9be2ac30c6410aa38d4f3fbe41dcffd282826040516111249291906137ee565b60405180910390200361119057600660039054906101000a900461ffff1661ffff166005805490501115801561115c57504260075411155b61116957611168613807565b5b600660009054906101000a900460ff161561118357600080fd5b61118b61127c565b611201565b7ff2ee15ea639b73fa3db9b34a245bdfa015c260c598b211bf05a1ecc4b3e3b4f282826040516111c19291906137ee565b60405180910390200361120057600660039054906101000a900461ffff1661ffff16600580549050116111f7576111f6613807565b5b6111ff611868565b5b5b5050565b6003818154811061121557600080fd5b90600052602060002090600302016000915090508060000160009054906101000a900463ffffffff16908060010154908060020160009054906101000a900473ffffffffffffffffffffffffffffffffffffffff16905083565b6000600180549050905090565b600660009054906101000a900460ff161561129657600080fd5b4260075411156112db576040517f08c379a00000000000000000000000000000000000000000000000000000000081526004016112d290613882565b60405180910390fd5b600060038054905011611323576040517f08c379a000000000000000000000000000000000000000000000000000000000815260040161131a906138ee565b60405180910390fd5b600660039054906101000a900461ffff1661ffff16600580549050111561137f576040517f08c379a00000000000000000000000000000000000000000000000000000000081526004016113769061395a565b60405180910390fd5b6001600660006101000a81548160ff0219169083151502179055506001600660026101000a81548160ff0219169083151502179055506113bd61242c565b565b600060607f5fe7f977e71dba2ea1a68e21057beebb9be2ac30c6410aa38d4f3fbe41dcffd284846040516113f49291906137ee565b60405180910390200361148b57600060038054905011801561142f5750600660039054906101000a900461ffff1661ffff1660058054905011155b801561143d57504260075411155b915083838080601f016020809104026020016040519081016040528093929190818152602001838380828437600081840152601f19601f820116905080830192505050505050509050611530565b7ff2ee15ea639b73fa3db9b34a245bdfa015c260c598b211bf05a1ecc4b3e3b4f284846040516114bc9291906137ee565b60405180910390200361152f57600660039054906101000a900461ffff1661ffff1660058054905011915083838080601f016020809104026020016040519081016040528093929190818152602001838380828437600081840152601f19601f8201169050808301925050505050505090505b5b9250929050565b600060149054906101000a900460ff1681565b6000600580549050905090565b7f000000000000000000000000000000000000000000000000000000000000000081565b600660039054906101000a900461ffff1681565b6005818154811061159f57600080fd5b90600052602060002090600402016000915090508060000160009054906101000a900461ffff16908060000160029054906101000a900463ffffffff16908060000160069054906101000a900473ffffffffffffffffffffffffffffffffffffffff16908060010154908060020154908060030154905086565b60008054906101000a900473ffffffffffffffffffffffffffffffffffffffff1673ffffffffffffffffffffffffffffffffffffffff163373ffffffffffffffffffffffffffffffffffffffff161461167157600080fd5b80600860006101000a81548163ffffffff021916908363ffffffff16021790555050565b600660029054906101000a900460ff1681565b606060008260ff16116116f0576040517f08c379a00000000000000000000000000000000000000000000000000000000081526004016116e79061355e565b60405180910390fd5b60008260ff1667ffffffffffffffff81111561170f5761170e612a04565b5b60405190808252806020026020018201604052801561173d5781602001602082028036833780820191505090505b5090506000600180549050036117565780915050611850565b600060019050600060018054905090505b8460ff168260ff161115801561177d5750600081115b15611849576001808261179091906135ad565b815481106117a1576117a06135e1565b5b9060005260206000200160009054906101000a900473ffffffffffffffffffffffffffffffffffffffff16836001846117da9190613610565b60ff16815181106117ee576117ed6135e1565b5b602002602001019073ffffffffffffffffffffffffffffffffffffffff16908173ffffffffffffffffffffffffffffffffffffffff1681525050818061183390613644565b92505080806118419061366d565b915050611767565b8293505050505b919050565b6000600380549050905090565b60075481565b600660019054906101000a900460ff161561188257600080fd5b600660039054906101000a900461ffff1661ffff16600580549050116118dd576040517f08c379a00000000000000000000000000000000000000000000000000000000081526004016118d4906139ec565b60405180910390fd5b6001600660016101000a81548160ff021916908315150217905550600047905060008111611940576040517f08c379a000000000000000000000000000000000000000000000000000000000815260040161193790613a58565b60405180910390fd5b60006005600660039054906101000a900461ffff1661ffff168154811061196a576119696135e1565b5b906000526020600020906004020160000160029054906101000a900463ffffffff1690506000600460008363ffffffff1663ffffffff16815260200190815260200160002060009054906101000a900473ffffffffffffffffffffffffffffffffffffffff16905060008060009054906101000a900473ffffffffffffffffffffffffffffffffffffffff1690506000429050806005600660039054906101000a900461ffff1661ffff1681548110611a2657611a256135e1565b5b9060005260206000209060040201600301819055506006600381819054906101000a900461ffff1680929190611a5b90613a78565b91906101000a81548161ffff021916908361ffff160217905550506000612710867f000000000000000000000000000000000000000000000000000000000000000061ffff16611aab9190613aa2565b611ab59190613b2b565b905060008187611ac591906135ad565b90508473ffffffffffffffffffffffffffffffffffffffff166108fc829081150290604051600060405180830381858888f19350505050158015611b0d573d6000803e3d6000fd5b508373ffffffffffffffffffffffffffffffffffffffff166108fc839081150290604051600060405180830381858888f19350505050158015611b54573d6000803e3d6000fd5b506000600660016101000a81548160ff0219169083151502179055508563ffffffff167f0664ed92455dd44f7a47ec3ce1d1c5273869803595a4ae31ddfcca5a53a8ddf38685604051611ba8929190613bbb565b60405180910390a2611bb86124c7565b50505050505050565b600660009054906101000a900460ff1681565b60008054906101000a900473ffffffffffffffffffffffffffffffffffffffff1673ffffffffffffffffffffffffffffffffffffffff163373ffffffffffffffffffffffffffffffffffffffff1614611c2c57600080fd5b80600660006101000a81548160ff02191690831515021790555050565b611c516127fb565b60008261ffff1603611c7d576001600660039054906101000a900461ffff16611c7a9190613be4565b91505b6005805490508261ffff161115611cc9576040517f08c379a0000000000000000000000000000000000000000000000000000000008152600401611cc090613c68565b60405180910390fd5b6005600183611cd89190613c88565b61ffff1681548110611ced57611cec6135e1565b5b90600052602060002090600402016040518060c00160405290816000820160009054906101000a900461ffff1661ffff1661ffff1681526020016000820160029054906101000a900463ffffffff1663ffffffff1663ffffffff1681526020016000820160069054906101000a900473ffffffffffffffffffffffffffffffffffffffff1673ffffffffffffffffffffffffffffffffffffffff1673ffffffffffffffffffffffffffffffffffffffff16815260200160018201548152602001600282015481526020016003820154815250509050919050565b600660029054906101000a900460ff1615611e17576040517f08c379a0000000000000000000000000000000000000000000000000000000008152600401611e0e90613d08565b60405180910390fd5b7f0000000000000000000000000000000000000000000000000000000000000000341015611e7a576040517f08c379a0000000000000000000000000000000000000000000000000000000008152600401611e7190613d74565b60405180910390fd5b60003390506000611e8a8261264c565b9050600381908060018154018082558091505060019003906000526020600020906003020160009091909190915060008201518160000160006101000a81548163ffffffff021916908363ffffffff1602179055506020820151816001015560408201518160020160006101000a81548173ffffffffffffffffffffffffffffffffffffffff021916908373ffffffffffffffffffffffffffffffffffffffff16021790555050508160046000836000015163ffffffff1663ffffffff16815260200190815260200160002060006101000a81548173ffffffffffffffffffffffffffffffffffffffff021916908373ffffffffffffffffffffffffffffffffffffffff160217905550611f9d826126e4565b806040015173ffffffffffffffffffffffffffffffffffffffff16816000015163ffffffff167ff2491f207d3b14775f0a23f6d718076a5c4276564223e3bdf53c17509677c63b60405160405180910390a360016003805490500361209f5762015180600060149054906101000a900460ff1660ff1661201d9190613da3565b62ffffff164261202d9190613de0565b6007819055506001600660039054906101000a900461ffff166120509190613be4565b61ffff167f36225004256a52793dac0657eb20986d62cf4668b7898e3cdada9e4a83a36d33600060149054906101000a900460ff16600754604051612096929190613e36565b60405180910390a25b5050565b600181815481106120b357600080fd5b906000526020600020016000915054906101000a900473ffffffffffffffffffffffffffffffffffffffff1681565b60046020528060005260406000206000915054906101000a900473ffffffffffffffffffffffffffffffffffffffff1681565b60095481565b600660019054906101000a900460ff1681565b6009548214612172576040517f08c379a000000000000000000000000000000000000000000000000000000000815260040161216990613eab565b60405180910390fd5b600081600081518110612188576121876135e1565b5b6020026020010151036121d0576040517f08c379a00000000000000000000000000000000000000000000000000000000081526004016121c790613f17565b60405180910390fd5b6000600380549050826000815181106121ec576121eb6135e1565b5b60200260200101516121fe9190613f37565b9050600060038281548110612216576122156135e1565b5b906000526020600020906003020160000160009054906101000a900463ffffffff16905060006040518060c001604052806001600660039054906101000a900461ffff166122649190613be4565b61ffff1681526020018363ffffffff168152602001600460008563ffffffff1663ffffffff16815260200190815260200160002060009054906101000a900473ffffffffffffffffffffffffffffffffffffffff1673ffffffffffffffffffffffffffffffffffffffff16815260200186815260200142815260200160008152509050600581908060018154018082558091505060019003906000526020600020906004020160009091909190915060008201518160000160006101000a81548161ffff021916908361ffff16021790555060208201518160000160026101000a81548163ffffffff021916908363ffffffff16021790555060408201518160000160066101000a81548173ffffffffffffffffffffffffffffffffffffffff021916908373ffffffffffffffffffffffffffffffffffffffff160217905550606082015181600101556080820151816002015560a082015181600301555050806020015163ffffffff167f24e0c37efef70302949c552e01168c2bb9522236b80cca44c6fcb9a729ad81848260400151604051612402919061347a565b60405180910390a26000600660006101000a81548160ff0219169083151502179055505050505050565b600060019050806009819055506000600167ffffffffffffffff81111561245657612455612a04565b5b6040519080825280602002602001820160405280156124845781602001602082028036833780820191505090505b50905060016003805490506124999190613de0565b816000815181106124ad576124ac6135e1565b5b6020026020010181815250506124c3828261212e565b5050565b60005b6001805490508110156125775760026000600183815481106124ef576124ee6135e1565b5b9060005260206000200160009054906101000a900473ffffffffffffffffffffffffffffffffffffffff1673ffffffffffffffffffffffffffffffffffffffff1673ffffffffffffffffffffffffffffffffffffffff16815260200190815260200160002060006101000a81549060ff0219169055808061256f90613f68565b9150506124ca565b5060016000612586919061288e565b60005b6003805490508110156126205760046000600383815481106125ae576125ad6135e1565b5b906000526020600020906003020160000160009054906101000a900463ffffffff1663ffffffff1663ffffffff16815260200190815260200160002060006101000a81549073ffffffffffffffffffffffffffffffffffffffff0219169055808061261890613f68565b915050612589565b506003600061262f91906128af565b6000600660026101000a81548160ff021916908315150217905550565b612654612851565b60008060009054906101000a900473ffffffffffffffffffffffffffffffffffffffff164260405160200161268a929190614019565b6040516020818303038152906040528051906020012060001c905060405180606001604052808263ffffffff1681526020014281526020018473ffffffffffffffffffffffffffffffffffffffff16815250915050919050565b60011515600260008373ffffffffffffffffffffffffffffffffffffffff1673ffffffffffffffffffffffffffffffffffffffff16815260200190815260200160002060009054906101000a900460ff161515146127f8576001600260008373ffffffffffffffffffffffffffffffffffffffff1673ffffffffffffffffffffffffffffffffffffffff16815260200190815260200160002060006101000a81548160ff0219169083151502179055506001819080600181540180825580915050600190039060005260206000200160009091909190916101000a81548173ffffffffffffffffffffffffffffffffffffffff021916908373ffffffffffffffffffffffffffffffffffffffff1602179055505b50565b6040518060c00160405280600061ffff168152602001600063ffffffff168152602001600073ffffffffffffffffffffffffffffffffffffffff1681526020016000815260200160008152602001600081525090565b6040518060600160405280600063ffffffff16815260200160008152602001600073ffffffffffffffffffffffffffffffffffffffff1681525090565b50805460008255906000526020600020908101906128ac91906128d3565b50565b50805460008255600302906000526020600020908101906128d091906128f0565b50565b5b808211156128ec5760008160009055506001016128d4565b5090565b5b8082111561294957600080820160006101000a81549063ffffffff021916905560018201600090556002820160006101000a81549073ffffffffffffffffffffffffffffffffffffffff0219169055506003016128f1565b5090565b6000604051905090565b600080fd5b600080fd5b6000819050919050565b61297481612961565b811461297f57600080fd5b50565b6000813590506129918161296b565b92915050565b6000602082840312156129ad576129ac612957565b5b60006129bb84828501612982565b91505092915050565b6129cd81612961565b82525050565b60006020820190506129e860008301846129c4565b92915050565b600080fd5b6000601f19601f8301169050919050565b7f4e487b7100000000000000000000000000000000000000000000000000000000600052604160045260246000fd5b612a3c826129f3565b810181811067ffffffffffffffff82111715612a5b57612a5a612a04565b5b80604052505050565b6000612a6e61294d565b9050612a7a8282612a33565b919050565b600067ffffffffffffffff821115612a9a57612a99612a04565b5b602082029050602081019050919050565b600080fd5b6000612ac3612abe84612a7f565b612a64565b90508083825260208201905060208402830185811115612ae657612ae5612aab565b5b835b81811015612b0f5780612afb8882612982565b845260208401935050602081019050612ae8565b5050509392505050565b600082601f830112612b2e57612b2d6129ee565b5b8135612b3e848260208601612ab0565b91505092915050565b60008060408385031215612b5e57612b5d612957565b5b6000612b6c85828601612982565b925050602083013567ffffffffffffffff811115612b8d57612b8c61295c565b5b612b9985828601612b19565b9150509250929050565b60008115159050919050565b612bb881612ba3565b8114612bc357600080fd5b50565b600081359050612bd581612baf565b92915050565b600060208284031215612bf157612bf0612957565b5b6000612bff84828501612bc6565b91505092915050565b600063ffffffff82169050919050565b612c2181612c08565b82525050565b6000602082019050612c3c6000830184612c18565b92915050565b612c4b81612c08565b8114612c5657600080fd5b50565b600081359050612c6881612c42565b92915050565b600060208284031215612c8457612c83612957565b5b6000612c9284828501612c59565b91505092915050565b600081519050919050565b600082825260208201905092915050565b6000819050602082019050919050565b600061ffff82169050919050565b612cde81612cc7565b82525050565b612ced81612c08565b82525050565b600073ffffffffffffffffffffffffffffffffffffffff82169050919050565b6000612d1e82612cf3565b9050919050565b612d2e81612d13565b82525050565b612d3d81612961565b82525050565b60c082016000820151612d596000850182612cd5565b506020820151612d6c6020850182612ce4565b506040820151612d7f6040850182612d25565b506060820151612d926060850182612d34565b506080820151612da56080850182612d34565b5060a0820151612db860a0850182612d34565b50505050565b6000612dca8383612d43565b60c08301905092915050565b6000602082019050919050565b6000612dee82612c9b565b612df88185612ca6565b9350612e0383612cb7565b8060005b83811015612e34578151612e1b8882612dbe565b9750612e2683612dd6565b925050600181019050612e07565b5085935050505092915050565b60006020820190508181036000830152612e5b8184612de3565b905092915050565b612e6c81612d13565b8114612e7757600080fd5b50565b600081359050612e8981612e63565b92915050565b600060208284031215612ea557612ea4612957565b5b6000612eb384828501612e7a565b91505092915050565b612ec581612ba3565b82525050565b6000602082019050612ee06000830184612ebc565b92915050565b600060ff82169050919050565b612efc81612ee6565b8114612f0757600080fd5b50565b600081359050612f1981612ef3565b92915050565b600060208284031215612f3557612f34612957565b5b6000612f4384828501612f0a565b91505092915050565b600081519050919050565b600082825260208201905092915050565b6000819050602082019050919050565b606082016000820151612f8e6000850182612ce4565b506020820151612fa16020850182612d34565b506040820151612fb46040850182612d25565b50505050565b6000612fc68383612f78565b60608301905092915050565b6000602082019050919050565b6000612fea82612f4c565b612ff48185612f57565b9350612fff83612f68565b8060005b838110156130305781516130178882612fba565b975061302283612fd2565b925050600181019050613003565b5085935050505092915050565b600060208201905081810360008301526130578184612fdf565b905092915050565b600080fd5b60008083601f84011261307a576130796129ee565b5b8235905067ffffffffffffffff8111156130975761309661305f565b5b6020830191508360018202830111156130b3576130b2612aab565b5b9250929050565b600080602083850312156130d1576130d0612957565b5b600083013567ffffffffffffffff8111156130ef576130ee61295c565b5b6130fb85828601613064565b92509250509250929050565b61311081612d13565b82525050565b600060608201905061312b6000830186612c18565b61313860208301856129c4565b6131456040830184613107565b949350505050565b600081519050919050565b600082825260208201905092915050565b60005b8381101561318757808201518184015260208101905061316c565b83811115613196576000848401525b50505050565b60006131a78261314d565b6131b18185613158565b93506131c1818560208601613169565b6131ca816129f3565b840191505092915050565b60006040820190506131ea6000830185612ebc565b81810360208301526131fc818461319c565b90509392505050565b61320e81612ee6565b82525050565b60006020820190506132296000830184613205565b92915050565b61323881612cc7565b82525050565b6000602082019050613253600083018461322f565b92915050565b600060c08201905061326e600083018961322f565b61327b6020830188612c18565b6132886040830187613107565b61329560608301866129c4565b6132a260808301856129c4565b6132af60a08301846129c4565b979650505050505050565b600081519050919050565b600082825260208201905092915050565b6000819050602082019050919050565b60006132f28383612d25565b60208301905092915050565b6000602082019050919050565b6000613316826132ba565b61332081856132c5565b935061332b836132d6565b8060005b8381101561335c57815161334388826132e6565b975061334e836132fe565b92505060018101905061332f565b5085935050505092915050565b60006020820190508181036000830152613383818461330b565b905092915050565b61339481612cc7565b811461339f57600080fd5b50565b6000813590506133b18161338b565b92915050565b6000602082840312156133cd576133cc612957565b5b60006133db848285016133a2565b91505092915050565b60c0820160008201516133fa6000850182612cd5565b50602082015161340d6020850182612ce4565b5060408201516134206040850182612d25565b5060608201516134336060850182612d34565b5060808201516134466080850182612d34565b5060a082015161345960a0850182612d34565b50505050565b600060c08201905061347460008301846133e4565b92915050565b600060208201905061348f6000830184613107565b92915050565b600082825260208201905092915050565b7f6f6e6c792056524620563220777261707065722063616e2066756c66696c6c00600082015250565b60006134dc601f83613495565b91506134e7826134a6565b602082019050919050565b6000602082019050818103600083015261350b816134cf565b9050919050565b7f4c696d69742073686f756c642062652067726561746572207468616e20300000600082015250565b6000613548601e83613495565b915061355382613512565b602082019050919050565b600060208201905081810360008301526135778161353b565b9050919050565b7f4e487b7100000000000000000000000000000000000000000000000000000000600052601160045260246000fd5b60006135b882612961565b91506135c383612961565b9250828210156135d6576135d561357e565b5b828203905092915050565b7f4e487b7100000000000000000000000000000000000000000000000000000000600052603260045260246000fd5b600061361b82612ee6565b915061362683612ee6565b9250828210156136395761363861357e565b5b828203905092915050565b600061364f82612ee6565b915060ff82036136625761366161357e565b5b600182019050919050565b600061367882612961565b91506000820361368b5761368a61357e565b5b600182039050919050565b6000815190506136a58161296b565b92915050565b6000602082840312156136c1576136c0612957565b5b60006136cf84828501613696565b91505092915050565b7f4c494e4b2042616c616e63652069732030000000000000000000000000000000600082015250565b600061370e601183613495565b9150613719826136d8565b602082019050919050565b6000602082019050818103600083015261373d81613701565b9050919050565b60006040820190506137596000830185613107565b61376660208301846129c4565b9392505050565b60008151905061377c81612baf565b92915050565b60006020828403121561379857613797612957565b5b60006137a68482850161376d565b91505092915050565b600081905092915050565b82818337600083830152505050565b60006137d583856137af565b93506137e28385846137ba565b82840190509392505050565b60006137fb8284866137c9565b91508190509392505050565b7f4e487b7100000000000000000000000000000000000000000000000000000000600052600160045260246000fd5b7f54686520726f756e6420686173206e6f7420656e646564207965740000000000600082015250565b600061386c601b83613495565b915061387782613836565b602082019050919050565b6000602082019050818103600083015261389b8161385f565b9050919050565b7f5468657265206973206e6f207469636b65747320796574000000000000000000600082015250565b60006138d8601783613495565b91506138e3826138a2565b602082019050919050565b60006020820190508181036000830152613907816138cb565b9050919050565b7f5468652077696e6e657220686173206265656e2064657465726d696e65640000600082015250565b6000613944601e83613495565b915061394f8261390e565b602082019050919050565b6000602082019050818103600083015261397381613937565b9050919050565b7f5468652077696e6e657220686173206e6f74206265656e2064657465726d696e60008201527f6564000000000000000000000000000000000000000000000000000000000000602082015250565b60006139d6602283613495565b91506139e18261397a565b604082019050919050565b60006020820190508181036000830152613a05816139c9565b9050919050565b7f54686520706f7420697320656d70747900000000000000000000000000000000600082015250565b6000613a42601083613495565b9150613a4d82613a0c565b602082019050919050565b60006020820190508181036000830152613a7181613a35565b9050919050565b6000613a8382612cc7565b915061ffff8203613a9757613a9661357e565b5b600182019050919050565b6000613aad82612961565b9150613ab883612961565b9250817fffffffffffffffffffffffffffffffffffffffffffffffffffffffffffffffff0483118215151615613af157613af061357e565b5b828202905092915050565b7f4e487b7100000000000000000000000000000000000000000000000000000000600052601260045260246000fd5b6000613b3682612961565b9150613b4183612961565b925082613b5157613b50613afc565b5b828204905092915050565b6000819050919050565b6000613b81613b7c613b7784612cf3565b613b5c565b612cf3565b9050919050565b6000613b9382613b66565b9050919050565b6000613ba582613b88565b9050919050565b613bb581613b9a565b82525050565b6000604082019050613bd06000830185613bac565b613bdd60208301846129c4565b9392505050565b6000613bef82612cc7565b9150613bfa83612cc7565b92508261ffff03821115613c1157613c1061357e565b5b828201905092915050565b7f5468657265206973206e6f207375636820726f756e6400000000000000000000600082015250565b6000613c52601683613495565b9150613c5d82613c1c565b602082019050919050565b60006020820190508181036000830152613c8181613c45565b9050919050565b6000613c9382612cc7565b9150613c9e83612cc7565b925082821015613cb157613cb061357e565b5b828203905092915050565b7f54686520726f756e64206973206e6f7420696e20706c6179696e67206d6f6465600082015250565b6000613cf2602083613495565b9150613cfd82613cbc565b602082019050919050565b60006020820190508181036000830152613d2181613ce5565b9050919050565b7f56616c75652069732062656c6f77205469636b65742050726963650000000000600082015250565b6000613d5e601b83613495565b9150613d6982613d28565b602082019050919050565b60006020820190508181036000830152613d8d81613d51565b9050919050565b600062ffffff82169050919050565b6000613dae82613d94565b9150613db983613d94565b92508162ffffff0483118215151615613dd557613dd461357e565b5b828202905092915050565b6000613deb82612961565b9150613df683612961565b9250827fffffffffffffffffffffffffffffffffffffffffffffffffffffffffffffffff03821115613e2b57613e2a61357e565b5b828201905092915050565b6000604082019050613e4b6000830185613205565b613e5860208301846129c4565b9392505050565b7f496e76616c696420726571756573740000000000000000000000000000000000600082015250565b6000613e95600f83613495565b9150613ea082613e5f565b602082019050919050565b60006020820190508181036000830152613ec481613e88565b9050919050565b7f50726f626c656d20696e2067657474696e672072616e646f6d6e657373000000600082015250565b6000613f01601d83613495565b9150613f0c82613ecb565b602082019050919050565b60006020820190508181036000830152613f3081613ef4565b9050919050565b6000613f4282612961565b9150613f4d83612961565b925082613f5d57613f5c613afc565b5b828206905092915050565b6000613f7382612961565b91507fffffffffffffffffffffffffffffffffffffffffffffffffffffffffffffffff8203613fa557613fa461357e565b5b600182019050919050565b60008160601b9050919050565b6000613fc882613fb0565b9050919050565b6000613fda82613fbd565b9050919050565b613ff2613fed82612d13565b613fcf565b82525050565b6000819050919050565b61401361400e82612961565b613ff8565b82525050565b60006140258285613fe1565b6014820191506140358284614002565b602082019150819050939250505056fea2646970667358221220e2a92a3af8966f0db332358051a111acafdc9a64c7e464fc322310bf4d61b0ec64736f6c634300080e0033",
  "immutableReferences": {
    "46": [
      {
        "length": 32,
        "start": 3414
      },
      {
        "length": 32,
        "start": 3637
      }
    ],
    "49": [
      {
        "length": 32,
        "start": 2251
      }
    ],
    "294": [
      {
        "length": 32,
        "start": 2215
      },
      {
        "length": 32,
        "start": 7705
      }
    ],
    "298": [
      {
        "length": 32,
        "start": 5465
      },
      {
        "length": 32,
        "start": 6782
      }
    ]
  },
  "source": "// SPDX-License-Identifier: Proprietary\n\npragma solidity ^0.8.11;\n\nimport \"./Dhakon.sol\";\n\ncontract MockDhakon is Dhakon {\n\n    constructor(\n        address _linkAddress, \n        address _wrapperAddress, \n        uint32 _callbackGasLimit,\n        uint _ticketPrice,\n        uint8 _roundDays,\n        uint16 _commissionPct\n    ) Dhakon(\n        _linkAddress, \n        _wrapperAddress, \n        _callbackGasLimit,\n        _ticketPrice,\n        _roundDays,\n        _commissionPct\n    ) {}\n\n    function getRandomNumber() internal override {\n        uint requestId = 1;\n        lastRequestId = requestId;\n        \n        uint256[] memory randomness = new uint[](1);\n        randomness[0] = tickets.length + 1;\n\n        fulfillRandomWords(requestId, randomness);  // select 2nd ticket as the winner\n    }\n\n} ",
  "sourcePath": "/home/adminx/code/dhakon/backend/contracts/Dhakon_mock.sol",
  "compiler": {
    "name": "solc",
    "version": "0.8.14+commit.80d49f37.Emscripten.clang"
  },
  "schemaVersion": "3.4.10",
  "updatedAt": "2022-12-20T09:33:15.883Z",
  "networkType": "ethereum",
  "devdoc": {
    "kind": "dev",
    "methods": {
      "checkUpkeep(bytes)": {
        "details": "To ensure that it is never called, you may want to add the cannotExecute modifier from KeeperBase to your implementation of this method.",
        "params": {
          "checkData": "specified in the upkeep registration so it is always the same for a registered upkeep. This can easily be broken down into specific arguments using `abi.decode`, so multiple upkeeps can be registered on the same contract and easily differentiated by the contract."
        },
        "returns": {
          "performData": "bytes that the keeper should call performUpkeep with, if upkeep is needed. If you would like to encode data to decode later, try `abi.encode`.",
          "upkeepNeeded": "boolean to indicate whether the keeper should call performUpkeep or not."
        }
      },
      "performUpkeep(bytes)": {
        "details": "The input to this method should not be trusted, and the caller of the method should not even be restricted to any single registry. Anyone should be able call it, and the input should be validated, there is no guarantee that the data passed in is the performData returned from checkUpkeep. This could happen due to malicious keepers, racing keepers, or simply a state change while the performUpkeep transaction is waiting for confirmation. Always validate the data passed in.",
        "params": {
          "performData": "is the data which was passed back from the checkData simulation. If it is encoded, it can easily be decoded into other types by calling `abi.decode`. This data should not be trusted, and should be validated against the contract's current state."
        }
      }
    },
    "version": 1
  },
  "userdoc": {
    "kind": "user",
    "methods": {
      "checkUpkeep(bytes)": {
        "notice": "method that is simulated by the keepers to see if any work actually needs to be performed. This method does does not actually need to be executable, and since it is only ever simulated it can consume lots of gas."
      },
      "performUpkeep(bytes)": {
        "notice": "method that is actually executed by the keepers, via the registry. The data returned by the checkUpkeep simulation will be passed into this method to actually be executed."
      }
    },
    "version": 1
  }
}